{
  "_format": "hh-sol-artifact-1",
  "contractName": "MaliciousReceiver",
  "sourceName": "contracts/mocks/MaliciousReceiver.sol",
  "abi": [
    {
      "inputs": [
        {
          "internalType": "address",
          "name": "_targetContract",
          "type": "address"
        }
      ],
      "stateMutability": "nonpayable",
      "type": "constructor"
    },
    {
      "inputs": [
        {
          "internalType": "address",
          "name": "token",
          "type": "address"
        },
        {
          "internalType": "uint256",
          "name": "amount",
          "type": "uint256"
        }
      ],
      "name": "attack",
      "outputs": [],
      "stateMutability": "nonpayable",
      "type": "function"
    },
    {
      "inputs": [],
      "name": "attacking",
      "outputs": [
        {
          "internalType": "bool",
          "name": "",
          "type": "bool"
        }
      ],
      "stateMutability": "view",
      "type": "function"
    },
    {
      "inputs": [
        {
          "internalType": "address",
          "name": "",
          "type": "address"
        },
        {
          "internalType": "address",
          "name": "",
          "type": "address"
        },
        {
          "internalType": "uint256",
          "name": "",
          "type": "uint256"
        },
        {
          "internalType": "bytes",
          "name": "",
          "type": "bytes"
        }
      ],
      "name": "onERC20Received",
      "outputs": [
        {
          "internalType": "bytes4",
          "name": "",
          "type": "bytes4"
        }
      ],
      "stateMutability": "nonpayable",
      "type": "function"
    },
    {
      "inputs": [],
      "name": "targetContract",
      "outputs": [
        {
          "internalType": "contract MevStrategy",
          "name": "",
          "type": "address"
        }
      ],
      "stateMutability": "view",
      "type": "function"
    },
    {
      "stateMutability": "payable",
      "type": "receive"
    }
  ],
  "bytecode": "0x608060405234801561001057600080fd5b506040516105aa3803806105aa83398101604081905261002f91610054565b600080546001600160a01b0319166001600160a01b0392909216919091179055610084565b60006020828403121561006657600080fd5b81516001600160a01b038116811461007d57600080fd5b9392505050565b610517806100936000396000f3fe6080604052600436106100435760003560e01c80633c0bbcd9146100ed5780634fc358591461012357806352fba25c1461015c578063bd90df701461017c57600080fd5b366100e857600054600160a01b900460ff16156100e65760005460405163328e48ab60e11b815273c02aaa39b223fe8d0a0e5c4f27ead9083c756cc26004820181905260016024830152306044830152916001600160a01b03169063651c915690606401600060405180830381600087803b1580156100c157600080fd5b505af19250505080156100d2575060015b6100e4576000805460ff60a01b191690555b505b005b600080fd5b3480156100f957600080fd5b5060005461010e90600160a01b900460ff1681565b60405190151581526020015b60405180910390f35b34801561012f57600080fd5b5061014361013e3660046103f3565b6101b4565b6040516001600160e01b0319909116815260200161011a565b34801561016857600080fd5b506100e661017736600461048e565b610265565b34801561018857600080fd5b5060005461019c906001600160a01b031681565b6040516001600160a01b03909116815260200161011a565b60008054600160a01b900460ff16156102535760005460405163328e48ab60e11b815273c02aaa39b223fe8d0a0e5c4f27ead9083c756cc26004820181905260016024830152306044830152916001600160a01b03169063651c915690606401600060405180830381600087803b15801561022e57600080fd5b505af192505050801561023f575060015b610251576000805460ff60a01b191690555b505b50634fc3585960e01b95945050505050565b6040516323b872dd60e01b8152336004820152306024820152604481018290526001600160a01b038316906323b872dd906064016020604051808303816000875af11580156102b8573d6000803e3d6000fd5b505050506040513d601f19601f820116820180604052508101906102dc91906104b8565b5060005460405163095ea7b360e01b81526001600160a01b039182166004820152602481018390529083169063095ea7b3906044016020604051808303816000875af1158015610330573d6000803e3d6000fd5b505050506040513d601f19601f8201168201806040525081019061035491906104b8565b5060008054600160a01b60ff60a01b1982161790915560405163328e48ab60e11b81526001600160a01b038481166004830152602482018490523060448301529091169063651c915690606401600060405180830381600087803b1580156103bb57600080fd5b505af11580156103cf573d6000803e3d6000fd5b505050505050565b80356001600160a01b03811681146103ee57600080fd5b919050565b60008060008060006080868803121561040b57600080fd5b610414866103d7565b9450610422602087016103d7565b935060408601359250606086013567ffffffffffffffff8082111561044657600080fd5b818801915088601f83011261045a57600080fd5b81358181111561046957600080fd5b89602082850101111561047b57600080fd5b9699959850939650602001949392505050565b600080604083850312156104a157600080fd5b6104aa836103d7565b946020939093013593505050565b6000602082840312156104ca57600080fd5b815180151581146104da57600080fd5b939250505056fea2646970667358221220195ee0409a775cd19263faefa7c82b9d599d9446bcae431ae8a7adffb1c4d7de64736f6c634300080a0033",
  "linkReferences": {},
  "deployedLinkReferences": {}
}