{"contracts/FlashLoanReceiver.sol":{"FlashLoanReceiver":{"abi":[{"inputs":[{"internalType":"address","name":"_owner","type":"address"},{"internalType":"address","name":"_uniswapRouter","type":"address"},{"internalType":"address","name":"_targetPair","type":"address"},{"internalType":"address","name":"_tokenIn","type":"address"},{"internalType":"address","name":"_tokenOut","type":"address"},{"internalType":"uint256","name":"_victimAmount","type":"uint256"},{"internalType":"uint256","name":"_victimMinOut","type":"uint256"}],"stateMutability":"nonpayable","type":"constructor"},{"anonymous":false,"inputs":[{"indexed":true,"internalType":"address","name":"sourcePool","type":"address"},{"indexed":true,"internalType":"address","name":"targetPool","type":"address"},{"indexed":false,"internalType":"address","name":"tokenIn","type":"address"},{"indexed":false,"internalType":"uint256","name":"amountIn","type":"uint256"},{"indexed":false,"internalType":"uint256","name":"profit","type":"uint256"}],"name":"ArbitrageExecuted","type":"event"},{"anonymous":false,"inputs":[{"indexed":true,"internalType":"address","name":"pair","type":"address"},{"indexed":true,"internalType":"address","name":"tokenIn","type":"address"},{"indexed":true,"internalType":"address","name":"tokenOut","type":"address"},{"indexed":false,"internalType":"uint256","name":"amountIn","type":"uint256"},{"indexed":false,"internalType":"uint256","name":"amountOut","type":"uint256"},{"indexed":false,"internalType":"uint256","name":"profit","type":"uint256"}],"name":"BackRunExecuted","type":"event"},{"anonymous":false,"inputs":[{"indexed":true,"internalType":"address","name":"pair","type":"address"},{"indexed":true,"internalType":"address","name":"tokenIn","type":"address"},{"indexed":true,"internalType":"address","name":"tokenOut","type":"address"},{"indexed":false,"internalType":"uint256","name":"amountIn","type":"uint256"},{"indexed":false,"internalType":"uint256","name":"amountOut","type":"uint256"}],"name":"FrontRunExecuted","type":"event"},{"inputs":[{"internalType":"address[]","name":"assets","type":"address[]"},{"internalType":"uint256[]","name":"amounts","type":"uint256[]"},{"internalType":"uint256[]","name":"premiums","type":"uint256[]"},{"internalType":"address","name":"initiator","type":"address"},{"internalType":"bytes","name":"params","type":"bytes"}],"name":"executeOperation","outputs":[{"internalType":"bool","name":"","type":"bool"}],"stateMutability":"nonpayable","type":"function"},{"inputs":[],"name":"owner","outputs":[{"internalType":"address","name":"","type":"address"}],"stateMutability":"view","type":"function"},{"inputs":[{"internalType":"contract IERC20[]","name":"tokens","type":"address[]"},{"internalType":"uint256[]","name":"amounts","type":"uint256[]"},{"internalType":"uint256[]","name":"feeAmounts","type":"uint256[]"},{"internalType":"bytes","name":"userData","type":"bytes"}],"name":"receiveFlashLoan","outputs":[],"stateMutability":"nonpayable","type":"function"},{"inputs":[{"internalType":"address","name":"token","type":"address"}],"name":"recoverTokens","outputs":[],"stateMutability":"nonpayable","type":"function"},{"inputs":[],"name":"strategyCompleted","outputs":[{"internalType":"bool","name":"","type":"bool"}],"stateMutability":"view","type":"function"},{"inputs":[],"name":"targetPair","outputs":[{"internalType":"address","name":"","type":"address"}],"stateMutability":"view","type":"function"},{"inputs":[],"name":"tokenIn","outputs":[{"internalType":"address","name":"","type":"address"}],"stateMutability":"view","type":"function"},{"inputs":[],"name":"tokenOut","outputs":[{"internalType":"address","name":"","type":"address"}],"stateMutability":"view","type":"function"},{"inputs":[],"name":"uniswapRouter","outputs":[{"internalType":"address","name":"","type":"address"}],"stateMutability":"view","type":"function"},{"inputs":[],"name":"victimAmount","outputs":[{"internalType":"uint256","name":"","type":"uint256"}],"stateMutability":"view","type":"function"},{"inputs":[],"name":"victimMinOut","outputs":[{"internalType":"uint256","name":"","type":"uint256"}],"stateMutability":"view","type":"function"}],"evm":{"bytecode":{"linkReferences":{},"object":"60806040523480156200001157600080fd5b5060405162002f9f38038062002f9f8339810160408190526200003491620000c9565b600080546001600160a01b03199081166001600160a01b03998a1617909155600180548216978916979097179096556002805487169588169590951790945560038054861693871693909317909255600480549094169416939093179091556005919091556006556007805460ff191690556200014c565b80516001600160a01b0381168114620000c457600080fd5b919050565b600080600080600080600060e0888a031215620000e557600080fd5b620000f088620000ac565b96506200010060208901620000ac565b95506200011060408901620000ac565b94506200012060608901620000ac565b93506200013060808901620000ac565b925060a0880151915060c0880151905092959891949750929550565b612e43806200015c6000396000f3fe608060405234801561001057600080fd5b50600436106100a95760003560e01c8063920f5c8411610071578063920f5c8414610130578063b81217b914610153578063c6c6c5ab1461015c578063d0202d3b1461016f578063e5d2ab7f14610182578063f04f27071461018f57600080fd5b8063077e9f09146100ae57806316114acd146100ca5780636daf390b146100df578063735de9f71461010a5780638da5cb5b1461011d575b600080fd5b6100b760055481565b6040519081526020015b60405180910390f35b6100dd6100d836600461270f565b6101a2565b005b6003546100f2906001600160a01b031681565b6040516001600160a01b0390911681526020016100c1565b6001546100f2906001600160a01b031681565b6000546100f2906001600160a01b031681565b61014361013e3660046127c1565b6102f1565b60405190151581526020016100c1565b6100b760065481565b6002546100f2906001600160a01b031681565b6004546100f2906001600160a01b031681565b6007546101439060ff1681565b6100dd61019d36600461289c565b6107c2565b6000546001600160a01b031633146102015760405162461bcd60e51b815260206004820152601d60248201527f4f6e6c79206f776e65722063616e207265636f76657220746f6b656e7300000060448201526064015b60405180910390fd5b6040516370a0823160e01b81523060048201526000906001600160a01b038316906370a0823190602401602060405180830381865afa158015610248573d6000803e3d6000fd5b505050506040513d601f19601f8201168201806040525081019061026c9190612960565b905080156102ed5760005460405163a9059cbb60e01b81526001600160a01b038481169263a9059cbb926102a892909116908590600401612979565b6020604051808303816000875af11580156102c7573d6000803e3d6000fd5b505050506040513d601f19601f820116820180604052508101906102eb9190612992565b505b5050565b600080546001600160a01b038581169116146103485760405162461bcd60e51b81526020600482015260166024820152752ab730baba3437b934bd32b21034b734ba34b0ba37b960511b60448201526064016101f8565b60075460ff161561039b5760405162461bcd60e51b815260206004820152601a60248201527f537472617465677920616c726561647920636f6d706c6574656400000000000060448201526064016101f8565b60006103a9838501856129fb565b6040805180820190915260088152670a6829c88ae9286960c31b6020918201528151908201209091507f392eb93b15431fed24df9bba1922ff30a6b9e9ebd22a5c4c61fe780e92be191714156104625761045d8b8b600081811061040f5761040f612a90565b9050602002016020810190610424919061270f565b8a8a600081811061043757610437612a90565b905060200201358989600081811061045157610451612a90565b90506020020135610abd565b6106c6565b60408051808201909152600981526841524249545241474560b81b6020918201528151908201207f6531f762ad9fe1348e5cbc8ce25386420ae7bac169c1795e239d9399e722b73f141561052b5760006104be8486018661270f565b90506105258c8c60008181106104d6576104d6612a90565b90506020020160208101906104eb919061270f565b8b8b60008181106104fe576104fe612a90565b905060200201358a8a600081811061051857610518612a90565b9050602002013584611017565b506106c6565b60408051808201909152600881526704d554c5449484f560c41b6020918201528151908201207f77e816de5a30f937416c4c170d45a22395916fda915af3fbbf1317b9b02bbcd214156105fd576000808061058886880188612b3e565b9250925092506105f58e8e60008181106105a4576105a4612a90565b90506020020160208101906105b9919061270f565b8d8d60008181106105cc576105cc612a90565b905060200201358c8c60008181106105e6576105e6612a90565b905060200201358686866113f5565b5050506106c6565b60408051808201909152600881526710d3d3509253915160c21b6020918201528151908201207f3ee9fab4ce628daedcc8d0cb548e7a5a5122cdaba91e83dcefdd038e7815f79a14156106c65760008061065985870187612c1c565b915091506106c38d8d600081811061067357610673612a90565b9050602002016020810190610688919061270f565b8c8c600081811061069b5761069b612a90565b905060200201358b8b60008181106106b5576106b5612a90565b905060200201358585611aae565b50505b6000878760008181106106db576106db612a90565b905060200201358a8a60008181106106f5576106f5612a90565b905060200201356107069190612c6b565b90508b8b600081811061071b5761071b612a90565b9050602002016020810190610730919061270f565b6001600160a01b031663095ea7b333836040518363ffffffff1660e01b815260040161075d929190612979565b6020604051808303816000875af115801561077c573d6000803e3d6000fd5b505050506040513d601f19601f820116820180604052508101906107a09190612992565b50506007805460ff191660019081179091559150509998505050505050505050565b6001546001600160a01b031633146108125760405162461bcd60e51b81526020600482015260136024820152722ab730baba3437b934bd32b21039b2b73232b960691b60448201526064016101f8565b60075460ff16156108655760405162461bcd60e51b815260206004820152601a60248201527f537472617465677920616c726561647920636f6d706c6574656400000000000060448201526064016101f8565b6000610873828401846129fb565b905060008989600081811061088a5761088a612a90565b905060200201602081019061089f919061270f565b90506000888860008181106108b6576108b6612a90565b9050602002013590506000878760008181106108d4576108d4612a90565b6040805180820190915260088152670a6829c88ae9286960c31b602091820152875188820120910292909201359250507f392eb93b15431fed24df9bba1922ff30a6b9e9ebd22a5c4c61fe780e92be1917141561093b57610936838383610abd565b610a20565b60408051808201909152600981526841524249545241474560b81b6020918201528451908501207f6531f762ad9fe1348e5cbc8ce25386420ae7bac169c1795e239d9399e722b73f14156109ab5760006109978688018861270f565b90506109a584848484611017565b50610a20565b60408051808201909152600881526704d554c5449484f560c41b6020918201528451908501207f77e816de5a30f937416c4c170d45a22395916fda915af3fbbf1317b9b02bbcd21415610a205760008080610a08888a018a612b3e565b925092509250610a1c8686868686866113f5565b5050505b6000610a2c8284612c6b565b60405163095ea7b360e01b81529091506001600160a01b0385169063095ea7b390610a5d9033908590600401612979565b6020604051808303816000875af1158015610a7c573d6000803e3d6000fd5b505050506040513d601f19601f82011682018060405250810190610aa09190612992565b50506007805460ff19166001179055505050505050505050505050565b6003546001600160a01b03848116911614610b0a5760405162461bcd60e51b815260206004820152600d60248201526c24b73b30b634b2103a37b5b2b760991b60448201526064016101f8565b60035460015460405163095ea7b360e01b81526001600160a01b039283169263095ea7b392610b40929116908690600401612979565b6020604051808303816000875af1158015610b5f573d6000803e3d6000fd5b505050506040513d601f19601f82011682018060405250810190610b839190612992565b50604080516002808252606082018352600092602083019080368337505060035482519293506001600160a01b031691839150600090610bc557610bc5612a90565b6001600160a01b039283166020918202929092010152600454825191169082906001908110610bf657610bf6612a90565b6001600160a01b03909216602092830291909101909101526000610c1b600285612c83565b6001549091506000906001600160a01b03166338ed173983838630610c424261012c612c6b565b6040518663ffffffff1660e01b8152600401610c62959493929190612ca5565b6000604051808303816000875af1158015610c81573d6000803e3d6000fd5b505050506040513d6000823e601f3d908101601f19168201604052610ca99190810190612d16565b905060008160018351610cbc9190612da7565b81518110610ccc57610ccc612a90565b602090810291909101810151600454600354600254604080518981529586018590529395506001600160a01b0392831694918316939216917f51c932de59c046c124d6faac1f1e5a1f1ca96af8634e3d30bf0be71819534a5f910160405180910390a460045484516001600160a01b03909116908590600090610d5157610d51612a90565b6001600160a01b039283166020918202929092010152600354855191169085906001908110610d8257610d82612a90565b6001600160a01b0392831660209182029290920101526004805460015460405163095ea7b360e01b81529184169363095ea7b393610dc7939290911691869101612979565b6020604051808303816000875af1158015610de6573d6000803e3d6000fd5b505050506040513d601f19601f82011682018060405250810190610e0a9190612992565b506001546000906001600160a01b03166338ed173983838830610e2f4261012c612c6b565b6040518663ffffffff1660e01b8152600401610e4f959493929190612ca5565b6000604051808303816000875af1158015610e6e573d6000803e3d6000fd5b505050506040513d6000823e601f3d908101601f19168201604052610e969190810190612d16565b905060008160018351610ea99190612da7565b81518110610eb957610eb9612a90565b60200260200101519050600085821115610eda57610ed78683612da7565b90505b87811115610ef357610eec8882612da7565b9050610f33565b60405162461bcd60e51b81526020600482015260156024820152740aadce0e4deccd2e8c2c4d8ca40e6c2dcc8eed2c6d605b1b60448201526064016101f8565b60035460045460025460408051888152602081018790529081018590526001600160a01b039384169392831692909116907fd59dd7ff720795cb90db0eaf4f250c5d745a73628bf936169effbb810ee9a0469060600160405180910390a460035460005460405163a9059cbb60e01b81526001600160a01b039283169263a9059cbb92610fc7929116908590600401612979565b6020604051808303816000875af1158015610fe6573d6000803e3d6000fd5b505050506040513d601f19601f8201168201806040525081019061100a9190612992565b5050505050505050505050565b60025460408051630dfe168160e01b815290516001600160a01b03909216916000918391630dfe1681916004808201926020929091908290030181865afa158015611066573d6000803e3d6000fd5b505050506040513d601f19601f8201168201806040525081019061108a9190612dbe565b90506000826001600160a01b031663d21220a76040518163ffffffff1660e01b8152600401602060405180830381865afa1580156110cc573d6000803e3d6000fd5b505050506040513d601f19601f820116820180604052508101906110f09190612dbe565b90506000826001600160a01b0316886001600160a01b0316146111135782611115565b815b90506000859050886001600160a01b0316816001600160a01b0316630dfe16816040518163ffffffff1660e01b8152600401602060405180830381865afa158015611164573d6000803e3d6000fd5b505050506040513d601f19601f820116820180604052508101906111889190612dbe565b6001600160a01b03161480156112105750816001600160a01b0316816001600160a01b031663d21220a76040518163ffffffff1660e01b8152600401602060405180830381865afa1580156111e1573d6000803e3d6000fd5b505050506040513d601f19601f820116820180604052508101906112059190612dbe565b6001600160a01b0316145b8061130a5750816001600160a01b0316816001600160a01b0316630dfe16816040518163ffffffff1660e01b8152600401602060405180830381865afa15801561125e573d6000803e3d6000fd5b505050506040513d601f19601f820116820180604052508101906112829190612dbe565b6001600160a01b031614801561130a5750886001600160a01b0316816001600160a01b031663d21220a76040518163ffffffff1660e01b8152600401602060405180830381865afa1580156112db573d6000803e3d6000fd5b505050506040513d601f19601f820116820180604052508101906112ff9190612dbe565b6001600160a01b0316145b61134c5760405162461bcd60e51b8152602060048201526013602482015272125b9d985b1a59081d185c99d95d081c1bdbdb606a1b60448201526064016101f8565b60006113598a848b611c16565b905060006113688b8584611dc5565b905060008a8211156113815761137e8b83612da7565b90505b8981111561139a576113938a82612da7565b90506113db565b60405162461bcd60e51b8152602060048201526016602482015275556e70726f66697461626c652061726269747261676560501b60448201526064016101f8565b6113e7898d8d84611ea7565b505050505050505050505050565b6002835110156114475760405162461bcd60e51b815260206004820152601960248201527f4174206c6561737420322070616972732072657175697265640000000000000060448201526064016101f8565b8251611454906001612c6b565b8251146114a35760405162461bcd60e51b815260206004820152601b60248201527f496e76616c696420746f6b656e73206172726179206c656e677468000000000060448201526064016101f8565b82518151146114f45760405162461bcd60e51b815260206004820152601c60248201527f496e76616c696420616d6f756e7473206172726179206c656e6774680000000060448201526064016101f8565b856001600160a01b03168260008151811061151157611511612a90565b60200260200101516001600160a01b03161461157f5760405162461bcd60e51b815260206004820152602760248201527f466972737420746f6b656e206d757374206d6174636820666c617368206c6f6160448201526637103a37b5b2b760c91b60648201526084016101f8565b846000805b85518110156117e75784818151811061159f5761159f612a90565b602090810291909101015160015460405163095ea7b360e01b81526001600160a01b039283169263095ea7b3926115dd929116908790600401612979565b6020604051808303816000875af11580156115fc573d6000803e3d6000fd5b505050506040513d601f19601f820116820180604052508101906116209190612992565b5060408051600280825260608201835260009260208301908036833701905050905085828151811061165457611654612a90565b60200260200101518160008151811061166f5761166f612a90565b6001600160a01b039092166020928302919091019091015285611693836001612c6b565b815181106116a3576116a3612a90565b6020026020010151816001815181106116be576116be612a90565b6001600160a01b0390921660209283029190910190910152600082156116e457846116ff565b8583815181106116f6576116f6612a90565b60200260200101515b6001549091506000906001600160a01b03166338ed1739838386306117264261012c612c6b565b6040518663ffffffff1660e01b8152600401611746959493929190612ca5565b6000604051808303816000875af1158015611765573d6000803e3d6000fd5b505050506040513d6000823e601f3d908101601f1916820160405261178d9190810190612d16565b9050806001825161179e9190612da7565b815181106117ae576117ae612a90565b60200260200101519550600189516117c69190612da7565b8414156117d1578594505b50505080806117df90612ddb565b915050611584565b50845190915081905b8015611a005784818151811061180857611808612a90565b602090810291909101015160015460405163095ea7b360e01b81526001600160a01b039283169263095ea7b392611846929116908790600401612979565b6020604051808303816000875af1158015611865573d6000803e3d6000fd5b505050506040513d601f19601f820116820180604052508101906118899190612992565b506040805160028082526060820183526000926020830190803683370190505090508582815181106118bd576118bd612a90565b6020026020010151816000815181106118d8576118d8612a90565b6001600160a01b0390921660209283029190910190910152856118fc600184612da7565b8151811061190c5761190c612a90565b60200260200101518160018151811061192757611927612a90565b6001600160a01b039283166020918202929092010152600154600091166338ed1739868385306119594261012c612c6b565b6040518663ffffffff1660e01b8152600401611979959493929190612ca5565b6000604051808303816000875af1158015611998573d6000803e3d6000fd5b505050506040513d6000823e601f3d908101601f191682016040526119c09190810190612d16565b905080600182516119d19190612da7565b815181106119e1576119e1612a90565b60200260200101519450505080806119f890612df6565b9150506117f0565b5081600088821115611a1957611a168983612da7565b90505b87811115611a3257611a2b8882612da7565b9050611a7a565b60405162461bcd60e51b815260206004820152601f60248201527f556e70726f66697461626c65206d756c74692d686f702073616e64776963680060448201526064016101f8565b60005460405163a9059cbb60e01b81526001600160a01b038c81169263a9059cbb92610fc792909116908590600401612979565b6000611abb600286612c83565b90506000611ac98287612da7565b90506000611ad78884611f7c565b90506000611ae7898488886122c7565b90506000848311611af9576000611b03565b611b038584612da7565b90506000848311611b15576000611b1f565b611b1f8584612da7565b90506000611b2d8284612c6b565b905089811115611b4857611b418a82612da7565b9050611b90565b60405162461bcd60e51b815260206004820152601e60248201527f556e70726f66697461626c6520636f6d62696e6564207374726174656779000060448201526064016101f8565b60005460405163a9059cbb60e01b81526001600160a01b038e81169263a9059cbb92611bc492909116908590600401612979565b6020604051808303816000875af1158015611be3573d6000803e3d6000fd5b505050506040513d601f19601f82011682018060405250810190611c079190612992565b50505050505050505050505050565b60015460405163095ea7b360e01b81526000916001600160a01b038087169263095ea7b392611c4b9216908690600401612979565b6020604051808303816000875af1158015611c6a573d6000803e3d6000fd5b505050506040513d601f19601f82011682018060405250810190611c8e9190612992565b506040805160028082526060820183526000926020830190803683370190505090508481600081518110611cc457611cc4612a90565b60200260200101906001600160a01b031690816001600160a01b0316815250508381600181518110611cf857611cf8612a90565b6001600160a01b039283166020918202929092010152600154600091166338ed173985838530611d2a4261012c612c6b565b6040518663ffffffff1660e01b8152600401611d4a959493929190612ca5565b6000604051808303816000875af1158015611d69573d6000803e3d6000fd5b505050506040513d6000823e601f3d908101601f19168201604052611d919190810190612d16565b90508060018251611da29190612da7565b81518110611db257611db2612a90565b6020026020010151925050509392505050565b60015460405163095ea7b360e01b81526000916001600160a01b038086169263095ea7b392611dfa9216908690600401612979565b6020604051808303816000875af1158015611e19573d6000803e3d6000fd5b505050506040513d601f19601f82011682018060405250810190611e3d9190612992565b506040805160028082526060820183526000926020830190803683370190505090508381600081518110611e7357611e73612a90565b60200260200101906001600160a01b031690816001600160a01b0316815250508481600181518110611cf857611cf8612a90565b600254604080516001600160a01b038681168252602082018690529181018490528682169291909116907f7a62ec736327d3efaebd2eb5695d0f27201b659e9378d8e83403a64101b6081b9060600160405180910390a360005460405163a9059cbb60e01b81526001600160a01b038581169263a9059cbb92611f3292909116908590600401612979565b6020604051808303816000875af1158015611f51573d6000803e3d6000fd5b505050506040513d601f19601f82011682018060405250810190611f759190612992565b5050505050565b60015460405163095ea7b360e01b81526000916001600160a01b038086169263095ea7b392611fb19216908690600401612979565b6020604051808303816000875af1158015611fd0573d6000803e3d6000fd5b505050506040513d601f19601f82011682018060405250810190611ff49190612992565b50604080516002808252606082018352600092602083019080368337019050509050838160008151811061202a5761202a612a90565b6001600160a01b03928316602091820292909201015260045482519116908290600190811061205b5761205b612a90565b6001600160a01b039283166020918202929092010152600154600091166338ed17398583853061208d4261012c612c6b565b6040518663ffffffff1660e01b81526004016120ad959493929190612ca5565b6000604051808303816000875af11580156120cc573d6000803e3d6000fd5b505050506040513d6000823e601f3d908101601f191682016040526120f49190810190612d16565b9050600081600183516121079190612da7565b8151811061211757612117612a90565b60200260200101519050600460009054906101000a90046001600160a01b03168360008151811061214a5761214a612a90565b60200260200101906001600160a01b031690816001600160a01b031681525050858360018151811061217e5761217e612a90565b6001600160a01b0392831660209182029290920101526004805460015460405163095ea7b360e01b81529184169363095ea7b3936121c3939290911691869101612979565b6020604051808303816000875af11580156121e2573d6000803e3d6000fd5b505050506040513d601f19601f820116820180604052508101906122069190612992565b506001546000906001600160a01b03166338ed17398383873061222b4261012c612c6b565b6040518663ffffffff1660e01b815260040161224b959493929190612ca5565b6000604051808303816000875af115801561226a573d6000803e3d6000fd5b505050506040513d6000823e601f3d908101601f191682016040526122929190810190612d16565b905080600182516122a39190612da7565b815181106122b3576122b3612a90565b602002602001015194505050505092915050565b6000808390506000816001600160a01b0316630dfe16816040518163ffffffff1660e01b8152600401602060405180830381865afa15801561230d573d6000803e3d6000fd5b505050506040513d601f19601f820116820180604052508101906123319190612dbe565b90506000826001600160a01b031663d21220a76040518163ffffffff1660e01b8152600401602060405180830381865afa158015612373573d6000803e3d6000fd5b505050506040513d601f19601f820116820180604052508101906123979190612dbe565b90506000826001600160a01b0316896001600160a01b0316146123ba57826123bc565b815b60015460405163095ea7b360e01b81529192506001600160a01b03808c169263095ea7b3926123f19216908c90600401612979565b6020604051808303816000875af1158015612410573d6000803e3d6000fd5b505050506040513d601f19601f820116820180604052508101906124349190612992565b50604080516002808252606082018352600092602083019080368337019050509050898160008151811061246a5761246a612a90565b60200260200101906001600160a01b031690816001600160a01b031681525050818160018151811061249e5761249e612a90565b6001600160a01b039283166020918202929092010152600154600091166338ed17398b8385306124d04261012c612c6b565b6040518663ffffffff1660e01b81526004016124f0959493929190612ca5565b6000604051808303816000875af115801561250f573d6000803e3d6000fd5b505050506040513d6000823e601f3d908101601f191682016040526125379190810190612d16565b90506000816001835161254a9190612da7565b8151811061255a5761255a612a90565b60200260200101519050838360008151811061257857612578612a90565b60200260200101906001600160a01b031690816001600160a01b0316815250508b836001815181106125ac576125ac612a90565b6001600160a01b03928316602091820292909201015260015460405163095ea7b360e01b81528683169263095ea7b3926125ed929116908590600401612979565b6020604051808303816000875af115801561260c573d6000803e3d6000fd5b505050506040513d601f19601f820116820180604052508101906126309190612992565b506001546000906001600160a01b03166338ed1739838387306126554261012c612c6b565b6040518663ffffffff1660e01b8152600401612675959493929190612ca5565b6000604051808303816000875af1158015612694573d6000803e3d6000fd5b505050506040513d6000823e601f3d908101601f191682016040526126bc9190810190612d16565b905080600182516126cd9190612da7565b815181106126dd576126dd612a90565b602002602001015198505050505050505050949350505050565b6001600160a01b038116811461270c57600080fd5b50565b60006020828403121561272157600080fd5b813561272c816126f7565b9392505050565b60008083601f84011261274557600080fd5b50813567ffffffffffffffff81111561275d57600080fd5b6020830191508360208260051b850101111561277857600080fd5b9250929050565b60008083601f84011261279157600080fd5b50813567ffffffffffffffff8111156127a957600080fd5b60208301915083602082850101111561277857600080fd5b600080600080600080600080600060a08a8c0312156127df57600080fd5b893567ffffffffffffffff808211156127f757600080fd5b6128038d838e01612733565b909b50995060208c013591508082111561281c57600080fd5b6128288d838e01612733565b909950975060408c013591508082111561284157600080fd5b61284d8d838e01612733565b909750955060608c01359150612862826126f7565b90935060808b0135908082111561287857600080fd5b506128858c828d0161277f565b915080935050809150509295985092959850929598565b6000806000806000806000806080898b0312156128b857600080fd5b883567ffffffffffffffff808211156128d057600080fd5b6128dc8c838d01612733565b909a50985060208b01359150808211156128f557600080fd5b6129018c838d01612733565b909850965060408b013591508082111561291a57600080fd5b6129268c838d01612733565b909650945060608b013591508082111561293f57600080fd5b5061294c8b828c0161277f565b999c989b5096995094979396929594505050565b60006020828403121561297257600080fd5b5051919050565b6001600160a01b03929092168252602082015260400190565b6000602082840312156129a457600080fd5b8151801515811461272c57600080fd5b634e487b7160e01b600052604160045260246000fd5b604051601f8201601f1916810167ffffffffffffffff811182821017156129f3576129f36129b4565b604052919050565b60006020808385031215612a0e57600080fd5b823567ffffffffffffffff80821115612a2657600080fd5b818501915085601f830112612a3a57600080fd5b813581811115612a4c57612a4c6129b4565b612a5e601f8201601f191685016129ca565b91508082528684828501011115612a7457600080fd5b8084840185840137600090820190930192909252509392505050565b634e487b7160e01b600052603260045260246000fd5b600067ffffffffffffffff821115612ac057612ac06129b4565b5060051b60200190565b600082601f830112612adb57600080fd5b81356020612af0612aeb83612aa6565b6129ca565b82815260059290921b84018101918181019086841115612b0f57600080fd5b8286015b84811015612b33578035612b26816126f7565b8352918301918301612b13565b509695505050505050565b600080600060608486031215612b5357600080fd5b833567ffffffffffffffff80821115612b6b57600080fd5b612b7787838801612aca565b9450602091508186013581811115612b8e57600080fd5b612b9a88828901612aca565b945050604086013581811115612baf57600080fd5b86019050601f81018713612bc257600080fd5b8035612bd0612aeb82612aa6565b81815260059190911b82018301908381019089831115612bef57600080fd5b928401925b82841015612c0d57833582529284019290840190612bf4565b80955050505050509250925092565b60008060408385031215612c2f57600080fd5b8235612c3a816126f7565b91506020830135612c4a816126f7565b809150509250929050565b634e487b7160e01b600052601160045260246000fd5b60008219821115612c7e57612c7e612c55565b500190565b600082612ca057634e487b7160e01b600052601260045260246000fd5b500490565b600060a082018783526020878185015260a0604085015281875180845260c086019150828901935060005b81811015612cf55784516001600160a01b031683529383019391830191600101612cd0565b50506001600160a01b03969096166060850152505050608001529392505050565b60006020808385031215612d2957600080fd5b825167ffffffffffffffff811115612d4057600080fd5b8301601f81018513612d5157600080fd5b8051612d5f612aeb82612aa6565b81815260059190911b82018301908381019087831115612d7e57600080fd5b928401925b82841015612d9c57835182529284019290840190612d83565b979650505050505050565b600082821015612db957612db9612c55565b500390565b600060208284031215612dd057600080fd5b815161272c816126f7565b6000600019821415612def57612def612c55565b5060010190565b600081612e0557612e05612c55565b50600019019056fea2646970667358221220d30ddbb404aff6b0beffa118e52eabefc5a98aaf3a9014e09e03bc93a7825ee364736f6c634300080a0033","opcodes":"PUSH1 0x80 PUSH1 0x40 MSTORE CALLVALUE DUP1 ISZERO PUSH3 0x11 JUMPI PUSH1 0x0 DUP1 REVERT JUMPDEST POP PUSH1 0x40 MLOAD PUSH3 0x2F9F CODESIZE SUB DUP1 PUSH3 0x2F9F DUP4 CODECOPY DUP2 ADD PUSH1 0x40 DUP2 SWAP1 MSTORE PUSH3 0x34 SWAP2 PUSH3 0xC9 JUMP JUMPDEST PUSH1 0x0 DUP1 SLOAD PUSH1 0x1 PUSH1 0x1 PUSH1 0xA0 SHL SUB NOT SWAP1 DUP2 AND PUSH1 0x1 PUSH1 0x1 PUSH1 0xA0 SHL SUB SWAP10 DUP11 AND OR SWAP1 SWAP2 SSTORE PUSH1 0x1 DUP1 SLOAD DUP3 AND SWAP8 DUP10 AND SWAP8 SWAP1 SWAP8 OR SWAP1 SWAP7 SSTORE PUSH1 0x2 DUP1 SLOAD DUP8 AND SWAP6 DUP9 AND SWAP6 SWAP1 SWAP6 OR SWAP1 SWAP5 SSTORE PUSH1 0x3 DUP1 SLOAD DUP7 AND SWAP4 DUP8 AND SWAP4 SWAP1 SWAP4 OR SWAP1 SWAP3 SSTORE PUSH1 0x4 DUP1 SLOAD SWAP1 SWAP5 AND SWAP5 AND SWAP4 SWAP1 SWAP4 OR SWAP1 SWAP2 SSTORE PUSH1 0x5 SWAP2 SWAP1 SWAP2 SSTORE PUSH1 0x6 SSTORE PUSH1 0x7 DUP1 SLOAD PUSH1 0xFF NOT AND SWAP1 SSTORE PUSH3 0x14C JUMP JUMPDEST DUP1 MLOAD PUSH1 0x1 PUSH1 0x1 PUSH1 0xA0 SHL SUB DUP2 AND DUP2 EQ PUSH3 0xC4 JUMPI PUSH1 0x0 DUP1 REVERT JUMPDEST SWAP2 SWAP1 POP JUMP JUMPDEST PUSH1 0x0 DUP1 PUSH1 0x0 DUP1 PUSH1 0x0 DUP1 PUSH1 0x0 PUSH1 0xE0 DUP9 DUP11 SUB SLT ISZERO PUSH3 0xE5 JUMPI PUSH1 0x0 DUP1 REVERT JUMPDEST PUSH3 0xF0 DUP9 PUSH3 0xAC JUMP JUMPDEST SWAP7 POP PUSH3 0x100 PUSH1 0x20 DUP10 ADD PUSH3 0xAC JUMP JUMPDEST SWAP6 POP PUSH3 0x110 PUSH1 0x40 DUP10 ADD PUSH3 0xAC JUMP JUMPDEST SWAP5 POP PUSH3 0x120 PUSH1 0x60 DUP10 ADD PUSH3 0xAC JUMP JUMPDEST SWAP4 POP PUSH3 0x130 PUSH1 0x80 DUP10 ADD PUSH3 0xAC JUMP JUMPDEST SWAP3 POP PUSH1 0xA0 DUP9 ADD MLOAD SWAP2 POP PUSH1 0xC0 DUP9 ADD MLOAD SWAP1 POP SWAP3 SWAP6 SWAP9 SWAP2 SWAP5 SWAP8 POP SWAP3 SWAP6 POP JUMP JUMPDEST PUSH2 0x2E43 DUP1 PUSH3 0x15C PUSH1 0x0 CODECOPY PUSH1 0x0 RETURN INVALID PUSH1 0x80 PUSH1 0x40 MSTORE CALLVALUE DUP1 ISZERO PUSH2 0x10 JUMPI PUSH1 0x0 DUP1 REVERT JUMPDEST POP PUSH1 0x4 CALLDATASIZE LT PUSH2 0xA9 JUMPI PUSH1 0x0 CALLDATALOAD PUSH1 0xE0 SHR DUP1 PUSH4 0x920F5C84 GT PUSH2 0x71 JUMPI DUP1 PUSH4 0x920F5C84 EQ PUSH2 0x130 JUMPI DUP1 PUSH4 0xB81217B9 EQ PUSH2 0x153 JUMPI DUP1 PUSH4 0xC6C6C5AB EQ PUSH2 0x15C JUMPI DUP1 PUSH4 0xD0202D3B EQ PUSH2 0x16F JUMPI DUP1 PUSH4 0xE5D2AB7F EQ PUSH2 0x182 JUMPI DUP1 PUSH4 0xF04F2707 EQ PUSH2 0x18F JUMPI PUSH1 0x0 DUP1 REVERT JUMPDEST DUP1 PUSH4 0x77E9F09 EQ PUSH2 0xAE JUMPI DUP1 PUSH4 0x16114ACD EQ PUSH2 0xCA JUMPI DUP1 PUSH4 0x6DAF390B EQ PUSH2 0xDF JUMPI DUP1 PUSH4 0x735DE9F7 EQ PUSH2 0x10A JUMPI DUP1 PUSH4 0x8DA5CB5B EQ PUSH2 0x11D JUMPI JUMPDEST PUSH1 0x0 DUP1 REVERT JUMPDEST PUSH2 0xB7 PUSH1 0x5 SLOAD DUP2 JUMP JUMPDEST PUSH1 0x40 MLOAD SWAP1 DUP2 MSTORE PUSH1 0x20 ADD JUMPDEST PUSH1 0x40 MLOAD DUP1 SWAP2 SUB SWAP1 RETURN JUMPDEST PUSH2 0xDD PUSH2 0xD8 CALLDATASIZE PUSH1 0x4 PUSH2 0x270F JUMP JUMPDEST PUSH2 0x1A2 JUMP JUMPDEST STOP JUMPDEST PUSH1 0x3 SLOAD PUSH2 0xF2 SWAP1 PUSH1 0x1 PUSH1 0x1 PUSH1 0xA0 SHL SUB AND DUP2 JUMP JUMPDEST PUSH1 0x40 MLOAD PUSH1 0x1 PUSH1 0x1 PUSH1 0xA0 SHL SUB SWAP1 SWAP2 AND DUP2 MSTORE PUSH1 0x20 ADD PUSH2 0xC1 JUMP JUMPDEST PUSH1 0x1 SLOAD PUSH2 0xF2 SWAP1 PUSH1 0x1 PUSH1 0x1 PUSH1 0xA0 SHL SUB AND DUP2 JUMP JUMPDEST PUSH1 0x0 SLOAD PUSH2 0xF2 SWAP1 PUSH1 0x1 PUSH1 0x1 PUSH1 0xA0 SHL SUB AND DUP2 JUMP JUMPDEST PUSH2 0x143 PUSH2 0x13E CALLDATASIZE PUSH1 0x4 PUSH2 0x27C1 JUMP JUMPDEST PUSH2 0x2F1 JUMP JUMPDEST PUSH1 0x40 MLOAD SWAP1 ISZERO ISZERO DUP2 MSTORE PUSH1 0x20 ADD PUSH2 0xC1 JUMP JUMPDEST PUSH2 0xB7 PUSH1 0x6 SLOAD DUP2 JUMP JUMPDEST PUSH1 0x2 SLOAD PUSH2 0xF2 SWAP1 PUSH1 0x1 PUSH1 0x1 PUSH1 0xA0 SHL SUB AND DUP2 JUMP JUMPDEST PUSH1 0x4 SLOAD PUSH2 0xF2 SWAP1 PUSH1 0x1 PUSH1 0x1 PUSH1 0xA0 SHL SUB AND DUP2 JUMP JUMPDEST PUSH1 0x7 SLOAD PUSH2 0x143 SWAP1 PUSH1 0xFF AND DUP2 JUMP JUMPDEST PUSH2 0xDD PUSH2 0x19D CALLDATASIZE PUSH1 0x4 PUSH2 0x289C JUMP JUMPDEST PUSH2 0x7C2 JUMP JUMPDEST PUSH1 0x0 SLOAD PUSH1 0x1 PUSH1 0x1 PUSH1 0xA0 SHL SUB AND CALLER EQ PUSH2 0x201 JUMPI PUSH1 0x40 MLOAD PUSH3 0x461BCD PUSH1 0xE5 SHL DUP2 MSTORE PUSH1 0x20 PUSH1 0x4 DUP3 ADD MSTORE PUSH1 0x1D PUSH1 0x24 DUP3 ADD MSTORE PUSH32 0x4F6E6C79206F776E65722063616E207265636F76657220746F6B656E73000000 PUSH1 0x44 DUP3 ADD MSTORE PUSH1 0x64 ADD JUMPDEST PUSH1 0x40 MLOAD DUP1 SWAP2 SUB SWAP1 REVERT JUMPDEST PUSH1 0x40 MLOAD PUSH4 0x70A08231 PUSH1 0xE0 SHL DUP2 MSTORE ADDRESS PUSH1 0x4 DUP3 ADD MSTORE PUSH1 0x0 SWAP1 PUSH1 0x1 PUSH1 0x1 PUSH1 0xA0 SHL SUB DUP4 AND SWAP1 PUSH4 0x70A08231 SWAP1 PUSH1 0x24 ADD PUSH1 0x20 PUSH1 0x40 MLOAD DUP1 DUP4 SUB DUP2 DUP7 GAS STATICCALL ISZERO DUP1 ISZERO PUSH2 0x248 JUMPI RETURNDATASIZE PUSH1 0x0 DUP1 RETURNDATACOPY RETURNDATASIZE PUSH1 0x0 REVERT JUMPDEST POP POP POP POP PUSH1 0x40 MLOAD RETURNDATASIZE PUSH1 0x1F NOT PUSH1 0x1F DUP3 ADD AND DUP3 ADD DUP1 PUSH1 0x40 MSTORE POP DUP2 ADD SWAP1 PUSH2 0x26C SWAP2 SWAP1 PUSH2 0x2960 JUMP JUMPDEST SWAP1 POP DUP1 ISZERO PUSH2 0x2ED JUMPI PUSH1 0x0 SLOAD PUSH1 0x40 MLOAD PUSH4 0xA9059CBB PUSH1 0xE0 SHL DUP2 MSTORE PUSH1 0x1 PUSH1 0x1 PUSH1 0xA0 SHL SUB DUP5 DUP2 AND SWAP3 PUSH4 0xA9059CBB SWAP3 PUSH2 0x2A8 SWAP3 SWAP1 SWAP2 AND SWAP1 DUP6 SWAP1 PUSH1 0x4 ADD PUSH2 0x2979 JUMP JUMPDEST PUSH1 0x20 PUSH1 0x40 MLOAD DUP1 DUP4 SUB DUP2 PUSH1 0x0 DUP8 GAS CALL ISZERO DUP1 ISZERO PUSH2 0x2C7 JUMPI RETURNDATASIZE PUSH1 0x0 DUP1 RETURNDATACOPY RETURNDATASIZE PUSH1 0x0 REVERT JUMPDEST POP POP POP POP PUSH1 0x40 MLOAD RETURNDATASIZE PUSH1 0x1F NOT PUSH1 0x1F DUP3 ADD AND DUP3 ADD DUP1 PUSH1 0x40 MSTORE POP DUP2 ADD SWAP1 PUSH2 0x2EB SWAP2 SWAP1 PUSH2 0x2992 JUMP JUMPDEST POP JUMPDEST POP POP JUMP JUMPDEST PUSH1 0x0 DUP1 SLOAD PUSH1 0x1 PUSH1 0x1 PUSH1 0xA0 SHL SUB DUP6 DUP2 AND SWAP2 AND EQ PUSH2 0x348 JUMPI PUSH1 0x40 MLOAD PUSH3 0x461BCD PUSH1 0xE5 SHL DUP2 MSTORE PUSH1 0x20 PUSH1 0x4 DUP3 ADD MSTORE PUSH1 0x16 PUSH1 0x24 DUP3 ADD MSTORE PUSH22 0x2AB730BABA3437B934BD32B21034B734BA34B0BA37B9 PUSH1 0x51 SHL PUSH1 0x44 DUP3 ADD MSTORE PUSH1 0x64 ADD PUSH2 0x1F8 JUMP JUMPDEST PUSH1 0x7 SLOAD PUSH1 0xFF AND ISZERO PUSH2 0x39B JUMPI PUSH1 0x40 MLOAD PUSH3 0x461BCD PUSH1 0xE5 SHL DUP2 MSTORE PUSH1 0x20 PUSH1 0x4 DUP3 ADD MSTORE PUSH1 0x1A PUSH1 0x24 DUP3 ADD MSTORE PUSH32 0x537472617465677920616C726561647920636F6D706C65746564000000000000 PUSH1 0x44 DUP3 ADD MSTORE PUSH1 0x64 ADD PUSH2 0x1F8 JUMP JUMPDEST PUSH1 0x0 PUSH2 0x3A9 DUP4 DUP6 ADD DUP6 PUSH2 0x29FB JUMP JUMPDEST PUSH1 0x40 DUP1 MLOAD DUP1 DUP3 ADD SWAP1 SWAP2 MSTORE PUSH1 0x8 DUP2 MSTORE PUSH8 0xA6829C88AE92869 PUSH1 0xC3 SHL PUSH1 0x20 SWAP2 DUP3 ADD MSTORE DUP2 MLOAD SWAP1 DUP3 ADD KECCAK256 SWAP1 SWAP2 POP PUSH32 0x392EB93B15431FED24DF9BBA1922FF30A6B9E9EBD22A5C4C61FE780E92BE1917 EQ ISZERO PUSH2 0x462 JUMPI PUSH2 0x45D DUP12 DUP12 PUSH1 0x0 DUP2 DUP2 LT PUSH2 0x40F JUMPI PUSH2 0x40F PUSH2 0x2A90 JUMP JUMPDEST SWAP1 POP PUSH1 0x20 MUL ADD PUSH1 0x20 DUP2 ADD SWAP1 PUSH2 0x424 SWAP2 SWAP1 PUSH2 0x270F JUMP JUMPDEST DUP11 DUP11 PUSH1 0x0 DUP2 DUP2 LT PUSH2 0x437 JUMPI PUSH2 0x437 PUSH2 0x2A90 JUMP JUMPDEST SWAP1 POP PUSH1 0x20 MUL ADD CALLDATALOAD DUP10 DUP10 PUSH1 0x0 DUP2 DUP2 LT PUSH2 0x451 JUMPI PUSH2 0x451 PUSH2 0x2A90 JUMP JUMPDEST SWAP1 POP PUSH1 0x20 MUL ADD CALLDATALOAD PUSH2 0xABD JUMP JUMPDEST PUSH2 0x6C6 JUMP JUMPDEST PUSH1 0x40 DUP1 MLOAD DUP1 DUP3 ADD SWAP1 SWAP2 MSTORE PUSH1 0x9 DUP2 MSTORE PUSH9 0x415242495452414745 PUSH1 0xB8 SHL PUSH1 0x20 SWAP2 DUP3 ADD MSTORE DUP2 MLOAD SWAP1 DUP3 ADD KECCAK256 PUSH32 0x6531F762AD9FE1348E5CBC8CE25386420AE7BAC169C1795E239D9399E722B73F EQ ISZERO PUSH2 0x52B JUMPI PUSH1 0x0 PUSH2 0x4BE DUP5 DUP7 ADD DUP7 PUSH2 0x270F JUMP JUMPDEST SWAP1 POP PUSH2 0x525 DUP13 DUP13 PUSH1 0x0 DUP2 DUP2 LT PUSH2 0x4D6 JUMPI PUSH2 0x4D6 PUSH2 0x2A90 JUMP JUMPDEST SWAP1 POP PUSH1 0x20 MUL ADD PUSH1 0x20 DUP2 ADD SWAP1 PUSH2 0x4EB SWAP2 SWAP1 PUSH2 0x270F JUMP JUMPDEST DUP12 DUP12 PUSH1 0x0 DUP2 DUP2 LT PUSH2 0x4FE JUMPI PUSH2 0x4FE PUSH2 0x2A90 JUMP JUMPDEST SWAP1 POP PUSH1 0x20 MUL ADD CALLDATALOAD DUP11 DUP11 PUSH1 0x0 DUP2 DUP2 LT PUSH2 0x518 JUMPI PUSH2 0x518 PUSH2 0x2A90 JUMP JUMPDEST SWAP1 POP PUSH1 0x20 MUL ADD CALLDATALOAD DUP5 PUSH2 0x1017 JUMP JUMPDEST POP PUSH2 0x6C6 JUMP JUMPDEST PUSH1 0x40 DUP1 MLOAD DUP1 DUP3 ADD SWAP1 SWAP2 MSTORE PUSH1 0x8 DUP2 MSTORE PUSH8 0x4D554C5449484F5 PUSH1 0xC4 SHL PUSH1 0x20 SWAP2 DUP3 ADD MSTORE DUP2 MLOAD SWAP1 DUP3 ADD KECCAK256 PUSH32 0x77E816DE5A30F937416C4C170D45A22395916FDA915AF3FBBF1317B9B02BBCD2 EQ ISZERO PUSH2 0x5FD JUMPI PUSH1 0x0 DUP1 DUP1 PUSH2 0x588 DUP7 DUP9 ADD DUP9 PUSH2 0x2B3E JUMP JUMPDEST SWAP3 POP SWAP3 POP SWAP3 POP PUSH2 0x5F5 DUP15 DUP15 PUSH1 0x0 DUP2 DUP2 LT PUSH2 0x5A4 JUMPI PUSH2 0x5A4 PUSH2 0x2A90 JUMP JUMPDEST SWAP1 POP PUSH1 0x20 MUL ADD PUSH1 0x20 DUP2 ADD SWAP1 PUSH2 0x5B9 SWAP2 SWAP1 PUSH2 0x270F JUMP JUMPDEST DUP14 DUP14 PUSH1 0x0 DUP2 DUP2 LT PUSH2 0x5CC JUMPI PUSH2 0x5CC PUSH2 0x2A90 JUMP JUMPDEST SWAP1 POP PUSH1 0x20 MUL ADD CALLDATALOAD DUP13 DUP13 PUSH1 0x0 DUP2 DUP2 LT PUSH2 0x5E6 JUMPI PUSH2 0x5E6 PUSH2 0x2A90 JUMP JUMPDEST SWAP1 POP PUSH1 0x20 MUL ADD CALLDATALOAD DUP7 DUP7 DUP7 PUSH2 0x13F5 JUMP JUMPDEST POP POP POP PUSH2 0x6C6 JUMP JUMPDEST PUSH1 0x40 DUP1 MLOAD DUP1 DUP3 ADD SWAP1 SWAP2 MSTORE PUSH1 0x8 DUP2 MSTORE PUSH8 0x10D3D35092539151 PUSH1 0xC2 SHL PUSH1 0x20 SWAP2 DUP3 ADD MSTORE DUP2 MLOAD SWAP1 DUP3 ADD KECCAK256 PUSH32 0x3EE9FAB4CE628DAEDCC8D0CB548E7A5A5122CDABA91E83DCEFDD038E7815F79A EQ ISZERO PUSH2 0x6C6 JUMPI PUSH1 0x0 DUP1 PUSH2 0x659 DUP6 DUP8 ADD DUP8 PUSH2 0x2C1C JUMP JUMPDEST SWAP2 POP SWAP2 POP PUSH2 0x6C3 DUP14 DUP14 PUSH1 0x0 DUP2 DUP2 LT PUSH2 0x673 JUMPI PUSH2 0x673 PUSH2 0x2A90 JUMP JUMPDEST SWAP1 POP PUSH1 0x20 MUL ADD PUSH1 0x20 DUP2 ADD SWAP1 PUSH2 0x688 SWAP2 SWAP1 PUSH2 0x270F JUMP JUMPDEST DUP13 DUP13 PUSH1 0x0 DUP2 DUP2 LT PUSH2 0x69B JUMPI PUSH2 0x69B PUSH2 0x2A90 JUMP JUMPDEST SWAP1 POP PUSH1 0x20 MUL ADD CALLDATALOAD DUP12 DUP12 PUSH1 0x0 DUP2 DUP2 LT PUSH2 0x6B5 JUMPI PUSH2 0x6B5 PUSH2 0x2A90 JUMP JUMPDEST SWAP1 POP PUSH1 0x20 MUL ADD CALLDATALOAD DUP6 DUP6 PUSH2 0x1AAE JUMP JUMPDEST POP POP JUMPDEST PUSH1 0x0 DUP8 DUP8 PUSH1 0x0 DUP2 DUP2 LT PUSH2 0x6DB JUMPI PUSH2 0x6DB PUSH2 0x2A90 JUMP JUMPDEST SWAP1 POP PUSH1 0x20 MUL ADD CALLDATALOAD DUP11 DUP11 PUSH1 0x0 DUP2 DUP2 LT PUSH2 0x6F5 JUMPI PUSH2 0x6F5 PUSH2 0x2A90 JUMP JUMPDEST SWAP1 POP PUSH1 0x20 MUL ADD CALLDATALOAD PUSH2 0x706 SWAP2 SWAP1 PUSH2 0x2C6B JUMP JUMPDEST SWAP1 POP DUP12 DUP12 PUSH1 0x0 DUP2 DUP2 LT PUSH2 0x71B JUMPI PUSH2 0x71B PUSH2 0x2A90 JUMP JUMPDEST SWAP1 POP PUSH1 0x20 MUL ADD PUSH1 0x20 DUP2 ADD SWAP1 PUSH2 0x730 SWAP2 SWAP1 PUSH2 0x270F JUMP JUMPDEST PUSH1 0x1 PUSH1 0x1 PUSH1 0xA0 SHL SUB AND PUSH4 0x95EA7B3 CALLER DUP4 PUSH1 0x40 MLOAD DUP4 PUSH4 0xFFFFFFFF AND PUSH1 0xE0 SHL DUP2 MSTORE PUSH1 0x4 ADD PUSH2 0x75D SWAP3 SWAP2 SWAP1 PUSH2 0x2979 JUMP JUMPDEST PUSH1 0x20 PUSH1 0x40 MLOAD DUP1 DUP4 SUB DUP2 PUSH1 0x0 DUP8 GAS CALL ISZERO DUP1 ISZERO PUSH2 0x77C JUMPI RETURNDATASIZE PUSH1 0x0 DUP1 RETURNDATACOPY RETURNDATASIZE PUSH1 0x0 REVERT JUMPDEST POP POP POP POP PUSH1 0x40 MLOAD RETURNDATASIZE PUSH1 0x1F NOT PUSH1 0x1F DUP3 ADD AND DUP3 ADD DUP1 PUSH1 0x40 MSTORE POP DUP2 ADD SWAP1 PUSH2 0x7A0 SWAP2 SWAP1 PUSH2 0x2992 JUMP JUMPDEST POP POP PUSH1 0x7 DUP1 SLOAD PUSH1 0xFF NOT AND PUSH1 0x1 SWAP1 DUP2 OR SWAP1 SWAP2 SSTORE SWAP2 POP POP SWAP10 SWAP9 POP POP POP POP POP POP POP POP POP JUMP JUMPDEST PUSH1 0x1 SLOAD PUSH1 0x1 PUSH1 0x1 PUSH1 0xA0 SHL SUB AND CALLER EQ PUSH2 0x812 JUMPI PUSH1 0x40 MLOAD PUSH3 0x461BCD PUSH1 0xE5 SHL DUP2 MSTORE PUSH1 0x20 PUSH1 0x4 DUP3 ADD MSTORE PUSH1 0x13 PUSH1 0x24 DUP3 ADD MSTORE PUSH19 0x2AB730BABA3437B934BD32B21039B2B73232B9 PUSH1 0x69 SHL PUSH1 0x44 DUP3 ADD MSTORE PUSH1 0x64 ADD PUSH2 0x1F8 JUMP JUMPDEST PUSH1 0x7 SLOAD PUSH1 0xFF AND ISZERO PUSH2 0x865 JUMPI PUSH1 0x40 MLOAD PUSH3 0x461BCD PUSH1 0xE5 SHL DUP2 MSTORE PUSH1 0x20 PUSH1 0x4 DUP3 ADD MSTORE PUSH1 0x1A PUSH1 0x24 DUP3 ADD MSTORE PUSH32 0x537472617465677920616C726561647920636F6D706C65746564000000000000 PUSH1 0x44 DUP3 ADD MSTORE PUSH1 0x64 ADD PUSH2 0x1F8 JUMP JUMPDEST PUSH1 0x0 PUSH2 0x873 DUP3 DUP5 ADD DUP5 PUSH2 0x29FB JUMP JUMPDEST SWAP1 POP PUSH1 0x0 DUP10 DUP10 PUSH1 0x0 DUP2 DUP2 LT PUSH2 0x88A JUMPI PUSH2 0x88A PUSH2 0x2A90 JUMP JUMPDEST SWAP1 POP PUSH1 0x20 MUL ADD PUSH1 0x20 DUP2 ADD SWAP1 PUSH2 0x89F SWAP2 SWAP1 PUSH2 0x270F JUMP JUMPDEST SWAP1 POP PUSH1 0x0 DUP9 DUP9 PUSH1 0x0 DUP2 DUP2 LT PUSH2 0x8B6 JUMPI PUSH2 0x8B6 PUSH2 0x2A90 JUMP JUMPDEST SWAP1 POP PUSH1 0x20 MUL ADD CALLDATALOAD SWAP1 POP PUSH1 0x0 DUP8 DUP8 PUSH1 0x0 DUP2 DUP2 LT PUSH2 0x8D4 JUMPI PUSH2 0x8D4 PUSH2 0x2A90 JUMP JUMPDEST PUSH1 0x40 DUP1 MLOAD DUP1 DUP3 ADD SWAP1 SWAP2 MSTORE PUSH1 0x8 DUP2 MSTORE PUSH8 0xA6829C88AE92869 PUSH1 0xC3 SHL PUSH1 0x20 SWAP2 DUP3 ADD MSTORE DUP8 MLOAD DUP9 DUP3 ADD KECCAK256 SWAP2 MUL SWAP3 SWAP1 SWAP3 ADD CALLDATALOAD SWAP3 POP POP PUSH32 0x392EB93B15431FED24DF9BBA1922FF30A6B9E9EBD22A5C4C61FE780E92BE1917 EQ ISZERO PUSH2 0x93B JUMPI PUSH2 0x936 DUP4 DUP4 DUP4 PUSH2 0xABD JUMP JUMPDEST PUSH2 0xA20 JUMP JUMPDEST PUSH1 0x40 DUP1 MLOAD DUP1 DUP3 ADD SWAP1 SWAP2 MSTORE PUSH1 0x9 DUP2 MSTORE PUSH9 0x415242495452414745 PUSH1 0xB8 SHL PUSH1 0x20 SWAP2 DUP3 ADD MSTORE DUP5 MLOAD SWAP1 DUP6 ADD KECCAK256 PUSH32 0x6531F762AD9FE1348E5CBC8CE25386420AE7BAC169C1795E239D9399E722B73F EQ ISZERO PUSH2 0x9AB JUMPI PUSH1 0x0 PUSH2 0x997 DUP7 DUP9 ADD DUP9 PUSH2 0x270F JUMP JUMPDEST SWAP1 POP PUSH2 0x9A5 DUP5 DUP5 DUP5 DUP5 PUSH2 0x1017 JUMP JUMPDEST POP PUSH2 0xA20 JUMP JUMPDEST PUSH1 0x40 DUP1 MLOAD DUP1 DUP3 ADD SWAP1 SWAP2 MSTORE PUSH1 0x8 DUP2 MSTORE PUSH8 0x4D554C5449484F5 PUSH1 0xC4 SHL PUSH1 0x20 SWAP2 DUP3 ADD MSTORE DUP5 MLOAD SWAP1 DUP6 ADD KECCAK256 PUSH32 0x77E816DE5A30F937416C4C170D45A22395916FDA915AF3FBBF1317B9B02BBCD2 EQ ISZERO PUSH2 0xA20 JUMPI PUSH1 0x0 DUP1 DUP1 PUSH2 0xA08 DUP9 DUP11 ADD DUP11 PUSH2 0x2B3E JUMP JUMPDEST SWAP3 POP SWAP3 POP SWAP3 POP PUSH2 0xA1C DUP7 DUP7 DUP7 DUP7 DUP7 DUP7 PUSH2 0x13F5 JUMP JUMPDEST POP POP POP JUMPDEST PUSH1 0x0 PUSH2 0xA2C DUP3 DUP5 PUSH2 0x2C6B JUMP JUMPDEST PUSH1 0x40 MLOAD PUSH4 0x95EA7B3 PUSH1 0xE0 SHL DUP2 MSTORE SWAP1 SWAP2 POP PUSH1 0x1 PUSH1 0x1 PUSH1 0xA0 SHL SUB DUP6 AND SWAP1 PUSH4 0x95EA7B3 SWAP1 PUSH2 0xA5D SWAP1 CALLER SWAP1 DUP6 SWAP1 PUSH1 0x4 ADD PUSH2 0x2979 JUMP JUMPDEST PUSH1 0x20 PUSH1 0x40 MLOAD DUP1 DUP4 SUB DUP2 PUSH1 0x0 DUP8 GAS CALL ISZERO DUP1 ISZERO PUSH2 0xA7C JUMPI RETURNDATASIZE PUSH1 0x0 DUP1 RETURNDATACOPY RETURNDATASIZE PUSH1 0x0 REVERT JUMPDEST POP POP POP POP PUSH1 0x40 MLOAD RETURNDATASIZE PUSH1 0x1F NOT PUSH1 0x1F DUP3 ADD AND DUP3 ADD DUP1 PUSH1 0x40 MSTORE POP DUP2 ADD SWAP1 PUSH2 0xAA0 SWAP2 SWAP1 PUSH2 0x2992 JUMP JUMPDEST POP POP PUSH1 0x7 DUP1 SLOAD PUSH1 0xFF NOT AND PUSH1 0x1 OR SWAP1 SSTORE POP POP POP POP POP POP POP POP POP POP POP POP JUMP JUMPDEST PUSH1 0x3 SLOAD PUSH1 0x1 PUSH1 0x1 PUSH1 0xA0 SHL SUB DUP5 DUP2 AND SWAP2 AND EQ PUSH2 0xB0A JUMPI PUSH1 0x40 MLOAD PUSH3 0x461BCD PUSH1 0xE5 SHL DUP2 MSTORE PUSH1 0x20 PUSH1 0x4 DUP3 ADD MSTORE PUSH1 0xD PUSH1 0x24 DUP3 ADD MSTORE PUSH13 0x24B73B30B634B2103A37B5B2B7 PUSH1 0x99 SHL PUSH1 0x44 DUP3 ADD MSTORE PUSH1 0x64 ADD PUSH2 0x1F8 JUMP JUMPDEST PUSH1 0x3 SLOAD PUSH1 0x1 SLOAD PUSH1 0x40 MLOAD PUSH4 0x95EA7B3 PUSH1 0xE0 SHL DUP2 MSTORE PUSH1 0x1 PUSH1 0x1 PUSH1 0xA0 SHL SUB SWAP3 DUP4 AND SWAP3 PUSH4 0x95EA7B3 SWAP3 PUSH2 0xB40 SWAP3 SWAP2 AND SWAP1 DUP7 SWAP1 PUSH1 0x4 ADD PUSH2 0x2979 JUMP JUMPDEST PUSH1 0x20 PUSH1 0x40 MLOAD DUP1 DUP4 SUB DUP2 PUSH1 0x0 DUP8 GAS CALL ISZERO DUP1 ISZERO PUSH2 0xB5F JUMPI RETURNDATASIZE PUSH1 0x0 DUP1 RETURNDATACOPY RETURNDATASIZE PUSH1 0x0 REVERT JUMPDEST POP POP POP POP PUSH1 0x40 MLOAD RETURNDATASIZE PUSH1 0x1F NOT PUSH1 0x1F DUP3 ADD AND DUP3 ADD DUP1 PUSH1 0x40 MSTORE POP DUP2 ADD SWAP1 PUSH2 0xB83 SWAP2 SWAP1 PUSH2 0x2992 JUMP JUMPDEST POP PUSH1 0x40 DUP1 MLOAD PUSH1 0x2 DUP1 DUP3 MSTORE PUSH1 0x60 DUP3 ADD DUP4 MSTORE PUSH1 0x0 SWAP3 PUSH1 0x20 DUP4 ADD SWAP1 DUP1 CALLDATASIZE DUP4 CALLDATACOPY POP POP PUSH1 0x3 SLOAD DUP3 MLOAD SWAP3 SWAP4 POP PUSH1 0x1 PUSH1 0x1 PUSH1 0xA0 SHL SUB AND SWAP2 DUP4 SWAP2 POP PUSH1 0x0 SWAP1 PUSH2 0xBC5 JUMPI PUSH2 0xBC5 PUSH2 0x2A90 JUMP JUMPDEST PUSH1 0x1 PUSH1 0x1 PUSH1 0xA0 SHL SUB SWAP3 DUP4 AND PUSH1 0x20 SWAP2 DUP3 MUL SWAP3 SWAP1 SWAP3 ADD ADD MSTORE PUSH1 0x4 SLOAD DUP3 MLOAD SWAP2 AND SWAP1 DUP3 SWAP1 PUSH1 0x1 SWAP1 DUP2 LT PUSH2 0xBF6 JUMPI PUSH2 0xBF6 PUSH2 0x2A90 JUMP JUMPDEST PUSH1 0x1 PUSH1 0x1 PUSH1 0xA0 SHL SUB SWAP1 SWAP3 AND PUSH1 0x20 SWAP3 DUP4 MUL SWAP2 SWAP1 SWAP2 ADD SWAP1 SWAP2 ADD MSTORE PUSH1 0x0 PUSH2 0xC1B PUSH1 0x2 DUP6 PUSH2 0x2C83 JUMP JUMPDEST PUSH1 0x1 SLOAD SWAP1 SWAP2 POP PUSH1 0x0 SWAP1 PUSH1 0x1 PUSH1 0x1 PUSH1 0xA0 SHL SUB AND PUSH4 0x38ED1739 DUP4 DUP4 DUP7 ADDRESS PUSH2 0xC42 TIMESTAMP PUSH2 0x12C PUSH2 0x2C6B JUMP JUMPDEST PUSH1 0x40 MLOAD DUP7 PUSH4 0xFFFFFFFF AND PUSH1 0xE0 SHL DUP2 MSTORE PUSH1 0x4 ADD PUSH2 0xC62 SWAP6 SWAP5 SWAP4 SWAP3 SWAP2 SWAP1 PUSH2 0x2CA5 JUMP JUMPDEST PUSH1 0x0 PUSH1 0x40 MLOAD DUP1 DUP4 SUB DUP2 PUSH1 0x0 DUP8 GAS CALL ISZERO DUP1 ISZERO PUSH2 0xC81 JUMPI RETURNDATASIZE PUSH1 0x0 DUP1 RETURNDATACOPY RETURNDATASIZE PUSH1 0x0 REVERT JUMPDEST POP POP POP POP PUSH1 0x40 MLOAD RETURNDATASIZE PUSH1 0x0 DUP3 RETURNDATACOPY PUSH1 0x1F RETURNDATASIZE SWAP1 DUP2 ADD PUSH1 0x1F NOT AND DUP3 ADD PUSH1 0x40 MSTORE PUSH2 0xCA9 SWAP2 SWAP1 DUP2 ADD SWAP1 PUSH2 0x2D16 JUMP JUMPDEST SWAP1 POP PUSH1 0x0 DUP2 PUSH1 0x1 DUP4 MLOAD PUSH2 0xCBC SWAP2 SWAP1 PUSH2 0x2DA7 JUMP JUMPDEST DUP2 MLOAD DUP2 LT PUSH2 0xCCC JUMPI PUSH2 0xCCC PUSH2 0x2A90 JUMP JUMPDEST PUSH1 0x20 SWAP1 DUP2 MUL SWAP2 SWAP1 SWAP2 ADD DUP2 ADD MLOAD PUSH1 0x4 SLOAD PUSH1 0x3 SLOAD PUSH1 0x2 SLOAD PUSH1 0x40 DUP1 MLOAD DUP10 DUP2 MSTORE SWAP6 DUP7 ADD DUP6 SWAP1 MSTORE SWAP4 SWAP6 POP PUSH1 0x1 PUSH1 0x1 PUSH1 0xA0 SHL SUB SWAP3 DUP4 AND SWAP5 SWAP2 DUP4 AND SWAP4 SWAP3 AND SWAP2 PUSH32 0x51C932DE59C046C124D6FAAC1F1E5A1F1CA96AF8634E3D30BF0BE71819534A5F SWAP2 ADD PUSH1 0x40 MLOAD DUP1 SWAP2 SUB SWAP1 LOG4 PUSH1 0x4 SLOAD DUP5 MLOAD PUSH1 0x1 PUSH1 0x1 PUSH1 0xA0 SHL SUB SWAP1 SWAP2 AND SWAP1 DUP6 SWAP1 PUSH1 0x0 SWAP1 PUSH2 0xD51 JUMPI PUSH2 0xD51 PUSH2 0x2A90 JUMP JUMPDEST PUSH1 0x1 PUSH1 0x1 PUSH1 0xA0 SHL SUB SWAP3 DUP4 AND PUSH1 0x20 SWAP2 DUP3 MUL SWAP3 SWAP1 SWAP3 ADD ADD MSTORE PUSH1 0x3 SLOAD DUP6 MLOAD SWAP2 AND SWAP1 DUP6 SWAP1 PUSH1 0x1 SWAP1 DUP2 LT PUSH2 0xD82 JUMPI PUSH2 0xD82 PUSH2 0x2A90 JUMP JUMPDEST PUSH1 0x1 PUSH1 0x1 PUSH1 0xA0 SHL SUB SWAP3 DUP4 AND PUSH1 0x20 SWAP2 DUP3 MUL SWAP3 SWAP1 SWAP3 ADD ADD MSTORE PUSH1 0x4 DUP1 SLOAD PUSH1 0x1 SLOAD PUSH1 0x40 MLOAD PUSH4 0x95EA7B3 PUSH1 0xE0 SHL DUP2 MSTORE SWAP2 DUP5 AND SWAP4 PUSH4 0x95EA7B3 SWAP4 PUSH2 0xDC7 SWAP4 SWAP3 SWAP1 SWAP2 AND SWAP2 DUP7 SWAP2 ADD PUSH2 0x2979 JUMP JUMPDEST PUSH1 0x20 PUSH1 0x40 MLOAD DUP1 DUP4 SUB DUP2 PUSH1 0x0 DUP8 GAS CALL ISZERO DUP1 ISZERO PUSH2 0xDE6 JUMPI RETURNDATASIZE PUSH1 0x0 DUP1 RETURNDATACOPY RETURNDATASIZE PUSH1 0x0 REVERT JUMPDEST POP POP POP POP PUSH1 0x40 MLOAD RETURNDATASIZE PUSH1 0x1F NOT PUSH1 0x1F DUP3 ADD AND DUP3 ADD DUP1 PUSH1 0x40 MSTORE POP DUP2 ADD SWAP1 PUSH2 0xE0A SWAP2 SWAP1 PUSH2 0x2992 JUMP JUMPDEST POP PUSH1 0x1 SLOAD PUSH1 0x0 SWAP1 PUSH1 0x1 PUSH1 0x1 PUSH1 0xA0 SHL SUB AND PUSH4 0x38ED1739 DUP4 DUP4 DUP9 ADDRESS PUSH2 0xE2F TIMESTAMP PUSH2 0x12C PUSH2 0x2C6B JUMP JUMPDEST PUSH1 0x40 MLOAD DUP7 PUSH4 0xFFFFFFFF AND PUSH1 0xE0 SHL DUP2 MSTORE PUSH1 0x4 ADD PUSH2 0xE4F SWAP6 SWAP5 SWAP4 SWAP3 SWAP2 SWAP1 PUSH2 0x2CA5 JUMP JUMPDEST PUSH1 0x0 PUSH1 0x40 MLOAD DUP1 DUP4 SUB DUP2 PUSH1 0x0 DUP8 GAS CALL ISZERO DUP1 ISZERO PUSH2 0xE6E JUMPI RETURNDATASIZE PUSH1 0x0 DUP1 RETURNDATACOPY RETURNDATASIZE PUSH1 0x0 REVERT JUMPDEST POP POP POP POP PUSH1 0x40 MLOAD RETURNDATASIZE PUSH1 0x0 DUP3 RETURNDATACOPY PUSH1 0x1F RETURNDATASIZE SWAP1 DUP2 ADD PUSH1 0x1F NOT AND DUP3 ADD PUSH1 0x40 MSTORE PUSH2 0xE96 SWAP2 SWAP1 DUP2 ADD SWAP1 PUSH2 0x2D16 JUMP JUMPDEST SWAP1 POP PUSH1 0x0 DUP2 PUSH1 0x1 DUP4 MLOAD PUSH2 0xEA9 SWAP2 SWAP1 PUSH2 0x2DA7 JUMP JUMPDEST DUP2 MLOAD DUP2 LT PUSH2 0xEB9 JUMPI PUSH2 0xEB9 PUSH2 0x2A90 JUMP JUMPDEST PUSH1 0x20 MUL PUSH1 0x20 ADD ADD MLOAD SWAP1 POP PUSH1 0x0 DUP6 DUP3 GT ISZERO PUSH2 0xEDA JUMPI PUSH2 0xED7 DUP7 DUP4 PUSH2 0x2DA7 JUMP JUMPDEST SWAP1 POP JUMPDEST DUP8 DUP2 GT ISZERO PUSH2 0xEF3 JUMPI PUSH2 0xEEC DUP9 DUP3 PUSH2 0x2DA7 JUMP JUMPDEST SWAP1 POP PUSH2 0xF33 JUMP JUMPDEST PUSH1 0x40 MLOAD PUSH3 0x461BCD PUSH1 0xE5 SHL DUP2 MSTORE PUSH1 0x20 PUSH1 0x4 DUP3 ADD MSTORE PUSH1 0x15 PUSH1 0x24 DUP3 ADD MSTORE PUSH21 0xAADCE0E4DECCD2E8C2C4D8CA40E6C2DCC8EED2C6D PUSH1 0x5B SHL PUSH1 0x44 DUP3 ADD MSTORE PUSH1 0x64 ADD PUSH2 0x1F8 JUMP JUMPDEST PUSH1 0x3 SLOAD PUSH1 0x4 SLOAD PUSH1 0x2 SLOAD PUSH1 0x40 DUP1 MLOAD DUP9 DUP2 MSTORE PUSH1 0x20 DUP2 ADD DUP8 SWAP1 MSTORE SWAP1 DUP2 ADD DUP6 SWAP1 MSTORE PUSH1 0x1 PUSH1 0x1 PUSH1 0xA0 SHL SUB SWAP4 DUP5 AND SWAP4 SWAP3 DUP4 AND SWAP3 SWAP1 SWAP2 AND SWAP1 PUSH32 0xD59DD7FF720795CB90DB0EAF4F250C5D745A73628BF936169EFFBB810EE9A046 SWAP1 PUSH1 0x60 ADD PUSH1 0x40 MLOAD DUP1 SWAP2 SUB SWAP1 LOG4 PUSH1 0x3 SLOAD PUSH1 0x0 SLOAD PUSH1 0x40 MLOAD PUSH4 0xA9059CBB PUSH1 0xE0 SHL DUP2 MSTORE PUSH1 0x1 PUSH1 0x1 PUSH1 0xA0 SHL SUB SWAP3 DUP4 AND SWAP3 PUSH4 0xA9059CBB SWAP3 PUSH2 0xFC7 SWAP3 SWAP2 AND SWAP1 DUP6 SWAP1 PUSH1 0x4 ADD PUSH2 0x2979 JUMP JUMPDEST PUSH1 0x20 PUSH1 0x40 MLOAD DUP1 DUP4 SUB DUP2 PUSH1 0x0 DUP8 GAS CALL ISZERO DUP1 ISZERO PUSH2 0xFE6 JUMPI RETURNDATASIZE PUSH1 0x0 DUP1 RETURNDATACOPY RETURNDATASIZE PUSH1 0x0 REVERT JUMPDEST POP POP POP POP PUSH1 0x40 MLOAD RETURNDATASIZE PUSH1 0x1F NOT PUSH1 0x1F DUP3 ADD AND DUP3 ADD DUP1 PUSH1 0x40 MSTORE POP DUP2 ADD SWAP1 PUSH2 0x100A SWAP2 SWAP1 PUSH2 0x2992 JUMP JUMPDEST POP POP POP POP POP POP POP POP POP POP POP JUMP JUMPDEST PUSH1 0x2 SLOAD PUSH1 0x40 DUP1 MLOAD PUSH4 0xDFE1681 PUSH1 0xE0 SHL DUP2 MSTORE SWAP1 MLOAD PUSH1 0x1 PUSH1 0x1 PUSH1 0xA0 SHL SUB SWAP1 SWAP3 AND SWAP2 PUSH1 0x0 SWAP2 DUP4 SWAP2 PUSH4 0xDFE1681 SWAP2 PUSH1 0x4 DUP1 DUP3 ADD SWAP3 PUSH1 0x20 SWAP3 SWAP1 SWAP2 SWAP1 DUP3 SWAP1 SUB ADD DUP2 DUP7 GAS STATICCALL ISZERO DUP1 ISZERO PUSH2 0x1066 JUMPI RETURNDATASIZE PUSH1 0x0 DUP1 RETURNDATACOPY RETURNDATASIZE PUSH1 0x0 REVERT JUMPDEST POP POP POP POP PUSH1 0x40 MLOAD RETURNDATASIZE PUSH1 0x1F NOT PUSH1 0x1F DUP3 ADD AND DUP3 ADD DUP1 PUSH1 0x40 MSTORE POP DUP2 ADD SWAP1 PUSH2 0x108A SWAP2 SWAP1 PUSH2 0x2DBE JUMP JUMPDEST SWAP1 POP PUSH1 0x0 DUP3 PUSH1 0x1 PUSH1 0x1 PUSH1 0xA0 SHL SUB AND PUSH4 0xD21220A7 PUSH1 0x40 MLOAD DUP2 PUSH4 0xFFFFFFFF AND PUSH1 0xE0 SHL DUP2 MSTORE PUSH1 0x4 ADD PUSH1 0x20 PUSH1 0x40 MLOAD DUP1 DUP4 SUB DUP2 DUP7 GAS STATICCALL ISZERO DUP1 ISZERO PUSH2 0x10CC JUMPI RETURNDATASIZE PUSH1 0x0 DUP1 RETURNDATACOPY RETURNDATASIZE PUSH1 0x0 REVERT JUMPDEST POP POP POP POP PUSH1 0x40 MLOAD RETURNDATASIZE PUSH1 0x1F NOT PUSH1 0x1F DUP3 ADD AND DUP3 ADD DUP1 PUSH1 0x40 MSTORE POP DUP2 ADD SWAP1 PUSH2 0x10F0 SWAP2 SWAP1 PUSH2 0x2DBE JUMP JUMPDEST SWAP1 POP PUSH1 0x0 DUP3 PUSH1 0x1 PUSH1 0x1 PUSH1 0xA0 SHL SUB AND DUP9 PUSH1 0x1 PUSH1 0x1 PUSH1 0xA0 SHL SUB AND EQ PUSH2 0x1113 JUMPI DUP3 PUSH2 0x1115 JUMP JUMPDEST DUP2 JUMPDEST SWAP1 POP PUSH1 0x0 DUP6 SWAP1 POP DUP9 PUSH1 0x1 PUSH1 0x1 PUSH1 0xA0 SHL SUB AND DUP2 PUSH1 0x1 PUSH1 0x1 PUSH1 0xA0 SHL SUB AND PUSH4 0xDFE1681 PUSH1 0x40 MLOAD DUP2 PUSH4 0xFFFFFFFF AND PUSH1 0xE0 SHL DUP2 MSTORE PUSH1 0x4 ADD PUSH1 0x20 PUSH1 0x40 MLOAD DUP1 DUP4 SUB DUP2 DUP7 GAS STATICCALL ISZERO DUP1 ISZERO PUSH2 0x1164 JUMPI RETURNDATASIZE PUSH1 0x0 DUP1 RETURNDATACOPY RETURNDATASIZE PUSH1 0x0 REVERT JUMPDEST POP POP POP POP PUSH1 0x40 MLOAD RETURNDATASIZE PUSH1 0x1F NOT PUSH1 0x1F DUP3 ADD AND DUP3 ADD DUP1 PUSH1 0x40 MSTORE POP DUP2 ADD SWAP1 PUSH2 0x1188 SWAP2 SWAP1 PUSH2 0x2DBE JUMP JUMPDEST PUSH1 0x1 PUSH1 0x1 PUSH1 0xA0 SHL SUB AND EQ DUP1 ISZERO PUSH2 0x1210 JUMPI POP DUP2 PUSH1 0x1 PUSH1 0x1 PUSH1 0xA0 SHL SUB AND DUP2 PUSH1 0x1 PUSH1 0x1 PUSH1 0xA0 SHL SUB AND PUSH4 0xD21220A7 PUSH1 0x40 MLOAD DUP2 PUSH4 0xFFFFFFFF AND PUSH1 0xE0 SHL DUP2 MSTORE PUSH1 0x4 ADD PUSH1 0x20 PUSH1 0x40 MLOAD DUP1 DUP4 SUB DUP2 DUP7 GAS STATICCALL ISZERO DUP1 ISZERO PUSH2 0x11E1 JUMPI RETURNDATASIZE PUSH1 0x0 DUP1 RETURNDATACOPY RETURNDATASIZE PUSH1 0x0 REVERT JUMPDEST POP POP POP POP PUSH1 0x40 MLOAD RETURNDATASIZE PUSH1 0x1F NOT PUSH1 0x1F DUP3 ADD AND DUP3 ADD DUP1 PUSH1 0x40 MSTORE POP DUP2 ADD SWAP1 PUSH2 0x1205 SWAP2 SWAP1 PUSH2 0x2DBE JUMP JUMPDEST PUSH1 0x1 PUSH1 0x1 PUSH1 0xA0 SHL SUB AND EQ JUMPDEST DUP1 PUSH2 0x130A JUMPI POP DUP2 PUSH1 0x1 PUSH1 0x1 PUSH1 0xA0 SHL SUB AND DUP2 PUSH1 0x1 PUSH1 0x1 PUSH1 0xA0 SHL SUB AND PUSH4 0xDFE1681 PUSH1 0x40 MLOAD DUP2 PUSH4 0xFFFFFFFF AND PUSH1 0xE0 SHL DUP2 MSTORE PUSH1 0x4 ADD PUSH1 0x20 PUSH1 0x40 MLOAD DUP1 DUP4 SUB DUP2 DUP7 GAS STATICCALL ISZERO DUP1 ISZERO PUSH2 0x125E JUMPI RETURNDATASIZE PUSH1 0x0 DUP1 RETURNDATACOPY RETURNDATASIZE PUSH1 0x0 REVERT JUMPDEST POP POP POP POP PUSH1 0x40 MLOAD RETURNDATASIZE PUSH1 0x1F NOT PUSH1 0x1F DUP3 ADD AND DUP3 ADD DUP1 PUSH1 0x40 MSTORE POP DUP2 ADD SWAP1 PUSH2 0x1282 SWAP2 SWAP1 PUSH2 0x2DBE JUMP JUMPDEST PUSH1 0x1 PUSH1 0x1 PUSH1 0xA0 SHL SUB AND EQ DUP1 ISZERO PUSH2 0x130A JUMPI POP DUP9 PUSH1 0x1 PUSH1 0x1 PUSH1 0xA0 SHL SUB AND DUP2 PUSH1 0x1 PUSH1 0x1 PUSH1 0xA0 SHL SUB AND PUSH4 0xD21220A7 PUSH1 0x40 MLOAD DUP2 PUSH4 0xFFFFFFFF AND PUSH1 0xE0 SHL DUP2 MSTORE PUSH1 0x4 ADD PUSH1 0x20 PUSH1 0x40 MLOAD DUP1 DUP4 SUB DUP2 DUP7 GAS STATICCALL ISZERO DUP1 ISZERO PUSH2 0x12DB JUMPI RETURNDATASIZE PUSH1 0x0 DUP1 RETURNDATACOPY RETURNDATASIZE PUSH1 0x0 REVERT JUMPDEST POP POP POP POP PUSH1 0x40 MLOAD RETURNDATASIZE PUSH1 0x1F NOT PUSH1 0x1F DUP3 ADD AND DUP3 ADD DUP1 PUSH1 0x40 MSTORE POP DUP2 ADD SWAP1 PUSH2 0x12FF SWAP2 SWAP1 PUSH2 0x2DBE JUMP JUMPDEST PUSH1 0x1 PUSH1 0x1 PUSH1 0xA0 SHL SUB AND EQ JUMPDEST PUSH2 0x134C JUMPI PUSH1 0x40 MLOAD PUSH3 0x461BCD PUSH1 0xE5 SHL DUP2 MSTORE PUSH1 0x20 PUSH1 0x4 DUP3 ADD MSTORE PUSH1 0x13 PUSH1 0x24 DUP3 ADD MSTORE PUSH19 0x125B9D985B1A59081D185C99D95D081C1BDBDB PUSH1 0x6A SHL PUSH1 0x44 DUP3 ADD MSTORE PUSH1 0x64 ADD PUSH2 0x1F8 JUMP JUMPDEST PUSH1 0x0 PUSH2 0x1359 DUP11 DUP5 DUP12 PUSH2 0x1C16 JUMP JUMPDEST SWAP1 POP PUSH1 0x0 PUSH2 0x1368 DUP12 DUP6 DUP5 PUSH2 0x1DC5 JUMP JUMPDEST SWAP1 POP PUSH1 0x0 DUP11 DUP3 GT ISZERO PUSH2 0x1381 JUMPI PUSH2 0x137E DUP12 DUP4 PUSH2 0x2DA7 JUMP JUMPDEST SWAP1 POP JUMPDEST DUP10 DUP2 GT ISZERO PUSH2 0x139A JUMPI PUSH2 0x1393 DUP11 DUP3 PUSH2 0x2DA7 JUMP JUMPDEST SWAP1 POP PUSH2 0x13DB JUMP JUMPDEST PUSH1 0x40 MLOAD PUSH3 0x461BCD PUSH1 0xE5 SHL DUP2 MSTORE PUSH1 0x20 PUSH1 0x4 DUP3 ADD MSTORE PUSH1 0x16 PUSH1 0x24 DUP3 ADD MSTORE PUSH22 0x556E70726F66697461626C6520617262697472616765 PUSH1 0x50 SHL PUSH1 0x44 DUP3 ADD MSTORE PUSH1 0x64 ADD PUSH2 0x1F8 JUMP JUMPDEST PUSH2 0x13E7 DUP10 DUP14 DUP14 DUP5 PUSH2 0x1EA7 JUMP JUMPDEST POP POP POP POP POP POP POP POP POP POP POP POP JUMP JUMPDEST PUSH1 0x2 DUP4 MLOAD LT ISZERO PUSH2 0x1447 JUMPI PUSH1 0x40 MLOAD PUSH3 0x461BCD PUSH1 0xE5 SHL DUP2 MSTORE PUSH1 0x20 PUSH1 0x4 DUP3 ADD MSTORE PUSH1 0x19 PUSH1 0x24 DUP3 ADD MSTORE PUSH32 0x4174206C65617374203220706169727320726571756972656400000000000000 PUSH1 0x44 DUP3 ADD MSTORE PUSH1 0x64 ADD PUSH2 0x1F8 JUMP JUMPDEST DUP3 MLOAD PUSH2 0x1454 SWAP1 PUSH1 0x1 PUSH2 0x2C6B JUMP JUMPDEST DUP3 MLOAD EQ PUSH2 0x14A3 JUMPI PUSH1 0x40 MLOAD PUSH3 0x461BCD PUSH1 0xE5 SHL DUP2 MSTORE PUSH1 0x20 PUSH1 0x4 DUP3 ADD MSTORE PUSH1 0x1B PUSH1 0x24 DUP3 ADD MSTORE PUSH32 0x496E76616C696420746F6B656E73206172726179206C656E6774680000000000 PUSH1 0x44 DUP3 ADD MSTORE PUSH1 0x64 ADD PUSH2 0x1F8 JUMP JUMPDEST DUP3 MLOAD DUP2 MLOAD EQ PUSH2 0x14F4 JUMPI PUSH1 0x40 MLOAD PUSH3 0x461BCD PUSH1 0xE5 SHL DUP2 MSTORE PUSH1 0x20 PUSH1 0x4 DUP3 ADD MSTORE PUSH1 0x1C PUSH1 0x24 DUP3 ADD MSTORE PUSH32 0x496E76616C696420616D6F756E7473206172726179206C656E67746800000000 PUSH1 0x44 DUP3 ADD MSTORE PUSH1 0x64 ADD PUSH2 0x1F8 JUMP JUMPDEST DUP6 PUSH1 0x1 PUSH1 0x1 PUSH1 0xA0 SHL SUB AND DUP3 PUSH1 0x0 DUP2 MLOAD DUP2 LT PUSH2 0x1511 JUMPI PUSH2 0x1511 PUSH2 0x2A90 JUMP JUMPDEST PUSH1 0x20 MUL PUSH1 0x20 ADD ADD MLOAD PUSH1 0x1 PUSH1 0x1 PUSH1 0xA0 SHL SUB AND EQ PUSH2 0x157F JUMPI PUSH1 0x40 MLOAD PUSH3 0x461BCD PUSH1 0xE5 SHL DUP2 MSTORE PUSH1 0x20 PUSH1 0x4 DUP3 ADD MSTORE PUSH1 0x27 PUSH1 0x24 DUP3 ADD MSTORE PUSH32 0x466972737420746F6B656E206D757374206D6174636820666C617368206C6F61 PUSH1 0x44 DUP3 ADD MSTORE PUSH7 0x37103A37B5B2B7 PUSH1 0xC9 SHL PUSH1 0x64 DUP3 ADD MSTORE PUSH1 0x84 ADD PUSH2 0x1F8 JUMP JUMPDEST DUP5 PUSH1 0x0 DUP1 JUMPDEST DUP6 MLOAD DUP2 LT ISZERO PUSH2 0x17E7 JUMPI DUP5 DUP2 DUP2 MLOAD DUP2 LT PUSH2 0x159F JUMPI PUSH2 0x159F PUSH2 0x2A90 JUMP JUMPDEST PUSH1 0x20 SWAP1 DUP2 MUL SWAP2 SWAP1 SWAP2 ADD ADD MLOAD PUSH1 0x1 SLOAD PUSH1 0x40 MLOAD PUSH4 0x95EA7B3 PUSH1 0xE0 SHL DUP2 MSTORE PUSH1 0x1 PUSH1 0x1 PUSH1 0xA0 SHL SUB SWAP3 DUP4 AND SWAP3 PUSH4 0x95EA7B3 SWAP3 PUSH2 0x15DD SWAP3 SWAP2 AND SWAP1 DUP8 SWAP1 PUSH1 0x4 ADD PUSH2 0x2979 JUMP JUMPDEST PUSH1 0x20 PUSH1 0x40 MLOAD DUP1 DUP4 SUB DUP2 PUSH1 0x0 DUP8 GAS CALL ISZERO DUP1 ISZERO PUSH2 0x15FC JUMPI RETURNDATASIZE PUSH1 0x0 DUP1 RETURNDATACOPY RETURNDATASIZE PUSH1 0x0 REVERT JUMPDEST POP POP POP POP PUSH1 0x40 MLOAD RETURNDATASIZE PUSH1 0x1F NOT PUSH1 0x1F DUP3 ADD AND DUP3 ADD DUP1 PUSH1 0x40 MSTORE POP DUP2 ADD SWAP1 PUSH2 0x1620 SWAP2 SWAP1 PUSH2 0x2992 JUMP JUMPDEST POP PUSH1 0x40 DUP1 MLOAD PUSH1 0x2 DUP1 DUP3 MSTORE PUSH1 0x60 DUP3 ADD DUP4 MSTORE PUSH1 0x0 SWAP3 PUSH1 0x20 DUP4 ADD SWAP1 DUP1 CALLDATASIZE DUP4 CALLDATACOPY ADD SWAP1 POP POP SWAP1 POP DUP6 DUP3 DUP2 MLOAD DUP2 LT PUSH2 0x1654 JUMPI PUSH2 0x1654 PUSH2 0x2A90 JUMP JUMPDEST PUSH1 0x20 MUL PUSH1 0x20 ADD ADD MLOAD DUP2 PUSH1 0x0 DUP2 MLOAD DUP2 LT PUSH2 0x166F JUMPI PUSH2 0x166F PUSH2 0x2A90 JUMP JUMPDEST PUSH1 0x1 PUSH1 0x1 PUSH1 0xA0 SHL SUB SWAP1 SWAP3 AND PUSH1 0x20 SWAP3 DUP4 MUL SWAP2 SWAP1 SWAP2 ADD SWAP1 SWAP2 ADD MSTORE DUP6 PUSH2 0x1693 DUP4 PUSH1 0x1 PUSH2 0x2C6B JUMP JUMPDEST DUP2 MLOAD DUP2 LT PUSH2 0x16A3 JUMPI PUSH2 0x16A3 PUSH2 0x2A90 JUMP JUMPDEST PUSH1 0x20 MUL PUSH1 0x20 ADD ADD MLOAD DUP2 PUSH1 0x1 DUP2 MLOAD DUP2 LT PUSH2 0x16BE JUMPI PUSH2 0x16BE PUSH2 0x2A90 JUMP JUMPDEST PUSH1 0x1 PUSH1 0x1 PUSH1 0xA0 SHL SUB SWAP1 SWAP3 AND PUSH1 0x20 SWAP3 DUP4 MUL SWAP2 SWAP1 SWAP2 ADD SWAP1 SWAP2 ADD MSTORE PUSH1 0x0 DUP3 ISZERO PUSH2 0x16E4 JUMPI DUP5 PUSH2 0x16FF JUMP JUMPDEST DUP6 DUP4 DUP2 MLOAD DUP2 LT PUSH2 0x16F6 JUMPI PUSH2 0x16F6 PUSH2 0x2A90 JUMP JUMPDEST PUSH1 0x20 MUL PUSH1 0x20 ADD ADD MLOAD JUMPDEST PUSH1 0x1 SLOAD SWAP1 SWAP2 POP PUSH1 0x0 SWAP1 PUSH1 0x1 PUSH1 0x1 PUSH1 0xA0 SHL SUB AND PUSH4 0x38ED1739 DUP4 DUP4 DUP7 ADDRESS PUSH2 0x1726 TIMESTAMP PUSH2 0x12C PUSH2 0x2C6B JUMP JUMPDEST PUSH1 0x40 MLOAD DUP7 PUSH4 0xFFFFFFFF AND PUSH1 0xE0 SHL DUP2 MSTORE PUSH1 0x4 ADD PUSH2 0x1746 SWAP6 SWAP5 SWAP4 SWAP3 SWAP2 SWAP1 PUSH2 0x2CA5 JUMP JUMPDEST PUSH1 0x0 PUSH1 0x40 MLOAD DUP1 DUP4 SUB DUP2 PUSH1 0x0 DUP8 GAS CALL ISZERO DUP1 ISZERO PUSH2 0x1765 JUMPI RETURNDATASIZE PUSH1 0x0 DUP1 RETURNDATACOPY RETURNDATASIZE PUSH1 0x0 REVERT JUMPDEST POP POP POP POP PUSH1 0x40 MLOAD RETURNDATASIZE PUSH1 0x0 DUP3 RETURNDATACOPY PUSH1 0x1F RETURNDATASIZE SWAP1 DUP2 ADD PUSH1 0x1F NOT AND DUP3 ADD PUSH1 0x40 MSTORE PUSH2 0x178D SWAP2 SWAP1 DUP2 ADD SWAP1 PUSH2 0x2D16 JUMP JUMPDEST SWAP1 POP DUP1 PUSH1 0x1 DUP3 MLOAD PUSH2 0x179E SWAP2 SWAP1 PUSH2 0x2DA7 JUMP JUMPDEST DUP2 MLOAD DUP2 LT PUSH2 0x17AE JUMPI PUSH2 0x17AE PUSH2 0x2A90 JUMP JUMPDEST PUSH1 0x20 MUL PUSH1 0x20 ADD ADD MLOAD SWAP6 POP PUSH1 0x1 DUP10 MLOAD PUSH2 0x17C6 SWAP2 SWAP1 PUSH2 0x2DA7 JUMP JUMPDEST DUP5 EQ ISZERO PUSH2 0x17D1 JUMPI DUP6 SWAP5 POP JUMPDEST POP POP POP DUP1 DUP1 PUSH2 0x17DF SWAP1 PUSH2 0x2DDB JUMP JUMPDEST SWAP2 POP POP PUSH2 0x1584 JUMP JUMPDEST POP DUP5 MLOAD SWAP1 SWAP2 POP DUP2 SWAP1 JUMPDEST DUP1 ISZERO PUSH2 0x1A00 JUMPI DUP5 DUP2 DUP2 MLOAD DUP2 LT PUSH2 0x1808 JUMPI PUSH2 0x1808 PUSH2 0x2A90 JUMP JUMPDEST PUSH1 0x20 SWAP1 DUP2 MUL SWAP2 SWAP1 SWAP2 ADD ADD MLOAD PUSH1 0x1 SLOAD PUSH1 0x40 MLOAD PUSH4 0x95EA7B3 PUSH1 0xE0 SHL DUP2 MSTORE PUSH1 0x1 PUSH1 0x1 PUSH1 0xA0 SHL SUB SWAP3 DUP4 AND SWAP3 PUSH4 0x95EA7B3 SWAP3 PUSH2 0x1846 SWAP3 SWAP2 AND SWAP1 DUP8 SWAP1 PUSH1 0x4 ADD PUSH2 0x2979 JUMP JUMPDEST PUSH1 0x20 PUSH1 0x40 MLOAD DUP1 DUP4 SUB DUP2 PUSH1 0x0 DUP8 GAS CALL ISZERO DUP1 ISZERO PUSH2 0x1865 JUMPI RETURNDATASIZE PUSH1 0x0 DUP1 RETURNDATACOPY RETURNDATASIZE PUSH1 0x0 REVERT JUMPDEST POP POP POP POP PUSH1 0x40 MLOAD RETURNDATASIZE PUSH1 0x1F NOT PUSH1 0x1F DUP3 ADD AND DUP3 ADD DUP1 PUSH1 0x40 MSTORE POP DUP2 ADD SWAP1 PUSH2 0x1889 SWAP2 SWAP1 PUSH2 0x2992 JUMP JUMPDEST POP PUSH1 0x40 DUP1 MLOAD PUSH1 0x2 DUP1 DUP3 MSTORE PUSH1 0x60 DUP3 ADD DUP4 MSTORE PUSH1 0x0 SWAP3 PUSH1 0x20 DUP4 ADD SWAP1 DUP1 CALLDATASIZE DUP4 CALLDATACOPY ADD SWAP1 POP POP SWAP1 POP DUP6 DUP3 DUP2 MLOAD DUP2 LT PUSH2 0x18BD JUMPI PUSH2 0x18BD PUSH2 0x2A90 JUMP JUMPDEST PUSH1 0x20 MUL PUSH1 0x20 ADD ADD MLOAD DUP2 PUSH1 0x0 DUP2 MLOAD DUP2 LT PUSH2 0x18D8 JUMPI PUSH2 0x18D8 PUSH2 0x2A90 JUMP JUMPDEST PUSH1 0x1 PUSH1 0x1 PUSH1 0xA0 SHL SUB SWAP1 SWAP3 AND PUSH1 0x20 SWAP3 DUP4 MUL SWAP2 SWAP1 SWAP2 ADD SWAP1 SWAP2 ADD MSTORE DUP6 PUSH2 0x18FC PUSH1 0x1 DUP5 PUSH2 0x2DA7 JUMP JUMPDEST DUP2 MLOAD DUP2 LT PUSH2 0x190C JUMPI PUSH2 0x190C PUSH2 0x2A90 JUMP JUMPDEST PUSH1 0x20 MUL PUSH1 0x20 ADD ADD MLOAD DUP2 PUSH1 0x1 DUP2 MLOAD DUP2 LT PUSH2 0x1927 JUMPI PUSH2 0x1927 PUSH2 0x2A90 JUMP JUMPDEST PUSH1 0x1 PUSH1 0x1 PUSH1 0xA0 SHL SUB SWAP3 DUP4 AND PUSH1 0x20 SWAP2 DUP3 MUL SWAP3 SWAP1 SWAP3 ADD ADD MSTORE PUSH1 0x1 SLOAD PUSH1 0x0 SWAP2 AND PUSH4 0x38ED1739 DUP7 DUP4 DUP6 ADDRESS PUSH2 0x1959 TIMESTAMP PUSH2 0x12C PUSH2 0x2C6B JUMP JUMPDEST PUSH1 0x40 MLOAD DUP7 PUSH4 0xFFFFFFFF AND PUSH1 0xE0 SHL DUP2 MSTORE PUSH1 0x4 ADD PUSH2 0x1979 SWAP6 SWAP5 SWAP4 SWAP3 SWAP2 SWAP1 PUSH2 0x2CA5 JUMP JUMPDEST PUSH1 0x0 PUSH1 0x40 MLOAD DUP1 DUP4 SUB DUP2 PUSH1 0x0 DUP8 GAS CALL ISZERO DUP1 ISZERO PUSH2 0x1998 JUMPI RETURNDATASIZE PUSH1 0x0 DUP1 RETURNDATACOPY RETURNDATASIZE PUSH1 0x0 REVERT JUMPDEST POP POP POP POP PUSH1 0x40 MLOAD RETURNDATASIZE PUSH1 0x0 DUP3 RETURNDATACOPY PUSH1 0x1F RETURNDATASIZE SWAP1 DUP2 ADD PUSH1 0x1F NOT AND DUP3 ADD PUSH1 0x40 MSTORE PUSH2 0x19C0 SWAP2 SWAP1 DUP2 ADD SWAP1 PUSH2 0x2D16 JUMP JUMPDEST SWAP1 POP DUP1 PUSH1 0x1 DUP3 MLOAD PUSH2 0x19D1 SWAP2 SWAP1 PUSH2 0x2DA7 JUMP JUMPDEST DUP2 MLOAD DUP2 LT PUSH2 0x19E1 JUMPI PUSH2 0x19E1 PUSH2 0x2A90 JUMP JUMPDEST PUSH1 0x20 MUL PUSH1 0x20 ADD ADD MLOAD SWAP5 POP POP POP DUP1 DUP1 PUSH2 0x19F8 SWAP1 PUSH2 0x2DF6 JUMP JUMPDEST SWAP2 POP POP PUSH2 0x17F0 JUMP JUMPDEST POP DUP2 PUSH1 0x0 DUP9 DUP3 GT ISZERO PUSH2 0x1A19 JUMPI PUSH2 0x1A16 DUP10 DUP4 PUSH2 0x2DA7 JUMP JUMPDEST SWAP1 POP JUMPDEST DUP8 DUP2 GT ISZERO PUSH2 0x1A32 JUMPI PUSH2 0x1A2B DUP9 DUP3 PUSH2 0x2DA7 JUMP JUMPDEST SWAP1 POP PUSH2 0x1A7A JUMP JUMPDEST PUSH1 0x40 MLOAD PUSH3 0x461BCD PUSH1 0xE5 SHL DUP2 MSTORE PUSH1 0x20 PUSH1 0x4 DUP3 ADD MSTORE PUSH1 0x1F PUSH1 0x24 DUP3 ADD MSTORE PUSH32 0x556E70726F66697461626C65206D756C74692D686F702073616E647769636800 PUSH1 0x44 DUP3 ADD MSTORE PUSH1 0x64 ADD PUSH2 0x1F8 JUMP JUMPDEST PUSH1 0x0 SLOAD PUSH1 0x40 MLOAD PUSH4 0xA9059CBB PUSH1 0xE0 SHL DUP2 MSTORE PUSH1 0x1 PUSH1 0x1 PUSH1 0xA0 SHL SUB DUP13 DUP2 AND SWAP3 PUSH4 0xA9059CBB SWAP3 PUSH2 0xFC7 SWAP3 SWAP1 SWAP2 AND SWAP1 DUP6 SWAP1 PUSH1 0x4 ADD PUSH2 0x2979 JUMP JUMPDEST PUSH1 0x0 PUSH2 0x1ABB PUSH1 0x2 DUP7 PUSH2 0x2C83 JUMP JUMPDEST SWAP1 POP PUSH1 0x0 PUSH2 0x1AC9 DUP3 DUP8 PUSH2 0x2DA7 JUMP JUMPDEST SWAP1 POP PUSH1 0x0 PUSH2 0x1AD7 DUP9 DUP5 PUSH2 0x1F7C JUMP JUMPDEST SWAP1 POP PUSH1 0x0 PUSH2 0x1AE7 DUP10 DUP5 DUP9 DUP9 PUSH2 0x22C7 JUMP JUMPDEST SWAP1 POP PUSH1 0x0 DUP5 DUP4 GT PUSH2 0x1AF9 JUMPI PUSH1 0x0 PUSH2 0x1B03 JUMP JUMPDEST PUSH2 0x1B03 DUP6 DUP5 PUSH2 0x2DA7 JUMP JUMPDEST SWAP1 POP PUSH1 0x0 DUP5 DUP4 GT PUSH2 0x1B15 JUMPI PUSH1 0x0 PUSH2 0x1B1F JUMP JUMPDEST PUSH2 0x1B1F DUP6 DUP5 PUSH2 0x2DA7 JUMP JUMPDEST SWAP1 POP PUSH1 0x0 PUSH2 0x1B2D DUP3 DUP5 PUSH2 0x2C6B JUMP JUMPDEST SWAP1 POP DUP10 DUP2 GT ISZERO PUSH2 0x1B48 JUMPI PUSH2 0x1B41 DUP11 DUP3 PUSH2 0x2DA7 JUMP JUMPDEST SWAP1 POP PUSH2 0x1B90 JUMP JUMPDEST PUSH1 0x40 MLOAD PUSH3 0x461BCD PUSH1 0xE5 SHL DUP2 MSTORE PUSH1 0x20 PUSH1 0x4 DUP3 ADD MSTORE PUSH1 0x1E PUSH1 0x24 DUP3 ADD MSTORE PUSH32 0x556E70726F66697461626C6520636F6D62696E65642073747261746567790000 PUSH1 0x44 DUP3 ADD MSTORE PUSH1 0x64 ADD PUSH2 0x1F8 JUMP JUMPDEST PUSH1 0x0 SLOAD PUSH1 0x40 MLOAD PUSH4 0xA9059CBB PUSH1 0xE0 SHL DUP2 MSTORE PUSH1 0x1 PUSH1 0x1 PUSH1 0xA0 SHL SUB DUP15 DUP2 AND SWAP3 PUSH4 0xA9059CBB SWAP3 PUSH2 0x1BC4 SWAP3 SWAP1 SWAP2 AND SWAP1 DUP6 SWAP1 PUSH1 0x4 ADD PUSH2 0x2979 JUMP JUMPDEST PUSH1 0x20 PUSH1 0x40 MLOAD DUP1 DUP4 SUB DUP2 PUSH1 0x0 DUP8 GAS CALL ISZERO DUP1 ISZERO PUSH2 0x1BE3 JUMPI RETURNDATASIZE PUSH1 0x0 DUP1 RETURNDATACOPY RETURNDATASIZE PUSH1 0x0 REVERT JUMPDEST POP POP POP POP PUSH1 0x40 MLOAD RETURNDATASIZE PUSH1 0x1F NOT PUSH1 0x1F DUP3 ADD AND DUP3 ADD DUP1 PUSH1 0x40 MSTORE POP DUP2 ADD SWAP1 PUSH2 0x1C07 SWAP2 SWAP1 PUSH2 0x2992 JUMP JUMPDEST POP POP POP POP POP POP POP POP POP POP POP POP POP JUMP JUMPDEST PUSH1 0x1 SLOAD PUSH1 0x40 MLOAD PUSH4 0x95EA7B3 PUSH1 0xE0 SHL DUP2 MSTORE PUSH1 0x0 SWAP2 PUSH1 0x1 PUSH1 0x1 PUSH1 0xA0 SHL SUB DUP1 DUP8 AND SWAP3 PUSH4 0x95EA7B3 SWAP3 PUSH2 0x1C4B SWAP3 AND SWAP1 DUP7 SWAP1 PUSH1 0x4 ADD PUSH2 0x2979 JUMP JUMPDEST PUSH1 0x20 PUSH1 0x40 MLOAD DUP1 DUP4 SUB DUP2 PUSH1 0x0 DUP8 GAS CALL ISZERO DUP1 ISZERO PUSH2 0x1C6A JUMPI RETURNDATASIZE PUSH1 0x0 DUP1 RETURNDATACOPY RETURNDATASIZE PUSH1 0x0 REVERT JUMPDEST POP POP POP POP PUSH1 0x40 MLOAD RETURNDATASIZE PUSH1 0x1F NOT PUSH1 0x1F DUP3 ADD AND DUP3 ADD DUP1 PUSH1 0x40 MSTORE POP DUP2 ADD SWAP1 PUSH2 0x1C8E SWAP2 SWAP1 PUSH2 0x2992 JUMP JUMPDEST POP PUSH1 0x40 DUP1 MLOAD PUSH1 0x2 DUP1 DUP3 MSTORE PUSH1 0x60 DUP3 ADD DUP4 MSTORE PUSH1 0x0 SWAP3 PUSH1 0x20 DUP4 ADD SWAP1 DUP1 CALLDATASIZE DUP4 CALLDATACOPY ADD SWAP1 POP POP SWAP1 POP DUP5 DUP2 PUSH1 0x0 DUP2 MLOAD DUP2 LT PUSH2 0x1CC4 JUMPI PUSH2 0x1CC4 PUSH2 0x2A90 JUMP JUMPDEST PUSH1 0x20 MUL PUSH1 0x20 ADD ADD SWAP1 PUSH1 0x1 PUSH1 0x1 PUSH1 0xA0 SHL SUB AND SWAP1 DUP2 PUSH1 0x1 PUSH1 0x1 PUSH1 0xA0 SHL SUB AND DUP2 MSTORE POP POP DUP4 DUP2 PUSH1 0x1 DUP2 MLOAD DUP2 LT PUSH2 0x1CF8 JUMPI PUSH2 0x1CF8 PUSH2 0x2A90 JUMP JUMPDEST PUSH1 0x1 PUSH1 0x1 PUSH1 0xA0 SHL SUB SWAP3 DUP4 AND PUSH1 0x20 SWAP2 DUP3 MUL SWAP3 SWAP1 SWAP3 ADD ADD MSTORE PUSH1 0x1 SLOAD PUSH1 0x0 SWAP2 AND PUSH4 0x38ED1739 DUP6 DUP4 DUP6 ADDRESS PUSH2 0x1D2A TIMESTAMP PUSH2 0x12C PUSH2 0x2C6B JUMP JUMPDEST PUSH1 0x40 MLOAD DUP7 PUSH4 0xFFFFFFFF AND PUSH1 0xE0 SHL DUP2 MSTORE PUSH1 0x4 ADD PUSH2 0x1D4A SWAP6 SWAP5 SWAP4 SWAP3 SWAP2 SWAP1 PUSH2 0x2CA5 JUMP JUMPDEST PUSH1 0x0 PUSH1 0x40 MLOAD DUP1 DUP4 SUB DUP2 PUSH1 0x0 DUP8 GAS CALL ISZERO DUP1 ISZERO PUSH2 0x1D69 JUMPI RETURNDATASIZE PUSH1 0x0 DUP1 RETURNDATACOPY RETURNDATASIZE PUSH1 0x0 REVERT JUMPDEST POP POP POP POP PUSH1 0x40 MLOAD RETURNDATASIZE PUSH1 0x0 DUP3 RETURNDATACOPY PUSH1 0x1F RETURNDATASIZE SWAP1 DUP2 ADD PUSH1 0x1F NOT AND DUP3 ADD PUSH1 0x40 MSTORE PUSH2 0x1D91 SWAP2 SWAP1 DUP2 ADD SWAP1 PUSH2 0x2D16 JUMP JUMPDEST SWAP1 POP DUP1 PUSH1 0x1 DUP3 MLOAD PUSH2 0x1DA2 SWAP2 SWAP1 PUSH2 0x2DA7 JUMP JUMPDEST DUP2 MLOAD DUP2 LT PUSH2 0x1DB2 JUMPI PUSH2 0x1DB2 PUSH2 0x2A90 JUMP JUMPDEST PUSH1 0x20 MUL PUSH1 0x20 ADD ADD MLOAD SWAP3 POP POP POP SWAP4 SWAP3 POP POP POP JUMP JUMPDEST PUSH1 0x1 SLOAD PUSH1 0x40 MLOAD PUSH4 0x95EA7B3 PUSH1 0xE0 SHL DUP2 MSTORE PUSH1 0x0 SWAP2 PUSH1 0x1 PUSH1 0x1 PUSH1 0xA0 SHL SUB DUP1 DUP7 AND SWAP3 PUSH4 0x95EA7B3 SWAP3 PUSH2 0x1DFA SWAP3 AND SWAP1 DUP7 SWAP1 PUSH1 0x4 ADD PUSH2 0x2979 JUMP JUMPDEST PUSH1 0x20 PUSH1 0x40 MLOAD DUP1 DUP4 SUB DUP2 PUSH1 0x0 DUP8 GAS CALL ISZERO DUP1 ISZERO PUSH2 0x1E19 JUMPI RETURNDATASIZE PUSH1 0x0 DUP1 RETURNDATACOPY RETURNDATASIZE PUSH1 0x0 REVERT JUMPDEST POP POP POP POP PUSH1 0x40 MLOAD RETURNDATASIZE PUSH1 0x1F NOT PUSH1 0x1F DUP3 ADD AND DUP3 ADD DUP1 PUSH1 0x40 MSTORE POP DUP2 ADD SWAP1 PUSH2 0x1E3D SWAP2 SWAP1 PUSH2 0x2992 JUMP JUMPDEST POP PUSH1 0x40 DUP1 MLOAD PUSH1 0x2 DUP1 DUP3 MSTORE PUSH1 0x60 DUP3 ADD DUP4 MSTORE PUSH1 0x0 SWAP3 PUSH1 0x20 DUP4 ADD SWAP1 DUP1 CALLDATASIZE DUP4 CALLDATACOPY ADD SWAP1 POP POP SWAP1 POP DUP4 DUP2 PUSH1 0x0 DUP2 MLOAD DUP2 LT PUSH2 0x1E73 JUMPI PUSH2 0x1E73 PUSH2 0x2A90 JUMP JUMPDEST PUSH1 0x20 MUL PUSH1 0x20 ADD ADD SWAP1 PUSH1 0x1 PUSH1 0x1 PUSH1 0xA0 SHL SUB AND SWAP1 DUP2 PUSH1 0x1 PUSH1 0x1 PUSH1 0xA0 SHL SUB AND DUP2 MSTORE POP POP DUP5 DUP2 PUSH1 0x1 DUP2 MLOAD DUP2 LT PUSH2 0x1CF8 JUMPI PUSH2 0x1CF8 PUSH2 0x2A90 JUMP JUMPDEST PUSH1 0x2 SLOAD PUSH1 0x40 DUP1 MLOAD PUSH1 0x1 PUSH1 0x1 PUSH1 0xA0 SHL SUB DUP7 DUP2 AND DUP3 MSTORE PUSH1 0x20 DUP3 ADD DUP7 SWAP1 MSTORE SWAP2 DUP2 ADD DUP5 SWAP1 MSTORE DUP7 DUP3 AND SWAP3 SWAP2 SWAP1 SWAP2 AND SWAP1 PUSH32 0x7A62EC736327D3EFAEBD2EB5695D0F27201B659E9378D8E83403A64101B6081B SWAP1 PUSH1 0x60 ADD PUSH1 0x40 MLOAD DUP1 SWAP2 SUB SWAP1 LOG3 PUSH1 0x0 SLOAD PUSH1 0x40 MLOAD PUSH4 0xA9059CBB PUSH1 0xE0 SHL DUP2 MSTORE PUSH1 0x1 PUSH1 0x1 PUSH1 0xA0 SHL SUB DUP6 DUP2 AND SWAP3 PUSH4 0xA9059CBB SWAP3 PUSH2 0x1F32 SWAP3 SWAP1 SWAP2 AND SWAP1 DUP6 SWAP1 PUSH1 0x4 ADD PUSH2 0x2979 JUMP JUMPDEST PUSH1 0x20 PUSH1 0x40 MLOAD DUP1 DUP4 SUB DUP2 PUSH1 0x0 DUP8 GAS CALL ISZERO DUP1 ISZERO PUSH2 0x1F51 JUMPI RETURNDATASIZE PUSH1 0x0 DUP1 RETURNDATACOPY RETURNDATASIZE PUSH1 0x0 REVERT JUMPDEST POP POP POP POP PUSH1 0x40 MLOAD RETURNDATASIZE PUSH1 0x1F NOT PUSH1 0x1F DUP3 ADD AND DUP3 ADD DUP1 PUSH1 0x40 MSTORE POP DUP2 ADD SWAP1 PUSH2 0x1F75 SWAP2 SWAP1 PUSH2 0x2992 JUMP JUMPDEST POP POP POP POP POP JUMP JUMPDEST PUSH1 0x1 SLOAD PUSH1 0x40 MLOAD PUSH4 0x95EA7B3 PUSH1 0xE0 SHL DUP2 MSTORE PUSH1 0x0 SWAP2 PUSH1 0x1 PUSH1 0x1 PUSH1 0xA0 SHL SUB DUP1 DUP7 AND SWAP3 PUSH4 0x95EA7B3 SWAP3 PUSH2 0x1FB1 SWAP3 AND SWAP1 DUP7 SWAP1 PUSH1 0x4 ADD PUSH2 0x2979 JUMP JUMPDEST PUSH1 0x20 PUSH1 0x40 MLOAD DUP1 DUP4 SUB DUP2 PUSH1 0x0 DUP8 GAS CALL ISZERO DUP1 ISZERO PUSH2 0x1FD0 JUMPI RETURNDATASIZE PUSH1 0x0 DUP1 RETURNDATACOPY RETURNDATASIZE PUSH1 0x0 REVERT JUMPDEST POP POP POP POP PUSH1 0x40 MLOAD RETURNDATASIZE PUSH1 0x1F NOT PUSH1 0x1F DUP3 ADD AND DUP3 ADD DUP1 PUSH1 0x40 MSTORE POP DUP2 ADD SWAP1 PUSH2 0x1FF4 SWAP2 SWAP1 PUSH2 0x2992 JUMP JUMPDEST POP PUSH1 0x40 DUP1 MLOAD PUSH1 0x2 DUP1 DUP3 MSTORE PUSH1 0x60 DUP3 ADD DUP4 MSTORE PUSH1 0x0 SWAP3 PUSH1 0x20 DUP4 ADD SWAP1 DUP1 CALLDATASIZE DUP4 CALLDATACOPY ADD SWAP1 POP POP SWAP1 POP DUP4 DUP2 PUSH1 0x0 DUP2 MLOAD DUP2 LT PUSH2 0x202A JUMPI PUSH2 0x202A PUSH2 0x2A90 JUMP JUMPDEST PUSH1 0x1 PUSH1 0x1 PUSH1 0xA0 SHL SUB SWAP3 DUP4 AND PUSH1 0x20 SWAP2 DUP3 MUL SWAP3 SWAP1 SWAP3 ADD ADD MSTORE PUSH1 0x4 SLOAD DUP3 MLOAD SWAP2 AND SWAP1 DUP3 SWAP1 PUSH1 0x1 SWAP1 DUP2 LT PUSH2 0x205B JUMPI PUSH2 0x205B PUSH2 0x2A90 JUMP JUMPDEST PUSH1 0x1 PUSH1 0x1 PUSH1 0xA0 SHL SUB SWAP3 DUP4 AND PUSH1 0x20 SWAP2 DUP3 MUL SWAP3 SWAP1 SWAP3 ADD ADD MSTORE PUSH1 0x1 SLOAD PUSH1 0x0 SWAP2 AND PUSH4 0x38ED1739 DUP6 DUP4 DUP6 ADDRESS PUSH2 0x208D TIMESTAMP PUSH2 0x12C PUSH2 0x2C6B JUMP JUMPDEST PUSH1 0x40 MLOAD DUP7 PUSH4 0xFFFFFFFF AND PUSH1 0xE0 SHL DUP2 MSTORE PUSH1 0x4 ADD PUSH2 0x20AD SWAP6 SWAP5 SWAP4 SWAP3 SWAP2 SWAP1 PUSH2 0x2CA5 JUMP JUMPDEST PUSH1 0x0 PUSH1 0x40 MLOAD DUP1 DUP4 SUB DUP2 PUSH1 0x0 DUP8 GAS CALL ISZERO DUP1 ISZERO PUSH2 0x20CC JUMPI RETURNDATASIZE PUSH1 0x0 DUP1 RETURNDATACOPY RETURNDATASIZE PUSH1 0x0 REVERT JUMPDEST POP POP POP POP PUSH1 0x40 MLOAD RETURNDATASIZE PUSH1 0x0 DUP3 RETURNDATACOPY PUSH1 0x1F RETURNDATASIZE SWAP1 DUP2 ADD PUSH1 0x1F NOT AND DUP3 ADD PUSH1 0x40 MSTORE PUSH2 0x20F4 SWAP2 SWAP1 DUP2 ADD SWAP1 PUSH2 0x2D16 JUMP JUMPDEST SWAP1 POP PUSH1 0x0 DUP2 PUSH1 0x1 DUP4 MLOAD PUSH2 0x2107 SWAP2 SWAP1 PUSH2 0x2DA7 JUMP JUMPDEST DUP2 MLOAD DUP2 LT PUSH2 0x2117 JUMPI PUSH2 0x2117 PUSH2 0x2A90 JUMP JUMPDEST PUSH1 0x20 MUL PUSH1 0x20 ADD ADD MLOAD SWAP1 POP PUSH1 0x4 PUSH1 0x0 SWAP1 SLOAD SWAP1 PUSH2 0x100 EXP SWAP1 DIV PUSH1 0x1 PUSH1 0x1 PUSH1 0xA0 SHL SUB AND DUP4 PUSH1 0x0 DUP2 MLOAD DUP2 LT PUSH2 0x214A JUMPI PUSH2 0x214A PUSH2 0x2A90 JUMP JUMPDEST PUSH1 0x20 MUL PUSH1 0x20 ADD ADD SWAP1 PUSH1 0x1 PUSH1 0x1 PUSH1 0xA0 SHL SUB AND SWAP1 DUP2 PUSH1 0x1 PUSH1 0x1 PUSH1 0xA0 SHL SUB AND DUP2 MSTORE POP POP DUP6 DUP4 PUSH1 0x1 DUP2 MLOAD DUP2 LT PUSH2 0x217E JUMPI PUSH2 0x217E PUSH2 0x2A90 JUMP JUMPDEST PUSH1 0x1 PUSH1 0x1 PUSH1 0xA0 SHL SUB SWAP3 DUP4 AND PUSH1 0x20 SWAP2 DUP3 MUL SWAP3 SWAP1 SWAP3 ADD ADD MSTORE PUSH1 0x4 DUP1 SLOAD PUSH1 0x1 SLOAD PUSH1 0x40 MLOAD PUSH4 0x95EA7B3 PUSH1 0xE0 SHL DUP2 MSTORE SWAP2 DUP5 AND SWAP4 PUSH4 0x95EA7B3 SWAP4 PUSH2 0x21C3 SWAP4 SWAP3 SWAP1 SWAP2 AND SWAP2 DUP7 SWAP2 ADD PUSH2 0x2979 JUMP JUMPDEST PUSH1 0x20 PUSH1 0x40 MLOAD DUP1 DUP4 SUB DUP2 PUSH1 0x0 DUP8 GAS CALL ISZERO DUP1 ISZERO PUSH2 0x21E2 JUMPI RETURNDATASIZE PUSH1 0x0 DUP1 RETURNDATACOPY RETURNDATASIZE PUSH1 0x0 REVERT JUMPDEST POP POP POP POP PUSH1 0x40 MLOAD RETURNDATASIZE PUSH1 0x1F NOT PUSH1 0x1F DUP3 ADD AND DUP3 ADD DUP1 PUSH1 0x40 MSTORE POP DUP2 ADD SWAP1 PUSH2 0x2206 SWAP2 SWAP1 PUSH2 0x2992 JUMP JUMPDEST POP PUSH1 0x1 SLOAD PUSH1 0x0 SWAP1 PUSH1 0x1 PUSH1 0x1 PUSH1 0xA0 SHL SUB AND PUSH4 0x38ED1739 DUP4 DUP4 DUP8 ADDRESS PUSH2 0x222B TIMESTAMP PUSH2 0x12C PUSH2 0x2C6B JUMP JUMPDEST PUSH1 0x40 MLOAD DUP7 PUSH4 0xFFFFFFFF AND PUSH1 0xE0 SHL DUP2 MSTORE PUSH1 0x4 ADD PUSH2 0x224B SWAP6 SWAP5 SWAP4 SWAP3 SWAP2 SWAP1 PUSH2 0x2CA5 JUMP JUMPDEST PUSH1 0x0 PUSH1 0x40 MLOAD DUP1 DUP4 SUB DUP2 PUSH1 0x0 DUP8 GAS CALL ISZERO DUP1 ISZERO PUSH2 0x226A JUMPI RETURNDATASIZE PUSH1 0x0 DUP1 RETURNDATACOPY RETURNDATASIZE PUSH1 0x0 REVERT JUMPDEST POP POP POP POP PUSH1 0x40 MLOAD RETURNDATASIZE PUSH1 0x0 DUP3 RETURNDATACOPY PUSH1 0x1F RETURNDATASIZE SWAP1 DUP2 ADD PUSH1 0x1F NOT AND DUP3 ADD PUSH1 0x40 MSTORE PUSH2 0x2292 SWAP2 SWAP1 DUP2 ADD SWAP1 PUSH2 0x2D16 JUMP JUMPDEST SWAP1 POP DUP1 PUSH1 0x1 DUP3 MLOAD PUSH2 0x22A3 SWAP2 SWAP1 PUSH2 0x2DA7 JUMP JUMPDEST DUP2 MLOAD DUP2 LT PUSH2 0x22B3 JUMPI PUSH2 0x22B3 PUSH2 0x2A90 JUMP JUMPDEST PUSH1 0x20 MUL PUSH1 0x20 ADD ADD MLOAD SWAP5 POP POP POP POP POP SWAP3 SWAP2 POP POP JUMP JUMPDEST PUSH1 0x0 DUP1 DUP4 SWAP1 POP PUSH1 0x0 DUP2 PUSH1 0x1 PUSH1 0x1 PUSH1 0xA0 SHL SUB AND PUSH4 0xDFE1681 PUSH1 0x40 MLOAD DUP2 PUSH4 0xFFFFFFFF AND PUSH1 0xE0 SHL DUP2 MSTORE PUSH1 0x4 ADD PUSH1 0x20 PUSH1 0x40 MLOAD DUP1 DUP4 SUB DUP2 DUP7 GAS STATICCALL ISZERO DUP1 ISZERO PUSH2 0x230D JUMPI RETURNDATASIZE PUSH1 0x0 DUP1 RETURNDATACOPY RETURNDATASIZE PUSH1 0x0 REVERT JUMPDEST POP POP POP POP PUSH1 0x40 MLOAD RETURNDATASIZE PUSH1 0x1F NOT PUSH1 0x1F DUP3 ADD AND DUP3 ADD DUP1 PUSH1 0x40 MSTORE POP DUP2 ADD SWAP1 PUSH2 0x2331 SWAP2 SWAP1 PUSH2 0x2DBE JUMP JUMPDEST SWAP1 POP PUSH1 0x0 DUP3 PUSH1 0x1 PUSH1 0x1 PUSH1 0xA0 SHL SUB AND PUSH4 0xD21220A7 PUSH1 0x40 MLOAD DUP2 PUSH4 0xFFFFFFFF AND PUSH1 0xE0 SHL DUP2 MSTORE PUSH1 0x4 ADD PUSH1 0x20 PUSH1 0x40 MLOAD DUP1 DUP4 SUB DUP2 DUP7 GAS STATICCALL ISZERO DUP1 ISZERO PUSH2 0x2373 JUMPI RETURNDATASIZE PUSH1 0x0 DUP1 RETURNDATACOPY RETURNDATASIZE PUSH1 0x0 REVERT JUMPDEST POP POP POP POP PUSH1 0x40 MLOAD RETURNDATASIZE PUSH1 0x1F NOT PUSH1 0x1F DUP3 ADD AND DUP3 ADD DUP1 PUSH1 0x40 MSTORE POP DUP2 ADD SWAP1 PUSH2 0x2397 SWAP2 SWAP1 PUSH2 0x2DBE JUMP JUMPDEST SWAP1 POP PUSH1 0x0 DUP3 PUSH1 0x1 PUSH1 0x1 PUSH1 0xA0 SHL SUB AND DUP10 PUSH1 0x1 PUSH1 0x1 PUSH1 0xA0 SHL SUB AND EQ PUSH2 0x23BA JUMPI DUP3 PUSH2 0x23BC JUMP JUMPDEST DUP2 JUMPDEST PUSH1 0x1 SLOAD PUSH1 0x40 MLOAD PUSH4 0x95EA7B3 PUSH1 0xE0 SHL DUP2 MSTORE SWAP2 SWAP3 POP PUSH1 0x1 PUSH1 0x1 PUSH1 0xA0 SHL SUB DUP1 DUP13 AND SWAP3 PUSH4 0x95EA7B3 SWAP3 PUSH2 0x23F1 SWAP3 AND SWAP1 DUP13 SWAP1 PUSH1 0x4 ADD PUSH2 0x2979 JUMP JUMPDEST PUSH1 0x20 PUSH1 0x40 MLOAD DUP1 DUP4 SUB DUP2 PUSH1 0x0 DUP8 GAS CALL ISZERO DUP1 ISZERO PUSH2 0x2410 JUMPI RETURNDATASIZE PUSH1 0x0 DUP1 RETURNDATACOPY RETURNDATASIZE PUSH1 0x0 REVERT JUMPDEST POP POP POP POP PUSH1 0x40 MLOAD RETURNDATASIZE PUSH1 0x1F NOT PUSH1 0x1F DUP3 ADD AND DUP3 ADD DUP1 PUSH1 0x40 MSTORE POP DUP2 ADD SWAP1 PUSH2 0x2434 SWAP2 SWAP1 PUSH2 0x2992 JUMP JUMPDEST POP PUSH1 0x40 DUP1 MLOAD PUSH1 0x2 DUP1 DUP3 MSTORE PUSH1 0x60 DUP3 ADD DUP4 MSTORE PUSH1 0x0 SWAP3 PUSH1 0x20 DUP4 ADD SWAP1 DUP1 CALLDATASIZE DUP4 CALLDATACOPY ADD SWAP1 POP POP SWAP1 POP DUP10 DUP2 PUSH1 0x0 DUP2 MLOAD DUP2 LT PUSH2 0x246A JUMPI PUSH2 0x246A PUSH2 0x2A90 JUMP JUMPDEST PUSH1 0x20 MUL PUSH1 0x20 ADD ADD SWAP1 PUSH1 0x1 PUSH1 0x1 PUSH1 0xA0 SHL SUB AND SWAP1 DUP2 PUSH1 0x1 PUSH1 0x1 PUSH1 0xA0 SHL SUB AND DUP2 MSTORE POP POP DUP2 DUP2 PUSH1 0x1 DUP2 MLOAD DUP2 LT PUSH2 0x249E JUMPI PUSH2 0x249E PUSH2 0x2A90 JUMP JUMPDEST PUSH1 0x1 PUSH1 0x1 PUSH1 0xA0 SHL SUB SWAP3 DUP4 AND PUSH1 0x20 SWAP2 DUP3 MUL SWAP3 SWAP1 SWAP3 ADD ADD MSTORE PUSH1 0x1 SLOAD PUSH1 0x0 SWAP2 AND PUSH4 0x38ED1739 DUP12 DUP4 DUP6 ADDRESS PUSH2 0x24D0 TIMESTAMP PUSH2 0x12C PUSH2 0x2C6B JUMP JUMPDEST PUSH1 0x40 MLOAD DUP7 PUSH4 0xFFFFFFFF AND PUSH1 0xE0 SHL DUP2 MSTORE PUSH1 0x4 ADD PUSH2 0x24F0 SWAP6 SWAP5 SWAP4 SWAP3 SWAP2 SWAP1 PUSH2 0x2CA5 JUMP JUMPDEST PUSH1 0x0 PUSH1 0x40 MLOAD DUP1 DUP4 SUB DUP2 PUSH1 0x0 DUP8 GAS CALL ISZERO DUP1 ISZERO PUSH2 0x250F JUMPI RETURNDATASIZE PUSH1 0x0 DUP1 RETURNDATACOPY RETURNDATASIZE PUSH1 0x0 REVERT JUMPDEST POP POP POP POP PUSH1 0x40 MLOAD RETURNDATASIZE PUSH1 0x0 DUP3 RETURNDATACOPY PUSH1 0x1F RETURNDATASIZE SWAP1 DUP2 ADD PUSH1 0x1F NOT AND DUP3 ADD PUSH1 0x40 MSTORE PUSH2 0x2537 SWAP2 SWAP1 DUP2 ADD SWAP1 PUSH2 0x2D16 JUMP JUMPDEST SWAP1 POP PUSH1 0x0 DUP2 PUSH1 0x1 DUP4 MLOAD PUSH2 0x254A SWAP2 SWAP1 PUSH2 0x2DA7 JUMP JUMPDEST DUP2 MLOAD DUP2 LT PUSH2 0x255A JUMPI PUSH2 0x255A PUSH2 0x2A90 JUMP JUMPDEST PUSH1 0x20 MUL PUSH1 0x20 ADD ADD MLOAD SWAP1 POP DUP4 DUP4 PUSH1 0x0 DUP2 MLOAD DUP2 LT PUSH2 0x2578 JUMPI PUSH2 0x2578 PUSH2 0x2A90 JUMP JUMPDEST PUSH1 0x20 MUL PUSH1 0x20 ADD ADD SWAP1 PUSH1 0x1 PUSH1 0x1 PUSH1 0xA0 SHL SUB AND SWAP1 DUP2 PUSH1 0x1 PUSH1 0x1 PUSH1 0xA0 SHL SUB AND DUP2 MSTORE POP POP DUP12 DUP4 PUSH1 0x1 DUP2 MLOAD DUP2 LT PUSH2 0x25AC JUMPI PUSH2 0x25AC PUSH2 0x2A90 JUMP JUMPDEST PUSH1 0x1 PUSH1 0x1 PUSH1 0xA0 SHL SUB SWAP3 DUP4 AND PUSH1 0x20 SWAP2 DUP3 MUL SWAP3 SWAP1 SWAP3 ADD ADD MSTORE PUSH1 0x1 SLOAD PUSH1 0x40 MLOAD PUSH4 0x95EA7B3 PUSH1 0xE0 SHL DUP2 MSTORE DUP7 DUP4 AND SWAP3 PUSH4 0x95EA7B3 SWAP3 PUSH2 0x25ED SWAP3 SWAP2 AND SWAP1 DUP6 SWAP1 PUSH1 0x4 ADD PUSH2 0x2979 JUMP JUMPDEST PUSH1 0x20 PUSH1 0x40 MLOAD DUP1 DUP4 SUB DUP2 PUSH1 0x0 DUP8 GAS CALL ISZERO DUP1 ISZERO PUSH2 0x260C JUMPI RETURNDATASIZE PUSH1 0x0 DUP1 RETURNDATACOPY RETURNDATASIZE PUSH1 0x0 REVERT JUMPDEST POP POP POP POP PUSH1 0x40 MLOAD RETURNDATASIZE PUSH1 0x1F NOT PUSH1 0x1F DUP3 ADD AND DUP3 ADD DUP1 PUSH1 0x40 MSTORE POP DUP2 ADD SWAP1 PUSH2 0x2630 SWAP2 SWAP1 PUSH2 0x2992 JUMP JUMPDEST POP PUSH1 0x1 SLOAD PUSH1 0x0 SWAP1 PUSH1 0x1 PUSH1 0x1 PUSH1 0xA0 SHL SUB AND PUSH4 0x38ED1739 DUP4 DUP4 DUP8 ADDRESS PUSH2 0x2655 TIMESTAMP PUSH2 0x12C PUSH2 0x2C6B JUMP JUMPDEST PUSH1 0x40 MLOAD DUP7 PUSH4 0xFFFFFFFF AND PUSH1 0xE0 SHL DUP2 MSTORE PUSH1 0x4 ADD PUSH2 0x2675 SWAP6 SWAP5 SWAP4 SWAP3 SWAP2 SWAP1 PUSH2 0x2CA5 JUMP JUMPDEST PUSH1 0x0 PUSH1 0x40 MLOAD DUP1 DUP4 SUB DUP2 PUSH1 0x0 DUP8 GAS CALL ISZERO DUP1 ISZERO PUSH2 0x2694 JUMPI RETURNDATASIZE PUSH1 0x0 DUP1 RETURNDATACOPY RETURNDATASIZE PUSH1 0x0 REVERT JUMPDEST POP POP POP POP PUSH1 0x40 MLOAD RETURNDATASIZE PUSH1 0x0 DUP3 RETURNDATACOPY PUSH1 0x1F RETURNDATASIZE SWAP1 DUP2 ADD PUSH1 0x1F NOT AND DUP3 ADD PUSH1 0x40 MSTORE PUSH2 0x26BC SWAP2 SWAP1 DUP2 ADD SWAP1 PUSH2 0x2D16 JUMP JUMPDEST SWAP1 POP DUP1 PUSH1 0x1 DUP3 MLOAD PUSH2 0x26CD SWAP2 SWAP1 PUSH2 0x2DA7 JUMP JUMPDEST DUP2 MLOAD DUP2 LT PUSH2 0x26DD JUMPI PUSH2 0x26DD PUSH2 0x2A90 JUMP JUMPDEST PUSH1 0x20 MUL PUSH1 0x20 ADD ADD MLOAD SWAP9 POP POP POP POP POP POP POP POP POP SWAP5 SWAP4 POP POP POP POP JUMP JUMPDEST PUSH1 0x1 PUSH1 0x1 PUSH1 0xA0 SHL SUB DUP2 AND DUP2 EQ PUSH2 0x270C JUMPI PUSH1 0x0 DUP1 REVERT JUMPDEST POP JUMP JUMPDEST PUSH1 0x0 PUSH1 0x20 DUP3 DUP5 SUB SLT ISZERO PUSH2 0x2721 JUMPI PUSH1 0x0 DUP1 REVERT JUMPDEST DUP2 CALLDATALOAD PUSH2 0x272C DUP2 PUSH2 0x26F7 JUMP JUMPDEST SWAP4 SWAP3 POP POP POP JUMP JUMPDEST PUSH1 0x0 DUP1 DUP4 PUSH1 0x1F DUP5 ADD SLT PUSH2 0x2745 JUMPI PUSH1 0x0 DUP1 REVERT JUMPDEST POP DUP2 CALLDATALOAD PUSH8 0xFFFFFFFFFFFFFFFF DUP2 GT ISZERO PUSH2 0x275D JUMPI PUSH1 0x0 DUP1 REVERT JUMPDEST PUSH1 0x20 DUP4 ADD SWAP2 POP DUP4 PUSH1 0x20 DUP3 PUSH1 0x5 SHL DUP6 ADD ADD GT ISZERO PUSH2 0x2778 JUMPI PUSH1 0x0 DUP1 REVERT JUMPDEST SWAP3 POP SWAP3 SWAP1 POP JUMP JUMPDEST PUSH1 0x0 DUP1 DUP4 PUSH1 0x1F DUP5 ADD SLT PUSH2 0x2791 JUMPI PUSH1 0x0 DUP1 REVERT JUMPDEST POP DUP2 CALLDATALOAD PUSH8 0xFFFFFFFFFFFFFFFF DUP2 GT ISZERO PUSH2 0x27A9 JUMPI PUSH1 0x0 DUP1 REVERT JUMPDEST PUSH1 0x20 DUP4 ADD SWAP2 POP DUP4 PUSH1 0x20 DUP3 DUP6 ADD ADD GT ISZERO PUSH2 0x2778 JUMPI PUSH1 0x0 DUP1 REVERT JUMPDEST PUSH1 0x0 DUP1 PUSH1 0x0 DUP1 PUSH1 0x0 DUP1 PUSH1 0x0 DUP1 PUSH1 0x0 PUSH1 0xA0 DUP11 DUP13 SUB SLT ISZERO PUSH2 0x27DF JUMPI PUSH1 0x0 DUP1 REVERT JUMPDEST DUP10 CALLDATALOAD PUSH8 0xFFFFFFFFFFFFFFFF DUP1 DUP3 GT ISZERO PUSH2 0x27F7 JUMPI PUSH1 0x0 DUP1 REVERT JUMPDEST PUSH2 0x2803 DUP14 DUP4 DUP15 ADD PUSH2 0x2733 JUMP JUMPDEST SWAP1 SWAP12 POP SWAP10 POP PUSH1 0x20 DUP13 ADD CALLDATALOAD SWAP2 POP DUP1 DUP3 GT ISZERO PUSH2 0x281C JUMPI PUSH1 0x0 DUP1 REVERT JUMPDEST PUSH2 0x2828 DUP14 DUP4 DUP15 ADD PUSH2 0x2733 JUMP JUMPDEST SWAP1 SWAP10 POP SWAP8 POP PUSH1 0x40 DUP13 ADD CALLDATALOAD SWAP2 POP DUP1 DUP3 GT ISZERO PUSH2 0x2841 JUMPI PUSH1 0x0 DUP1 REVERT JUMPDEST PUSH2 0x284D DUP14 DUP4 DUP15 ADD PUSH2 0x2733 JUMP JUMPDEST SWAP1 SWAP8 POP SWAP6 POP PUSH1 0x60 DUP13 ADD CALLDATALOAD SWAP2 POP PUSH2 0x2862 DUP3 PUSH2 0x26F7 JUMP JUMPDEST SWAP1 SWAP4 POP PUSH1 0x80 DUP12 ADD CALLDATALOAD SWAP1 DUP1 DUP3 GT ISZERO PUSH2 0x2878 JUMPI PUSH1 0x0 DUP1 REVERT JUMPDEST POP PUSH2 0x2885 DUP13 DUP3 DUP14 ADD PUSH2 0x277F JUMP JUMPDEST SWAP2 POP DUP1 SWAP4 POP POP DUP1 SWAP2 POP POP SWAP3 SWAP6 SWAP9 POP SWAP3 SWAP6 SWAP9 POP SWAP3 SWAP6 SWAP9 JUMP JUMPDEST PUSH1 0x0 DUP1 PUSH1 0x0 DUP1 PUSH1 0x0 DUP1 PUSH1 0x0 DUP1 PUSH1 0x80 DUP10 DUP12 SUB SLT ISZERO PUSH2 0x28B8 JUMPI PUSH1 0x0 DUP1 REVERT JUMPDEST DUP9 CALLDATALOAD PUSH8 0xFFFFFFFFFFFFFFFF DUP1 DUP3 GT ISZERO PUSH2 0x28D0 JUMPI PUSH1 0x0 DUP1 REVERT JUMPDEST PUSH2 0x28DC DUP13 DUP4 DUP14 ADD PUSH2 0x2733 JUMP JUMPDEST SWAP1 SWAP11 POP SWAP9 POP PUSH1 0x20 DUP12 ADD CALLDATALOAD SWAP2 POP DUP1 DUP3 GT ISZERO PUSH2 0x28F5 JUMPI PUSH1 0x0 DUP1 REVERT JUMPDEST PUSH2 0x2901 DUP13 DUP4 DUP14 ADD PUSH2 0x2733 JUMP JUMPDEST SWAP1 SWAP9 POP SWAP7 POP PUSH1 0x40 DUP12 ADD CALLDATALOAD SWAP2 POP DUP1 DUP3 GT ISZERO PUSH2 0x291A JUMPI PUSH1 0x0 DUP1 REVERT JUMPDEST PUSH2 0x2926 DUP13 DUP4 DUP14 ADD PUSH2 0x2733 JUMP JUMPDEST SWAP1 SWAP7 POP SWAP5 POP PUSH1 0x60 DUP12 ADD CALLDATALOAD SWAP2 POP DUP1 DUP3 GT ISZERO PUSH2 0x293F JUMPI PUSH1 0x0 DUP1 REVERT JUMPDEST POP PUSH2 0x294C DUP12 DUP3 DUP13 ADD PUSH2 0x277F JUMP JUMPDEST SWAP10 SWAP13 SWAP9 SWAP12 POP SWAP7 SWAP10 POP SWAP5 SWAP8 SWAP4 SWAP7 SWAP3 SWAP6 SWAP5 POP POP POP JUMP JUMPDEST PUSH1 0x0 PUSH1 0x20 DUP3 DUP5 SUB SLT ISZERO PUSH2 0x2972 JUMPI PUSH1 0x0 DUP1 REVERT JUMPDEST POP MLOAD SWAP2 SWAP1 POP JUMP JUMPDEST PUSH1 0x1 PUSH1 0x1 PUSH1 0xA0 SHL SUB SWAP3 SWAP1 SWAP3 AND DUP3 MSTORE PUSH1 0x20 DUP3 ADD MSTORE PUSH1 0x40 ADD SWAP1 JUMP JUMPDEST PUSH1 0x0 PUSH1 0x20 DUP3 DUP5 SUB SLT ISZERO PUSH2 0x29A4 JUMPI PUSH1 0x0 DUP1 REVERT JUMPDEST DUP2 MLOAD DUP1 ISZERO ISZERO DUP2 EQ PUSH2 0x272C JUMPI PUSH1 0x0 DUP1 REVERT JUMPDEST PUSH4 0x4E487B71 PUSH1 0xE0 SHL PUSH1 0x0 MSTORE PUSH1 0x41 PUSH1 0x4 MSTORE PUSH1 0x24 PUSH1 0x0 REVERT JUMPDEST PUSH1 0x40 MLOAD PUSH1 0x1F DUP3 ADD PUSH1 0x1F NOT AND DUP2 ADD PUSH8 0xFFFFFFFFFFFFFFFF DUP2 GT DUP3 DUP3 LT OR ISZERO PUSH2 0x29F3 JUMPI PUSH2 0x29F3 PUSH2 0x29B4 JUMP JUMPDEST PUSH1 0x40 MSTORE SWAP2 SWAP1 POP JUMP JUMPDEST PUSH1 0x0 PUSH1 0x20 DUP1 DUP4 DUP6 SUB SLT ISZERO PUSH2 0x2A0E JUMPI PUSH1 0x0 DUP1 REVERT JUMPDEST DUP3 CALLDATALOAD PUSH8 0xFFFFFFFFFFFFFFFF DUP1 DUP3 GT ISZERO PUSH2 0x2A26 JUMPI PUSH1 0x0 DUP1 REVERT JUMPDEST DUP2 DUP6 ADD SWAP2 POP DUP6 PUSH1 0x1F DUP4 ADD SLT PUSH2 0x2A3A JUMPI PUSH1 0x0 DUP1 REVERT JUMPDEST DUP2 CALLDATALOAD DUP2 DUP2 GT ISZERO PUSH2 0x2A4C JUMPI PUSH2 0x2A4C PUSH2 0x29B4 JUMP JUMPDEST PUSH2 0x2A5E PUSH1 0x1F DUP3 ADD PUSH1 0x1F NOT AND DUP6 ADD PUSH2 0x29CA JUMP JUMPDEST SWAP2 POP DUP1 DUP3 MSTORE DUP7 DUP5 DUP3 DUP6 ADD ADD GT ISZERO PUSH2 0x2A74 JUMPI PUSH1 0x0 DUP1 REVERT JUMPDEST DUP1 DUP5 DUP5 ADD DUP6 DUP5 ADD CALLDATACOPY PUSH1 0x0 SWAP1 DUP3 ADD SWAP1 SWAP4 ADD SWAP3 SWAP1 SWAP3 MSTORE POP SWAP4 SWAP3 POP POP POP JUMP JUMPDEST PUSH4 0x4E487B71 PUSH1 0xE0 SHL PUSH1 0x0 MSTORE PUSH1 0x32 PUSH1 0x4 MSTORE PUSH1 0x24 PUSH1 0x0 REVERT JUMPDEST PUSH1 0x0 PUSH8 0xFFFFFFFFFFFFFFFF DUP3 GT ISZERO PUSH2 0x2AC0 JUMPI PUSH2 0x2AC0 PUSH2 0x29B4 JUMP JUMPDEST POP PUSH1 0x5 SHL PUSH1 0x20 ADD SWAP1 JUMP JUMPDEST PUSH1 0x0 DUP3 PUSH1 0x1F DUP4 ADD SLT PUSH2 0x2ADB JUMPI PUSH1 0x0 DUP1 REVERT JUMPDEST DUP2 CALLDATALOAD PUSH1 0x20 PUSH2 0x2AF0 PUSH2 0x2AEB DUP4 PUSH2 0x2AA6 JUMP JUMPDEST PUSH2 0x29CA JUMP JUMPDEST DUP3 DUP2 MSTORE PUSH1 0x5 SWAP3 SWAP1 SWAP3 SHL DUP5 ADD DUP2 ADD SWAP2 DUP2 DUP2 ADD SWAP1 DUP7 DUP5 GT ISZERO PUSH2 0x2B0F JUMPI PUSH1 0x0 DUP1 REVERT JUMPDEST DUP3 DUP7 ADD JUMPDEST DUP5 DUP2 LT ISZERO PUSH2 0x2B33 JUMPI DUP1 CALLDATALOAD PUSH2 0x2B26 DUP2 PUSH2 0x26F7 JUMP JUMPDEST DUP4 MSTORE SWAP2 DUP4 ADD SWAP2 DUP4 ADD PUSH2 0x2B13 JUMP JUMPDEST POP SWAP7 SWAP6 POP POP POP POP POP POP JUMP JUMPDEST PUSH1 0x0 DUP1 PUSH1 0x0 PUSH1 0x60 DUP5 DUP7 SUB SLT ISZERO PUSH2 0x2B53 JUMPI PUSH1 0x0 DUP1 REVERT JUMPDEST DUP4 CALLDATALOAD PUSH8 0xFFFFFFFFFFFFFFFF DUP1 DUP3 GT ISZERO PUSH2 0x2B6B JUMPI PUSH1 0x0 DUP1 REVERT JUMPDEST PUSH2 0x2B77 DUP8 DUP4 DUP9 ADD PUSH2 0x2ACA JUMP JUMPDEST SWAP5 POP PUSH1 0x20 SWAP2 POP DUP2 DUP7 ADD CALLDATALOAD DUP2 DUP2 GT ISZERO PUSH2 0x2B8E JUMPI PUSH1 0x0 DUP1 REVERT JUMPDEST PUSH2 0x2B9A DUP9 DUP3 DUP10 ADD PUSH2 0x2ACA JUMP JUMPDEST SWAP5 POP POP PUSH1 0x40 DUP7 ADD CALLDATALOAD DUP2 DUP2 GT ISZERO PUSH2 0x2BAF JUMPI PUSH1 0x0 DUP1 REVERT JUMPDEST DUP7 ADD SWAP1 POP PUSH1 0x1F DUP2 ADD DUP8 SGT PUSH2 0x2BC2 JUMPI PUSH1 0x0 DUP1 REVERT JUMPDEST DUP1 CALLDATALOAD PUSH2 0x2BD0 PUSH2 0x2AEB DUP3 PUSH2 0x2AA6 JUMP JUMPDEST DUP2 DUP2 MSTORE PUSH1 0x5 SWAP2 SWAP1 SWAP2 SHL DUP3 ADD DUP4 ADD SWAP1 DUP4 DUP2 ADD SWAP1 DUP10 DUP4 GT ISZERO PUSH2 0x2BEF JUMPI PUSH1 0x0 DUP1 REVERT JUMPDEST SWAP3 DUP5 ADD SWAP3 JUMPDEST DUP3 DUP5 LT ISZERO PUSH2 0x2C0D JUMPI DUP4 CALLDATALOAD DUP3 MSTORE SWAP3 DUP5 ADD SWAP3 SWAP1 DUP5 ADD SWAP1 PUSH2 0x2BF4 JUMP JUMPDEST DUP1 SWAP6 POP POP POP POP POP POP SWAP3 POP SWAP3 POP SWAP3 JUMP JUMPDEST PUSH1 0x0 DUP1 PUSH1 0x40 DUP4 DUP6 SUB SLT ISZERO PUSH2 0x2C2F JUMPI PUSH1 0x0 DUP1 REVERT JUMPDEST DUP3 CALLDATALOAD PUSH2 0x2C3A DUP2 PUSH2 0x26F7 JUMP JUMPDEST SWAP2 POP PUSH1 0x20 DUP4 ADD CALLDATALOAD PUSH2 0x2C4A DUP2 PUSH2 0x26F7 JUMP JUMPDEST DUP1 SWAP2 POP POP SWAP3 POP SWAP3 SWAP1 POP JUMP JUMPDEST PUSH4 0x4E487B71 PUSH1 0xE0 SHL PUSH1 0x0 MSTORE PUSH1 0x11 PUSH1 0x4 MSTORE PUSH1 0x24 PUSH1 0x0 REVERT JUMPDEST PUSH1 0x0 DUP3 NOT DUP3 GT ISZERO PUSH2 0x2C7E JUMPI PUSH2 0x2C7E PUSH2 0x2C55 JUMP JUMPDEST POP ADD SWAP1 JUMP JUMPDEST PUSH1 0x0 DUP3 PUSH2 0x2CA0 JUMPI PUSH4 0x4E487B71 PUSH1 0xE0 SHL PUSH1 0x0 MSTORE PUSH1 0x12 PUSH1 0x4 MSTORE PUSH1 0x24 PUSH1 0x0 REVERT JUMPDEST POP DIV SWAP1 JUMP JUMPDEST PUSH1 0x0 PUSH1 0xA0 DUP3 ADD DUP8 DUP4 MSTORE PUSH1 0x20 DUP8 DUP2 DUP6 ADD MSTORE PUSH1 0xA0 PUSH1 0x40 DUP6 ADD MSTORE DUP2 DUP8 MLOAD DUP1 DUP5 MSTORE PUSH1 0xC0 DUP7 ADD SWAP2 POP DUP3 DUP10 ADD SWAP4 POP PUSH1 0x0 JUMPDEST DUP2 DUP2 LT ISZERO PUSH2 0x2CF5 JUMPI DUP5 MLOAD PUSH1 0x1 PUSH1 0x1 PUSH1 0xA0 SHL SUB AND DUP4 MSTORE SWAP4 DUP4 ADD SWAP4 SWAP2 DUP4 ADD SWAP2 PUSH1 0x1 ADD PUSH2 0x2CD0 JUMP JUMPDEST POP POP PUSH1 0x1 PUSH1 0x1 PUSH1 0xA0 SHL SUB SWAP7 SWAP1 SWAP7 AND PUSH1 0x60 DUP6 ADD MSTORE POP POP POP PUSH1 0x80 ADD MSTORE SWAP4 SWAP3 POP POP POP JUMP JUMPDEST PUSH1 0x0 PUSH1 0x20 DUP1 DUP4 DUP6 SUB SLT ISZERO PUSH2 0x2D29 JUMPI PUSH1 0x0 DUP1 REVERT JUMPDEST DUP3 MLOAD PUSH8 0xFFFFFFFFFFFFFFFF DUP2 GT ISZERO PUSH2 0x2D40 JUMPI PUSH1 0x0 DUP1 REVERT JUMPDEST DUP4 ADD PUSH1 0x1F DUP2 ADD DUP6 SGT PUSH2 0x2D51 JUMPI PUSH1 0x0 DUP1 REVERT JUMPDEST DUP1 MLOAD PUSH2 0x2D5F PUSH2 0x2AEB DUP3 PUSH2 0x2AA6 JUMP JUMPDEST DUP2 DUP2 MSTORE PUSH1 0x5 SWAP2 SWAP1 SWAP2 SHL DUP3 ADD DUP4 ADD SWAP1 DUP4 DUP2 ADD SWAP1 DUP8 DUP4 GT ISZERO PUSH2 0x2D7E JUMPI PUSH1 0x0 DUP1 REVERT JUMPDEST SWAP3 DUP5 ADD SWAP3 JUMPDEST DUP3 DUP5 LT ISZERO PUSH2 0x2D9C JUMPI DUP4 MLOAD DUP3 MSTORE SWAP3 DUP5 ADD SWAP3 SWAP1 DUP5 ADD SWAP1 PUSH2 0x2D83 JUMP JUMPDEST SWAP8 SWAP7 POP POP POP POP POP POP POP JUMP JUMPDEST PUSH1 0x0 DUP3 DUP3 LT ISZERO PUSH2 0x2DB9 JUMPI PUSH2 0x2DB9 PUSH2 0x2C55 JUMP JUMPDEST POP SUB SWAP1 JUMP JUMPDEST PUSH1 0x0 PUSH1 0x20 DUP3 DUP5 SUB SLT ISZERO PUSH2 0x2DD0 JUMPI PUSH1 0x0 DUP1 REVERT JUMPDEST DUP2 MLOAD PUSH2 0x272C DUP2 PUSH2 0x26F7 JUMP JUMPDEST PUSH1 0x0 PUSH1 0x0 NOT DUP3 EQ ISZERO PUSH2 0x2DEF JUMPI PUSH2 0x2DEF PUSH2 0x2C55 JUMP JUMPDEST POP PUSH1 0x1 ADD SWAP1 JUMP JUMPDEST PUSH1 0x0 DUP2 PUSH2 0x2E05 JUMPI PUSH2 0x2E05 PUSH2 0x2C55 JUMP JUMPDEST POP PUSH1 0x0 NOT ADD SWAP1 JUMP INVALID LOG2 PUSH5 0x6970667358 0x22 SLT KECCAK256 0xD3 0xD 0xDB 0xB4 DIV 0xAF 0xF6 0xB0 0xBE SELFDESTRUCT LOG1 XOR 0xE5 0x2E 0xAB 0xEF 0xC5 0xA9 DUP11 0xAF GASPRICE SWAP1 EQ 0xE0 SWAP15 SUB 0xBC SWAP4 0xA7 DUP3 0x5E 0xE3 PUSH5 0x736F6C6343 STOP ADDMOD EXP STOP CALLER "},"methodIdentifiers":{"executeOperation(address[],uint256[],uint256[],address,bytes)":"920f5c84","owner()":"8da5cb5b","receiveFlashLoan(address[],uint256[],uint256[],bytes)":"f04f2707","recoverTokens(address)":"16114acd","strategyCompleted()":"e5d2ab7f","targetPair()":"c6c6c5ab","tokenIn()":"6daf390b","tokenOut()":"d0202d3b","uniswapRouter()":"735de9f7","victimAmount()":"077e9f09","victimMinOut()":"b81217b9"}}}}}