{"contracts/MevStrategy.sol":{"MevStrategy":{"abi":[{"inputs":[{"internalType":"address","name":"_uniswapRouter","type":"address"},{"internalType":"address","name":"_aaveFlashLoan","type":"address"},{"internalType":"address","name":"_balancerFlashLoan","type":"address"}],"stateMutability":"nonpayable","type":"constructor"},{"anonymous":false,"inputs":[{"indexed":true,"internalType":"address","name":"sourcePool","type":"address"},{"indexed":true,"internalType":"address","name":"targetPool","type":"address"},{"indexed":false,"internalType":"uint256","name":"amount","type":"uint256"},{"indexed":false,"internalType":"uint256","name":"profit","type":"uint256"}],"name":"ArbitrageExecuted","type":"event"},{"anonymous":false,"inputs":[{"indexed":true,"internalType":"address","name":"token","type":"address"},{"indexed":false,"internalType":"uint256","name":"amount","type":"uint256"},{"indexed":false,"internalType":"string","name":"strategyType","type":"string"}],"name":"FlashLoanInitiated","type":"event"},{"anonymous":false,"inputs":[{"indexed":true,"internalType":"address","name":"previousOwner","type":"address"},{"indexed":true,"internalType":"address","name":"newOwner","type":"address"}],"name":"OwnershipTransferred","type":"event"},{"anonymous":false,"inputs":[{"indexed":true,"internalType":"address","name":"token","type":"address"},{"indexed":true,"internalType":"address","name":"recipient","type":"address"},{"indexed":false,"internalType":"uint256","name":"amount","type":"uint256"}],"name":"ProfitWithdrawn","type":"event"},{"anonymous":false,"inputs":[{"indexed":true,"internalType":"address","name":"pair","type":"address"},{"indexed":false,"internalType":"uint256","name":"frontRunAmount","type":"uint256"},{"indexed":false,"internalType":"uint256","name":"backRunAmount","type":"uint256"},{"indexed":false,"internalType":"uint256","name":"profit","type":"uint256"}],"name":"SandwichExecuted","type":"event"},{"anonymous":false,"inputs":[{"indexed":true,"internalType":"address","name":"executor","type":"address"},{"indexed":true,"internalType":"address","name":"tokenA","type":"address"},{"indexed":true,"internalType":"address","name":"tokenB","type":"address"},{"indexed":false,"internalType":"uint256","name":"profit","type":"uint256"},{"indexed":false,"internalType":"uint256","name":"gasUsed","type":"uint256"}],"name":"StrategyExecuted","type":"event"},{"anonymous":false,"inputs":[{"indexed":true,"internalType":"address","name":"implementation","type":"address"}],"name":"Upgraded","type":"event"},{"inputs":[],"name":"aaveFlashLoan","outputs":[{"internalType":"contract IAaveFlashLoan","name":"","type":"address"}],"stateMutability":"view","type":"function"},{"inputs":[],"name":"balancerFlashLoan","outputs":[{"internalType":"contract IBalancerFlashLoan","name":"","type":"address"}],"stateMutability":"view","type":"function"},{"inputs":[{"internalType":"address","name":"pair","type":"address"},{"internalType":"address","name":"tokenIn","type":"address"},{"internalType":"address","name":"tokenOut","type":"address"},{"internalType":"uint256","name":"frontRunAmount","type":"uint256"},{"internalType":"uint256","name":"victimAmount","type":"uint256"}],"name":"calculateSandwichProfit","outputs":[{"internalType":"uint256","name":"expectedProfit","type":"uint256"}],"stateMutability":"view","type":"function"},{"inputs":[{"internalType":"address","name":"sourcePool","type":"address"},{"internalType":"address","name":"targetPool","type":"address"},{"internalType":"address","name":"tokenBorrow","type":"address"},{"internalType":"uint256","name":"amount","type":"uint256"}],"name":"executeArbitrage","outputs":[],"stateMutability":"nonpayable","type":"function"},{"inputs":[{"internalType":"address","name":"sandwichPair","type":"address"},{"internalType":"address","name":"arbSourcePool","type":"address"},{"internalType":"address","name":"arbTargetPool","type":"address"},{"internalType":"address","name":"loanToken","type":"address"},{"internalType":"uint256","name":"loanAmount","type":"uint256"}],"name":"executeCombinedStrategy","outputs":[],"stateMutability":"nonpayable","type":"function"},{"inputs":[{"internalType":"address[]","name":"pairs","type":"address[]"},{"internalType":"address[]","name":"tokens","type":"address[]"},{"internalType":"uint256[]","name":"amounts","type":"uint256[]"},{"internalType":"address","name":"loanToken","type":"address"},{"internalType":"uint256","name":"loanAmount","type":"uint256"}],"name":"executeMultiHopSandwich","outputs":[],"stateMutability":"nonpayable","type":"function"},{"inputs":[{"internalType":"address","name":"pair","type":"address"},{"internalType":"address","name":"tokenIn","type":"address"},{"internalType":"address","name":"tokenOut","type":"address"},{"internalType":"uint256","name":"victimAmount","type":"uint256"},{"internalType":"uint256","name":"victimAmountOutMin","type":"uint256"},{"internalType":"uint256","name":"loanAmount","type":"uint256"}],"name":"executeSandwich","outputs":[],"stateMutability":"nonpayable","type":"function"},{"inputs":[],"name":"implementation","outputs":[{"internalType":"address","name":"","type":"address"}],"stateMutability":"view","type":"function"},{"inputs":[],"name":"isInitialized","outputs":[{"internalType":"bool","name":"","type":"bool"}],"stateMutability":"view","type":"function"},{"inputs":[],"name":"owner","outputs":[{"internalType":"address","name":"","type":"address"}],"stateMutability":"view","type":"function"},{"inputs":[],"name":"renounceOwnership","outputs":[],"stateMutability":"nonpayable","type":"function"},{"inputs":[],"name":"strategyParams","outputs":[{"internalType":"uint256","name":"maxSlippage","type":"uint256"},{"internalType":"uint256","name":"profitThreshold","type":"uint256"},{"internalType":"uint256","name":"gasPrice","type":"uint256"},{"internalType":"uint256","name":"gasLimit","type":"uint256"},{"internalType":"bool","name":"useAave","type":"bool"},{"internalType":"bool","name":"useBalancer","type":"bool"}],"stateMutability":"view","type":"function"},{"inputs":[{"internalType":"address","name":"newOwner","type":"address"}],"name":"transferOwnership","outputs":[],"stateMutability":"nonpayable","type":"function"},{"inputs":[],"name":"uniswapFactory","outputs":[{"internalType":"contract IUniswapV2Factory","name":"","type":"address"}],"stateMutability":"view","type":"function"},{"inputs":[],"name":"uniswapRouter","outputs":[{"internalType":"contract IUniswapV2Router02","name":"","type":"address"}],"stateMutability":"view","type":"function"},{"inputs":[{"components":[{"internalType":"address[]","name":"targetDEXes","type":"address[]"},{"internalType":"address[]","name":"targetTokens","type":"address[]"},{"internalType":"uint256","name":"maxSlippage","type":"uint256"},{"internalType":"uint256","name":"profitThreshold","type":"uint256"},{"internalType":"uint256","name":"gasPrice","type":"uint256"},{"internalType":"uint256","name":"gasLimit","type":"uint256"},{"internalType":"bool","name":"useAave","type":"bool"},{"internalType":"bool","name":"useBalancer","type":"bool"}],"internalType":"struct MevStrategy.StrategyParams","name":"_params","type":"tuple"}],"name":"updateStrategyParams","outputs":[],"stateMutability":"nonpayable","type":"function"},{"inputs":[{"internalType":"address","name":"newImplementation","type":"address"}],"name":"upgradeTo","outputs":[],"stateMutability":"nonpayable","type":"function"},{"inputs":[{"internalType":"address","name":"token","type":"address"},{"internalType":"uint256","name":"amount","type":"uint256"},{"internalType":"address","name":"recipient","type":"address"}],"name":"withdrawProfit","outputs":[],"stateMutability":"nonpayable","type":"function"},{"stateMutability":"payable","type":"receive"}],"evm":{"bytecode":{"linkReferences":{},"object":"60806040523480156200001157600080fd5b5060405162005c6438038062005c648339810160408190526200003491620002df565b6200003f33620001f1565b60018055603580546001600160a01b0319166001600160a01b0385169081179091556040805163c45a015560e01b8152905163c45a0155916004808201926020929091908290030181865afa1580156200009d573d6000803e3d6000fd5b505050506040513d601f19601f82011682018060405250810190620000c3919062000329565b603680546001600160a01b03199081166001600160a01b03938416179091556037805482168584161790556038805490911691831691909117905560408051600061010082018181526101208301845282528251818152602080820185528084019190915260329383019390935266b1a2bc2ec500006060830152608082018190526207a12060a0830152600160c083015260e082015280518051919260399262000172928492019062000241565b5060208281015180516200018d926001850192019062000241565b5060408201516002820155606082015160038201556080820151600482015560a0820151600582015560c08201516006909101805460e09093015115156101000261ff00199215159290921661ffff1990931692909217179055506200034e915050565b600080546001600160a01b038381166001600160a01b0319831681178455604051919092169283917f8be0079c531659141344cd1fd0a4f28419497f9722a3daafe3b4186f6b6457e09190a35050565b82805482825590600052602060002090810192821562000299579160200282015b828111156200029957825182546001600160a01b0319166001600160a01b0390911617825560209092019160019091019062000262565b50620002a7929150620002ab565b5090565b5b80821115620002a75760008155600101620002ac565b80516001600160a01b0381168114620002da57600080fd5b919050565b600080600060608486031215620002f557600080fd5b6200030084620002c2565b92506200031060208501620002c2565b91506200032060408501620002c2565b90509250925092565b6000602082840312156200033c57600080fd5b6200034782620002c2565b9392505050565b615906806200035e6000396000f3fe608060405260043610620001235760003560e01c8063783cac7311620000a1578063c3eaaca5116200006c578063c3eaaca51462000323578063c7bdbcb51462000348578063ca55c764146200036d578063f2fde38b1462000392578063f57f33d014620003b757600080fd5b8063783cac7314620002975780638bdb2afa14620002bc5780638da5cb5b14620002de578063a1c8260214620002fe57600080fd5b80634f07f7db11620000ee5780634f07f7db14620001e45780635c60da1b1462000218578063651c91561462000238578063715018a6146200025d578063735de9f7146200027557600080fd5b806307170832146200013057806311a1b6d1146200016f5780633659cfe61462000191578063392e53cd14620001b857600080fd5b366200012b57005b600080fd5b3480156200013d57600080fd5b5060375462000152906001600160a01b031681565b6040516001600160a01b0390911681526020015b60405180910390f35b3480156200017c57600080fd5b5060385462000152906001600160a01b031681565b3480156200019e57600080fd5b50620001b6620001b036600462001e89565b6200041e565b005b348015620001c557600080fd5b50600254600160a01b900460ff16604051901515815260200162000166565b348015620001f157600080fd5b50620002096200020336600462001ea9565b62000591565b60405190815260200162000166565b3480156200022557600080fd5b506002546001600160a01b031662000152565b3480156200024557600080fd5b50620001b66200025736600462001f0b565b62000625565b3480156200026a57600080fd5b50620001b66200081c565b3480156200028257600080fd5b5060355462000152906001600160a01b031681565b348015620002a457600080fd5b50620001b6620002b636600462001f52565b62000857565b348015620002c957600080fd5b5060365462000152906001600160a01b031681565b348015620002eb57600080fd5b506000546001600160a01b031662000152565b3480156200030b57600080fd5b50620001b66200031d36600462001fbe565b62000d2c565b3480156200033057600080fd5b50620001b66200034236600462002073565b62001020565b3480156200035557600080fd5b50620001b66200036736600462002136565b62001421565b3480156200037a57600080fd5b50620001b66200038c36600462002175565b62001462565b3480156200039f57600080fd5b50620001b6620003b136600462001e89565b62001767565b348015620003c457600080fd5b50603b54603c54603d54603e54603f54620003ec949392919060ff8082169161010090041686565b60408051968752602087019590955293850192909252606084015215156080830152151560a082015260c00162000166565b6000546001600160a01b03163314620004545760405162461bcd60e51b81526004016200044b90620021cd565b60405180910390fd5b6001600160a01b038116620004c85760405162461bcd60e51b815260206004820152603360248201527f5570677261646561626c653a206e657720696d706c656d656e746174696f6e20604482015272697320746865207a65726f206164647265737360681b60648201526084016200044b565b6002546001600160a01b0382811691161415620005475760405162461bcd60e51b815260206004820152603660248201527f5570677261646561626c653a206e657720696d706c656d656e746174696f6e206044820152751a5cc81d1a19481cd85b5948185cc818dd5c9c995b9d60521b60648201526084016200044b565b600280546001600160a01b0319166001600160a01b0383169081179091556040517fbc7cd75a20ee27fd9adebab32041f755214dbc6bffa90cc0225b39da2e5c2d3b90600090a250565b60365460009081908190620005b1906001600160a01b0316888862001809565b91509150620005d8828287878a6001600160a01b03168c6001600160a01b031610620018dc565b92506000620005f260396004015460396005015462001a16565b905080841115620006145762000609818562002218565b93505050506200061c565b600093505050505b95945050505050565b6000546001600160a01b03163314620006525760405162461bcd60e51b81526004016200044b90620021cd565b6001600160a01b0381166200069e5760405162461bcd60e51b8152602060048201526011602482015270125b9d985b1a59081c9958da5c1a595b9d607a1b60448201526064016200044b565b6040516370a0823160e01b815230600482015282906001600160a01b038516906370a0823190602401602060405180830381865afa158015620006e5573d6000803e3d6000fd5b505050506040513d601f19601f820116820180604052508101906200070b919062002232565b1015620007525760405162461bcd60e51b8152602060048201526014602482015273496e73756666696369656e742062616c616e636560601b60448201526064016200044b565b60405163a9059cbb60e01b81526001600160a01b0382811660048301526024820184905284169063a9059cbb906044016020604051808303816000875af1158015620007a2573d6000803e3d6000fd5b505050506040513d601f19601f82011682018060405250810190620007c891906200225b565b50806001600160a01b0316836001600160a01b03167f7bb82e438f370442cda439f45e4106c95803a259cb3d8464d35cdfc78978cd53846040516200080f91815260200190565b60405180910390a3505050565b6000546001600160a01b03163314620008495760405162461bcd60e51b81526004016200044b90620021cd565b62000855600062001a2b565b565b6000546001600160a01b03163314620008845760405162461bcd60e51b81526004016200044b90620021cd565b60026001541415620008aa5760405162461bcd60e51b81526004016200044b906200227b565b600260015580620008fe5760405162461bcd60e51b815260206004820152601c60248201527f4c6f616e20616d6f756e74206d75737420626520706f7369746976650000000060448201526064016200044b565b600030603560009054906101000a90046001600160a01b031688888888886040516200092a9062001e65565b6200093c9796959493929190620022b2565b604051809103906000f08015801562000959573d6000803e3d6000fd5b5060408051600180825281830190925291925060009190602080830190803683370190505090508681600081518110620009975762000997620022f5565b6001600160a01b0392909216602092830291909101909101526040805160018082528183019092526000918160200160208202803683370190505090508381600081518110620009eb57620009eb620022f5565b6020908102919091010152603f5460ff161562000b1d57876001600160a01b0316600080516020620058b18339815191528560405162000a52918152604060208201819052600d908201526c53616e64776963682d4161766560981b606082015260800190565b60405180910390a26037546001600160a01b031663ab9c4b5d848484600160405190808252806020026020018201604052801562000a9a578160200160208202803683370190505b5060408051808201825260088152670a6829c88ae9286960c31b602082015290516001600160e01b031960e088901b16815262000ae39594939291600091829060040162002398565b600060405180830381600087803b15801562000afe57600080fd5b505af115801562000b13573d6000803e3d6000fd5b5050505062000c5f565b603f54610100900460ff161562000c5f57876001600160a01b0316600080516020620058b18339815191528560405162000b829181526040602082018190526011908201527029b0b7323bb4b1b416a130b630b731b2b960791b606082015260800190565b60405180910390a260408051600180825281830190925260009160208083019080368337019050509050888160008151811062000bc35762000bc3620022f5565b6001600160a01b0392831660209182029290920181019190915260385460408051808201825260088152670a6829c88ae9286960c31b9381019390935251632e1c224f60e11b8152921691635c38449e9162000c2991889186918891906004016200245d565b600060405180830381600087803b15801562000c4457600080fd5b505af115801562000c59573d6000803e3d6000fd5b50505050505b6040516370a0823160e01b81523060048201526000906001600160a01b038a16906370a0823190602401602060405180830381865afa15801562000ca7573d6000803e3d6000fd5b505050506040513d601f19601f8201168201806040525081019062000ccd919062002232565b60408051878152600060208201529081018290529091506001600160a01b038b16907f139aa6a117cf6611edb0fc24c9d9e355ca32871697b05bcc5235a138b70e452d9060600160405180910390a25050600180555050505050505050565b6000546001600160a01b0316331462000d595760405162461bcd60e51b81526004016200044b90620021cd565b6002600154141562000d7f5760405162461bcd60e51b81526004016200044b906200227b565b6002600181905550600030603560009054906101000a90046001600160a01b03168785600086600060405162000db59062001e65565b62000dc79796959493929190620022b2565b604051809103906000f08015801562000de4573d6000803e3d6000fd5b50603f5490915060ff161562000f3557826001600160a01b0316600080516020620058b18339815191528360405162000e3f9181526040602082018190526008908201526710dbdb589a5b995960c21b606082015260800190565b60405180910390a2604080516001600160a01b03878116602083015286811682840152606080830152600860808301526710d3d3509253915160c21b60a0808401919091528351808403909101815260c090920190925260375490911663ab9c4b5d8362000ead8762001a7b565b62000eb88762001ad6565b60408051600180825281830190925290602080830190803683370190505060008760006040518863ffffffff1660e01b815260040162000eff979695949392919062002398565b600060405180830381600087803b15801562000f1a57600080fd5b505af115801562000f2f573d6000803e3d6000fd5b50505050505b6040516370a0823160e01b81523060048201526000906001600160a01b038516906370a0823190602401602060405180830381865afa15801562000f7d573d6000803e3d6000fd5b505050506040513d601f19601f8201168201806040525081019062000fa3919062002232565b603c54909150811162000fca5760405162461bcd60e51b81526004016200044b90620024dc565b60408051828152600060208201819052916001600160a01b0387169133917f4cc917b336ebe07173f6597a4da6af59c29c23852a13a2e5a6e2372a269c0ede910160405180910390a45050600180555050505050565b6000546001600160a01b031633146200104d5760405162461bcd60e51b81526004016200044b90620021cd565b60026001541415620010735760405162461bcd60e51b81526004016200044b906200227b565b60026001819055871015620010cb5760405162461bcd60e51b815260206004820152601960248201527f5265717569726573206174206c6561737420322070616972730000000000000060448201526064016200044b565b620010d887600162002509565b8514620011285760405162461bcd60e51b815260206004820152601b60248201527f496e76616c696420746f6b656e73206172726179206c656e677468000000000060448201526064016200044b565b828714620011795760405162461bcd60e51b815260206004820152601c60248201527f496e76616c696420616d6f756e7473206172726179206c656e6774680000000060448201526064016200044b565b60355460009030906001600160a01b03168a8a84816200119d576200119d620022f5565b9050602002016020810190620011b4919062001e89565b858a8a6001818110620011cb57620011cb620022f5565b9050602002016020810190620011e2919062001e89565b89896000818110620011f857620011f8620022f5565b9050602002013560006040516200120f9062001e65565b620012219796959493929190620022b2565b604051809103906000f0801580156200123e573d6000803e3d6000fd5b5090506000620012538a8a8a8a8a8a62001b24565b6037549091506001600160a01b031663ab9c4b5d83620012738762001a7b565b6200127e8762001ad6565b60408051600180825281830190925290602080830190803683370190505060008760006040518863ffffffff1660e01b8152600401620012c5979695949392919062002398565b600060405180830381600087803b158015620012e057600080fd5b505af1158015620012f5573d6000803e3d6000fd5b50506040516370a0823160e01b8152306004820152600092506001600160a01b03871691506370a0823190602401602060405180830381865afa15801562001341573d6000803e3d6000fd5b505050506040513d601f19601f8201168201806040525081019062001367919062002232565b603c5490915081116200138e5760405162461bcd60e51b81526004016200044b90620024dc565b88886200139d60018262002218565b818110620013af57620013af620022f5565b9050602002016020810190620013c6919062001e89565b60408051838152600060208201526001600160a01b039283169288169133917f4cc917b336ebe07173f6597a4da6af59c29c23852a13a2e5a6e2372a269c0ede910160405180910390a4505060018055505050505050505050565b6000546001600160a01b031633146200144e5760405162461bcd60e51b81526004016200044b90620021cd565b8060396200145d828262002672565b505050565b6000546001600160a01b031633146200148f5760405162461bcd60e51b81526004016200044b90620021cd565b60026001541415620014b55760405162461bcd60e51b81526004016200044b906200227b565b6002600181905550600030603560009054906101000a90046001600160a01b031686856000866000604051620014eb9062001e65565b620014fd9796959493929190620022b2565b604051809103906000f0801580156200151a573d6000803e3d6000fd5b50603f5490915060ff16156200166f57826001600160a01b0316600080516020620058b183398151915283604051620015769181526040602082018190526009908201526841726269747261676560b81b606082015260800190565b60405180910390a2604080516001600160a01b038616602082015280820191909152600960608201526841524249545241474560b81b608082015260009060a00160408051601f198184030181529190526037549091506001600160a01b031663ab9c4b5d83620015e78762001a7b565b620015f28762001ad6565b60408051600180825281830190925290602080830190803683370190505060008760006040518863ffffffff1660e01b815260040162001639979695949392919062002398565b600060405180830381600087803b1580156200165457600080fd5b505af115801562001669573d6000803e3d6000fd5b50505050505b6040516370a0823160e01b81523060048201526000906001600160a01b038516906370a0823190602401602060405180830381865afa158015620016b7573d6000803e3d6000fd5b505050506040513d601f19601f82011682018060405250810190620016dd919062002232565b603c549091508111620017045760405162461bcd60e51b81526004016200044b90620024dc565b846001600160a01b0316866001600160a01b03167f18be1daca870ce76ea02f4cefe3c78f1a21c7d42693c068e2d0bbf060f53ab53858460405162001753929190918252602082015260400190565b60405180910390a350506001805550505050565b6000546001600160a01b03163314620017945760405162461bcd60e51b81526004016200044b90620021cd565b6001600160a01b038116620017fb5760405162461bcd60e51b815260206004820152602660248201527f4f776e61626c653a206e6577206f776e657220697320746865207a65726f206160448201526564647265737360d01b60648201526084016200044b565b620018068162001a2b565b50565b60008060006200181a858562001b5e565b5090506000806200182d88888862001c5c565b6001600160a01b0316630902f1ac6040518163ffffffff1660e01b8152600401606060405180830381865afa1580156200186b573d6000803e3d6000fd5b505050506040513d601f19601f82011682018060405250810190620018919190620027d4565b506001600160701b031691506001600160701b03169150826001600160a01b0316876001600160a01b031614620018ca578082620018cd565b81815b90999098509650505050505050565b60008060008084156200197c57620018f6878a8a62001d38565b905062001904878a62002509565b925062001912818962002218565b915060006200192387858562001d38565b905062001931878562002509565b93506200193f818462002218565b925060006200195083858762001d38565b9050888111156200196f5762001967898262002218565b955062001974565b600095505b505062001a0a565b6200198987898b62001d38565b905062001997878962002509565b9150620019a5818a62002218565b92506000620019b687848662001d38565b9050620019c4878462002509565b9250620019d2818562002218565b93506000620019e383868662001d38565b90508881111562001a0257620019fa898262002218565b955062001a07565b600095505b50505b50505095945050505050565b600062001a24828462002571565b9392505050565b600080546001600160a01b038381166001600160a01b0319831681178455604051919092169283917f8be0079c531659141344cd1fd0a4f28419497f9722a3daafe3b4186f6b6457e09190a35050565b6040805160018082528183019092526060916000919060208083019080368337019050509050828160008151811062001ab85762001ab8620022f5565b6001600160a01b039092166020928302919091019091015292915050565b6040805160018082528183019092526060916000919060208083019080368337019050509050828160008151811062001b135762001b13620022f5565b602090810291909101015292915050565b606086868686868660405160200162001b439695949392919062002861565b60405160208183030381529060405290509695505050505050565b600080826001600160a01b0316846001600160a01b0316141562001bd35760405162461bcd60e51b815260206004820152602560248201527f556e697377617056324c6962726172793a204944454e544943414c5f41444452604482015264455353455360d81b60648201526084016200044b565b826001600160a01b0316846001600160a01b03161062001bf557828462001bf8565b83835b90925090506001600160a01b03821662001c555760405162461bcd60e51b815260206004820152601e60248201527f556e697377617056324c6962726172793a205a45524f5f41444452455353000060448201526064016200044b565b9250929050565b600080600062001c6d858562001b5e565b6040516bffffffffffffffffffffffff19606084811b8216602084015283901b166034820152919350915086906048016040516020818303038152906040528051906020012060405160200162001d169291906001600160f81b0319815260609290921b6bffffffffffffffffffffffff1916600183015260158201527f96e8ac4277198ff8b6f785478aa9a39f403cb768dd02cbee326c3e7da348845f603582015260550190565b60408051601f1981840301815291905280516020909101209695505050505050565b600080841162001d9e5760405162461bcd60e51b815260206004820152602a60248201527f507269636543616c63756c61746f723a20494e53554646494349454e545f494e60448201526914155517d05353d5539560b21b60648201526084016200044b565b60008311801562001daf5750600082115b62001e0d5760405162461bcd60e51b815260206004820152602760248201527f507269636543616c63756c61746f723a20494e53554646494349454e545f4c496044820152665155494449545960c81b60648201526084016200044b565b600062001e1d856103e562002571565b9050600062001e2d848362002571565b905060008262001e40876103e862002571565b62001e4c919062002509565b905062001e5a8183620028ee565b979650505050505050565b612f9f806200291283390190565b6001600160a01b03811681146200180657600080fd5b60006020828403121562001e9c57600080fd5b813562001a248162001e73565b600080600080600060a0868803121562001ec257600080fd5b853562001ecf8162001e73565b9450602086013562001ee18162001e73565b9350604086013562001ef38162001e73565b94979396509394606081013594506080013592915050565b60008060006060848603121562001f2157600080fd5b833562001f2e8162001e73565b925060208401359150604084013562001f478162001e73565b809150509250925092565b60008060008060008060c0878903121562001f6c57600080fd5b863562001f798162001e73565b9550602087013562001f8b8162001e73565b9450604087013562001f9d8162001e73565b959894975094956060810135955060808101359460a0909101359350915050565b600080600080600060a0868803121562001fd757600080fd5b853562001fe48162001e73565b9450602086013562001ff68162001e73565b93506040860135620020088162001e73565b925060608601356200201a8162001e73565b949793965091946080013592915050565b60008083601f8401126200203e57600080fd5b50813567ffffffffffffffff8111156200205757600080fd5b6020830191508360208260051b850101111562001c5557600080fd5b60008060008060008060008060a0898b0312156200209057600080fd5b883567ffffffffffffffff80821115620020a957600080fd5b620020b78c838d016200202b565b909a50985060208b0135915080821115620020d157600080fd5b620020df8c838d016200202b565b909850965060408b0135915080821115620020f957600080fd5b50620021088b828c016200202b565b90955093505060608901356200211e8162001e73565b80925050608089013590509295985092959890939650565b6000602082840312156200214957600080fd5b813567ffffffffffffffff8111156200216157600080fd5b8201610100818503121562001a2457600080fd5b600080600080608085870312156200218c57600080fd5b8435620021998162001e73565b93506020850135620021ab8162001e73565b92506040850135620021bd8162001e73565b9396929550929360600135925050565b6020808252818101527f4f776e61626c653a2063616c6c6572206973206e6f7420746865206f776e6572604082015260600190565b634e487b7160e01b600052601160045260246000fd5b6000828210156200222d576200222d62002202565b500390565b6000602082840312156200224557600080fd5b5051919050565b80151581146200180657600080fd5b6000602082840312156200226e57600080fd5b815162001a24816200224c565b6020808252601f908201527f5265656e7472616e637947756172643a207265656e7472616e742063616c6c00604082015260600190565b6001600160a01b039788168152958716602087015293861660408601529185166060850152909316608083015260a082019290925260c081019190915260e00190565b634e487b7160e01b600052603260045260246000fd5b600081518084526020808501945080840160005b838110156200233d578151875295820195908201906001016200231f565b509495945050505050565b6000815180845260005b81811015620023705760208185018101518683018201520162002352565b8181111562002383576000602083870101525b50601f01601f19169290920160200192915050565b6001600160a01b03888116825260e0602080840182905289519184018290526000928a820192909190610100860190855b81811015620023e9578551851683529483019491830191600101620023c9565b50508581036040870152620023ff818c6200230b565b935050505082810360608401526200241881886200230b565b6001600160a01b0387166080850152905082810360a08401526200243d818662002348565b9150506200245160c083018461ffff169052565b98975050505050505050565b6001600160a01b0385811682526080602080840182905286519184018290526000928782019290919060a0860190855b81811015620024ad5785518516835294830194918301916001016200248d565b50508581036040870152620024c381896200230b565b9350505050828103606084015262001e5a818562002348565b602080825260139082015272125b9cdd59999a58da595b9d081c1c9bd99a5d606a1b604082015260600190565b600082198211156200251f576200251f62002202565b500190565b6000808335601e198436030181126200253c57600080fd5b83018035915067ffffffffffffffff8211156200255857600080fd5b6020019150600581901b360382131562001c5557600080fd5b60008160001904831182151516156200258e576200258e62002202565b500290565b60008135620025a28162001e73565b92915050565b600160401b831115620025cb57634e487b7160e01b600052604160045260246000fd5b80548382558084101562002605576000828152602081208581019083015b808210156200260157828255600182019150620025e9565b5050505b5060008181526020812083915b858110156200265b57620026476200262a8462002593565b83546001600160a01b0319166001600160a01b0391909116178355565b602092909201916001918201910162002612565b505050505050565b60008135620025a2816200224c565b6200267e828362002524565b600160401b811115620026a157634e487b7160e01b600052604160045260246000fd5b825481845580821015620026db576000848152602081208381019083015b80821015620026d757828255600182019150620026bf565b5050505b5060008381526020902060005b828110156200271457620027006200262a8562002593565b6020939093019260019182019101620026e8565b5050505062002727602083018362002524565b62002737818360018601620025a8565b505060408201356002820155606082013560038201556080820135600482015560a08201356005820155600681016200278b6200277760c0850162002663565b825490151560ff1660ff1991909116178255565b6200145d6200279d60e0850162002663565b82805461ff00191691151560081b61ff0016919091179055565b80516001600160701b0381168114620027cf57600080fd5b919050565b600080600060608486031215620027ea57600080fd5b620027f584620027b7565b92506200280560208501620027b7565b9150604084015163ffffffff8116811462001f4757600080fd5b8183526000602080850194508260005b858110156200233d578135620028458162001e73565b6001600160a01b0316875295820195908201906001016200282f565b6080815260006200287760808301888a6200281f565b82810360208401526200288c8187896200281f565b838103604085015284815290506001600160fb1b03841115620028ae57600080fd5b8360051b808660208401370182810360209081016060948501526008908201526704d554c5449484f560c41b604082015291909101979650505050505050565b6000826200290c57634e487b7160e01b600052601260045260246000fd5b50049056fe60806040523480156200001157600080fd5b5060405162002f9f38038062002f9f8339810160408190526200003491620000c9565b600080546001600160a01b03199081166001600160a01b03998a1617909155600180548216978916979097179096556002805487169588169590951790945560038054861693871693909317909255600480549094169416939093179091556005919091556006556007805460ff191690556200014c565b80516001600160a01b0381168114620000c457600080fd5b919050565b600080600080600080600060e0888a031215620000e557600080fd5b620000f088620000ac565b96506200010060208901620000ac565b95506200011060408901620000ac565b94506200012060608901620000ac565b93506200013060808901620000ac565b925060a0880151915060c0880151905092959891949750929550565b612e43806200015c6000396000f3fe608060405234801561001057600080fd5b50600436106100a95760003560e01c8063920f5c8411610071578063920f5c8414610130578063b81217b914610153578063c6c6c5ab1461015c578063d0202d3b1461016f578063e5d2ab7f14610182578063f04f27071461018f57600080fd5b8063077e9f09146100ae57806316114acd146100ca5780636daf390b146100df578063735de9f71461010a5780638da5cb5b1461011d575b600080fd5b6100b760055481565b6040519081526020015b60405180910390f35b6100dd6100d836600461270f565b6101a2565b005b6003546100f2906001600160a01b031681565b6040516001600160a01b0390911681526020016100c1565b6001546100f2906001600160a01b031681565b6000546100f2906001600160a01b031681565b61014361013e3660046127c1565b6102f1565b60405190151581526020016100c1565b6100b760065481565b6002546100f2906001600160a01b031681565b6004546100f2906001600160a01b031681565b6007546101439060ff1681565b6100dd61019d36600461289c565b6107c2565b6000546001600160a01b031633146102015760405162461bcd60e51b815260206004820152601d60248201527f4f6e6c79206f776e65722063616e207265636f76657220746f6b656e7300000060448201526064015b60405180910390fd5b6040516370a0823160e01b81523060048201526000906001600160a01b038316906370a0823190602401602060405180830381865afa158015610248573d6000803e3d6000fd5b505050506040513d601f19601f8201168201806040525081019061026c9190612960565b905080156102ed5760005460405163a9059cbb60e01b81526001600160a01b038481169263a9059cbb926102a892909116908590600401612979565b6020604051808303816000875af11580156102c7573d6000803e3d6000fd5b505050506040513d601f19601f820116820180604052508101906102eb9190612992565b505b5050565b600080546001600160a01b038581169116146103485760405162461bcd60e51b81526020600482015260166024820152752ab730baba3437b934bd32b21034b734ba34b0ba37b960511b60448201526064016101f8565b60075460ff161561039b5760405162461bcd60e51b815260206004820152601a60248201527f537472617465677920616c726561647920636f6d706c6574656400000000000060448201526064016101f8565b60006103a9838501856129fb565b6040805180820190915260088152670a6829c88ae9286960c31b6020918201528151908201209091507f392eb93b15431fed24df9bba1922ff30a6b9e9ebd22a5c4c61fe780e92be191714156104625761045d8b8b600081811061040f5761040f612a90565b9050602002016020810190610424919061270f565b8a8a600081811061043757610437612a90565b905060200201358989600081811061045157610451612a90565b90506020020135610abd565b6106c6565b60408051808201909152600981526841524249545241474560b81b6020918201528151908201207f6531f762ad9fe1348e5cbc8ce25386420ae7bac169c1795e239d9399e722b73f141561052b5760006104be8486018661270f565b90506105258c8c60008181106104d6576104d6612a90565b90506020020160208101906104eb919061270f565b8b8b60008181106104fe576104fe612a90565b905060200201358a8a600081811061051857610518612a90565b9050602002013584611017565b506106c6565b60408051808201909152600881526704d554c5449484f560c41b6020918201528151908201207f77e816de5a30f937416c4c170d45a22395916fda915af3fbbf1317b9b02bbcd214156105fd576000808061058886880188612b3e565b9250925092506105f58e8e60008181106105a4576105a4612a90565b90506020020160208101906105b9919061270f565b8d8d60008181106105cc576105cc612a90565b905060200201358c8c60008181106105e6576105e6612a90565b905060200201358686866113f5565b5050506106c6565b60408051808201909152600881526710d3d3509253915160c21b6020918201528151908201207f3ee9fab4ce628daedcc8d0cb548e7a5a5122cdaba91e83dcefdd038e7815f79a14156106c65760008061065985870187612c1c565b915091506106c38d8d600081811061067357610673612a90565b9050602002016020810190610688919061270f565b8c8c600081811061069b5761069b612a90565b905060200201358b8b60008181106106b5576106b5612a90565b905060200201358585611aae565b50505b6000878760008181106106db576106db612a90565b905060200201358a8a60008181106106f5576106f5612a90565b905060200201356107069190612c6b565b90508b8b600081811061071b5761071b612a90565b9050602002016020810190610730919061270f565b6001600160a01b031663095ea7b333836040518363ffffffff1660e01b815260040161075d929190612979565b6020604051808303816000875af115801561077c573d6000803e3d6000fd5b505050506040513d601f19601f820116820180604052508101906107a09190612992565b50506007805460ff191660019081179091559150509998505050505050505050565b6001546001600160a01b031633146108125760405162461bcd60e51b81526020600482015260136024820152722ab730baba3437b934bd32b21039b2b73232b960691b60448201526064016101f8565b60075460ff16156108655760405162461bcd60e51b815260206004820152601a60248201527f537472617465677920616c726561647920636f6d706c6574656400000000000060448201526064016101f8565b6000610873828401846129fb565b905060008989600081811061088a5761088a612a90565b905060200201602081019061089f919061270f565b90506000888860008181106108b6576108b6612a90565b9050602002013590506000878760008181106108d4576108d4612a90565b6040805180820190915260088152670a6829c88ae9286960c31b602091820152875188820120910292909201359250507f392eb93b15431fed24df9bba1922ff30a6b9e9ebd22a5c4c61fe780e92be1917141561093b57610936838383610abd565b610a20565b60408051808201909152600981526841524249545241474560b81b6020918201528451908501207f6531f762ad9fe1348e5cbc8ce25386420ae7bac169c1795e239d9399e722b73f14156109ab5760006109978688018861270f565b90506109a584848484611017565b50610a20565b60408051808201909152600881526704d554c5449484f560c41b6020918201528451908501207f77e816de5a30f937416c4c170d45a22395916fda915af3fbbf1317b9b02bbcd21415610a205760008080610a08888a018a612b3e565b925092509250610a1c8686868686866113f5565b5050505b6000610a2c8284612c6b565b60405163095ea7b360e01b81529091506001600160a01b0385169063095ea7b390610a5d9033908590600401612979565b6020604051808303816000875af1158015610a7c573d6000803e3d6000fd5b505050506040513d601f19601f82011682018060405250810190610aa09190612992565b50506007805460ff19166001179055505050505050505050505050565b6003546001600160a01b03848116911614610b0a5760405162461bcd60e51b815260206004820152600d60248201526c24b73b30b634b2103a37b5b2b760991b60448201526064016101f8565b60035460015460405163095ea7b360e01b81526001600160a01b039283169263095ea7b392610b40929116908690600401612979565b6020604051808303816000875af1158015610b5f573d6000803e3d6000fd5b505050506040513d601f19601f82011682018060405250810190610b839190612992565b50604080516002808252606082018352600092602083019080368337505060035482519293506001600160a01b031691839150600090610bc557610bc5612a90565b6001600160a01b039283166020918202929092010152600454825191169082906001908110610bf657610bf6612a90565b6001600160a01b03909216602092830291909101909101526000610c1b600285612c83565b6001549091506000906001600160a01b03166338ed173983838630610c424261012c612c6b565b6040518663ffffffff1660e01b8152600401610c62959493929190612ca5565b6000604051808303816000875af1158015610c81573d6000803e3d6000fd5b505050506040513d6000823e601f3d908101601f19168201604052610ca99190810190612d16565b905060008160018351610cbc9190612da7565b81518110610ccc57610ccc612a90565b602090810291909101810151600454600354600254604080518981529586018590529395506001600160a01b0392831694918316939216917f51c932de59c046c124d6faac1f1e5a1f1ca96af8634e3d30bf0be71819534a5f910160405180910390a460045484516001600160a01b03909116908590600090610d5157610d51612a90565b6001600160a01b039283166020918202929092010152600354855191169085906001908110610d8257610d82612a90565b6001600160a01b0392831660209182029290920101526004805460015460405163095ea7b360e01b81529184169363095ea7b393610dc7939290911691869101612979565b6020604051808303816000875af1158015610de6573d6000803e3d6000fd5b505050506040513d601f19601f82011682018060405250810190610e0a9190612992565b506001546000906001600160a01b03166338ed173983838830610e2f4261012c612c6b565b6040518663ffffffff1660e01b8152600401610e4f959493929190612ca5565b6000604051808303816000875af1158015610e6e573d6000803e3d6000fd5b505050506040513d6000823e601f3d908101601f19168201604052610e969190810190612d16565b905060008160018351610ea99190612da7565b81518110610eb957610eb9612a90565b60200260200101519050600085821115610eda57610ed78683612da7565b90505b87811115610ef357610eec8882612da7565b9050610f33565b60405162461bcd60e51b81526020600482015260156024820152740aadce0e4deccd2e8c2c4d8ca40e6c2dcc8eed2c6d605b1b60448201526064016101f8565b60035460045460025460408051888152602081018790529081018590526001600160a01b039384169392831692909116907fd59dd7ff720795cb90db0eaf4f250c5d745a73628bf936169effbb810ee9a0469060600160405180910390a460035460005460405163a9059cbb60e01b81526001600160a01b039283169263a9059cbb92610fc7929116908590600401612979565b6020604051808303816000875af1158015610fe6573d6000803e3d6000fd5b505050506040513d601f19601f8201168201806040525081019061100a9190612992565b5050505050505050505050565b60025460408051630dfe168160e01b815290516001600160a01b03909216916000918391630dfe1681916004808201926020929091908290030181865afa158015611066573d6000803e3d6000fd5b505050506040513d601f19601f8201168201806040525081019061108a9190612dbe565b90506000826001600160a01b031663d21220a76040518163ffffffff1660e01b8152600401602060405180830381865afa1580156110cc573d6000803e3d6000fd5b505050506040513d601f19601f820116820180604052508101906110f09190612dbe565b90506000826001600160a01b0316886001600160a01b0316146111135782611115565b815b90506000859050886001600160a01b0316816001600160a01b0316630dfe16816040518163ffffffff1660e01b8152600401602060405180830381865afa158015611164573d6000803e3d6000fd5b505050506040513d601f19601f820116820180604052508101906111889190612dbe565b6001600160a01b03161480156112105750816001600160a01b0316816001600160a01b031663d21220a76040518163ffffffff1660e01b8152600401602060405180830381865afa1580156111e1573d6000803e3d6000fd5b505050506040513d601f19601f820116820180604052508101906112059190612dbe565b6001600160a01b0316145b8061130a5750816001600160a01b0316816001600160a01b0316630dfe16816040518163ffffffff1660e01b8152600401602060405180830381865afa15801561125e573d6000803e3d6000fd5b505050506040513d601f19601f820116820180604052508101906112829190612dbe565b6001600160a01b031614801561130a5750886001600160a01b0316816001600160a01b031663d21220a76040518163ffffffff1660e01b8152600401602060405180830381865afa1580156112db573d6000803e3d6000fd5b505050506040513d601f19601f820116820180604052508101906112ff9190612dbe565b6001600160a01b0316145b61134c5760405162461bcd60e51b8152602060048201526013602482015272125b9d985b1a59081d185c99d95d081c1bdbdb606a1b60448201526064016101f8565b60006113598a848b611c16565b905060006113688b8584611dc5565b905060008a8211156113815761137e8b83612da7565b90505b8981111561139a576113938a82612da7565b90506113db565b60405162461bcd60e51b8152602060048201526016602482015275556e70726f66697461626c652061726269747261676560501b60448201526064016101f8565b6113e7898d8d84611ea7565b505050505050505050505050565b6002835110156114475760405162461bcd60e51b815260206004820152601960248201527f4174206c6561737420322070616972732072657175697265640000000000000060448201526064016101f8565b8251611454906001612c6b565b8251146114a35760405162461bcd60e51b815260206004820152601b60248201527f496e76616c696420746f6b656e73206172726179206c656e677468000000000060448201526064016101f8565b82518151146114f45760405162461bcd60e51b815260206004820152601c60248201527f496e76616c696420616d6f756e7473206172726179206c656e6774680000000060448201526064016101f8565b856001600160a01b03168260008151811061151157611511612a90565b60200260200101516001600160a01b03161461157f5760405162461bcd60e51b815260206004820152602760248201527f466972737420746f6b656e206d757374206d6174636820666c617368206c6f6160448201526637103a37b5b2b760c91b60648201526084016101f8565b846000805b85518110156117e75784818151811061159f5761159f612a90565b602090810291909101015160015460405163095ea7b360e01b81526001600160a01b039283169263095ea7b3926115dd929116908790600401612979565b6020604051808303816000875af11580156115fc573d6000803e3d6000fd5b505050506040513d601f19601f820116820180604052508101906116209190612992565b5060408051600280825260608201835260009260208301908036833701905050905085828151811061165457611654612a90565b60200260200101518160008151811061166f5761166f612a90565b6001600160a01b039092166020928302919091019091015285611693836001612c6b565b815181106116a3576116a3612a90565b6020026020010151816001815181106116be576116be612a90565b6001600160a01b0390921660209283029190910190910152600082156116e457846116ff565b8583815181106116f6576116f6612a90565b60200260200101515b6001549091506000906001600160a01b03166338ed1739838386306117264261012c612c6b565b6040518663ffffffff1660e01b8152600401611746959493929190612ca5565b6000604051808303816000875af1158015611765573d6000803e3d6000fd5b505050506040513d6000823e601f3d908101601f1916820160405261178d9190810190612d16565b9050806001825161179e9190612da7565b815181106117ae576117ae612a90565b60200260200101519550600189516117c69190612da7565b8414156117d1578594505b50505080806117df90612ddb565b915050611584565b50845190915081905b8015611a005784818151811061180857611808612a90565b602090810291909101015160015460405163095ea7b360e01b81526001600160a01b039283169263095ea7b392611846929116908790600401612979565b6020604051808303816000875af1158015611865573d6000803e3d6000fd5b505050506040513d601f19601f820116820180604052508101906118899190612992565b506040805160028082526060820183526000926020830190803683370190505090508582815181106118bd576118bd612a90565b6020026020010151816000815181106118d8576118d8612a90565b6001600160a01b0390921660209283029190910190910152856118fc600184612da7565b8151811061190c5761190c612a90565b60200260200101518160018151811061192757611927612a90565b6001600160a01b039283166020918202929092010152600154600091166338ed1739868385306119594261012c612c6b565b6040518663ffffffff1660e01b8152600401611979959493929190612ca5565b6000604051808303816000875af1158015611998573d6000803e3d6000fd5b505050506040513d6000823e601f3d908101601f191682016040526119c09190810190612d16565b905080600182516119d19190612da7565b815181106119e1576119e1612a90565b60200260200101519450505080806119f890612df6565b9150506117f0565b5081600088821115611a1957611a168983612da7565b90505b87811115611a3257611a2b8882612da7565b9050611a7a565b60405162461bcd60e51b815260206004820152601f60248201527f556e70726f66697461626c65206d756c74692d686f702073616e64776963680060448201526064016101f8565b60005460405163a9059cbb60e01b81526001600160a01b038c81169263a9059cbb92610fc792909116908590600401612979565b6000611abb600286612c83565b90506000611ac98287612da7565b90506000611ad78884611f7c565b90506000611ae7898488886122c7565b90506000848311611af9576000611b03565b611b038584612da7565b90506000848311611b15576000611b1f565b611b1f8584612da7565b90506000611b2d8284612c6b565b905089811115611b4857611b418a82612da7565b9050611b90565b60405162461bcd60e51b815260206004820152601e60248201527f556e70726f66697461626c6520636f6d62696e6564207374726174656779000060448201526064016101f8565b60005460405163a9059cbb60e01b81526001600160a01b038e81169263a9059cbb92611bc492909116908590600401612979565b6020604051808303816000875af1158015611be3573d6000803e3d6000fd5b505050506040513d601f19601f82011682018060405250810190611c079190612992565b50505050505050505050505050565b60015460405163095ea7b360e01b81526000916001600160a01b038087169263095ea7b392611c4b9216908690600401612979565b6020604051808303816000875af1158015611c6a573d6000803e3d6000fd5b505050506040513d601f19601f82011682018060405250810190611c8e9190612992565b506040805160028082526060820183526000926020830190803683370190505090508481600081518110611cc457611cc4612a90565b60200260200101906001600160a01b031690816001600160a01b0316815250508381600181518110611cf857611cf8612a90565b6001600160a01b039283166020918202929092010152600154600091166338ed173985838530611d2a4261012c612c6b565b6040518663ffffffff1660e01b8152600401611d4a959493929190612ca5565b6000604051808303816000875af1158015611d69573d6000803e3d6000fd5b505050506040513d6000823e601f3d908101601f19168201604052611d919190810190612d16565b90508060018251611da29190612da7565b81518110611db257611db2612a90565b6020026020010151925050509392505050565b60015460405163095ea7b360e01b81526000916001600160a01b038086169263095ea7b392611dfa9216908690600401612979565b6020604051808303816000875af1158015611e19573d6000803e3d6000fd5b505050506040513d601f19601f82011682018060405250810190611e3d9190612992565b506040805160028082526060820183526000926020830190803683370190505090508381600081518110611e7357611e73612a90565b60200260200101906001600160a01b031690816001600160a01b0316815250508481600181518110611cf857611cf8612a90565b600254604080516001600160a01b038681168252602082018690529181018490528682169291909116907f7a62ec736327d3efaebd2eb5695d0f27201b659e9378d8e83403a64101b6081b9060600160405180910390a360005460405163a9059cbb60e01b81526001600160a01b038581169263a9059cbb92611f3292909116908590600401612979565b6020604051808303816000875af1158015611f51573d6000803e3d6000fd5b505050506040513d601f19601f82011682018060405250810190611f759190612992565b5050505050565b60015460405163095ea7b360e01b81526000916001600160a01b038086169263095ea7b392611fb19216908690600401612979565b6020604051808303816000875af1158015611fd0573d6000803e3d6000fd5b505050506040513d601f19601f82011682018060405250810190611ff49190612992565b50604080516002808252606082018352600092602083019080368337019050509050838160008151811061202a5761202a612a90565b6001600160a01b03928316602091820292909201015260045482519116908290600190811061205b5761205b612a90565b6001600160a01b039283166020918202929092010152600154600091166338ed17398583853061208d4261012c612c6b565b6040518663ffffffff1660e01b81526004016120ad959493929190612ca5565b6000604051808303816000875af11580156120cc573d6000803e3d6000fd5b505050506040513d6000823e601f3d908101601f191682016040526120f49190810190612d16565b9050600081600183516121079190612da7565b8151811061211757612117612a90565b60200260200101519050600460009054906101000a90046001600160a01b03168360008151811061214a5761214a612a90565b60200260200101906001600160a01b031690816001600160a01b031681525050858360018151811061217e5761217e612a90565b6001600160a01b0392831660209182029290920101526004805460015460405163095ea7b360e01b81529184169363095ea7b3936121c3939290911691869101612979565b6020604051808303816000875af11580156121e2573d6000803e3d6000fd5b505050506040513d601f19601f820116820180604052508101906122069190612992565b506001546000906001600160a01b03166338ed17398383873061222b4261012c612c6b565b6040518663ffffffff1660e01b815260040161224b959493929190612ca5565b6000604051808303816000875af115801561226a573d6000803e3d6000fd5b505050506040513d6000823e601f3d908101601f191682016040526122929190810190612d16565b905080600182516122a39190612da7565b815181106122b3576122b3612a90565b602002602001015194505050505092915050565b6000808390506000816001600160a01b0316630dfe16816040518163ffffffff1660e01b8152600401602060405180830381865afa15801561230d573d6000803e3d6000fd5b505050506040513d601f19601f820116820180604052508101906123319190612dbe565b90506000826001600160a01b031663d21220a76040518163ffffffff1660e01b8152600401602060405180830381865afa158015612373573d6000803e3d6000fd5b505050506040513d601f19601f820116820180604052508101906123979190612dbe565b90506000826001600160a01b0316896001600160a01b0316146123ba57826123bc565b815b60015460405163095ea7b360e01b81529192506001600160a01b03808c169263095ea7b3926123f19216908c90600401612979565b6020604051808303816000875af1158015612410573d6000803e3d6000fd5b505050506040513d601f19601f820116820180604052508101906124349190612992565b50604080516002808252606082018352600092602083019080368337019050509050898160008151811061246a5761246a612a90565b60200260200101906001600160a01b031690816001600160a01b031681525050818160018151811061249e5761249e612a90565b6001600160a01b039283166020918202929092010152600154600091166338ed17398b8385306124d04261012c612c6b565b6040518663ffffffff1660e01b81526004016124f0959493929190612ca5565b6000604051808303816000875af115801561250f573d6000803e3d6000fd5b505050506040513d6000823e601f3d908101601f191682016040526125379190810190612d16565b90506000816001835161254a9190612da7565b8151811061255a5761255a612a90565b60200260200101519050838360008151811061257857612578612a90565b60200260200101906001600160a01b031690816001600160a01b0316815250508b836001815181106125ac576125ac612a90565b6001600160a01b03928316602091820292909201015260015460405163095ea7b360e01b81528683169263095ea7b3926125ed929116908590600401612979565b6020604051808303816000875af115801561260c573d6000803e3d6000fd5b505050506040513d601f19601f820116820180604052508101906126309190612992565b506001546000906001600160a01b03166338ed1739838387306126554261012c612c6b565b6040518663ffffffff1660e01b8152600401612675959493929190612ca5565b6000604051808303816000875af1158015612694573d6000803e3d6000fd5b505050506040513d6000823e601f3d908101601f191682016040526126bc9190810190612d16565b905080600182516126cd9190612da7565b815181106126dd576126dd612a90565b602002602001015198505050505050505050949350505050565b6001600160a01b038116811461270c57600080fd5b50565b60006020828403121561272157600080fd5b813561272c816126f7565b9392505050565b60008083601f84011261274557600080fd5b50813567ffffffffffffffff81111561275d57600080fd5b6020830191508360208260051b850101111561277857600080fd5b9250929050565b60008083601f84011261279157600080fd5b50813567ffffffffffffffff8111156127a957600080fd5b60208301915083602082850101111561277857600080fd5b600080600080600080600080600060a08a8c0312156127df57600080fd5b893567ffffffffffffffff808211156127f757600080fd5b6128038d838e01612733565b909b50995060208c013591508082111561281c57600080fd5b6128288d838e01612733565b909950975060408c013591508082111561284157600080fd5b61284d8d838e01612733565b909750955060608c01359150612862826126f7565b90935060808b0135908082111561287857600080fd5b506128858c828d0161277f565b915080935050809150509295985092959850929598565b6000806000806000806000806080898b0312156128b857600080fd5b883567ffffffffffffffff808211156128d057600080fd5b6128dc8c838d01612733565b909a50985060208b01359150808211156128f557600080fd5b6129018c838d01612733565b909850965060408b013591508082111561291a57600080fd5b6129268c838d01612733565b909650945060608b013591508082111561293f57600080fd5b5061294c8b828c0161277f565b999c989b5096995094979396929594505050565b60006020828403121561297257600080fd5b5051919050565b6001600160a01b03929092168252602082015260400190565b6000602082840312156129a457600080fd5b8151801515811461272c57600080fd5b634e487b7160e01b600052604160045260246000fd5b604051601f8201601f1916810167ffffffffffffffff811182821017156129f3576129f36129b4565b604052919050565b60006020808385031215612a0e57600080fd5b823567ffffffffffffffff80821115612a2657600080fd5b818501915085601f830112612a3a57600080fd5b813581811115612a4c57612a4c6129b4565b612a5e601f8201601f191685016129ca565b91508082528684828501011115612a7457600080fd5b8084840185840137600090820190930192909252509392505050565b634e487b7160e01b600052603260045260246000fd5b600067ffffffffffffffff821115612ac057612ac06129b4565b5060051b60200190565b600082601f830112612adb57600080fd5b81356020612af0612aeb83612aa6565b6129ca565b82815260059290921b84018101918181019086841115612b0f57600080fd5b8286015b84811015612b33578035612b26816126f7565b8352918301918301612b13565b509695505050505050565b600080600060608486031215612b5357600080fd5b833567ffffffffffffffff80821115612b6b57600080fd5b612b7787838801612aca565b9450602091508186013581811115612b8e57600080fd5b612b9a88828901612aca565b945050604086013581811115612baf57600080fd5b86019050601f81018713612bc257600080fd5b8035612bd0612aeb82612aa6565b81815260059190911b82018301908381019089831115612bef57600080fd5b928401925b82841015612c0d57833582529284019290840190612bf4565b80955050505050509250925092565b60008060408385031215612c2f57600080fd5b8235612c3a816126f7565b91506020830135612c4a816126f7565b809150509250929050565b634e487b7160e01b600052601160045260246000fd5b60008219821115612c7e57612c7e612c55565b500190565b600082612ca057634e487b7160e01b600052601260045260246000fd5b500490565b600060a082018783526020878185015260a0604085015281875180845260c086019150828901935060005b81811015612cf55784516001600160a01b031683529383019391830191600101612cd0565b50506001600160a01b03969096166060850152505050608001529392505050565b60006020808385031215612d2957600080fd5b825167ffffffffffffffff811115612d4057600080fd5b8301601f81018513612d5157600080fd5b8051612d5f612aeb82612aa6565b81815260059190911b82018301908381019087831115612d7e57600080fd5b928401925b82841015612d9c57835182529284019290840190612d83565b979650505050505050565b600082821015612db957612db9612c55565b500390565b600060208284031215612dd057600080fd5b815161272c816126f7565b6000600019821415612def57612def612c55565b5060010190565b600081612e0557612e05612c55565b50600019019056fea2646970667358221220d30ddbb404aff6b0beffa118e52eabefc5a98aaf3a9014e09e03bc93a7825ee364736f6c634300080a00331df21134d14754a1a8551a24645c613650a364454b81e31d14143da7be6da7b0a2646970667358221220a5c1785bc3e8269a7dd1938ae8b4752cf8904fd20f33e9e52f40bae1fac25b0764736f6c634300080a0033","opcodes":"PUSH1 0x80 PUSH1 0x40 MSTORE CALLVALUE DUP1 ISZERO PUSH3 0x11 JUMPI PUSH1 0x0 DUP1 REVERT JUMPDEST POP PUSH1 0x40 MLOAD PUSH3 0x5C64 CODESIZE SUB DUP1 PUSH3 0x5C64 DUP4 CODECOPY DUP2 ADD PUSH1 0x40 DUP2 SWAP1 MSTORE PUSH3 0x34 SWAP2 PUSH3 0x2DF JUMP JUMPDEST PUSH3 0x3F CALLER PUSH3 0x1F1 JUMP JUMPDEST PUSH1 0x1 DUP1 SSTORE PUSH1 0x35 DUP1 SLOAD PUSH1 0x1 PUSH1 0x1 PUSH1 0xA0 SHL SUB NOT AND PUSH1 0x1 PUSH1 0x1 PUSH1 0xA0 SHL SUB DUP6 AND SWAP1 DUP2 OR SWAP1 SWAP2 SSTORE PUSH1 0x40 DUP1 MLOAD PUSH4 0xC45A0155 PUSH1 0xE0 SHL DUP2 MSTORE SWAP1 MLOAD PUSH4 0xC45A0155 SWAP2 PUSH1 0x4 DUP1 DUP3 ADD SWAP3 PUSH1 0x20 SWAP3 SWAP1 SWAP2 SWAP1 DUP3 SWAP1 SUB ADD DUP2 DUP7 GAS STATICCALL ISZERO DUP1 ISZERO PUSH3 0x9D JUMPI RETURNDATASIZE PUSH1 0x0 DUP1 RETURNDATACOPY RETURNDATASIZE PUSH1 0x0 REVERT JUMPDEST POP POP POP POP PUSH1 0x40 MLOAD RETURNDATASIZE PUSH1 0x1F NOT PUSH1 0x1F DUP3 ADD AND DUP3 ADD DUP1 PUSH1 0x40 MSTORE POP DUP2 ADD SWAP1 PUSH3 0xC3 SWAP2 SWAP1 PUSH3 0x329 JUMP JUMPDEST PUSH1 0x36 DUP1 SLOAD PUSH1 0x1 PUSH1 0x1 PUSH1 0xA0 SHL SUB NOT SWAP1 DUP2 AND PUSH1 0x1 PUSH1 0x1 PUSH1 0xA0 SHL SUB SWAP4 DUP5 AND OR SWAP1 SWAP2 SSTORE PUSH1 0x37 DUP1 SLOAD DUP3 AND DUP6 DUP5 AND OR SWAP1 SSTORE PUSH1 0x38 DUP1 SLOAD SWAP1 SWAP2 AND SWAP2 DUP4 AND SWAP2 SWAP1 SWAP2 OR SWAP1 SSTORE PUSH1 0x40 DUP1 MLOAD PUSH1 0x0 PUSH2 0x100 DUP3 ADD DUP2 DUP2 MSTORE PUSH2 0x120 DUP4 ADD DUP5 MSTORE DUP3 MSTORE DUP3 MLOAD DUP2 DUP2 MSTORE PUSH1 0x20 DUP1 DUP3 ADD DUP6 MSTORE DUP1 DUP5 ADD SWAP2 SWAP1 SWAP2 MSTORE PUSH1 0x32 SWAP4 DUP4 ADD SWAP4 SWAP1 SWAP4 MSTORE PUSH7 0xB1A2BC2EC50000 PUSH1 0x60 DUP4 ADD MSTORE PUSH1 0x80 DUP3 ADD DUP2 SWAP1 MSTORE PUSH3 0x7A120 PUSH1 0xA0 DUP4 ADD MSTORE PUSH1 0x1 PUSH1 0xC0 DUP4 ADD MSTORE PUSH1 0xE0 DUP3 ADD MSTORE DUP1 MLOAD DUP1 MLOAD SWAP2 SWAP3 PUSH1 0x39 SWAP3 PUSH3 0x172 SWAP3 DUP5 SWAP3 ADD SWAP1 PUSH3 0x241 JUMP JUMPDEST POP PUSH1 0x20 DUP3 DUP2 ADD MLOAD DUP1 MLOAD PUSH3 0x18D SWAP3 PUSH1 0x1 DUP6 ADD SWAP3 ADD SWAP1 PUSH3 0x241 JUMP JUMPDEST POP PUSH1 0x40 DUP3 ADD MLOAD PUSH1 0x2 DUP3 ADD SSTORE PUSH1 0x60 DUP3 ADD MLOAD PUSH1 0x3 DUP3 ADD SSTORE PUSH1 0x80 DUP3 ADD MLOAD PUSH1 0x4 DUP3 ADD SSTORE PUSH1 0xA0 DUP3 ADD MLOAD PUSH1 0x5 DUP3 ADD SSTORE PUSH1 0xC0 DUP3 ADD MLOAD PUSH1 0x6 SWAP1 SWAP2 ADD DUP1 SLOAD PUSH1 0xE0 SWAP1 SWAP4 ADD MLOAD ISZERO ISZERO PUSH2 0x100 MUL PUSH2 0xFF00 NOT SWAP3 ISZERO ISZERO SWAP3 SWAP1 SWAP3 AND PUSH2 0xFFFF NOT SWAP1 SWAP4 AND SWAP3 SWAP1 SWAP3 OR OR SWAP1 SSTORE POP PUSH3 0x34E SWAP2 POP POP JUMP JUMPDEST PUSH1 0x0 DUP1 SLOAD PUSH1 0x1 PUSH1 0x1 PUSH1 0xA0 SHL SUB DUP4 DUP2 AND PUSH1 0x1 PUSH1 0x1 PUSH1 0xA0 SHL SUB NOT DUP4 AND DUP2 OR DUP5 SSTORE PUSH1 0x40 MLOAD SWAP2 SWAP1 SWAP3 AND SWAP3 DUP4 SWAP2 PUSH32 0x8BE0079C531659141344CD1FD0A4F28419497F9722A3DAAFE3B4186F6B6457E0 SWAP2 SWAP1 LOG3 POP POP JUMP JUMPDEST DUP3 DUP1 SLOAD DUP3 DUP3 SSTORE SWAP1 PUSH1 0x0 MSTORE PUSH1 0x20 PUSH1 0x0 KECCAK256 SWAP1 DUP2 ADD SWAP3 DUP3 ISZERO PUSH3 0x299 JUMPI SWAP2 PUSH1 0x20 MUL DUP3 ADD JUMPDEST DUP3 DUP2 GT ISZERO PUSH3 0x299 JUMPI DUP3 MLOAD DUP3 SLOAD PUSH1 0x1 PUSH1 0x1 PUSH1 0xA0 SHL SUB NOT AND PUSH1 0x1 PUSH1 0x1 PUSH1 0xA0 SHL SUB SWAP1 SWAP2 AND OR DUP3 SSTORE PUSH1 0x20 SWAP1 SWAP3 ADD SWAP2 PUSH1 0x1 SWAP1 SWAP2 ADD SWAP1 PUSH3 0x262 JUMP JUMPDEST POP PUSH3 0x2A7 SWAP3 SWAP2 POP PUSH3 0x2AB JUMP JUMPDEST POP SWAP1 JUMP JUMPDEST JUMPDEST DUP1 DUP3 GT ISZERO PUSH3 0x2A7 JUMPI PUSH1 0x0 DUP2 SSTORE PUSH1 0x1 ADD PUSH3 0x2AC JUMP JUMPDEST DUP1 MLOAD PUSH1 0x1 PUSH1 0x1 PUSH1 0xA0 SHL SUB DUP2 AND DUP2 EQ PUSH3 0x2DA JUMPI PUSH1 0x0 DUP1 REVERT JUMPDEST SWAP2 SWAP1 POP JUMP JUMPDEST PUSH1 0x0 DUP1 PUSH1 0x0 PUSH1 0x60 DUP5 DUP7 SUB SLT ISZERO PUSH3 0x2F5 JUMPI PUSH1 0x0 DUP1 REVERT JUMPDEST PUSH3 0x300 DUP5 PUSH3 0x2C2 JUMP JUMPDEST SWAP3 POP PUSH3 0x310 PUSH1 0x20 DUP6 ADD PUSH3 0x2C2 JUMP JUMPDEST SWAP2 POP PUSH3 0x320 PUSH1 0x40 DUP6 ADD PUSH3 0x2C2 JUMP JUMPDEST SWAP1 POP SWAP3 POP SWAP3 POP SWAP3 JUMP JUMPDEST PUSH1 0x0 PUSH1 0x20 DUP3 DUP5 SUB SLT ISZERO PUSH3 0x33C JUMPI PUSH1 0x0 DUP1 REVERT JUMPDEST PUSH3 0x347 DUP3 PUSH3 0x2C2 JUMP JUMPDEST SWAP4 SWAP3 POP POP POP JUMP JUMPDEST PUSH2 0x5906 DUP1 PUSH3 0x35E PUSH1 0x0 CODECOPY PUSH1 0x0 RETURN INVALID PUSH1 0x80 PUSH1 0x40 MSTORE PUSH1 0x4 CALLDATASIZE LT PUSH3 0x123 JUMPI PUSH1 0x0 CALLDATALOAD PUSH1 0xE0 SHR DUP1 PUSH4 0x783CAC73 GT PUSH3 0xA1 JUMPI DUP1 PUSH4 0xC3EAACA5 GT PUSH3 0x6C JUMPI DUP1 PUSH4 0xC3EAACA5 EQ PUSH3 0x323 JUMPI DUP1 PUSH4 0xC7BDBCB5 EQ PUSH3 0x348 JUMPI DUP1 PUSH4 0xCA55C764 EQ PUSH3 0x36D JUMPI DUP1 PUSH4 0xF2FDE38B EQ PUSH3 0x392 JUMPI DUP1 PUSH4 0xF57F33D0 EQ PUSH3 0x3B7 JUMPI PUSH1 0x0 DUP1 REVERT JUMPDEST DUP1 PUSH4 0x783CAC73 EQ PUSH3 0x297 JUMPI DUP1 PUSH4 0x8BDB2AFA EQ PUSH3 0x2BC JUMPI DUP1 PUSH4 0x8DA5CB5B EQ PUSH3 0x2DE JUMPI DUP1 PUSH4 0xA1C82602 EQ PUSH3 0x2FE JUMPI PUSH1 0x0 DUP1 REVERT JUMPDEST DUP1 PUSH4 0x4F07F7DB GT PUSH3 0xEE JUMPI DUP1 PUSH4 0x4F07F7DB EQ PUSH3 0x1E4 JUMPI DUP1 PUSH4 0x5C60DA1B EQ PUSH3 0x218 JUMPI DUP1 PUSH4 0x651C9156 EQ PUSH3 0x238 JUMPI DUP1 PUSH4 0x715018A6 EQ PUSH3 0x25D JUMPI DUP1 PUSH4 0x735DE9F7 EQ PUSH3 0x275 JUMPI PUSH1 0x0 DUP1 REVERT JUMPDEST DUP1 PUSH4 0x7170832 EQ PUSH3 0x130 JUMPI DUP1 PUSH4 0x11A1B6D1 EQ PUSH3 0x16F JUMPI DUP1 PUSH4 0x3659CFE6 EQ PUSH3 0x191 JUMPI DUP1 PUSH4 0x392E53CD EQ PUSH3 0x1B8 JUMPI PUSH1 0x0 DUP1 REVERT JUMPDEST CALLDATASIZE PUSH3 0x12B JUMPI STOP JUMPDEST PUSH1 0x0 DUP1 REVERT JUMPDEST CALLVALUE DUP1 ISZERO PUSH3 0x13D JUMPI PUSH1 0x0 DUP1 REVERT JUMPDEST POP PUSH1 0x37 SLOAD PUSH3 0x152 SWAP1 PUSH1 0x1 PUSH1 0x1 PUSH1 0xA0 SHL SUB AND DUP2 JUMP JUMPDEST PUSH1 0x40 MLOAD PUSH1 0x1 PUSH1 0x1 PUSH1 0xA0 SHL SUB SWAP1 SWAP2 AND DUP2 MSTORE PUSH1 0x20 ADD JUMPDEST PUSH1 0x40 MLOAD DUP1 SWAP2 SUB SWAP1 RETURN JUMPDEST CALLVALUE DUP1 ISZERO PUSH3 0x17C JUMPI PUSH1 0x0 DUP1 REVERT JUMPDEST POP PUSH1 0x38 SLOAD PUSH3 0x152 SWAP1 PUSH1 0x1 PUSH1 0x1 PUSH1 0xA0 SHL SUB AND DUP2 JUMP JUMPDEST CALLVALUE DUP1 ISZERO PUSH3 0x19E JUMPI PUSH1 0x0 DUP1 REVERT JUMPDEST POP PUSH3 0x1B6 PUSH3 0x1B0 CALLDATASIZE PUSH1 0x4 PUSH3 0x1E89 JUMP JUMPDEST PUSH3 0x41E JUMP JUMPDEST STOP JUMPDEST CALLVALUE DUP1 ISZERO PUSH3 0x1C5 JUMPI PUSH1 0x0 DUP1 REVERT JUMPDEST POP PUSH1 0x2 SLOAD PUSH1 0x1 PUSH1 0xA0 SHL SWAP1 DIV PUSH1 0xFF AND PUSH1 0x40 MLOAD SWAP1 ISZERO ISZERO DUP2 MSTORE PUSH1 0x20 ADD PUSH3 0x166 JUMP JUMPDEST CALLVALUE DUP1 ISZERO PUSH3 0x1F1 JUMPI PUSH1 0x0 DUP1 REVERT JUMPDEST POP PUSH3 0x209 PUSH3 0x203 CALLDATASIZE PUSH1 0x4 PUSH3 0x1EA9 JUMP JUMPDEST PUSH3 0x591 JUMP JUMPDEST PUSH1 0x40 MLOAD SWAP1 DUP2 MSTORE PUSH1 0x20 ADD PUSH3 0x166 JUMP JUMPDEST CALLVALUE DUP1 ISZERO PUSH3 0x225 JUMPI PUSH1 0x0 DUP1 REVERT JUMPDEST POP PUSH1 0x2 SLOAD PUSH1 0x1 PUSH1 0x1 PUSH1 0xA0 SHL SUB AND PUSH3 0x152 JUMP JUMPDEST CALLVALUE DUP1 ISZERO PUSH3 0x245 JUMPI PUSH1 0x0 DUP1 REVERT JUMPDEST POP PUSH3 0x1B6 PUSH3 0x257 CALLDATASIZE PUSH1 0x4 PUSH3 0x1F0B JUMP JUMPDEST PUSH3 0x625 JUMP JUMPDEST CALLVALUE DUP1 ISZERO PUSH3 0x26A JUMPI PUSH1 0x0 DUP1 REVERT JUMPDEST POP PUSH3 0x1B6 PUSH3 0x81C JUMP JUMPDEST CALLVALUE DUP1 ISZERO PUSH3 0x282 JUMPI PUSH1 0x0 DUP1 REVERT JUMPDEST POP PUSH1 0x35 SLOAD PUSH3 0x152 SWAP1 PUSH1 0x1 PUSH1 0x1 PUSH1 0xA0 SHL SUB AND DUP2 JUMP JUMPDEST CALLVALUE DUP1 ISZERO PUSH3 0x2A4 JUMPI PUSH1 0x0 DUP1 REVERT JUMPDEST POP PUSH3 0x1B6 PUSH3 0x2B6 CALLDATASIZE PUSH1 0x4 PUSH3 0x1F52 JUMP JUMPDEST PUSH3 0x857 JUMP JUMPDEST CALLVALUE DUP1 ISZERO PUSH3 0x2C9 JUMPI PUSH1 0x0 DUP1 REVERT JUMPDEST POP PUSH1 0x36 SLOAD PUSH3 0x152 SWAP1 PUSH1 0x1 PUSH1 0x1 PUSH1 0xA0 SHL SUB AND DUP2 JUMP JUMPDEST CALLVALUE DUP1 ISZERO PUSH3 0x2EB JUMPI PUSH1 0x0 DUP1 REVERT JUMPDEST POP PUSH1 0x0 SLOAD PUSH1 0x1 PUSH1 0x1 PUSH1 0xA0 SHL SUB AND PUSH3 0x152 JUMP JUMPDEST CALLVALUE DUP1 ISZERO PUSH3 0x30B JUMPI PUSH1 0x0 DUP1 REVERT JUMPDEST POP PUSH3 0x1B6 PUSH3 0x31D CALLDATASIZE PUSH1 0x4 PUSH3 0x1FBE JUMP JUMPDEST PUSH3 0xD2C JUMP JUMPDEST CALLVALUE DUP1 ISZERO PUSH3 0x330 JUMPI PUSH1 0x0 DUP1 REVERT JUMPDEST POP PUSH3 0x1B6 PUSH3 0x342 CALLDATASIZE PUSH1 0x4 PUSH3 0x2073 JUMP JUMPDEST PUSH3 0x1020 JUMP JUMPDEST CALLVALUE DUP1 ISZERO PUSH3 0x355 JUMPI PUSH1 0x0 DUP1 REVERT JUMPDEST POP PUSH3 0x1B6 PUSH3 0x367 CALLDATASIZE PUSH1 0x4 PUSH3 0x2136 JUMP JUMPDEST PUSH3 0x1421 JUMP JUMPDEST CALLVALUE DUP1 ISZERO PUSH3 0x37A JUMPI PUSH1 0x0 DUP1 REVERT JUMPDEST POP PUSH3 0x1B6 PUSH3 0x38C CALLDATASIZE PUSH1 0x4 PUSH3 0x2175 JUMP JUMPDEST PUSH3 0x1462 JUMP JUMPDEST CALLVALUE DUP1 ISZERO PUSH3 0x39F JUMPI PUSH1 0x0 DUP1 REVERT JUMPDEST POP PUSH3 0x1B6 PUSH3 0x3B1 CALLDATASIZE PUSH1 0x4 PUSH3 0x1E89 JUMP JUMPDEST PUSH3 0x1767 JUMP JUMPDEST CALLVALUE DUP1 ISZERO PUSH3 0x3C4 JUMPI PUSH1 0x0 DUP1 REVERT JUMPDEST POP PUSH1 0x3B SLOAD PUSH1 0x3C SLOAD PUSH1 0x3D SLOAD PUSH1 0x3E SLOAD PUSH1 0x3F SLOAD PUSH3 0x3EC SWAP5 SWAP4 SWAP3 SWAP2 SWAP1 PUSH1 0xFF DUP1 DUP3 AND SWAP2 PUSH2 0x100 SWAP1 DIV AND DUP7 JUMP JUMPDEST PUSH1 0x40 DUP1 MLOAD SWAP7 DUP8 MSTORE PUSH1 0x20 DUP8 ADD SWAP6 SWAP1 SWAP6 MSTORE SWAP4 DUP6 ADD SWAP3 SWAP1 SWAP3 MSTORE PUSH1 0x60 DUP5 ADD MSTORE ISZERO ISZERO PUSH1 0x80 DUP4 ADD MSTORE ISZERO ISZERO PUSH1 0xA0 DUP3 ADD MSTORE PUSH1 0xC0 ADD PUSH3 0x166 JUMP JUMPDEST PUSH1 0x0 SLOAD PUSH1 0x1 PUSH1 0x1 PUSH1 0xA0 SHL SUB AND CALLER EQ PUSH3 0x454 JUMPI PUSH1 0x40 MLOAD PUSH3 0x461BCD PUSH1 0xE5 SHL DUP2 MSTORE PUSH1 0x4 ADD PUSH3 0x44B SWAP1 PUSH3 0x21CD JUMP JUMPDEST PUSH1 0x40 MLOAD DUP1 SWAP2 SUB SWAP1 REVERT JUMPDEST PUSH1 0x1 PUSH1 0x1 PUSH1 0xA0 SHL SUB DUP2 AND PUSH3 0x4C8 JUMPI PUSH1 0x40 MLOAD PUSH3 0x461BCD PUSH1 0xE5 SHL DUP2 MSTORE PUSH1 0x20 PUSH1 0x4 DUP3 ADD MSTORE PUSH1 0x33 PUSH1 0x24 DUP3 ADD MSTORE PUSH32 0x5570677261646561626C653A206E657720696D706C656D656E746174696F6E20 PUSH1 0x44 DUP3 ADD MSTORE PUSH19 0x697320746865207A65726F2061646472657373 PUSH1 0x68 SHL PUSH1 0x64 DUP3 ADD MSTORE PUSH1 0x84 ADD PUSH3 0x44B JUMP JUMPDEST PUSH1 0x2 SLOAD PUSH1 0x1 PUSH1 0x1 PUSH1 0xA0 SHL SUB DUP3 DUP2 AND SWAP2 AND EQ ISZERO PUSH3 0x547 JUMPI PUSH1 0x40 MLOAD PUSH3 0x461BCD PUSH1 0xE5 SHL DUP2 MSTORE PUSH1 0x20 PUSH1 0x4 DUP3 ADD MSTORE PUSH1 0x36 PUSH1 0x24 DUP3 ADD MSTORE PUSH32 0x5570677261646561626C653A206E657720696D706C656D656E746174696F6E20 PUSH1 0x44 DUP3 ADD MSTORE PUSH22 0x1A5CC81D1A19481CD85B5948185CC818DD5C9C995B9D PUSH1 0x52 SHL PUSH1 0x64 DUP3 ADD MSTORE PUSH1 0x84 ADD PUSH3 0x44B JUMP JUMPDEST PUSH1 0x2 DUP1 SLOAD PUSH1 0x1 PUSH1 0x1 PUSH1 0xA0 SHL SUB NOT AND PUSH1 0x1 PUSH1 0x1 PUSH1 0xA0 SHL SUB DUP4 AND SWAP1 DUP2 OR SWAP1 SWAP2 SSTORE PUSH1 0x40 MLOAD PUSH32 0xBC7CD75A20EE27FD9ADEBAB32041F755214DBC6BFFA90CC0225B39DA2E5C2D3B SWAP1 PUSH1 0x0 SWAP1 LOG2 POP JUMP JUMPDEST PUSH1 0x36 SLOAD PUSH1 0x0 SWAP1 DUP2 SWAP1 DUP2 SWAP1 PUSH3 0x5B1 SWAP1 PUSH1 0x1 PUSH1 0x1 PUSH1 0xA0 SHL SUB AND DUP9 DUP9 PUSH3 0x1809 JUMP JUMPDEST SWAP2 POP SWAP2 POP PUSH3 0x5D8 DUP3 DUP3 DUP8 DUP8 DUP11 PUSH1 0x1 PUSH1 0x1 PUSH1 0xA0 SHL SUB AND DUP13 PUSH1 0x1 PUSH1 0x1 PUSH1 0xA0 SHL SUB AND LT PUSH3 0x18DC JUMP JUMPDEST SWAP3 POP PUSH1 0x0 PUSH3 0x5F2 PUSH1 0x39 PUSH1 0x4 ADD SLOAD PUSH1 0x39 PUSH1 0x5 ADD SLOAD PUSH3 0x1A16 JUMP JUMPDEST SWAP1 POP DUP1 DUP5 GT ISZERO PUSH3 0x614 JUMPI PUSH3 0x609 DUP2 DUP6 PUSH3 0x2218 JUMP JUMPDEST SWAP4 POP POP POP POP PUSH3 0x61C JUMP JUMPDEST PUSH1 0x0 SWAP4 POP POP POP POP JUMPDEST SWAP6 SWAP5 POP POP POP POP POP JUMP JUMPDEST PUSH1 0x0 SLOAD PUSH1 0x1 PUSH1 0x1 PUSH1 0xA0 SHL SUB AND CALLER EQ PUSH3 0x652 JUMPI PUSH1 0x40 MLOAD PUSH3 0x461BCD PUSH1 0xE5 SHL DUP2 MSTORE PUSH1 0x4 ADD PUSH3 0x44B SWAP1 PUSH3 0x21CD JUMP JUMPDEST PUSH1 0x1 PUSH1 0x1 PUSH1 0xA0 SHL SUB DUP2 AND PUSH3 0x69E JUMPI PUSH1 0x40 MLOAD PUSH3 0x461BCD PUSH1 0xE5 SHL DUP2 MSTORE PUSH1 0x20 PUSH1 0x4 DUP3 ADD MSTORE PUSH1 0x11 PUSH1 0x24 DUP3 ADD MSTORE PUSH17 0x125B9D985B1A59081C9958DA5C1A595B9D PUSH1 0x7A SHL PUSH1 0x44 DUP3 ADD MSTORE PUSH1 0x64 ADD PUSH3 0x44B JUMP JUMPDEST PUSH1 0x40 MLOAD PUSH4 0x70A08231 PUSH1 0xE0 SHL DUP2 MSTORE ADDRESS PUSH1 0x4 DUP3 ADD MSTORE DUP3 SWAP1 PUSH1 0x1 PUSH1 0x1 PUSH1 0xA0 SHL SUB DUP6 AND SWAP1 PUSH4 0x70A08231 SWAP1 PUSH1 0x24 ADD PUSH1 0x20 PUSH1 0x40 MLOAD DUP1 DUP4 SUB DUP2 DUP7 GAS STATICCALL ISZERO DUP1 ISZERO PUSH3 0x6E5 JUMPI RETURNDATASIZE PUSH1 0x0 DUP1 RETURNDATACOPY RETURNDATASIZE PUSH1 0x0 REVERT JUMPDEST POP POP POP POP PUSH1 0x40 MLOAD RETURNDATASIZE PUSH1 0x1F NOT PUSH1 0x1F DUP3 ADD AND DUP3 ADD DUP1 PUSH1 0x40 MSTORE POP DUP2 ADD SWAP1 PUSH3 0x70B SWAP2 SWAP1 PUSH3 0x2232 JUMP JUMPDEST LT ISZERO PUSH3 0x752 JUMPI PUSH1 0x40 MLOAD PUSH3 0x461BCD PUSH1 0xE5 SHL DUP2 MSTORE PUSH1 0x20 PUSH1 0x4 DUP3 ADD MSTORE PUSH1 0x14 PUSH1 0x24 DUP3 ADD MSTORE PUSH20 0x496E73756666696369656E742062616C616E6365 PUSH1 0x60 SHL PUSH1 0x44 DUP3 ADD MSTORE PUSH1 0x64 ADD PUSH3 0x44B JUMP JUMPDEST PUSH1 0x40 MLOAD PUSH4 0xA9059CBB PUSH1 0xE0 SHL DUP2 MSTORE PUSH1 0x1 PUSH1 0x1 PUSH1 0xA0 SHL SUB DUP3 DUP2 AND PUSH1 0x4 DUP4 ADD MSTORE PUSH1 0x24 DUP3 ADD DUP5 SWAP1 MSTORE DUP5 AND SWAP1 PUSH4 0xA9059CBB SWAP1 PUSH1 0x44 ADD PUSH1 0x20 PUSH1 0x40 MLOAD DUP1 DUP4 SUB DUP2 PUSH1 0x0 DUP8 GAS CALL ISZERO DUP1 ISZERO PUSH3 0x7A2 JUMPI RETURNDATASIZE PUSH1 0x0 DUP1 RETURNDATACOPY RETURNDATASIZE PUSH1 0x0 REVERT JUMPDEST POP POP POP POP PUSH1 0x40 MLOAD RETURNDATASIZE PUSH1 0x1F NOT PUSH1 0x1F DUP3 ADD AND DUP3 ADD DUP1 PUSH1 0x40 MSTORE POP DUP2 ADD SWAP1 PUSH3 0x7C8 SWAP2 SWAP1 PUSH3 0x225B JUMP JUMPDEST POP DUP1 PUSH1 0x1 PUSH1 0x1 PUSH1 0xA0 SHL SUB AND DUP4 PUSH1 0x1 PUSH1 0x1 PUSH1 0xA0 SHL SUB AND PUSH32 0x7BB82E438F370442CDA439F45E4106C95803A259CB3D8464D35CDFC78978CD53 DUP5 PUSH1 0x40 MLOAD PUSH3 0x80F SWAP2 DUP2 MSTORE PUSH1 0x20 ADD SWAP1 JUMP JUMPDEST PUSH1 0x40 MLOAD DUP1 SWAP2 SUB SWAP1 LOG3 POP POP POP JUMP JUMPDEST PUSH1 0x0 SLOAD PUSH1 0x1 PUSH1 0x1 PUSH1 0xA0 SHL SUB AND CALLER EQ PUSH3 0x849 JUMPI PUSH1 0x40 MLOAD PUSH3 0x461BCD PUSH1 0xE5 SHL DUP2 MSTORE PUSH1 0x4 ADD PUSH3 0x44B SWAP1 PUSH3 0x21CD JUMP JUMPDEST PUSH3 0x855 PUSH1 0x0 PUSH3 0x1A2B JUMP JUMPDEST JUMP JUMPDEST PUSH1 0x0 SLOAD PUSH1 0x1 PUSH1 0x1 PUSH1 0xA0 SHL SUB AND CALLER EQ PUSH3 0x884 JUMPI PUSH1 0x40 MLOAD PUSH3 0x461BCD PUSH1 0xE5 SHL DUP2 MSTORE PUSH1 0x4 ADD PUSH3 0x44B SWAP1 PUSH3 0x21CD JUMP JUMPDEST PUSH1 0x2 PUSH1 0x1 SLOAD EQ ISZERO PUSH3 0x8AA JUMPI PUSH1 0x40 MLOAD PUSH3 0x461BCD PUSH1 0xE5 SHL DUP2 MSTORE PUSH1 0x4 ADD PUSH3 0x44B SWAP1 PUSH3 0x227B JUMP JUMPDEST PUSH1 0x2 PUSH1 0x1 SSTORE DUP1 PUSH3 0x8FE JUMPI PUSH1 0x40 MLOAD PUSH3 0x461BCD PUSH1 0xE5 SHL DUP2 MSTORE PUSH1 0x20 PUSH1 0x4 DUP3 ADD MSTORE PUSH1 0x1C PUSH1 0x24 DUP3 ADD MSTORE PUSH32 0x4C6F616E20616D6F756E74206D75737420626520706F73697469766500000000 PUSH1 0x44 DUP3 ADD MSTORE PUSH1 0x64 ADD PUSH3 0x44B JUMP JUMPDEST PUSH1 0x0 ADDRESS PUSH1 0x35 PUSH1 0x0 SWAP1 SLOAD SWAP1 PUSH2 0x100 EXP SWAP1 DIV PUSH1 0x1 PUSH1 0x1 PUSH1 0xA0 SHL SUB AND DUP9 DUP9 DUP9 DUP9 DUP9 PUSH1 0x40 MLOAD PUSH3 0x92A SWAP1 PUSH3 0x1E65 JUMP JUMPDEST PUSH3 0x93C SWAP8 SWAP7 SWAP6 SWAP5 SWAP4 SWAP3 SWAP2 SWAP1 PUSH3 0x22B2 JUMP JUMPDEST PUSH1 0x40 MLOAD DUP1 SWAP2 SUB SWAP1 PUSH1 0x0 CREATE DUP1 ISZERO DUP1 ISZERO PUSH3 0x959 JUMPI RETURNDATASIZE PUSH1 0x0 DUP1 RETURNDATACOPY RETURNDATASIZE PUSH1 0x0 REVERT JUMPDEST POP PUSH1 0x40 DUP1 MLOAD PUSH1 0x1 DUP1 DUP3 MSTORE DUP2 DUP4 ADD SWAP1 SWAP3 MSTORE SWAP2 SWAP3 POP PUSH1 0x0 SWAP2 SWAP1 PUSH1 0x20 DUP1 DUP4 ADD SWAP1 DUP1 CALLDATASIZE DUP4 CALLDATACOPY ADD SWAP1 POP POP SWAP1 POP DUP7 DUP2 PUSH1 0x0 DUP2 MLOAD DUP2 LT PUSH3 0x997 JUMPI PUSH3 0x997 PUSH3 0x22F5 JUMP JUMPDEST PUSH1 0x1 PUSH1 0x1 PUSH1 0xA0 SHL SUB SWAP3 SWAP1 SWAP3 AND PUSH1 0x20 SWAP3 DUP4 MUL SWAP2 SWAP1 SWAP2 ADD SWAP1 SWAP2 ADD MSTORE PUSH1 0x40 DUP1 MLOAD PUSH1 0x1 DUP1 DUP3 MSTORE DUP2 DUP4 ADD SWAP1 SWAP3 MSTORE PUSH1 0x0 SWAP2 DUP2 PUSH1 0x20 ADD PUSH1 0x20 DUP3 MUL DUP1 CALLDATASIZE DUP4 CALLDATACOPY ADD SWAP1 POP POP SWAP1 POP DUP4 DUP2 PUSH1 0x0 DUP2 MLOAD DUP2 LT PUSH3 0x9EB JUMPI PUSH3 0x9EB PUSH3 0x22F5 JUMP JUMPDEST PUSH1 0x20 SWAP1 DUP2 MUL SWAP2 SWAP1 SWAP2 ADD ADD MSTORE PUSH1 0x3F SLOAD PUSH1 0xFF AND ISZERO PUSH3 0xB1D JUMPI DUP8 PUSH1 0x1 PUSH1 0x1 PUSH1 0xA0 SHL SUB AND PUSH1 0x0 DUP1 MLOAD PUSH1 0x20 PUSH3 0x58B1 DUP4 CODECOPY DUP2 MLOAD SWAP2 MSTORE DUP6 PUSH1 0x40 MLOAD PUSH3 0xA52 SWAP2 DUP2 MSTORE PUSH1 0x40 PUSH1 0x20 DUP3 ADD DUP2 SWAP1 MSTORE PUSH1 0xD SWAP1 DUP3 ADD MSTORE PUSH13 0x53616E64776963682D41617665 PUSH1 0x98 SHL PUSH1 0x60 DUP3 ADD MSTORE PUSH1 0x80 ADD SWAP1 JUMP JUMPDEST PUSH1 0x40 MLOAD DUP1 SWAP2 SUB SWAP1 LOG2 PUSH1 0x37 SLOAD PUSH1 0x1 PUSH1 0x1 PUSH1 0xA0 SHL SUB AND PUSH4 0xAB9C4B5D DUP5 DUP5 DUP5 PUSH1 0x1 PUSH1 0x40 MLOAD SWAP1 DUP1 DUP3 MSTORE DUP1 PUSH1 0x20 MUL PUSH1 0x20 ADD DUP3 ADD PUSH1 0x40 MSTORE DUP1 ISZERO PUSH3 0xA9A JUMPI DUP2 PUSH1 0x20 ADD PUSH1 0x20 DUP3 MUL DUP1 CALLDATASIZE DUP4 CALLDATACOPY ADD SWAP1 POP JUMPDEST POP PUSH1 0x40 DUP1 MLOAD DUP1 DUP3 ADD DUP3 MSTORE PUSH1 0x8 DUP2 MSTORE PUSH8 0xA6829C88AE92869 PUSH1 0xC3 SHL PUSH1 0x20 DUP3 ADD MSTORE SWAP1 MLOAD PUSH1 0x1 PUSH1 0x1 PUSH1 0xE0 SHL SUB NOT PUSH1 0xE0 DUP9 SWAP1 SHL AND DUP2 MSTORE PUSH3 0xAE3 SWAP6 SWAP5 SWAP4 SWAP3 SWAP2 PUSH1 0x0 SWAP2 DUP3 SWAP1 PUSH1 0x4 ADD PUSH3 0x2398 JUMP JUMPDEST PUSH1 0x0 PUSH1 0x40 MLOAD DUP1 DUP4 SUB DUP2 PUSH1 0x0 DUP8 DUP1 EXTCODESIZE ISZERO DUP1 ISZERO PUSH3 0xAFE JUMPI PUSH1 0x0 DUP1 REVERT JUMPDEST POP GAS CALL ISZERO DUP1 ISZERO PUSH3 0xB13 JUMPI RETURNDATASIZE PUSH1 0x0 DUP1 RETURNDATACOPY RETURNDATASIZE PUSH1 0x0 REVERT JUMPDEST POP POP POP POP PUSH3 0xC5F JUMP JUMPDEST PUSH1 0x3F SLOAD PUSH2 0x100 SWAP1 DIV PUSH1 0xFF AND ISZERO PUSH3 0xC5F JUMPI DUP8 PUSH1 0x1 PUSH1 0x1 PUSH1 0xA0 SHL SUB AND PUSH1 0x0 DUP1 MLOAD PUSH1 0x20 PUSH3 0x58B1 DUP4 CODECOPY DUP2 MLOAD SWAP2 MSTORE DUP6 PUSH1 0x40 MLOAD PUSH3 0xB82 SWAP2 DUP2 MSTORE PUSH1 0x40 PUSH1 0x20 DUP3 ADD DUP2 SWAP1 MSTORE PUSH1 0x11 SWAP1 DUP3 ADD MSTORE PUSH17 0x29B0B7323BB4B1B416A130B630B731B2B9 PUSH1 0x79 SHL PUSH1 0x60 DUP3 ADD MSTORE PUSH1 0x80 ADD SWAP1 JUMP JUMPDEST PUSH1 0x40 MLOAD DUP1 SWAP2 SUB SWAP1 LOG2 PUSH1 0x40 DUP1 MLOAD PUSH1 0x1 DUP1 DUP3 MSTORE DUP2 DUP4 ADD SWAP1 SWAP3 MSTORE PUSH1 0x0 SWAP2 PUSH1 0x20 DUP1 DUP4 ADD SWAP1 DUP1 CALLDATASIZE DUP4 CALLDATACOPY ADD SWAP1 POP POP SWAP1 POP DUP9 DUP2 PUSH1 0x0 DUP2 MLOAD DUP2 LT PUSH3 0xBC3 JUMPI PUSH3 0xBC3 PUSH3 0x22F5 JUMP JUMPDEST PUSH1 0x1 PUSH1 0x1 PUSH1 0xA0 SHL SUB SWAP3 DUP4 AND PUSH1 0x20 SWAP2 DUP3 MUL SWAP3 SWAP1 SWAP3 ADD DUP2 ADD SWAP2 SWAP1 SWAP2 MSTORE PUSH1 0x38 SLOAD PUSH1 0x40 DUP1 MLOAD DUP1 DUP3 ADD DUP3 MSTORE PUSH1 0x8 DUP2 MSTORE PUSH8 0xA6829C88AE92869 PUSH1 0xC3 SHL SWAP4 DUP2 ADD SWAP4 SWAP1 SWAP4 MSTORE MLOAD PUSH4 0x2E1C224F PUSH1 0xE1 SHL DUP2 MSTORE SWAP3 AND SWAP2 PUSH4 0x5C38449E SWAP2 PUSH3 0xC29 SWAP2 DUP9 SWAP2 DUP7 SWAP2 DUP9 SWAP2 SWAP1 PUSH1 0x4 ADD PUSH3 0x245D JUMP JUMPDEST PUSH1 0x0 PUSH1 0x40 MLOAD DUP1 DUP4 SUB DUP2 PUSH1 0x0 DUP8 DUP1 EXTCODESIZE ISZERO DUP1 ISZERO PUSH3 0xC44 JUMPI PUSH1 0x0 DUP1 REVERT JUMPDEST POP GAS CALL ISZERO DUP1 ISZERO PUSH3 0xC59 JUMPI RETURNDATASIZE PUSH1 0x0 DUP1 RETURNDATACOPY RETURNDATASIZE PUSH1 0x0 REVERT JUMPDEST POP POP POP POP POP JUMPDEST PUSH1 0x40 MLOAD PUSH4 0x70A08231 PUSH1 0xE0 SHL DUP2 MSTORE ADDRESS PUSH1 0x4 DUP3 ADD MSTORE PUSH1 0x0 SWAP1 PUSH1 0x1 PUSH1 0x1 PUSH1 0xA0 SHL SUB DUP11 AND SWAP1 PUSH4 0x70A08231 SWAP1 PUSH1 0x24 ADD PUSH1 0x20 PUSH1 0x40 MLOAD DUP1 DUP4 SUB DUP2 DUP7 GAS STATICCALL ISZERO DUP1 ISZERO PUSH3 0xCA7 JUMPI RETURNDATASIZE PUSH1 0x0 DUP1 RETURNDATACOPY RETURNDATASIZE PUSH1 0x0 REVERT JUMPDEST POP POP POP POP PUSH1 0x40 MLOAD RETURNDATASIZE PUSH1 0x1F NOT PUSH1 0x1F DUP3 ADD AND DUP3 ADD DUP1 PUSH1 0x40 MSTORE POP DUP2 ADD SWAP1 PUSH3 0xCCD SWAP2 SWAP1 PUSH3 0x2232 JUMP JUMPDEST PUSH1 0x40 DUP1 MLOAD DUP8 DUP2 MSTORE PUSH1 0x0 PUSH1 0x20 DUP3 ADD MSTORE SWAP1 DUP2 ADD DUP3 SWAP1 MSTORE SWAP1 SWAP2 POP PUSH1 0x1 PUSH1 0x1 PUSH1 0xA0 SHL SUB DUP12 AND SWAP1 PUSH32 0x139AA6A117CF6611EDB0FC24C9D9E355CA32871697B05BCC5235A138B70E452D SWAP1 PUSH1 0x60 ADD PUSH1 0x40 MLOAD DUP1 SWAP2 SUB SWAP1 LOG2 POP POP PUSH1 0x1 DUP1 SSTORE POP POP POP POP POP POP POP POP JUMP JUMPDEST PUSH1 0x0 SLOAD PUSH1 0x1 PUSH1 0x1 PUSH1 0xA0 SHL SUB AND CALLER EQ PUSH3 0xD59 JUMPI PUSH1 0x40 MLOAD PUSH3 0x461BCD PUSH1 0xE5 SHL DUP2 MSTORE PUSH1 0x4 ADD PUSH3 0x44B SWAP1 PUSH3 0x21CD JUMP JUMPDEST PUSH1 0x2 PUSH1 0x1 SLOAD EQ ISZERO PUSH3 0xD7F JUMPI PUSH1 0x40 MLOAD PUSH3 0x461BCD PUSH1 0xE5 SHL DUP2 MSTORE PUSH1 0x4 ADD PUSH3 0x44B SWAP1 PUSH3 0x227B JUMP JUMPDEST PUSH1 0x2 PUSH1 0x1 DUP2 SWAP1 SSTORE POP PUSH1 0x0 ADDRESS PUSH1 0x35 PUSH1 0x0 SWAP1 SLOAD SWAP1 PUSH2 0x100 EXP SWAP1 DIV PUSH1 0x1 PUSH1 0x1 PUSH1 0xA0 SHL SUB AND DUP8 DUP6 PUSH1 0x0 DUP7 PUSH1 0x0 PUSH1 0x40 MLOAD PUSH3 0xDB5 SWAP1 PUSH3 0x1E65 JUMP JUMPDEST PUSH3 0xDC7 SWAP8 SWAP7 SWAP6 SWAP5 SWAP4 SWAP3 SWAP2 SWAP1 PUSH3 0x22B2 JUMP JUMPDEST PUSH1 0x40 MLOAD DUP1 SWAP2 SUB SWAP1 PUSH1 0x0 CREATE DUP1 ISZERO DUP1 ISZERO PUSH3 0xDE4 JUMPI RETURNDATASIZE PUSH1 0x0 DUP1 RETURNDATACOPY RETURNDATASIZE PUSH1 0x0 REVERT JUMPDEST POP PUSH1 0x3F SLOAD SWAP1 SWAP2 POP PUSH1 0xFF AND ISZERO PUSH3 0xF35 JUMPI DUP3 PUSH1 0x1 PUSH1 0x1 PUSH1 0xA0 SHL SUB AND PUSH1 0x0 DUP1 MLOAD PUSH1 0x20 PUSH3 0x58B1 DUP4 CODECOPY DUP2 MLOAD SWAP2 MSTORE DUP4 PUSH1 0x40 MLOAD PUSH3 0xE3F SWAP2 DUP2 MSTORE PUSH1 0x40 PUSH1 0x20 DUP3 ADD DUP2 SWAP1 MSTORE PUSH1 0x8 SWAP1 DUP3 ADD MSTORE PUSH8 0x10DBDB589A5B9959 PUSH1 0xC2 SHL PUSH1 0x60 DUP3 ADD MSTORE PUSH1 0x80 ADD SWAP1 JUMP JUMPDEST PUSH1 0x40 MLOAD DUP1 SWAP2 SUB SWAP1 LOG2 PUSH1 0x40 DUP1 MLOAD PUSH1 0x1 PUSH1 0x1 PUSH1 0xA0 SHL SUB DUP8 DUP2 AND PUSH1 0x20 DUP4 ADD MSTORE DUP7 DUP2 AND DUP3 DUP5 ADD MSTORE PUSH1 0x60 DUP1 DUP4 ADD MSTORE PUSH1 0x8 PUSH1 0x80 DUP4 ADD MSTORE PUSH8 0x10D3D35092539151 PUSH1 0xC2 SHL PUSH1 0xA0 DUP1 DUP5 ADD SWAP2 SWAP1 SWAP2 MSTORE DUP4 MLOAD DUP1 DUP5 SUB SWAP1 SWAP2 ADD DUP2 MSTORE PUSH1 0xC0 SWAP1 SWAP3 ADD SWAP1 SWAP3 MSTORE PUSH1 0x37 SLOAD SWAP1 SWAP2 AND PUSH4 0xAB9C4B5D DUP4 PUSH3 0xEAD DUP8 PUSH3 0x1A7B JUMP JUMPDEST PUSH3 0xEB8 DUP8 PUSH3 0x1AD6 JUMP JUMPDEST PUSH1 0x40 DUP1 MLOAD PUSH1 0x1 DUP1 DUP3 MSTORE DUP2 DUP4 ADD SWAP1 SWAP3 MSTORE SWAP1 PUSH1 0x20 DUP1 DUP4 ADD SWAP1 DUP1 CALLDATASIZE DUP4 CALLDATACOPY ADD SWAP1 POP POP PUSH1 0x0 DUP8 PUSH1 0x0 PUSH1 0x40 MLOAD DUP9 PUSH4 0xFFFFFFFF AND PUSH1 0xE0 SHL DUP2 MSTORE PUSH1 0x4 ADD PUSH3 0xEFF SWAP8 SWAP7 SWAP6 SWAP5 SWAP4 SWAP3 SWAP2 SWAP1 PUSH3 0x2398 JUMP JUMPDEST PUSH1 0x0 PUSH1 0x40 MLOAD DUP1 DUP4 SUB DUP2 PUSH1 0x0 DUP8 DUP1 EXTCODESIZE ISZERO DUP1 ISZERO PUSH3 0xF1A JUMPI PUSH1 0x0 DUP1 REVERT JUMPDEST POP GAS CALL ISZERO DUP1 ISZERO PUSH3 0xF2F JUMPI RETURNDATASIZE PUSH1 0x0 DUP1 RETURNDATACOPY RETURNDATASIZE PUSH1 0x0 REVERT JUMPDEST POP POP POP POP POP JUMPDEST PUSH1 0x40 MLOAD PUSH4 0x70A08231 PUSH1 0xE0 SHL DUP2 MSTORE ADDRESS PUSH1 0x4 DUP3 ADD MSTORE PUSH1 0x0 SWAP1 PUSH1 0x1 PUSH1 0x1 PUSH1 0xA0 SHL SUB DUP6 AND SWAP1 PUSH4 0x70A08231 SWAP1 PUSH1 0x24 ADD PUSH1 0x20 PUSH1 0x40 MLOAD DUP1 DUP4 SUB DUP2 DUP7 GAS STATICCALL ISZERO DUP1 ISZERO PUSH3 0xF7D JUMPI RETURNDATASIZE PUSH1 0x0 DUP1 RETURNDATACOPY RETURNDATASIZE PUSH1 0x0 REVERT JUMPDEST POP POP POP POP PUSH1 0x40 MLOAD RETURNDATASIZE PUSH1 0x1F NOT PUSH1 0x1F DUP3 ADD AND DUP3 ADD DUP1 PUSH1 0x40 MSTORE POP DUP2 ADD SWAP1 PUSH3 0xFA3 SWAP2 SWAP1 PUSH3 0x2232 JUMP JUMPDEST PUSH1 0x3C SLOAD SWAP1 SWAP2 POP DUP2 GT PUSH3 0xFCA JUMPI PUSH1 0x40 MLOAD PUSH3 0x461BCD PUSH1 0xE5 SHL DUP2 MSTORE PUSH1 0x4 ADD PUSH3 0x44B SWAP1 PUSH3 0x24DC JUMP JUMPDEST PUSH1 0x40 DUP1 MLOAD DUP3 DUP2 MSTORE PUSH1 0x0 PUSH1 0x20 DUP3 ADD DUP2 SWAP1 MSTORE SWAP2 PUSH1 0x1 PUSH1 0x1 PUSH1 0xA0 SHL SUB DUP8 AND SWAP2 CALLER SWAP2 PUSH32 0x4CC917B336EBE07173F6597A4DA6AF59C29C23852A13A2E5A6E2372A269C0EDE SWAP2 ADD PUSH1 0x40 MLOAD DUP1 SWAP2 SUB SWAP1 LOG4 POP POP PUSH1 0x1 DUP1 SSTORE POP POP POP POP POP JUMP JUMPDEST PUSH1 0x0 SLOAD PUSH1 0x1 PUSH1 0x1 PUSH1 0xA0 SHL SUB AND CALLER EQ PUSH3 0x104D JUMPI PUSH1 0x40 MLOAD PUSH3 0x461BCD PUSH1 0xE5 SHL DUP2 MSTORE PUSH1 0x4 ADD PUSH3 0x44B SWAP1 PUSH3 0x21CD JUMP JUMPDEST PUSH1 0x2 PUSH1 0x1 SLOAD EQ ISZERO PUSH3 0x1073 JUMPI PUSH1 0x40 MLOAD PUSH3 0x461BCD PUSH1 0xE5 SHL DUP2 MSTORE PUSH1 0x4 ADD PUSH3 0x44B SWAP1 PUSH3 0x227B JUMP JUMPDEST PUSH1 0x2 PUSH1 0x1 DUP2 SWAP1 SSTORE DUP8 LT ISZERO PUSH3 0x10CB JUMPI PUSH1 0x40 MLOAD PUSH3 0x461BCD PUSH1 0xE5 SHL DUP2 MSTORE PUSH1 0x20 PUSH1 0x4 DUP3 ADD MSTORE PUSH1 0x19 PUSH1 0x24 DUP3 ADD MSTORE PUSH32 0x5265717569726573206174206C65617374203220706169727300000000000000 PUSH1 0x44 DUP3 ADD MSTORE PUSH1 0x64 ADD PUSH3 0x44B JUMP JUMPDEST PUSH3 0x10D8 DUP8 PUSH1 0x1 PUSH3 0x2509 JUMP JUMPDEST DUP6 EQ PUSH3 0x1128 JUMPI PUSH1 0x40 MLOAD PUSH3 0x461BCD PUSH1 0xE5 SHL DUP2 MSTORE PUSH1 0x20 PUSH1 0x4 DUP3 ADD MSTORE PUSH1 0x1B PUSH1 0x24 DUP3 ADD MSTORE PUSH32 0x496E76616C696420746F6B656E73206172726179206C656E6774680000000000 PUSH1 0x44 DUP3 ADD MSTORE PUSH1 0x64 ADD PUSH3 0x44B JUMP JUMPDEST DUP3 DUP8 EQ PUSH3 0x1179 JUMPI PUSH1 0x40 MLOAD PUSH3 0x461BCD PUSH1 0xE5 SHL DUP2 MSTORE PUSH1 0x20 PUSH1 0x4 DUP3 ADD MSTORE PUSH1 0x1C PUSH1 0x24 DUP3 ADD MSTORE PUSH32 0x496E76616C696420616D6F756E7473206172726179206C656E67746800000000 PUSH1 0x44 DUP3 ADD MSTORE PUSH1 0x64 ADD PUSH3 0x44B JUMP JUMPDEST PUSH1 0x35 SLOAD PUSH1 0x0 SWAP1 ADDRESS SWAP1 PUSH1 0x1 PUSH1 0x1 PUSH1 0xA0 SHL SUB AND DUP11 DUP11 DUP5 DUP2 PUSH3 0x119D JUMPI PUSH3 0x119D PUSH3 0x22F5 JUMP JUMPDEST SWAP1 POP PUSH1 0x20 MUL ADD PUSH1 0x20 DUP2 ADD SWAP1 PUSH3 0x11B4 SWAP2 SWAP1 PUSH3 0x1E89 JUMP JUMPDEST DUP6 DUP11 DUP11 PUSH1 0x1 DUP2 DUP2 LT PUSH3 0x11CB JUMPI PUSH3 0x11CB PUSH3 0x22F5 JUMP JUMPDEST SWAP1 POP PUSH1 0x20 MUL ADD PUSH1 0x20 DUP2 ADD SWAP1 PUSH3 0x11E2 SWAP2 SWAP1 PUSH3 0x1E89 JUMP JUMPDEST DUP10 DUP10 PUSH1 0x0 DUP2 DUP2 LT PUSH3 0x11F8 JUMPI PUSH3 0x11F8 PUSH3 0x22F5 JUMP JUMPDEST SWAP1 POP PUSH1 0x20 MUL ADD CALLDATALOAD PUSH1 0x0 PUSH1 0x40 MLOAD PUSH3 0x120F SWAP1 PUSH3 0x1E65 JUMP JUMPDEST PUSH3 0x1221 SWAP8 SWAP7 SWAP6 SWAP5 SWAP4 SWAP3 SWAP2 SWAP1 PUSH3 0x22B2 JUMP JUMPDEST PUSH1 0x40 MLOAD DUP1 SWAP2 SUB SWAP1 PUSH1 0x0 CREATE DUP1 ISZERO DUP1 ISZERO PUSH3 0x123E JUMPI RETURNDATASIZE PUSH1 0x0 DUP1 RETURNDATACOPY RETURNDATASIZE PUSH1 0x0 REVERT JUMPDEST POP SWAP1 POP PUSH1 0x0 PUSH3 0x1253 DUP11 DUP11 DUP11 DUP11 DUP11 DUP11 PUSH3 0x1B24 JUMP JUMPDEST PUSH1 0x37 SLOAD SWAP1 SWAP2 POP PUSH1 0x1 PUSH1 0x1 PUSH1 0xA0 SHL SUB AND PUSH4 0xAB9C4B5D DUP4 PUSH3 0x1273 DUP8 PUSH3 0x1A7B JUMP JUMPDEST PUSH3 0x127E DUP8 PUSH3 0x1AD6 JUMP JUMPDEST PUSH1 0x40 DUP1 MLOAD PUSH1 0x1 DUP1 DUP3 MSTORE DUP2 DUP4 ADD SWAP1 SWAP3 MSTORE SWAP1 PUSH1 0x20 DUP1 DUP4 ADD SWAP1 DUP1 CALLDATASIZE DUP4 CALLDATACOPY ADD SWAP1 POP POP PUSH1 0x0 DUP8 PUSH1 0x0 PUSH1 0x40 MLOAD DUP9 PUSH4 0xFFFFFFFF AND PUSH1 0xE0 SHL DUP2 MSTORE PUSH1 0x4 ADD PUSH3 0x12C5 SWAP8 SWAP7 SWAP6 SWAP5 SWAP4 SWAP3 SWAP2 SWAP1 PUSH3 0x2398 JUMP JUMPDEST PUSH1 0x0 PUSH1 0x40 MLOAD DUP1 DUP4 SUB DUP2 PUSH1 0x0 DUP8 DUP1 EXTCODESIZE ISZERO DUP1 ISZERO PUSH3 0x12E0 JUMPI PUSH1 0x0 DUP1 REVERT JUMPDEST POP GAS CALL ISZERO DUP1 ISZERO PUSH3 0x12F5 JUMPI RETURNDATASIZE PUSH1 0x0 DUP1 RETURNDATACOPY RETURNDATASIZE PUSH1 0x0 REVERT JUMPDEST POP POP PUSH1 0x40 MLOAD PUSH4 0x70A08231 PUSH1 0xE0 SHL DUP2 MSTORE ADDRESS PUSH1 0x4 DUP3 ADD MSTORE PUSH1 0x0 SWAP3 POP PUSH1 0x1 PUSH1 0x1 PUSH1 0xA0 SHL SUB DUP8 AND SWAP2 POP PUSH4 0x70A08231 SWAP1 PUSH1 0x24 ADD PUSH1 0x20 PUSH1 0x40 MLOAD DUP1 DUP4 SUB DUP2 DUP7 GAS STATICCALL ISZERO DUP1 ISZERO PUSH3 0x1341 JUMPI RETURNDATASIZE PUSH1 0x0 DUP1 RETURNDATACOPY RETURNDATASIZE PUSH1 0x0 REVERT JUMPDEST POP POP POP POP PUSH1 0x40 MLOAD RETURNDATASIZE PUSH1 0x1F NOT PUSH1 0x1F DUP3 ADD AND DUP3 ADD DUP1 PUSH1 0x40 MSTORE POP DUP2 ADD SWAP1 PUSH3 0x1367 SWAP2 SWAP1 PUSH3 0x2232 JUMP JUMPDEST PUSH1 0x3C SLOAD SWAP1 SWAP2 POP DUP2 GT PUSH3 0x138E JUMPI PUSH1 0x40 MLOAD PUSH3 0x461BCD PUSH1 0xE5 SHL DUP2 MSTORE PUSH1 0x4 ADD PUSH3 0x44B SWAP1 PUSH3 0x24DC JUMP JUMPDEST DUP9 DUP9 PUSH3 0x139D PUSH1 0x1 DUP3 PUSH3 0x2218 JUMP JUMPDEST DUP2 DUP2 LT PUSH3 0x13AF JUMPI PUSH3 0x13AF PUSH3 0x22F5 JUMP JUMPDEST SWAP1 POP PUSH1 0x20 MUL ADD PUSH1 0x20 DUP2 ADD SWAP1 PUSH3 0x13C6 SWAP2 SWAP1 PUSH3 0x1E89 JUMP JUMPDEST PUSH1 0x40 DUP1 MLOAD DUP4 DUP2 MSTORE PUSH1 0x0 PUSH1 0x20 DUP3 ADD MSTORE PUSH1 0x1 PUSH1 0x1 PUSH1 0xA0 SHL SUB SWAP3 DUP4 AND SWAP3 DUP9 AND SWAP2 CALLER SWAP2 PUSH32 0x4CC917B336EBE07173F6597A4DA6AF59C29C23852A13A2E5A6E2372A269C0EDE SWAP2 ADD PUSH1 0x40 MLOAD DUP1 SWAP2 SUB SWAP1 LOG4 POP POP PUSH1 0x1 DUP1 SSTORE POP POP POP POP POP POP POP POP POP JUMP JUMPDEST PUSH1 0x0 SLOAD PUSH1 0x1 PUSH1 0x1 PUSH1 0xA0 SHL SUB AND CALLER EQ PUSH3 0x144E JUMPI PUSH1 0x40 MLOAD PUSH3 0x461BCD PUSH1 0xE5 SHL DUP2 MSTORE PUSH1 0x4 ADD PUSH3 0x44B SWAP1 PUSH3 0x21CD JUMP JUMPDEST DUP1 PUSH1 0x39 PUSH3 0x145D DUP3 DUP3 PUSH3 0x2672 JUMP JUMPDEST POP POP POP JUMP JUMPDEST PUSH1 0x0 SLOAD PUSH1 0x1 PUSH1 0x1 PUSH1 0xA0 SHL SUB AND CALLER EQ PUSH3 0x148F JUMPI PUSH1 0x40 MLOAD PUSH3 0x461BCD PUSH1 0xE5 SHL DUP2 MSTORE PUSH1 0x4 ADD PUSH3 0x44B SWAP1 PUSH3 0x21CD JUMP JUMPDEST PUSH1 0x2 PUSH1 0x1 SLOAD EQ ISZERO PUSH3 0x14B5 JUMPI PUSH1 0x40 MLOAD PUSH3 0x461BCD PUSH1 0xE5 SHL DUP2 MSTORE PUSH1 0x4 ADD PUSH3 0x44B SWAP1 PUSH3 0x227B JUMP JUMPDEST PUSH1 0x2 PUSH1 0x1 DUP2 SWAP1 SSTORE POP PUSH1 0x0 ADDRESS PUSH1 0x35 PUSH1 0x0 SWAP1 SLOAD SWAP1 PUSH2 0x100 EXP SWAP1 DIV PUSH1 0x1 PUSH1 0x1 PUSH1 0xA0 SHL SUB AND DUP7 DUP6 PUSH1 0x0 DUP7 PUSH1 0x0 PUSH1 0x40 MLOAD PUSH3 0x14EB SWAP1 PUSH3 0x1E65 JUMP JUMPDEST PUSH3 0x14FD SWAP8 SWAP7 SWAP6 SWAP5 SWAP4 SWAP3 SWAP2 SWAP1 PUSH3 0x22B2 JUMP JUMPDEST PUSH1 0x40 MLOAD DUP1 SWAP2 SUB SWAP1 PUSH1 0x0 CREATE DUP1 ISZERO DUP1 ISZERO PUSH3 0x151A JUMPI RETURNDATASIZE PUSH1 0x0 DUP1 RETURNDATACOPY RETURNDATASIZE PUSH1 0x0 REVERT JUMPDEST POP PUSH1 0x3F SLOAD SWAP1 SWAP2 POP PUSH1 0xFF AND ISZERO PUSH3 0x166F JUMPI DUP3 PUSH1 0x1 PUSH1 0x1 PUSH1 0xA0 SHL SUB AND PUSH1 0x0 DUP1 MLOAD PUSH1 0x20 PUSH3 0x58B1 DUP4 CODECOPY DUP2 MLOAD SWAP2 MSTORE DUP4 PUSH1 0x40 MLOAD PUSH3 0x1576 SWAP2 DUP2 MSTORE PUSH1 0x40 PUSH1 0x20 DUP3 ADD DUP2 SWAP1 MSTORE PUSH1 0x9 SWAP1 DUP3 ADD MSTORE PUSH9 0x417262697472616765 PUSH1 0xB8 SHL PUSH1 0x60 DUP3 ADD MSTORE PUSH1 0x80 ADD SWAP1 JUMP JUMPDEST PUSH1 0x40 MLOAD DUP1 SWAP2 SUB SWAP1 LOG2 PUSH1 0x40 DUP1 MLOAD PUSH1 0x1 PUSH1 0x1 PUSH1 0xA0 SHL SUB DUP7 AND PUSH1 0x20 DUP3 ADD MSTORE DUP1 DUP3 ADD SWAP2 SWAP1 SWAP2 MSTORE PUSH1 0x9 PUSH1 0x60 DUP3 ADD MSTORE PUSH9 0x415242495452414745 PUSH1 0xB8 SHL PUSH1 0x80 DUP3 ADD MSTORE PUSH1 0x0 SWAP1 PUSH1 0xA0 ADD PUSH1 0x40 DUP1 MLOAD PUSH1 0x1F NOT DUP2 DUP5 SUB ADD DUP2 MSTORE SWAP2 SWAP1 MSTORE PUSH1 0x37 SLOAD SWAP1 SWAP2 POP PUSH1 0x1 PUSH1 0x1 PUSH1 0xA0 SHL SUB AND PUSH4 0xAB9C4B5D DUP4 PUSH3 0x15E7 DUP8 PUSH3 0x1A7B JUMP JUMPDEST PUSH3 0x15F2 DUP8 PUSH3 0x1AD6 JUMP JUMPDEST PUSH1 0x40 DUP1 MLOAD PUSH1 0x1 DUP1 DUP3 MSTORE DUP2 DUP4 ADD SWAP1 SWAP3 MSTORE SWAP1 PUSH1 0x20 DUP1 DUP4 ADD SWAP1 DUP1 CALLDATASIZE DUP4 CALLDATACOPY ADD SWAP1 POP POP PUSH1 0x0 DUP8 PUSH1 0x0 PUSH1 0x40 MLOAD DUP9 PUSH4 0xFFFFFFFF AND PUSH1 0xE0 SHL DUP2 MSTORE PUSH1 0x4 ADD PUSH3 0x1639 SWAP8 SWAP7 SWAP6 SWAP5 SWAP4 SWAP3 SWAP2 SWAP1 PUSH3 0x2398 JUMP JUMPDEST PUSH1 0x0 PUSH1 0x40 MLOAD DUP1 DUP4 SUB DUP2 PUSH1 0x0 DUP8 DUP1 EXTCODESIZE ISZERO DUP1 ISZERO PUSH3 0x1654 JUMPI PUSH1 0x0 DUP1 REVERT JUMPDEST POP GAS CALL ISZERO DUP1 ISZERO PUSH3 0x1669 JUMPI RETURNDATASIZE PUSH1 0x0 DUP1 RETURNDATACOPY RETURNDATASIZE PUSH1 0x0 REVERT JUMPDEST POP POP POP POP POP JUMPDEST PUSH1 0x40 MLOAD PUSH4 0x70A08231 PUSH1 0xE0 SHL DUP2 MSTORE ADDRESS PUSH1 0x4 DUP3 ADD MSTORE PUSH1 0x0 SWAP1 PUSH1 0x1 PUSH1 0x1 PUSH1 0xA0 SHL SUB DUP6 AND SWAP1 PUSH4 0x70A08231 SWAP1 PUSH1 0x24 ADD PUSH1 0x20 PUSH1 0x40 MLOAD DUP1 DUP4 SUB DUP2 DUP7 GAS STATICCALL ISZERO DUP1 ISZERO PUSH3 0x16B7 JUMPI RETURNDATASIZE PUSH1 0x0 DUP1 RETURNDATACOPY RETURNDATASIZE PUSH1 0x0 REVERT JUMPDEST POP POP POP POP PUSH1 0x40 MLOAD RETURNDATASIZE PUSH1 0x1F NOT PUSH1 0x1F DUP3 ADD AND DUP3 ADD DUP1 PUSH1 0x40 MSTORE POP DUP2 ADD SWAP1 PUSH3 0x16DD SWAP2 SWAP1 PUSH3 0x2232 JUMP JUMPDEST PUSH1 0x3C SLOAD SWAP1 SWAP2 POP DUP2 GT PUSH3 0x1704 JUMPI PUSH1 0x40 MLOAD PUSH3 0x461BCD PUSH1 0xE5 SHL DUP2 MSTORE PUSH1 0x4 ADD PUSH3 0x44B SWAP1 PUSH3 0x24DC JUMP JUMPDEST DUP5 PUSH1 0x1 PUSH1 0x1 PUSH1 0xA0 SHL SUB AND DUP7 PUSH1 0x1 PUSH1 0x1 PUSH1 0xA0 SHL SUB AND PUSH32 0x18BE1DACA870CE76EA02F4CEFE3C78F1A21C7D42693C068E2D0BBF060F53AB53 DUP6 DUP5 PUSH1 0x40 MLOAD PUSH3 0x1753 SWAP3 SWAP2 SWAP1 SWAP2 DUP3 MSTORE PUSH1 0x20 DUP3 ADD MSTORE PUSH1 0x40 ADD SWAP1 JUMP JUMPDEST PUSH1 0x40 MLOAD DUP1 SWAP2 SUB SWAP1 LOG3 POP POP PUSH1 0x1 DUP1 SSTORE POP POP POP POP JUMP JUMPDEST PUSH1 0x0 SLOAD PUSH1 0x1 PUSH1 0x1 PUSH1 0xA0 SHL SUB AND CALLER EQ PUSH3 0x1794 JUMPI PUSH1 0x40 MLOAD PUSH3 0x461BCD PUSH1 0xE5 SHL DUP2 MSTORE PUSH1 0x4 ADD PUSH3 0x44B SWAP1 PUSH3 0x21CD JUMP JUMPDEST PUSH1 0x1 PUSH1 0x1 PUSH1 0xA0 SHL SUB DUP2 AND PUSH3 0x17FB JUMPI PUSH1 0x40 MLOAD PUSH3 0x461BCD PUSH1 0xE5 SHL DUP2 MSTORE PUSH1 0x20 PUSH1 0x4 DUP3 ADD MSTORE PUSH1 0x26 PUSH1 0x24 DUP3 ADD MSTORE PUSH32 0x4F776E61626C653A206E6577206F776E657220697320746865207A65726F2061 PUSH1 0x44 DUP3 ADD MSTORE PUSH6 0x646472657373 PUSH1 0xD0 SHL PUSH1 0x64 DUP3 ADD MSTORE PUSH1 0x84 ADD PUSH3 0x44B JUMP JUMPDEST PUSH3 0x1806 DUP2 PUSH3 0x1A2B JUMP JUMPDEST POP JUMP JUMPDEST PUSH1 0x0 DUP1 PUSH1 0x0 PUSH3 0x181A DUP6 DUP6 PUSH3 0x1B5E JUMP JUMPDEST POP SWAP1 POP PUSH1 0x0 DUP1 PUSH3 0x182D DUP9 DUP9 DUP9 PUSH3 0x1C5C JUMP JUMPDEST PUSH1 0x1 PUSH1 0x1 PUSH1 0xA0 SHL SUB AND PUSH4 0x902F1AC PUSH1 0x40 MLOAD DUP2 PUSH4 0xFFFFFFFF AND PUSH1 0xE0 SHL DUP2 MSTORE PUSH1 0x4 ADD PUSH1 0x60 PUSH1 0x40 MLOAD DUP1 DUP4 SUB DUP2 DUP7 GAS STATICCALL ISZERO DUP1 ISZERO PUSH3 0x186B JUMPI RETURNDATASIZE PUSH1 0x0 DUP1 RETURNDATACOPY RETURNDATASIZE PUSH1 0x0 REVERT JUMPDEST POP POP POP POP PUSH1 0x40 MLOAD RETURNDATASIZE PUSH1 0x1F NOT PUSH1 0x1F DUP3 ADD AND DUP3 ADD DUP1 PUSH1 0x40 MSTORE POP DUP2 ADD SWAP1 PUSH3 0x1891 SWAP2 SWAP1 PUSH3 0x27D4 JUMP JUMPDEST POP PUSH1 0x1 PUSH1 0x1 PUSH1 0x70 SHL SUB AND SWAP2 POP PUSH1 0x1 PUSH1 0x1 PUSH1 0x70 SHL SUB AND SWAP2 POP DUP3 PUSH1 0x1 PUSH1 0x1 PUSH1 0xA0 SHL SUB AND DUP8 PUSH1 0x1 PUSH1 0x1 PUSH1 0xA0 SHL SUB AND EQ PUSH3 0x18CA JUMPI DUP1 DUP3 PUSH3 0x18CD JUMP JUMPDEST DUP2 DUP2 JUMPDEST SWAP1 SWAP10 SWAP1 SWAP9 POP SWAP7 POP POP POP POP POP POP POP JUMP JUMPDEST PUSH1 0x0 DUP1 PUSH1 0x0 DUP1 DUP5 ISZERO PUSH3 0x197C JUMPI PUSH3 0x18F6 DUP8 DUP11 DUP11 PUSH3 0x1D38 JUMP JUMPDEST SWAP1 POP PUSH3 0x1904 DUP8 DUP11 PUSH3 0x2509 JUMP JUMPDEST SWAP3 POP PUSH3 0x1912 DUP2 DUP10 PUSH3 0x2218 JUMP JUMPDEST SWAP2 POP PUSH1 0x0 PUSH3 0x1923 DUP8 DUP6 DUP6 PUSH3 0x1D38 JUMP JUMPDEST SWAP1 POP PUSH3 0x1931 DUP8 DUP6 PUSH3 0x2509 JUMP JUMPDEST SWAP4 POP PUSH3 0x193F DUP2 DUP5 PUSH3 0x2218 JUMP JUMPDEST SWAP3 POP PUSH1 0x0 PUSH3 0x1950 DUP4 DUP6 DUP8 PUSH3 0x1D38 JUMP JUMPDEST SWAP1 POP DUP9 DUP2 GT ISZERO PUSH3 0x196F JUMPI PUSH3 0x1967 DUP10 DUP3 PUSH3 0x2218 JUMP JUMPDEST SWAP6 POP PUSH3 0x1974 JUMP JUMPDEST PUSH1 0x0 SWAP6 POP JUMPDEST POP POP PUSH3 0x1A0A JUMP JUMPDEST PUSH3 0x1989 DUP8 DUP10 DUP12 PUSH3 0x1D38 JUMP JUMPDEST SWAP1 POP PUSH3 0x1997 DUP8 DUP10 PUSH3 0x2509 JUMP JUMPDEST SWAP2 POP PUSH3 0x19A5 DUP2 DUP11 PUSH3 0x2218 JUMP JUMPDEST SWAP3 POP PUSH1 0x0 PUSH3 0x19B6 DUP8 DUP5 DUP7 PUSH3 0x1D38 JUMP JUMPDEST SWAP1 POP PUSH3 0x19C4 DUP8 DUP5 PUSH3 0x2509 JUMP JUMPDEST SWAP3 POP PUSH3 0x19D2 DUP2 DUP6 PUSH3 0x2218 JUMP JUMPDEST SWAP4 POP PUSH1 0x0 PUSH3 0x19E3 DUP4 DUP7 DUP7 PUSH3 0x1D38 JUMP JUMPDEST SWAP1 POP DUP9 DUP2 GT ISZERO PUSH3 0x1A02 JUMPI PUSH3 0x19FA DUP10 DUP3 PUSH3 0x2218 JUMP JUMPDEST SWAP6 POP PUSH3 0x1A07 JUMP JUMPDEST PUSH1 0x0 SWAP6 POP JUMPDEST POP POP JUMPDEST POP POP POP SWAP6 SWAP5 POP POP POP POP POP JUMP JUMPDEST PUSH1 0x0 PUSH3 0x1A24 DUP3 DUP5 PUSH3 0x2571 JUMP JUMPDEST SWAP4 SWAP3 POP POP POP JUMP JUMPDEST PUSH1 0x0 DUP1 SLOAD PUSH1 0x1 PUSH1 0x1 PUSH1 0xA0 SHL SUB DUP4 DUP2 AND PUSH1 0x1 PUSH1 0x1 PUSH1 0xA0 SHL SUB NOT DUP4 AND DUP2 OR DUP5 SSTORE PUSH1 0x40 MLOAD SWAP2 SWAP1 SWAP3 AND SWAP3 DUP4 SWAP2 PUSH32 0x8BE0079C531659141344CD1FD0A4F28419497F9722A3DAAFE3B4186F6B6457E0 SWAP2 SWAP1 LOG3 POP POP JUMP JUMPDEST PUSH1 0x40 DUP1 MLOAD PUSH1 0x1 DUP1 DUP3 MSTORE DUP2 DUP4 ADD SWAP1 SWAP3 MSTORE PUSH1 0x60 SWAP2 PUSH1 0x0 SWAP2 SWAP1 PUSH1 0x20 DUP1 DUP4 ADD SWAP1 DUP1 CALLDATASIZE DUP4 CALLDATACOPY ADD SWAP1 POP POP SWAP1 POP DUP3 DUP2 PUSH1 0x0 DUP2 MLOAD DUP2 LT PUSH3 0x1AB8 JUMPI PUSH3 0x1AB8 PUSH3 0x22F5 JUMP JUMPDEST PUSH1 0x1 PUSH1 0x1 PUSH1 0xA0 SHL SUB SWAP1 SWAP3 AND PUSH1 0x20 SWAP3 DUP4 MUL SWAP2 SWAP1 SWAP2 ADD SWAP1 SWAP2 ADD MSTORE SWAP3 SWAP2 POP POP JUMP JUMPDEST PUSH1 0x40 DUP1 MLOAD PUSH1 0x1 DUP1 DUP3 MSTORE DUP2 DUP4 ADD SWAP1 SWAP3 MSTORE PUSH1 0x60 SWAP2 PUSH1 0x0 SWAP2 SWAP1 PUSH1 0x20 DUP1 DUP4 ADD SWAP1 DUP1 CALLDATASIZE DUP4 CALLDATACOPY ADD SWAP1 POP POP SWAP1 POP DUP3 DUP2 PUSH1 0x0 DUP2 MLOAD DUP2 LT PUSH3 0x1B13 JUMPI PUSH3 0x1B13 PUSH3 0x22F5 JUMP JUMPDEST PUSH1 0x20 SWAP1 DUP2 MUL SWAP2 SWAP1 SWAP2 ADD ADD MSTORE SWAP3 SWAP2 POP POP JUMP JUMPDEST PUSH1 0x60 DUP7 DUP7 DUP7 DUP7 DUP7 DUP7 PUSH1 0x40 MLOAD PUSH1 0x20 ADD PUSH3 0x1B43 SWAP7 SWAP6 SWAP5 SWAP4 SWAP3 SWAP2 SWAP1 PUSH3 0x2861 JUMP JUMPDEST PUSH1 0x40 MLOAD PUSH1 0x20 DUP2 DUP4 SUB SUB DUP2 MSTORE SWAP1 PUSH1 0x40 MSTORE SWAP1 POP SWAP7 SWAP6 POP POP POP POP POP POP JUMP JUMPDEST PUSH1 0x0 DUP1 DUP3 PUSH1 0x1 PUSH1 0x1 PUSH1 0xA0 SHL SUB AND DUP5 PUSH1 0x1 PUSH1 0x1 PUSH1 0xA0 SHL SUB AND EQ ISZERO PUSH3 0x1BD3 JUMPI PUSH1 0x40 MLOAD PUSH3 0x461BCD PUSH1 0xE5 SHL DUP2 MSTORE PUSH1 0x20 PUSH1 0x4 DUP3 ADD MSTORE PUSH1 0x25 PUSH1 0x24 DUP3 ADD MSTORE PUSH32 0x556E697377617056324C6962726172793A204944454E544943414C5F41444452 PUSH1 0x44 DUP3 ADD MSTORE PUSH5 0x4553534553 PUSH1 0xD8 SHL PUSH1 0x64 DUP3 ADD MSTORE PUSH1 0x84 ADD PUSH3 0x44B JUMP JUMPDEST DUP3 PUSH1 0x1 PUSH1 0x1 PUSH1 0xA0 SHL SUB AND DUP5 PUSH1 0x1 PUSH1 0x1 PUSH1 0xA0 SHL SUB AND LT PUSH3 0x1BF5 JUMPI DUP3 DUP5 PUSH3 0x1BF8 JUMP JUMPDEST DUP4 DUP4 JUMPDEST SWAP1 SWAP3 POP SWAP1 POP PUSH1 0x1 PUSH1 0x1 PUSH1 0xA0 SHL SUB DUP3 AND PUSH3 0x1C55 JUMPI PUSH1 0x40 MLOAD PUSH3 0x461BCD PUSH1 0xE5 SHL DUP2 MSTORE PUSH1 0x20 PUSH1 0x4 DUP3 ADD MSTORE PUSH1 0x1E PUSH1 0x24 DUP3 ADD MSTORE PUSH32 0x556E697377617056324C6962726172793A205A45524F5F414444524553530000 PUSH1 0x44 DUP3 ADD MSTORE PUSH1 0x64 ADD PUSH3 0x44B JUMP JUMPDEST SWAP3 POP SWAP3 SWAP1 POP JUMP JUMPDEST PUSH1 0x0 DUP1 PUSH1 0x0 PUSH3 0x1C6D DUP6 DUP6 PUSH3 0x1B5E JUMP JUMPDEST PUSH1 0x40 MLOAD PUSH12 0xFFFFFFFFFFFFFFFFFFFFFFFF NOT PUSH1 0x60 DUP5 DUP2 SHL DUP3 AND PUSH1 0x20 DUP5 ADD MSTORE DUP4 SWAP1 SHL AND PUSH1 0x34 DUP3 ADD MSTORE SWAP2 SWAP4 POP SWAP2 POP DUP7 SWAP1 PUSH1 0x48 ADD PUSH1 0x40 MLOAD PUSH1 0x20 DUP2 DUP4 SUB SUB DUP2 MSTORE SWAP1 PUSH1 0x40 MSTORE DUP1 MLOAD SWAP1 PUSH1 0x20 ADD KECCAK256 PUSH1 0x40 MLOAD PUSH1 0x20 ADD PUSH3 0x1D16 SWAP3 SWAP2 SWAP1 PUSH1 0x1 PUSH1 0x1 PUSH1 0xF8 SHL SUB NOT DUP2 MSTORE PUSH1 0x60 SWAP3 SWAP1 SWAP3 SHL PUSH12 0xFFFFFFFFFFFFFFFFFFFFFFFF NOT AND PUSH1 0x1 DUP4 ADD MSTORE PUSH1 0x15 DUP3 ADD MSTORE PUSH32 0x96E8AC4277198FF8B6F785478AA9A39F403CB768DD02CBEE326C3E7DA348845F PUSH1 0x35 DUP3 ADD MSTORE PUSH1 0x55 ADD SWAP1 JUMP JUMPDEST PUSH1 0x40 DUP1 MLOAD PUSH1 0x1F NOT DUP2 DUP5 SUB ADD DUP2 MSTORE SWAP2 SWAP1 MSTORE DUP1 MLOAD PUSH1 0x20 SWAP1 SWAP2 ADD KECCAK256 SWAP7 SWAP6 POP POP POP POP POP POP JUMP JUMPDEST PUSH1 0x0 DUP1 DUP5 GT PUSH3 0x1D9E JUMPI PUSH1 0x40 MLOAD PUSH3 0x461BCD PUSH1 0xE5 SHL DUP2 MSTORE PUSH1 0x20 PUSH1 0x4 DUP3 ADD MSTORE PUSH1 0x2A PUSH1 0x24 DUP3 ADD MSTORE PUSH32 0x507269636543616C63756C61746F723A20494E53554646494349454E545F494E PUSH1 0x44 DUP3 ADD MSTORE PUSH10 0x14155517D05353D55395 PUSH1 0xB2 SHL PUSH1 0x64 DUP3 ADD MSTORE PUSH1 0x84 ADD PUSH3 0x44B JUMP JUMPDEST PUSH1 0x0 DUP4 GT DUP1 ISZERO PUSH3 0x1DAF JUMPI POP PUSH1 0x0 DUP3 GT JUMPDEST PUSH3 0x1E0D JUMPI PUSH1 0x40 MLOAD PUSH3 0x461BCD PUSH1 0xE5 SHL DUP2 MSTORE PUSH1 0x20 PUSH1 0x4 DUP3 ADD MSTORE PUSH1 0x27 PUSH1 0x24 DUP3 ADD MSTORE PUSH32 0x507269636543616C63756C61746F723A20494E53554646494349454E545F4C49 PUSH1 0x44 DUP3 ADD MSTORE PUSH7 0x51554944495459 PUSH1 0xC8 SHL PUSH1 0x64 DUP3 ADD MSTORE PUSH1 0x84 ADD PUSH3 0x44B JUMP JUMPDEST PUSH1 0x0 PUSH3 0x1E1D DUP6 PUSH2 0x3E5 PUSH3 0x2571 JUMP JUMPDEST SWAP1 POP PUSH1 0x0 PUSH3 0x1E2D DUP5 DUP4 PUSH3 0x2571 JUMP JUMPDEST SWAP1 POP PUSH1 0x0 DUP3 PUSH3 0x1E40 DUP8 PUSH2 0x3E8 PUSH3 0x2571 JUMP JUMPDEST PUSH3 0x1E4C SWAP2 SWAP1 PUSH3 0x2509 JUMP JUMPDEST SWAP1 POP PUSH3 0x1E5A DUP2 DUP4 PUSH3 0x28EE JUMP JUMPDEST SWAP8 SWAP7 POP POP POP POP POP POP POP JUMP JUMPDEST PUSH2 0x2F9F DUP1 PUSH3 0x2912 DUP4 CODECOPY ADD SWAP1 JUMP JUMPDEST PUSH1 0x1 PUSH1 0x1 PUSH1 0xA0 SHL SUB DUP2 AND DUP2 EQ PUSH3 0x1806 JUMPI PUSH1 0x0 DUP1 REVERT JUMPDEST PUSH1 0x0 PUSH1 0x20 DUP3 DUP5 SUB SLT ISZERO PUSH3 0x1E9C JUMPI PUSH1 0x0 DUP1 REVERT JUMPDEST DUP2 CALLDATALOAD PUSH3 0x1A24 DUP2 PUSH3 0x1E73 JUMP JUMPDEST PUSH1 0x0 DUP1 PUSH1 0x0 DUP1 PUSH1 0x0 PUSH1 0xA0 DUP7 DUP9 SUB SLT ISZERO PUSH3 0x1EC2 JUMPI PUSH1 0x0 DUP1 REVERT JUMPDEST DUP6 CALLDATALOAD PUSH3 0x1ECF DUP2 PUSH3 0x1E73 JUMP JUMPDEST SWAP5 POP PUSH1 0x20 DUP7 ADD CALLDATALOAD PUSH3 0x1EE1 DUP2 PUSH3 0x1E73 JUMP JUMPDEST SWAP4 POP PUSH1 0x40 DUP7 ADD CALLDATALOAD PUSH3 0x1EF3 DUP2 PUSH3 0x1E73 JUMP JUMPDEST SWAP5 SWAP8 SWAP4 SWAP7 POP SWAP4 SWAP5 PUSH1 0x60 DUP2 ADD CALLDATALOAD SWAP5 POP PUSH1 0x80 ADD CALLDATALOAD SWAP3 SWAP2 POP POP JUMP JUMPDEST PUSH1 0x0 DUP1 PUSH1 0x0 PUSH1 0x60 DUP5 DUP7 SUB SLT ISZERO PUSH3 0x1F21 JUMPI PUSH1 0x0 DUP1 REVERT JUMPDEST DUP4 CALLDATALOAD PUSH3 0x1F2E DUP2 PUSH3 0x1E73 JUMP JUMPDEST SWAP3 POP PUSH1 0x20 DUP5 ADD CALLDATALOAD SWAP2 POP PUSH1 0x40 DUP5 ADD CALLDATALOAD PUSH3 0x1F47 DUP2 PUSH3 0x1E73 JUMP JUMPDEST DUP1 SWAP2 POP POP SWAP3 POP SWAP3 POP SWAP3 JUMP JUMPDEST PUSH1 0x0 DUP1 PUSH1 0x0 DUP1 PUSH1 0x0 DUP1 PUSH1 0xC0 DUP8 DUP10 SUB SLT ISZERO PUSH3 0x1F6C JUMPI PUSH1 0x0 DUP1 REVERT JUMPDEST DUP7 CALLDATALOAD PUSH3 0x1F79 DUP2 PUSH3 0x1E73 JUMP JUMPDEST SWAP6 POP PUSH1 0x20 DUP8 ADD CALLDATALOAD PUSH3 0x1F8B DUP2 PUSH3 0x1E73 JUMP JUMPDEST SWAP5 POP PUSH1 0x40 DUP8 ADD CALLDATALOAD PUSH3 0x1F9D DUP2 PUSH3 0x1E73 JUMP JUMPDEST SWAP6 SWAP9 SWAP5 SWAP8 POP SWAP5 SWAP6 PUSH1 0x60 DUP2 ADD CALLDATALOAD SWAP6 POP PUSH1 0x80 DUP2 ADD CALLDATALOAD SWAP5 PUSH1 0xA0 SWAP1 SWAP2 ADD CALLDATALOAD SWAP4 POP SWAP2 POP POP JUMP JUMPDEST PUSH1 0x0 DUP1 PUSH1 0x0 DUP1 PUSH1 0x0 PUSH1 0xA0 DUP7 DUP9 SUB SLT ISZERO PUSH3 0x1FD7 JUMPI PUSH1 0x0 DUP1 REVERT JUMPDEST DUP6 CALLDATALOAD PUSH3 0x1FE4 DUP2 PUSH3 0x1E73 JUMP JUMPDEST SWAP5 POP PUSH1 0x20 DUP7 ADD CALLDATALOAD PUSH3 0x1FF6 DUP2 PUSH3 0x1E73 JUMP JUMPDEST SWAP4 POP PUSH1 0x40 DUP7 ADD CALLDATALOAD PUSH3 0x2008 DUP2 PUSH3 0x1E73 JUMP JUMPDEST SWAP3 POP PUSH1 0x60 DUP7 ADD CALLDATALOAD PUSH3 0x201A DUP2 PUSH3 0x1E73 JUMP JUMPDEST SWAP5 SWAP8 SWAP4 SWAP7 POP SWAP2 SWAP5 PUSH1 0x80 ADD CALLDATALOAD SWAP3 SWAP2 POP POP JUMP JUMPDEST PUSH1 0x0 DUP1 DUP4 PUSH1 0x1F DUP5 ADD SLT PUSH3 0x203E JUMPI PUSH1 0x0 DUP1 REVERT JUMPDEST POP DUP2 CALLDATALOAD PUSH8 0xFFFFFFFFFFFFFFFF DUP2 GT ISZERO PUSH3 0x2057 JUMPI PUSH1 0x0 DUP1 REVERT JUMPDEST PUSH1 0x20 DUP4 ADD SWAP2 POP DUP4 PUSH1 0x20 DUP3 PUSH1 0x5 SHL DUP6 ADD ADD GT ISZERO PUSH3 0x1C55 JUMPI PUSH1 0x0 DUP1 REVERT JUMPDEST PUSH1 0x0 DUP1 PUSH1 0x0 DUP1 PUSH1 0x0 DUP1 PUSH1 0x0 DUP1 PUSH1 0xA0 DUP10 DUP12 SUB SLT ISZERO PUSH3 0x2090 JUMPI PUSH1 0x0 DUP1 REVERT JUMPDEST DUP9 CALLDATALOAD PUSH8 0xFFFFFFFFFFFFFFFF DUP1 DUP3 GT ISZERO PUSH3 0x20A9 JUMPI PUSH1 0x0 DUP1 REVERT JUMPDEST PUSH3 0x20B7 DUP13 DUP4 DUP14 ADD PUSH3 0x202B JUMP JUMPDEST SWAP1 SWAP11 POP SWAP9 POP PUSH1 0x20 DUP12 ADD CALLDATALOAD SWAP2 POP DUP1 DUP3 GT ISZERO PUSH3 0x20D1 JUMPI PUSH1 0x0 DUP1 REVERT JUMPDEST PUSH3 0x20DF DUP13 DUP4 DUP14 ADD PUSH3 0x202B JUMP JUMPDEST SWAP1 SWAP9 POP SWAP7 POP PUSH1 0x40 DUP12 ADD CALLDATALOAD SWAP2 POP DUP1 DUP3 GT ISZERO PUSH3 0x20F9 JUMPI PUSH1 0x0 DUP1 REVERT JUMPDEST POP PUSH3 0x2108 DUP12 DUP3 DUP13 ADD PUSH3 0x202B JUMP JUMPDEST SWAP1 SWAP6 POP SWAP4 POP POP PUSH1 0x60 DUP10 ADD CALLDATALOAD PUSH3 0x211E DUP2 PUSH3 0x1E73 JUMP JUMPDEST DUP1 SWAP3 POP POP PUSH1 0x80 DUP10 ADD CALLDATALOAD SWAP1 POP SWAP3 SWAP6 SWAP9 POP SWAP3 SWAP6 SWAP9 SWAP1 SWAP4 SWAP7 POP JUMP JUMPDEST PUSH1 0x0 PUSH1 0x20 DUP3 DUP5 SUB SLT ISZERO PUSH3 0x2149 JUMPI PUSH1 0x0 DUP1 REVERT JUMPDEST DUP2 CALLDATALOAD PUSH8 0xFFFFFFFFFFFFFFFF DUP2 GT ISZERO PUSH3 0x2161 JUMPI PUSH1 0x0 DUP1 REVERT JUMPDEST DUP3 ADD PUSH2 0x100 DUP2 DUP6 SUB SLT ISZERO PUSH3 0x1A24 JUMPI PUSH1 0x0 DUP1 REVERT JUMPDEST PUSH1 0x0 DUP1 PUSH1 0x0 DUP1 PUSH1 0x80 DUP6 DUP8 SUB SLT ISZERO PUSH3 0x218C JUMPI PUSH1 0x0 DUP1 REVERT JUMPDEST DUP5 CALLDATALOAD PUSH3 0x2199 DUP2 PUSH3 0x1E73 JUMP JUMPDEST SWAP4 POP PUSH1 0x20 DUP6 ADD CALLDATALOAD PUSH3 0x21AB DUP2 PUSH3 0x1E73 JUMP JUMPDEST SWAP3 POP PUSH1 0x40 DUP6 ADD CALLDATALOAD PUSH3 0x21BD DUP2 PUSH3 0x1E73 JUMP JUMPDEST SWAP4 SWAP7 SWAP3 SWAP6 POP SWAP3 SWAP4 PUSH1 0x60 ADD CALLDATALOAD SWAP3 POP POP JUMP JUMPDEST PUSH1 0x20 DUP1 DUP3 MSTORE DUP2 DUP2 ADD MSTORE PUSH32 0x4F776E61626C653A2063616C6C6572206973206E6F7420746865206F776E6572 PUSH1 0x40 DUP3 ADD MSTORE PUSH1 0x60 ADD SWAP1 JUMP JUMPDEST PUSH4 0x4E487B71 PUSH1 0xE0 SHL PUSH1 0x0 MSTORE PUSH1 0x11 PUSH1 0x4 MSTORE PUSH1 0x24 PUSH1 0x0 REVERT JUMPDEST PUSH1 0x0 DUP3 DUP3 LT ISZERO PUSH3 0x222D JUMPI PUSH3 0x222D PUSH3 0x2202 JUMP JUMPDEST POP SUB SWAP1 JUMP JUMPDEST PUSH1 0x0 PUSH1 0x20 DUP3 DUP5 SUB SLT ISZERO PUSH3 0x2245 JUMPI PUSH1 0x0 DUP1 REVERT JUMPDEST POP MLOAD SWAP2 SWAP1 POP JUMP JUMPDEST DUP1 ISZERO ISZERO DUP2 EQ PUSH3 0x1806 JUMPI PUSH1 0x0 DUP1 REVERT JUMPDEST PUSH1 0x0 PUSH1 0x20 DUP3 DUP5 SUB SLT ISZERO PUSH3 0x226E JUMPI PUSH1 0x0 DUP1 REVERT JUMPDEST DUP2 MLOAD PUSH3 0x1A24 DUP2 PUSH3 0x224C JUMP JUMPDEST PUSH1 0x20 DUP1 DUP3 MSTORE PUSH1 0x1F SWAP1 DUP3 ADD MSTORE PUSH32 0x5265656E7472616E637947756172643A207265656E7472616E742063616C6C00 PUSH1 0x40 DUP3 ADD MSTORE PUSH1 0x60 ADD SWAP1 JUMP JUMPDEST PUSH1 0x1 PUSH1 0x1 PUSH1 0xA0 SHL SUB SWAP8 DUP9 AND DUP2 MSTORE SWAP6 DUP8 AND PUSH1 0x20 DUP8 ADD MSTORE SWAP4 DUP7 AND PUSH1 0x40 DUP7 ADD MSTORE SWAP2 DUP6 AND PUSH1 0x60 DUP6 ADD MSTORE SWAP1 SWAP4 AND PUSH1 0x80 DUP4 ADD MSTORE PUSH1 0xA0 DUP3 ADD SWAP3 SWAP1 SWAP3 MSTORE PUSH1 0xC0 DUP2 ADD SWAP2 SWAP1 SWAP2 MSTORE PUSH1 0xE0 ADD SWAP1 JUMP JUMPDEST PUSH4 0x4E487B71 PUSH1 0xE0 SHL PUSH1 0x0 MSTORE PUSH1 0x32 PUSH1 0x4 MSTORE PUSH1 0x24 PUSH1 0x0 REVERT JUMPDEST PUSH1 0x0 DUP2 MLOAD DUP1 DUP5 MSTORE PUSH1 0x20 DUP1 DUP6 ADD SWAP5 POP DUP1 DUP5 ADD PUSH1 0x0 JUMPDEST DUP4 DUP2 LT ISZERO PUSH3 0x233D JUMPI DUP2 MLOAD DUP8 MSTORE SWAP6 DUP3 ADD SWAP6 SWAP1 DUP3 ADD SWAP1 PUSH1 0x1 ADD PUSH3 0x231F JUMP JUMPDEST POP SWAP5 SWAP6 SWAP5 POP POP POP POP POP JUMP JUMPDEST PUSH1 0x0 DUP2 MLOAD DUP1 DUP5 MSTORE PUSH1 0x0 JUMPDEST DUP2 DUP2 LT ISZERO PUSH3 0x2370 JUMPI PUSH1 0x20 DUP2 DUP6 ADD DUP2 ADD MLOAD DUP7 DUP4 ADD DUP3 ADD MSTORE ADD PUSH3 0x2352 JUMP JUMPDEST DUP2 DUP2 GT ISZERO PUSH3 0x2383 JUMPI PUSH1 0x0 PUSH1 0x20 DUP4 DUP8 ADD ADD MSTORE JUMPDEST POP PUSH1 0x1F ADD PUSH1 0x1F NOT AND SWAP3 SWAP1 SWAP3 ADD PUSH1 0x20 ADD SWAP3 SWAP2 POP POP JUMP JUMPDEST PUSH1 0x1 PUSH1 0x1 PUSH1 0xA0 SHL SUB DUP9 DUP2 AND DUP3 MSTORE PUSH1 0xE0 PUSH1 0x20 DUP1 DUP5 ADD DUP3 SWAP1 MSTORE DUP10 MLOAD SWAP2 DUP5 ADD DUP3 SWAP1 MSTORE PUSH1 0x0 SWAP3 DUP11 DUP3 ADD SWAP3 SWAP1 SWAP2 SWAP1 PUSH2 0x100 DUP7 ADD SWAP1 DUP6 JUMPDEST DUP2 DUP2 LT ISZERO PUSH3 0x23E9 JUMPI DUP6 MLOAD DUP6 AND DUP4 MSTORE SWAP5 DUP4 ADD SWAP5 SWAP2 DUP4 ADD SWAP2 PUSH1 0x1 ADD PUSH3 0x23C9 JUMP JUMPDEST POP POP DUP6 DUP2 SUB PUSH1 0x40 DUP8 ADD MSTORE PUSH3 0x23FF DUP2 DUP13 PUSH3 0x230B JUMP JUMPDEST SWAP4 POP POP POP POP DUP3 DUP2 SUB PUSH1 0x60 DUP5 ADD MSTORE PUSH3 0x2418 DUP2 DUP9 PUSH3 0x230B JUMP JUMPDEST PUSH1 0x1 PUSH1 0x1 PUSH1 0xA0 SHL SUB DUP8 AND PUSH1 0x80 DUP6 ADD MSTORE SWAP1 POP DUP3 DUP2 SUB PUSH1 0xA0 DUP5 ADD MSTORE PUSH3 0x243D DUP2 DUP7 PUSH3 0x2348 JUMP JUMPDEST SWAP2 POP POP PUSH3 0x2451 PUSH1 0xC0 DUP4 ADD DUP5 PUSH2 0xFFFF AND SWAP1 MSTORE JUMP JUMPDEST SWAP9 SWAP8 POP POP POP POP POP POP POP POP JUMP JUMPDEST PUSH1 0x1 PUSH1 0x1 PUSH1 0xA0 SHL SUB DUP6 DUP2 AND DUP3 MSTORE PUSH1 0x80 PUSH1 0x20 DUP1 DUP5 ADD DUP3 SWAP1 MSTORE DUP7 MLOAD SWAP2 DUP5 ADD DUP3 SWAP1 MSTORE PUSH1 0x0 SWAP3 DUP8 DUP3 ADD SWAP3 SWAP1 SWAP2 SWAP1 PUSH1 0xA0 DUP7 ADD SWAP1 DUP6 JUMPDEST DUP2 DUP2 LT ISZERO PUSH3 0x24AD JUMPI DUP6 MLOAD DUP6 AND DUP4 MSTORE SWAP5 DUP4 ADD SWAP5 SWAP2 DUP4 ADD SWAP2 PUSH1 0x1 ADD PUSH3 0x248D JUMP JUMPDEST POP POP DUP6 DUP2 SUB PUSH1 0x40 DUP8 ADD MSTORE PUSH3 0x24C3 DUP2 DUP10 PUSH3 0x230B JUMP JUMPDEST SWAP4 POP POP POP POP DUP3 DUP2 SUB PUSH1 0x60 DUP5 ADD MSTORE PUSH3 0x1E5A DUP2 DUP6 PUSH3 0x2348 JUMP JUMPDEST PUSH1 0x20 DUP1 DUP3 MSTORE PUSH1 0x13 SWAP1 DUP3 ADD MSTORE PUSH19 0x125B9CDD59999A58DA595B9D081C1C9BD99A5D PUSH1 0x6A SHL PUSH1 0x40 DUP3 ADD MSTORE PUSH1 0x60 ADD SWAP1 JUMP JUMPDEST PUSH1 0x0 DUP3 NOT DUP3 GT ISZERO PUSH3 0x251F JUMPI PUSH3 0x251F PUSH3 0x2202 JUMP JUMPDEST POP ADD SWAP1 JUMP JUMPDEST PUSH1 0x0 DUP1 DUP4 CALLDATALOAD PUSH1 0x1E NOT DUP5 CALLDATASIZE SUB ADD DUP2 SLT PUSH3 0x253C JUMPI PUSH1 0x0 DUP1 REVERT JUMPDEST DUP4 ADD DUP1 CALLDATALOAD SWAP2 POP PUSH8 0xFFFFFFFFFFFFFFFF DUP3 GT ISZERO PUSH3 0x2558 JUMPI PUSH1 0x0 DUP1 REVERT JUMPDEST PUSH1 0x20 ADD SWAP2 POP PUSH1 0x5 DUP2 SWAP1 SHL CALLDATASIZE SUB DUP3 SGT ISZERO PUSH3 0x1C55 JUMPI PUSH1 0x0 DUP1 REVERT JUMPDEST PUSH1 0x0 DUP2 PUSH1 0x0 NOT DIV DUP4 GT DUP3 ISZERO ISZERO AND ISZERO PUSH3 0x258E JUMPI PUSH3 0x258E PUSH3 0x2202 JUMP JUMPDEST POP MUL SWAP1 JUMP JUMPDEST PUSH1 0x0 DUP2 CALLDATALOAD PUSH3 0x25A2 DUP2 PUSH3 0x1E73 JUMP JUMPDEST SWAP3 SWAP2 POP POP JUMP JUMPDEST PUSH1 0x1 PUSH1 0x40 SHL DUP4 GT ISZERO PUSH3 0x25CB JUMPI PUSH4 0x4E487B71 PUSH1 0xE0 SHL PUSH1 0x0 MSTORE PUSH1 0x41 PUSH1 0x4 MSTORE PUSH1 0x24 PUSH1 0x0 REVERT JUMPDEST DUP1 SLOAD DUP4 DUP3 SSTORE DUP1 DUP5 LT ISZERO PUSH3 0x2605 JUMPI PUSH1 0x0 DUP3 DUP2 MSTORE PUSH1 0x20 DUP2 KECCAK256 DUP6 DUP2 ADD SWAP1 DUP4 ADD JUMPDEST DUP1 DUP3 LT ISZERO PUSH3 0x2601 JUMPI DUP3 DUP3 SSTORE PUSH1 0x1 DUP3 ADD SWAP2 POP PUSH3 0x25E9 JUMP JUMPDEST POP POP POP JUMPDEST POP PUSH1 0x0 DUP2 DUP2 MSTORE PUSH1 0x20 DUP2 KECCAK256 DUP4 SWAP2 JUMPDEST DUP6 DUP2 LT ISZERO PUSH3 0x265B JUMPI PUSH3 0x2647 PUSH3 0x262A DUP5 PUSH3 0x2593 JUMP JUMPDEST DUP4 SLOAD PUSH1 0x1 PUSH1 0x1 PUSH1 0xA0 SHL SUB NOT AND PUSH1 0x1 PUSH1 0x1 PUSH1 0xA0 SHL SUB SWAP2 SWAP1 SWAP2 AND OR DUP4 SSTORE JUMP JUMPDEST PUSH1 0x20 SWAP3 SWAP1 SWAP3 ADD SWAP2 PUSH1 0x1 SWAP2 DUP3 ADD SWAP2 ADD PUSH3 0x2612 JUMP JUMPDEST POP POP POP POP POP POP JUMP JUMPDEST PUSH1 0x0 DUP2 CALLDATALOAD PUSH3 0x25A2 DUP2 PUSH3 0x224C JUMP JUMPDEST PUSH3 0x267E DUP3 DUP4 PUSH3 0x2524 JUMP JUMPDEST PUSH1 0x1 PUSH1 0x40 SHL DUP2 GT ISZERO PUSH3 0x26A1 JUMPI PUSH4 0x4E487B71 PUSH1 0xE0 SHL PUSH1 0x0 MSTORE PUSH1 0x41 PUSH1 0x4 MSTORE PUSH1 0x24 PUSH1 0x0 REVERT JUMPDEST DUP3 SLOAD DUP2 DUP5 SSTORE DUP1 DUP3 LT ISZERO PUSH3 0x26DB JUMPI PUSH1 0x0 DUP5 DUP2 MSTORE PUSH1 0x20 DUP2 KECCAK256 DUP4 DUP2 ADD SWAP1 DUP4 ADD JUMPDEST DUP1 DUP3 LT ISZERO PUSH3 0x26D7 JUMPI DUP3 DUP3 SSTORE PUSH1 0x1 DUP3 ADD SWAP2 POP PUSH3 0x26BF JUMP JUMPDEST POP POP POP JUMPDEST POP PUSH1 0x0 DUP4 DUP2 MSTORE PUSH1 0x20 SWAP1 KECCAK256 PUSH1 0x0 JUMPDEST DUP3 DUP2 LT ISZERO PUSH3 0x2714 JUMPI PUSH3 0x2700 PUSH3 0x262A DUP6 PUSH3 0x2593 JUMP JUMPDEST PUSH1 0x20 SWAP4 SWAP1 SWAP4 ADD SWAP3 PUSH1 0x1 SWAP2 DUP3 ADD SWAP2 ADD PUSH3 0x26E8 JUMP JUMPDEST POP POP POP POP PUSH3 0x2727 PUSH1 0x20 DUP4 ADD DUP4 PUSH3 0x2524 JUMP JUMPDEST PUSH3 0x2737 DUP2 DUP4 PUSH1 0x1 DUP7 ADD PUSH3 0x25A8 JUMP JUMPDEST POP POP PUSH1 0x40 DUP3 ADD CALLDATALOAD PUSH1 0x2 DUP3 ADD SSTORE PUSH1 0x60 DUP3 ADD CALLDATALOAD PUSH1 0x3 DUP3 ADD SSTORE PUSH1 0x80 DUP3 ADD CALLDATALOAD PUSH1 0x4 DUP3 ADD SSTORE PUSH1 0xA0 DUP3 ADD CALLDATALOAD PUSH1 0x5 DUP3 ADD SSTORE PUSH1 0x6 DUP2 ADD PUSH3 0x278B PUSH3 0x2777 PUSH1 0xC0 DUP6 ADD PUSH3 0x2663 JUMP JUMPDEST DUP3 SLOAD SWAP1 ISZERO ISZERO PUSH1 0xFF AND PUSH1 0xFF NOT SWAP2 SWAP1 SWAP2 AND OR DUP3 SSTORE JUMP JUMPDEST PUSH3 0x145D PUSH3 0x279D PUSH1 0xE0 DUP6 ADD PUSH3 0x2663 JUMP JUMPDEST DUP3 DUP1 SLOAD PUSH2 0xFF00 NOT AND SWAP2 ISZERO ISZERO PUSH1 0x8 SHL PUSH2 0xFF00 AND SWAP2 SWAP1 SWAP2 OR SWAP1 SSTORE JUMP JUMPDEST DUP1 MLOAD PUSH1 0x1 PUSH1 0x1 PUSH1 0x70 SHL SUB DUP2 AND DUP2 EQ PUSH3 0x27CF JUMPI PUSH1 0x0 DUP1 REVERT JUMPDEST SWAP2 SWAP1 POP JUMP JUMPDEST PUSH1 0x0 DUP1 PUSH1 0x0 PUSH1 0x60 DUP5 DUP7 SUB SLT ISZERO PUSH3 0x27EA JUMPI PUSH1 0x0 DUP1 REVERT JUMPDEST PUSH3 0x27F5 DUP5 PUSH3 0x27B7 JUMP JUMPDEST SWAP3 POP PUSH3 0x2805 PUSH1 0x20 DUP6 ADD PUSH3 0x27B7 JUMP JUMPDEST SWAP2 POP PUSH1 0x40 DUP5 ADD MLOAD PUSH4 0xFFFFFFFF DUP2 AND DUP2 EQ PUSH3 0x1F47 JUMPI PUSH1 0x0 DUP1 REVERT JUMPDEST DUP2 DUP4 MSTORE PUSH1 0x0 PUSH1 0x20 DUP1 DUP6 ADD SWAP5 POP DUP3 PUSH1 0x0 JUMPDEST DUP6 DUP2 LT ISZERO PUSH3 0x233D JUMPI DUP2 CALLDATALOAD PUSH3 0x2845 DUP2 PUSH3 0x1E73 JUMP JUMPDEST PUSH1 0x1 PUSH1 0x1 PUSH1 0xA0 SHL SUB AND DUP8 MSTORE SWAP6 DUP3 ADD SWAP6 SWAP1 DUP3 ADD SWAP1 PUSH1 0x1 ADD PUSH3 0x282F JUMP JUMPDEST PUSH1 0x80 DUP2 MSTORE PUSH1 0x0 PUSH3 0x2877 PUSH1 0x80 DUP4 ADD DUP9 DUP11 PUSH3 0x281F JUMP JUMPDEST DUP3 DUP2 SUB PUSH1 0x20 DUP5 ADD MSTORE PUSH3 0x288C DUP2 DUP8 DUP10 PUSH3 0x281F JUMP JUMPDEST DUP4 DUP2 SUB PUSH1 0x40 DUP6 ADD MSTORE DUP5 DUP2 MSTORE SWAP1 POP PUSH1 0x1 PUSH1 0x1 PUSH1 0xFB SHL SUB DUP5 GT ISZERO PUSH3 0x28AE JUMPI PUSH1 0x0 DUP1 REVERT JUMPDEST DUP4 PUSH1 0x5 SHL DUP1 DUP7 PUSH1 0x20 DUP5 ADD CALLDATACOPY ADD DUP3 DUP2 SUB PUSH1 0x20 SWAP1 DUP2 ADD PUSH1 0x60 SWAP5 DUP6 ADD MSTORE PUSH1 0x8 SWAP1 DUP3 ADD MSTORE PUSH8 0x4D554C5449484F5 PUSH1 0xC4 SHL PUSH1 0x40 DUP3 ADD MSTORE SWAP2 SWAP1 SWAP2 ADD SWAP8 SWAP7 POP POP POP POP POP POP POP JUMP JUMPDEST PUSH1 0x0 DUP3 PUSH3 0x290C JUMPI PUSH4 0x4E487B71 PUSH1 0xE0 SHL PUSH1 0x0 MSTORE PUSH1 0x12 PUSH1 0x4 MSTORE PUSH1 0x24 PUSH1 0x0 REVERT JUMPDEST POP DIV SWAP1 JUMP INVALID PUSH1 0x80 PUSH1 0x40 MSTORE CALLVALUE DUP1 ISZERO PUSH3 0x11 JUMPI PUSH1 0x0 DUP1 REVERT JUMPDEST POP PUSH1 0x40 MLOAD PUSH3 0x2F9F CODESIZE SUB DUP1 PUSH3 0x2F9F DUP4 CODECOPY DUP2 ADD PUSH1 0x40 DUP2 SWAP1 MSTORE PUSH3 0x34 SWAP2 PUSH3 0xC9 JUMP JUMPDEST PUSH1 0x0 DUP1 SLOAD PUSH1 0x1 PUSH1 0x1 PUSH1 0xA0 SHL SUB NOT SWAP1 DUP2 AND PUSH1 0x1 PUSH1 0x1 PUSH1 0xA0 SHL SUB SWAP10 DUP11 AND OR SWAP1 SWAP2 SSTORE PUSH1 0x1 DUP1 SLOAD DUP3 AND SWAP8 DUP10 AND SWAP8 SWAP1 SWAP8 OR SWAP1 SWAP7 SSTORE PUSH1 0x2 DUP1 SLOAD DUP8 AND SWAP6 DUP9 AND SWAP6 SWAP1 SWAP6 OR SWAP1 SWAP5 SSTORE PUSH1 0x3 DUP1 SLOAD DUP7 AND SWAP4 DUP8 AND SWAP4 SWAP1 SWAP4 OR SWAP1 SWAP3 SSTORE PUSH1 0x4 DUP1 SLOAD SWAP1 SWAP5 AND SWAP5 AND SWAP4 SWAP1 SWAP4 OR SWAP1 SWAP2 SSTORE PUSH1 0x5 SWAP2 SWAP1 SWAP2 SSTORE PUSH1 0x6 SSTORE PUSH1 0x7 DUP1 SLOAD PUSH1 0xFF NOT AND SWAP1 SSTORE PUSH3 0x14C JUMP JUMPDEST DUP1 MLOAD PUSH1 0x1 PUSH1 0x1 PUSH1 0xA0 SHL SUB DUP2 AND DUP2 EQ PUSH3 0xC4 JUMPI PUSH1 0x0 DUP1 REVERT JUMPDEST SWAP2 SWAP1 POP JUMP JUMPDEST PUSH1 0x0 DUP1 PUSH1 0x0 DUP1 PUSH1 0x0 DUP1 PUSH1 0x0 PUSH1 0xE0 DUP9 DUP11 SUB SLT ISZERO PUSH3 0xE5 JUMPI PUSH1 0x0 DUP1 REVERT JUMPDEST PUSH3 0xF0 DUP9 PUSH3 0xAC JUMP JUMPDEST SWAP7 POP PUSH3 0x100 PUSH1 0x20 DUP10 ADD PUSH3 0xAC JUMP JUMPDEST SWAP6 POP PUSH3 0x110 PUSH1 0x40 DUP10 ADD PUSH3 0xAC JUMP JUMPDEST SWAP5 POP PUSH3 0x120 PUSH1 0x60 DUP10 ADD PUSH3 0xAC JUMP JUMPDEST SWAP4 POP PUSH3 0x130 PUSH1 0x80 DUP10 ADD PUSH3 0xAC JUMP JUMPDEST SWAP3 POP PUSH1 0xA0 DUP9 ADD MLOAD SWAP2 POP PUSH1 0xC0 DUP9 ADD MLOAD SWAP1 POP SWAP3 SWAP6 SWAP9 SWAP2 SWAP5 SWAP8 POP SWAP3 SWAP6 POP JUMP JUMPDEST PUSH2 0x2E43 DUP1 PUSH3 0x15C PUSH1 0x0 CODECOPY PUSH1 0x0 RETURN INVALID PUSH1 0x80 PUSH1 0x40 MSTORE CALLVALUE DUP1 ISZERO PUSH2 0x10 JUMPI PUSH1 0x0 DUP1 REVERT JUMPDEST POP PUSH1 0x4 CALLDATASIZE LT PUSH2 0xA9 JUMPI PUSH1 0x0 CALLDATALOAD PUSH1 0xE0 SHR DUP1 PUSH4 0x920F5C84 GT PUSH2 0x71 JUMPI DUP1 PUSH4 0x920F5C84 EQ PUSH2 0x130 JUMPI DUP1 PUSH4 0xB81217B9 EQ PUSH2 0x153 JUMPI DUP1 PUSH4 0xC6C6C5AB EQ PUSH2 0x15C JUMPI DUP1 PUSH4 0xD0202D3B EQ PUSH2 0x16F JUMPI DUP1 PUSH4 0xE5D2AB7F EQ PUSH2 0x182 JUMPI DUP1 PUSH4 0xF04F2707 EQ PUSH2 0x18F JUMPI PUSH1 0x0 DUP1 REVERT JUMPDEST DUP1 PUSH4 0x77E9F09 EQ PUSH2 0xAE JUMPI DUP1 PUSH4 0x16114ACD EQ PUSH2 0xCA JUMPI DUP1 PUSH4 0x6DAF390B EQ PUSH2 0xDF JUMPI DUP1 PUSH4 0x735DE9F7 EQ PUSH2 0x10A JUMPI DUP1 PUSH4 0x8DA5CB5B EQ PUSH2 0x11D JUMPI JUMPDEST PUSH1 0x0 DUP1 REVERT JUMPDEST PUSH2 0xB7 PUSH1 0x5 SLOAD DUP2 JUMP JUMPDEST PUSH1 0x40 MLOAD SWAP1 DUP2 MSTORE PUSH1 0x20 ADD JUMPDEST PUSH1 0x40 MLOAD DUP1 SWAP2 SUB SWAP1 RETURN JUMPDEST PUSH2 0xDD PUSH2 0xD8 CALLDATASIZE PUSH1 0x4 PUSH2 0x270F JUMP JUMPDEST PUSH2 0x1A2 JUMP JUMPDEST STOP JUMPDEST PUSH1 0x3 SLOAD PUSH2 0xF2 SWAP1 PUSH1 0x1 PUSH1 0x1 PUSH1 0xA0 SHL SUB AND DUP2 JUMP JUMPDEST PUSH1 0x40 MLOAD PUSH1 0x1 PUSH1 0x1 PUSH1 0xA0 SHL SUB SWAP1 SWAP2 AND DUP2 MSTORE PUSH1 0x20 ADD PUSH2 0xC1 JUMP JUMPDEST PUSH1 0x1 SLOAD PUSH2 0xF2 SWAP1 PUSH1 0x1 PUSH1 0x1 PUSH1 0xA0 SHL SUB AND DUP2 JUMP JUMPDEST PUSH1 0x0 SLOAD PUSH2 0xF2 SWAP1 PUSH1 0x1 PUSH1 0x1 PUSH1 0xA0 SHL SUB AND DUP2 JUMP JUMPDEST PUSH2 0x143 PUSH2 0x13E CALLDATASIZE PUSH1 0x4 PUSH2 0x27C1 JUMP JUMPDEST PUSH2 0x2F1 JUMP JUMPDEST PUSH1 0x40 MLOAD SWAP1 ISZERO ISZERO DUP2 MSTORE PUSH1 0x20 ADD PUSH2 0xC1 JUMP JUMPDEST PUSH2 0xB7 PUSH1 0x6 SLOAD DUP2 JUMP JUMPDEST PUSH1 0x2 SLOAD PUSH2 0xF2 SWAP1 PUSH1 0x1 PUSH1 0x1 PUSH1 0xA0 SHL SUB AND DUP2 JUMP JUMPDEST PUSH1 0x4 SLOAD PUSH2 0xF2 SWAP1 PUSH1 0x1 PUSH1 0x1 PUSH1 0xA0 SHL SUB AND DUP2 JUMP JUMPDEST PUSH1 0x7 SLOAD PUSH2 0x143 SWAP1 PUSH1 0xFF AND DUP2 JUMP JUMPDEST PUSH2 0xDD PUSH2 0x19D CALLDATASIZE PUSH1 0x4 PUSH2 0x289C JUMP JUMPDEST PUSH2 0x7C2 JUMP JUMPDEST PUSH1 0x0 SLOAD PUSH1 0x1 PUSH1 0x1 PUSH1 0xA0 SHL SUB AND CALLER EQ PUSH2 0x201 JUMPI PUSH1 0x40 MLOAD PUSH3 0x461BCD PUSH1 0xE5 SHL DUP2 MSTORE PUSH1 0x20 PUSH1 0x4 DUP3 ADD MSTORE PUSH1 0x1D PUSH1 0x24 DUP3 ADD MSTORE PUSH32 0x4F6E6C79206F776E65722063616E207265636F76657220746F6B656E73000000 PUSH1 0x44 DUP3 ADD MSTORE PUSH1 0x64 ADD JUMPDEST PUSH1 0x40 MLOAD DUP1 SWAP2 SUB SWAP1 REVERT JUMPDEST PUSH1 0x40 MLOAD PUSH4 0x70A08231 PUSH1 0xE0 SHL DUP2 MSTORE ADDRESS PUSH1 0x4 DUP3 ADD MSTORE PUSH1 0x0 SWAP1 PUSH1 0x1 PUSH1 0x1 PUSH1 0xA0 SHL SUB DUP4 AND SWAP1 PUSH4 0x70A08231 SWAP1 PUSH1 0x24 ADD PUSH1 0x20 PUSH1 0x40 MLOAD DUP1 DUP4 SUB DUP2 DUP7 GAS STATICCALL ISZERO DUP1 ISZERO PUSH2 0x248 JUMPI RETURNDATASIZE PUSH1 0x0 DUP1 RETURNDATACOPY RETURNDATASIZE PUSH1 0x0 REVERT JUMPDEST POP POP POP POP PUSH1 0x40 MLOAD RETURNDATASIZE PUSH1 0x1F NOT PUSH1 0x1F DUP3 ADD AND DUP3 ADD DUP1 PUSH1 0x40 MSTORE POP DUP2 ADD SWAP1 PUSH2 0x26C SWAP2 SWAP1 PUSH2 0x2960 JUMP JUMPDEST SWAP1 POP DUP1 ISZERO PUSH2 0x2ED JUMPI PUSH1 0x0 SLOAD PUSH1 0x40 MLOAD PUSH4 0xA9059CBB PUSH1 0xE0 SHL DUP2 MSTORE PUSH1 0x1 PUSH1 0x1 PUSH1 0xA0 SHL SUB DUP5 DUP2 AND SWAP3 PUSH4 0xA9059CBB SWAP3 PUSH2 0x2A8 SWAP3 SWAP1 SWAP2 AND SWAP1 DUP6 SWAP1 PUSH1 0x4 ADD PUSH2 0x2979 JUMP JUMPDEST PUSH1 0x20 PUSH1 0x40 MLOAD DUP1 DUP4 SUB DUP2 PUSH1 0x0 DUP8 GAS CALL ISZERO DUP1 ISZERO PUSH2 0x2C7 JUMPI RETURNDATASIZE PUSH1 0x0 DUP1 RETURNDATACOPY RETURNDATASIZE PUSH1 0x0 REVERT JUMPDEST POP POP POP POP PUSH1 0x40 MLOAD RETURNDATASIZE PUSH1 0x1F NOT PUSH1 0x1F DUP3 ADD AND DUP3 ADD DUP1 PUSH1 0x40 MSTORE POP DUP2 ADD SWAP1 PUSH2 0x2EB SWAP2 SWAP1 PUSH2 0x2992 JUMP JUMPDEST POP JUMPDEST POP POP JUMP JUMPDEST PUSH1 0x0 DUP1 SLOAD PUSH1 0x1 PUSH1 0x1 PUSH1 0xA0 SHL SUB DUP6 DUP2 AND SWAP2 AND EQ PUSH2 0x348 JUMPI PUSH1 0x40 MLOAD PUSH3 0x461BCD PUSH1 0xE5 SHL DUP2 MSTORE PUSH1 0x20 PUSH1 0x4 DUP3 ADD MSTORE PUSH1 0x16 PUSH1 0x24 DUP3 ADD MSTORE PUSH22 0x2AB730BABA3437B934BD32B21034B734BA34B0BA37B9 PUSH1 0x51 SHL PUSH1 0x44 DUP3 ADD MSTORE PUSH1 0x64 ADD PUSH2 0x1F8 JUMP JUMPDEST PUSH1 0x7 SLOAD PUSH1 0xFF AND ISZERO PUSH2 0x39B JUMPI PUSH1 0x40 MLOAD PUSH3 0x461BCD PUSH1 0xE5 SHL DUP2 MSTORE PUSH1 0x20 PUSH1 0x4 DUP3 ADD MSTORE PUSH1 0x1A PUSH1 0x24 DUP3 ADD MSTORE PUSH32 0x537472617465677920616C726561647920636F6D706C65746564000000000000 PUSH1 0x44 DUP3 ADD MSTORE PUSH1 0x64 ADD PUSH2 0x1F8 JUMP JUMPDEST PUSH1 0x0 PUSH2 0x3A9 DUP4 DUP6 ADD DUP6 PUSH2 0x29FB JUMP JUMPDEST PUSH1 0x40 DUP1 MLOAD DUP1 DUP3 ADD SWAP1 SWAP2 MSTORE PUSH1 0x8 DUP2 MSTORE PUSH8 0xA6829C88AE92869 PUSH1 0xC3 SHL PUSH1 0x20 SWAP2 DUP3 ADD MSTORE DUP2 MLOAD SWAP1 DUP3 ADD KECCAK256 SWAP1 SWAP2 POP PUSH32 0x392EB93B15431FED24DF9BBA1922FF30A6B9E9EBD22A5C4C61FE780E92BE1917 EQ ISZERO PUSH2 0x462 JUMPI PUSH2 0x45D DUP12 DUP12 PUSH1 0x0 DUP2 DUP2 LT PUSH2 0x40F JUMPI PUSH2 0x40F PUSH2 0x2A90 JUMP JUMPDEST SWAP1 POP PUSH1 0x20 MUL ADD PUSH1 0x20 DUP2 ADD SWAP1 PUSH2 0x424 SWAP2 SWAP1 PUSH2 0x270F JUMP JUMPDEST DUP11 DUP11 PUSH1 0x0 DUP2 DUP2 LT PUSH2 0x437 JUMPI PUSH2 0x437 PUSH2 0x2A90 JUMP JUMPDEST SWAP1 POP PUSH1 0x20 MUL ADD CALLDATALOAD DUP10 DUP10 PUSH1 0x0 DUP2 DUP2 LT PUSH2 0x451 JUMPI PUSH2 0x451 PUSH2 0x2A90 JUMP JUMPDEST SWAP1 POP PUSH1 0x20 MUL ADD CALLDATALOAD PUSH2 0xABD JUMP JUMPDEST PUSH2 0x6C6 JUMP JUMPDEST PUSH1 0x40 DUP1 MLOAD DUP1 DUP3 ADD SWAP1 SWAP2 MSTORE PUSH1 0x9 DUP2 MSTORE PUSH9 0x415242495452414745 PUSH1 0xB8 SHL PUSH1 0x20 SWAP2 DUP3 ADD MSTORE DUP2 MLOAD SWAP1 DUP3 ADD KECCAK256 PUSH32 0x6531F762AD9FE1348E5CBC8CE25386420AE7BAC169C1795E239D9399E722B73F EQ ISZERO PUSH2 0x52B JUMPI PUSH1 0x0 PUSH2 0x4BE DUP5 DUP7 ADD DUP7 PUSH2 0x270F JUMP JUMPDEST SWAP1 POP PUSH2 0x525 DUP13 DUP13 PUSH1 0x0 DUP2 DUP2 LT PUSH2 0x4D6 JUMPI PUSH2 0x4D6 PUSH2 0x2A90 JUMP JUMPDEST SWAP1 POP PUSH1 0x20 MUL ADD PUSH1 0x20 DUP2 ADD SWAP1 PUSH2 0x4EB SWAP2 SWAP1 PUSH2 0x270F JUMP JUMPDEST DUP12 DUP12 PUSH1 0x0 DUP2 DUP2 LT PUSH2 0x4FE JUMPI PUSH2 0x4FE PUSH2 0x2A90 JUMP JUMPDEST SWAP1 POP PUSH1 0x20 MUL ADD CALLDATALOAD DUP11 DUP11 PUSH1 0x0 DUP2 DUP2 LT PUSH2 0x518 JUMPI PUSH2 0x518 PUSH2 0x2A90 JUMP JUMPDEST SWAP1 POP PUSH1 0x20 MUL ADD CALLDATALOAD DUP5 PUSH2 0x1017 JUMP JUMPDEST POP PUSH2 0x6C6 JUMP JUMPDEST PUSH1 0x40 DUP1 MLOAD DUP1 DUP3 ADD SWAP1 SWAP2 MSTORE PUSH1 0x8 DUP2 MSTORE PUSH8 0x4D554C5449484F5 PUSH1 0xC4 SHL PUSH1 0x20 SWAP2 DUP3 ADD MSTORE DUP2 MLOAD SWAP1 DUP3 ADD KECCAK256 PUSH32 0x77E816DE5A30F937416C4C170D45A22395916FDA915AF3FBBF1317B9B02BBCD2 EQ ISZERO PUSH2 0x5FD JUMPI PUSH1 0x0 DUP1 DUP1 PUSH2 0x588 DUP7 DUP9 ADD DUP9 PUSH2 0x2B3E JUMP JUMPDEST SWAP3 POP SWAP3 POP SWAP3 POP PUSH2 0x5F5 DUP15 DUP15 PUSH1 0x0 DUP2 DUP2 LT PUSH2 0x5A4 JUMPI PUSH2 0x5A4 PUSH2 0x2A90 JUMP JUMPDEST SWAP1 POP PUSH1 0x20 MUL ADD PUSH1 0x20 DUP2 ADD SWAP1 PUSH2 0x5B9 SWAP2 SWAP1 PUSH2 0x270F JUMP JUMPDEST DUP14 DUP14 PUSH1 0x0 DUP2 DUP2 LT PUSH2 0x5CC JUMPI PUSH2 0x5CC PUSH2 0x2A90 JUMP JUMPDEST SWAP1 POP PUSH1 0x20 MUL ADD CALLDATALOAD DUP13 DUP13 PUSH1 0x0 DUP2 DUP2 LT PUSH2 0x5E6 JUMPI PUSH2 0x5E6 PUSH2 0x2A90 JUMP JUMPDEST SWAP1 POP PUSH1 0x20 MUL ADD CALLDATALOAD DUP7 DUP7 DUP7 PUSH2 0x13F5 JUMP JUMPDEST POP POP POP PUSH2 0x6C6 JUMP JUMPDEST PUSH1 0x40 DUP1 MLOAD DUP1 DUP3 ADD SWAP1 SWAP2 MSTORE PUSH1 0x8 DUP2 MSTORE PUSH8 0x10D3D35092539151 PUSH1 0xC2 SHL PUSH1 0x20 SWAP2 DUP3 ADD MSTORE DUP2 MLOAD SWAP1 DUP3 ADD KECCAK256 PUSH32 0x3EE9FAB4CE628DAEDCC8D0CB548E7A5A5122CDABA91E83DCEFDD038E7815F79A EQ ISZERO PUSH2 0x6C6 JUMPI PUSH1 0x0 DUP1 PUSH2 0x659 DUP6 DUP8 ADD DUP8 PUSH2 0x2C1C JUMP JUMPDEST SWAP2 POP SWAP2 POP PUSH2 0x6C3 DUP14 DUP14 PUSH1 0x0 DUP2 DUP2 LT PUSH2 0x673 JUMPI PUSH2 0x673 PUSH2 0x2A90 JUMP JUMPDEST SWAP1 POP PUSH1 0x20 MUL ADD PUSH1 0x20 DUP2 ADD SWAP1 PUSH2 0x688 SWAP2 SWAP1 PUSH2 0x270F JUMP JUMPDEST DUP13 DUP13 PUSH1 0x0 DUP2 DUP2 LT PUSH2 0x69B JUMPI PUSH2 0x69B PUSH2 0x2A90 JUMP JUMPDEST SWAP1 POP PUSH1 0x20 MUL ADD CALLDATALOAD DUP12 DUP12 PUSH1 0x0 DUP2 DUP2 LT PUSH2 0x6B5 JUMPI PUSH2 0x6B5 PUSH2 0x2A90 JUMP JUMPDEST SWAP1 POP PUSH1 0x20 MUL ADD CALLDATALOAD DUP6 DUP6 PUSH2 0x1AAE JUMP JUMPDEST POP POP JUMPDEST PUSH1 0x0 DUP8 DUP8 PUSH1 0x0 DUP2 DUP2 LT PUSH2 0x6DB JUMPI PUSH2 0x6DB PUSH2 0x2A90 JUMP JUMPDEST SWAP1 POP PUSH1 0x20 MUL ADD CALLDATALOAD DUP11 DUP11 PUSH1 0x0 DUP2 DUP2 LT PUSH2 0x6F5 JUMPI PUSH2 0x6F5 PUSH2 0x2A90 JUMP JUMPDEST SWAP1 POP PUSH1 0x20 MUL ADD CALLDATALOAD PUSH2 0x706 SWAP2 SWAP1 PUSH2 0x2C6B JUMP JUMPDEST SWAP1 POP DUP12 DUP12 PUSH1 0x0 DUP2 DUP2 LT PUSH2 0x71B JUMPI PUSH2 0x71B PUSH2 0x2A90 JUMP JUMPDEST SWAP1 POP PUSH1 0x20 MUL ADD PUSH1 0x20 DUP2 ADD SWAP1 PUSH2 0x730 SWAP2 SWAP1 PUSH2 0x270F JUMP JUMPDEST PUSH1 0x1 PUSH1 0x1 PUSH1 0xA0 SHL SUB AND PUSH4 0x95EA7B3 CALLER DUP4 PUSH1 0x40 MLOAD DUP4 PUSH4 0xFFFFFFFF AND PUSH1 0xE0 SHL DUP2 MSTORE PUSH1 0x4 ADD PUSH2 0x75D SWAP3 SWAP2 SWAP1 PUSH2 0x2979 JUMP JUMPDEST PUSH1 0x20 PUSH1 0x40 MLOAD DUP1 DUP4 SUB DUP2 PUSH1 0x0 DUP8 GAS CALL ISZERO DUP1 ISZERO PUSH2 0x77C JUMPI RETURNDATASIZE PUSH1 0x0 DUP1 RETURNDATACOPY RETURNDATASIZE PUSH1 0x0 REVERT JUMPDEST POP POP POP POP PUSH1 0x40 MLOAD RETURNDATASIZE PUSH1 0x1F NOT PUSH1 0x1F DUP3 ADD AND DUP3 ADD DUP1 PUSH1 0x40 MSTORE POP DUP2 ADD SWAP1 PUSH2 0x7A0 SWAP2 SWAP1 PUSH2 0x2992 JUMP JUMPDEST POP POP PUSH1 0x7 DUP1 SLOAD PUSH1 0xFF NOT AND PUSH1 0x1 SWAP1 DUP2 OR SWAP1 SWAP2 SSTORE SWAP2 POP POP SWAP10 SWAP9 POP POP POP POP POP POP POP POP POP JUMP JUMPDEST PUSH1 0x1 SLOAD PUSH1 0x1 PUSH1 0x1 PUSH1 0xA0 SHL SUB AND CALLER EQ PUSH2 0x812 JUMPI PUSH1 0x40 MLOAD PUSH3 0x461BCD PUSH1 0xE5 SHL DUP2 MSTORE PUSH1 0x20 PUSH1 0x4 DUP3 ADD MSTORE PUSH1 0x13 PUSH1 0x24 DUP3 ADD MSTORE PUSH19 0x2AB730BABA3437B934BD32B21039B2B73232B9 PUSH1 0x69 SHL PUSH1 0x44 DUP3 ADD MSTORE PUSH1 0x64 ADD PUSH2 0x1F8 JUMP JUMPDEST PUSH1 0x7 SLOAD PUSH1 0xFF AND ISZERO PUSH2 0x865 JUMPI PUSH1 0x40 MLOAD PUSH3 0x461BCD PUSH1 0xE5 SHL DUP2 MSTORE PUSH1 0x20 PUSH1 0x4 DUP3 ADD MSTORE PUSH1 0x1A PUSH1 0x24 DUP3 ADD MSTORE PUSH32 0x537472617465677920616C726561647920636F6D706C65746564000000000000 PUSH1 0x44 DUP3 ADD MSTORE PUSH1 0x64 ADD PUSH2 0x1F8 JUMP JUMPDEST PUSH1 0x0 PUSH2 0x873 DUP3 DUP5 ADD DUP5 PUSH2 0x29FB JUMP JUMPDEST SWAP1 POP PUSH1 0x0 DUP10 DUP10 PUSH1 0x0 DUP2 DUP2 LT PUSH2 0x88A JUMPI PUSH2 0x88A PUSH2 0x2A90 JUMP JUMPDEST SWAP1 POP PUSH1 0x20 MUL ADD PUSH1 0x20 DUP2 ADD SWAP1 PUSH2 0x89F SWAP2 SWAP1 PUSH2 0x270F JUMP JUMPDEST SWAP1 POP PUSH1 0x0 DUP9 DUP9 PUSH1 0x0 DUP2 DUP2 LT PUSH2 0x8B6 JUMPI PUSH2 0x8B6 PUSH2 0x2A90 JUMP JUMPDEST SWAP1 POP PUSH1 0x20 MUL ADD CALLDATALOAD SWAP1 POP PUSH1 0x0 DUP8 DUP8 PUSH1 0x0 DUP2 DUP2 LT PUSH2 0x8D4 JUMPI PUSH2 0x8D4 PUSH2 0x2A90 JUMP JUMPDEST PUSH1 0x40 DUP1 MLOAD DUP1 DUP3 ADD SWAP1 SWAP2 MSTORE PUSH1 0x8 DUP2 MSTORE PUSH8 0xA6829C88AE92869 PUSH1 0xC3 SHL PUSH1 0x20 SWAP2 DUP3 ADD MSTORE DUP8 MLOAD DUP9 DUP3 ADD KECCAK256 SWAP2 MUL SWAP3 SWAP1 SWAP3 ADD CALLDATALOAD SWAP3 POP POP PUSH32 0x392EB93B15431FED24DF9BBA1922FF30A6B9E9EBD22A5C4C61FE780E92BE1917 EQ ISZERO PUSH2 0x93B JUMPI PUSH2 0x936 DUP4 DUP4 DUP4 PUSH2 0xABD JUMP JUMPDEST PUSH2 0xA20 JUMP JUMPDEST PUSH1 0x40 DUP1 MLOAD DUP1 DUP3 ADD SWAP1 SWAP2 MSTORE PUSH1 0x9 DUP2 MSTORE PUSH9 0x415242495452414745 PUSH1 0xB8 SHL PUSH1 0x20 SWAP2 DUP3 ADD MSTORE DUP5 MLOAD SWAP1 DUP6 ADD KECCAK256 PUSH32 0x6531F762AD9FE1348E5CBC8CE25386420AE7BAC169C1795E239D9399E722B73F EQ ISZERO PUSH2 0x9AB JUMPI PUSH1 0x0 PUSH2 0x997 DUP7 DUP9 ADD DUP9 PUSH2 0x270F JUMP JUMPDEST SWAP1 POP PUSH2 0x9A5 DUP5 DUP5 DUP5 DUP5 PUSH2 0x1017 JUMP JUMPDEST POP PUSH2 0xA20 JUMP JUMPDEST PUSH1 0x40 DUP1 MLOAD DUP1 DUP3 ADD SWAP1 SWAP2 MSTORE PUSH1 0x8 DUP2 MSTORE PUSH8 0x4D554C5449484F5 PUSH1 0xC4 SHL PUSH1 0x20 SWAP2 DUP3 ADD MSTORE DUP5 MLOAD SWAP1 DUP6 ADD KECCAK256 PUSH32 0x77E816DE5A30F937416C4C170D45A22395916FDA915AF3FBBF1317B9B02BBCD2 EQ ISZERO PUSH2 0xA20 JUMPI PUSH1 0x0 DUP1 DUP1 PUSH2 0xA08 DUP9 DUP11 ADD DUP11 PUSH2 0x2B3E JUMP JUMPDEST SWAP3 POP SWAP3 POP SWAP3 POP PUSH2 0xA1C DUP7 DUP7 DUP7 DUP7 DUP7 DUP7 PUSH2 0x13F5 JUMP JUMPDEST POP POP POP JUMPDEST PUSH1 0x0 PUSH2 0xA2C DUP3 DUP5 PUSH2 0x2C6B JUMP JUMPDEST PUSH1 0x40 MLOAD PUSH4 0x95EA7B3 PUSH1 0xE0 SHL DUP2 MSTORE SWAP1 SWAP2 POP PUSH1 0x1 PUSH1 0x1 PUSH1 0xA0 SHL SUB DUP6 AND SWAP1 PUSH4 0x95EA7B3 SWAP1 PUSH2 0xA5D SWAP1 CALLER SWAP1 DUP6 SWAP1 PUSH1 0x4 ADD PUSH2 0x2979 JUMP JUMPDEST PUSH1 0x20 PUSH1 0x40 MLOAD DUP1 DUP4 SUB DUP2 PUSH1 0x0 DUP8 GAS CALL ISZERO DUP1 ISZERO PUSH2 0xA7C JUMPI RETURNDATASIZE PUSH1 0x0 DUP1 RETURNDATACOPY RETURNDATASIZE PUSH1 0x0 REVERT JUMPDEST POP POP POP POP PUSH1 0x40 MLOAD RETURNDATASIZE PUSH1 0x1F NOT PUSH1 0x1F DUP3 ADD AND DUP3 ADD DUP1 PUSH1 0x40 MSTORE POP DUP2 ADD SWAP1 PUSH2 0xAA0 SWAP2 SWAP1 PUSH2 0x2992 JUMP JUMPDEST POP POP PUSH1 0x7 DUP1 SLOAD PUSH1 0xFF NOT AND PUSH1 0x1 OR SWAP1 SSTORE POP POP POP POP POP POP POP POP POP POP POP POP JUMP JUMPDEST PUSH1 0x3 SLOAD PUSH1 0x1 PUSH1 0x1 PUSH1 0xA0 SHL SUB DUP5 DUP2 AND SWAP2 AND EQ PUSH2 0xB0A JUMPI PUSH1 0x40 MLOAD PUSH3 0x461BCD PUSH1 0xE5 SHL DUP2 MSTORE PUSH1 0x20 PUSH1 0x4 DUP3 ADD MSTORE PUSH1 0xD PUSH1 0x24 DUP3 ADD MSTORE PUSH13 0x24B73B30B634B2103A37B5B2B7 PUSH1 0x99 SHL PUSH1 0x44 DUP3 ADD MSTORE PUSH1 0x64 ADD PUSH2 0x1F8 JUMP JUMPDEST PUSH1 0x3 SLOAD PUSH1 0x1 SLOAD PUSH1 0x40 MLOAD PUSH4 0x95EA7B3 PUSH1 0xE0 SHL DUP2 MSTORE PUSH1 0x1 PUSH1 0x1 PUSH1 0xA0 SHL SUB SWAP3 DUP4 AND SWAP3 PUSH4 0x95EA7B3 SWAP3 PUSH2 0xB40 SWAP3 SWAP2 AND SWAP1 DUP7 SWAP1 PUSH1 0x4 ADD PUSH2 0x2979 JUMP JUMPDEST PUSH1 0x20 PUSH1 0x40 MLOAD DUP1 DUP4 SUB DUP2 PUSH1 0x0 DUP8 GAS CALL ISZERO DUP1 ISZERO PUSH2 0xB5F JUMPI RETURNDATASIZE PUSH1 0x0 DUP1 RETURNDATACOPY RETURNDATASIZE PUSH1 0x0 REVERT JUMPDEST POP POP POP POP PUSH1 0x40 MLOAD RETURNDATASIZE PUSH1 0x1F NOT PUSH1 0x1F DUP3 ADD AND DUP3 ADD DUP1 PUSH1 0x40 MSTORE POP DUP2 ADD SWAP1 PUSH2 0xB83 SWAP2 SWAP1 PUSH2 0x2992 JUMP JUMPDEST POP PUSH1 0x40 DUP1 MLOAD PUSH1 0x2 DUP1 DUP3 MSTORE PUSH1 0x60 DUP3 ADD DUP4 MSTORE PUSH1 0x0 SWAP3 PUSH1 0x20 DUP4 ADD SWAP1 DUP1 CALLDATASIZE DUP4 CALLDATACOPY POP POP PUSH1 0x3 SLOAD DUP3 MLOAD SWAP3 SWAP4 POP PUSH1 0x1 PUSH1 0x1 PUSH1 0xA0 SHL SUB AND SWAP2 DUP4 SWAP2 POP PUSH1 0x0 SWAP1 PUSH2 0xBC5 JUMPI PUSH2 0xBC5 PUSH2 0x2A90 JUMP JUMPDEST PUSH1 0x1 PUSH1 0x1 PUSH1 0xA0 SHL SUB SWAP3 DUP4 AND PUSH1 0x20 SWAP2 DUP3 MUL SWAP3 SWAP1 SWAP3 ADD ADD MSTORE PUSH1 0x4 SLOAD DUP3 MLOAD SWAP2 AND SWAP1 DUP3 SWAP1 PUSH1 0x1 SWAP1 DUP2 LT PUSH2 0xBF6 JUMPI PUSH2 0xBF6 PUSH2 0x2A90 JUMP JUMPDEST PUSH1 0x1 PUSH1 0x1 PUSH1 0xA0 SHL SUB SWAP1 SWAP3 AND PUSH1 0x20 SWAP3 DUP4 MUL SWAP2 SWAP1 SWAP2 ADD SWAP1 SWAP2 ADD MSTORE PUSH1 0x0 PUSH2 0xC1B PUSH1 0x2 DUP6 PUSH2 0x2C83 JUMP JUMPDEST PUSH1 0x1 SLOAD SWAP1 SWAP2 POP PUSH1 0x0 SWAP1 PUSH1 0x1 PUSH1 0x1 PUSH1 0xA0 SHL SUB AND PUSH4 0x38ED1739 DUP4 DUP4 DUP7 ADDRESS PUSH2 0xC42 TIMESTAMP PUSH2 0x12C PUSH2 0x2C6B JUMP JUMPDEST PUSH1 0x40 MLOAD DUP7 PUSH4 0xFFFFFFFF AND PUSH1 0xE0 SHL DUP2 MSTORE PUSH1 0x4 ADD PUSH2 0xC62 SWAP6 SWAP5 SWAP4 SWAP3 SWAP2 SWAP1 PUSH2 0x2CA5 JUMP JUMPDEST PUSH1 0x0 PUSH1 0x40 MLOAD DUP1 DUP4 SUB DUP2 PUSH1 0x0 DUP8 GAS CALL ISZERO DUP1 ISZERO PUSH2 0xC81 JUMPI RETURNDATASIZE PUSH1 0x0 DUP1 RETURNDATACOPY RETURNDATASIZE PUSH1 0x0 REVERT JUMPDEST POP POP POP POP PUSH1 0x40 MLOAD RETURNDATASIZE PUSH1 0x0 DUP3 RETURNDATACOPY PUSH1 0x1F RETURNDATASIZE SWAP1 DUP2 ADD PUSH1 0x1F NOT AND DUP3 ADD PUSH1 0x40 MSTORE PUSH2 0xCA9 SWAP2 SWAP1 DUP2 ADD SWAP1 PUSH2 0x2D16 JUMP JUMPDEST SWAP1 POP PUSH1 0x0 DUP2 PUSH1 0x1 DUP4 MLOAD PUSH2 0xCBC SWAP2 SWAP1 PUSH2 0x2DA7 JUMP JUMPDEST DUP2 MLOAD DUP2 LT PUSH2 0xCCC JUMPI PUSH2 0xCCC PUSH2 0x2A90 JUMP JUMPDEST PUSH1 0x20 SWAP1 DUP2 MUL SWAP2 SWAP1 SWAP2 ADD DUP2 ADD MLOAD PUSH1 0x4 SLOAD PUSH1 0x3 SLOAD PUSH1 0x2 SLOAD PUSH1 0x40 DUP1 MLOAD DUP10 DUP2 MSTORE SWAP6 DUP7 ADD DUP6 SWAP1 MSTORE SWAP4 SWAP6 POP PUSH1 0x1 PUSH1 0x1 PUSH1 0xA0 SHL SUB SWAP3 DUP4 AND SWAP5 SWAP2 DUP4 AND SWAP4 SWAP3 AND SWAP2 PUSH32 0x51C932DE59C046C124D6FAAC1F1E5A1F1CA96AF8634E3D30BF0BE71819534A5F SWAP2 ADD PUSH1 0x40 MLOAD DUP1 SWAP2 SUB SWAP1 LOG4 PUSH1 0x4 SLOAD DUP5 MLOAD PUSH1 0x1 PUSH1 0x1 PUSH1 0xA0 SHL SUB SWAP1 SWAP2 AND SWAP1 DUP6 SWAP1 PUSH1 0x0 SWAP1 PUSH2 0xD51 JUMPI PUSH2 0xD51 PUSH2 0x2A90 JUMP JUMPDEST PUSH1 0x1 PUSH1 0x1 PUSH1 0xA0 SHL SUB SWAP3 DUP4 AND PUSH1 0x20 SWAP2 DUP3 MUL SWAP3 SWAP1 SWAP3 ADD ADD MSTORE PUSH1 0x3 SLOAD DUP6 MLOAD SWAP2 AND SWAP1 DUP6 SWAP1 PUSH1 0x1 SWAP1 DUP2 LT PUSH2 0xD82 JUMPI PUSH2 0xD82 PUSH2 0x2A90 JUMP JUMPDEST PUSH1 0x1 PUSH1 0x1 PUSH1 0xA0 SHL SUB SWAP3 DUP4 AND PUSH1 0x20 SWAP2 DUP3 MUL SWAP3 SWAP1 SWAP3 ADD ADD MSTORE PUSH1 0x4 DUP1 SLOAD PUSH1 0x1 SLOAD PUSH1 0x40 MLOAD PUSH4 0x95EA7B3 PUSH1 0xE0 SHL DUP2 MSTORE SWAP2 DUP5 AND SWAP4 PUSH4 0x95EA7B3 SWAP4 PUSH2 0xDC7 SWAP4 SWAP3 SWAP1 SWAP2 AND SWAP2 DUP7 SWAP2 ADD PUSH2 0x2979 JUMP JUMPDEST PUSH1 0x20 PUSH1 0x40 MLOAD DUP1 DUP4 SUB DUP2 PUSH1 0x0 DUP8 GAS CALL ISZERO DUP1 ISZERO PUSH2 0xDE6 JUMPI RETURNDATASIZE PUSH1 0x0 DUP1 RETURNDATACOPY RETURNDATASIZE PUSH1 0x0 REVERT JUMPDEST POP POP POP POP PUSH1 0x40 MLOAD RETURNDATASIZE PUSH1 0x1F NOT PUSH1 0x1F DUP3 ADD AND DUP3 ADD DUP1 PUSH1 0x40 MSTORE POP DUP2 ADD SWAP1 PUSH2 0xE0A SWAP2 SWAP1 PUSH2 0x2992 JUMP JUMPDEST POP PUSH1 0x1 SLOAD PUSH1 0x0 SWAP1 PUSH1 0x1 PUSH1 0x1 PUSH1 0xA0 SHL SUB AND PUSH4 0x38ED1739 DUP4 DUP4 DUP9 ADDRESS PUSH2 0xE2F TIMESTAMP PUSH2 0x12C PUSH2 0x2C6B JUMP JUMPDEST PUSH1 0x40 MLOAD DUP7 PUSH4 0xFFFFFFFF AND PUSH1 0xE0 SHL DUP2 MSTORE PUSH1 0x4 ADD PUSH2 0xE4F SWAP6 SWAP5 SWAP4 SWAP3 SWAP2 SWAP1 PUSH2 0x2CA5 JUMP JUMPDEST PUSH1 0x0 PUSH1 0x40 MLOAD DUP1 DUP4 SUB DUP2 PUSH1 0x0 DUP8 GAS CALL ISZERO DUP1 ISZERO PUSH2 0xE6E JUMPI RETURNDATASIZE PUSH1 0x0 DUP1 RETURNDATACOPY RETURNDATASIZE PUSH1 0x0 REVERT JUMPDEST POP POP POP POP PUSH1 0x40 MLOAD RETURNDATASIZE PUSH1 0x0 DUP3 RETURNDATACOPY PUSH1 0x1F RETURNDATASIZE SWAP1 DUP2 ADD PUSH1 0x1F NOT AND DUP3 ADD PUSH1 0x40 MSTORE PUSH2 0xE96 SWAP2 SWAP1 DUP2 ADD SWAP1 PUSH2 0x2D16 JUMP JUMPDEST SWAP1 POP PUSH1 0x0 DUP2 PUSH1 0x1 DUP4 MLOAD PUSH2 0xEA9 SWAP2 SWAP1 PUSH2 0x2DA7 JUMP JUMPDEST DUP2 MLOAD DUP2 LT PUSH2 0xEB9 JUMPI PUSH2 0xEB9 PUSH2 0x2A90 JUMP JUMPDEST PUSH1 0x20 MUL PUSH1 0x20 ADD ADD MLOAD SWAP1 POP PUSH1 0x0 DUP6 DUP3 GT ISZERO PUSH2 0xEDA JUMPI PUSH2 0xED7 DUP7 DUP4 PUSH2 0x2DA7 JUMP JUMPDEST SWAP1 POP JUMPDEST DUP8 DUP2 GT ISZERO PUSH2 0xEF3 JUMPI PUSH2 0xEEC DUP9 DUP3 PUSH2 0x2DA7 JUMP JUMPDEST SWAP1 POP PUSH2 0xF33 JUMP JUMPDEST PUSH1 0x40 MLOAD PUSH3 0x461BCD PUSH1 0xE5 SHL DUP2 MSTORE PUSH1 0x20 PUSH1 0x4 DUP3 ADD MSTORE PUSH1 0x15 PUSH1 0x24 DUP3 ADD MSTORE PUSH21 0xAADCE0E4DECCD2E8C2C4D8CA40E6C2DCC8EED2C6D PUSH1 0x5B SHL PUSH1 0x44 DUP3 ADD MSTORE PUSH1 0x64 ADD PUSH2 0x1F8 JUMP JUMPDEST PUSH1 0x3 SLOAD PUSH1 0x4 SLOAD PUSH1 0x2 SLOAD PUSH1 0x40 DUP1 MLOAD DUP9 DUP2 MSTORE PUSH1 0x20 DUP2 ADD DUP8 SWAP1 MSTORE SWAP1 DUP2 ADD DUP6 SWAP1 MSTORE PUSH1 0x1 PUSH1 0x1 PUSH1 0xA0 SHL SUB SWAP4 DUP5 AND SWAP4 SWAP3 DUP4 AND SWAP3 SWAP1 SWAP2 AND SWAP1 PUSH32 0xD59DD7FF720795CB90DB0EAF4F250C5D745A73628BF936169EFFBB810EE9A046 SWAP1 PUSH1 0x60 ADD PUSH1 0x40 MLOAD DUP1 SWAP2 SUB SWAP1 LOG4 PUSH1 0x3 SLOAD PUSH1 0x0 SLOAD PUSH1 0x40 MLOAD PUSH4 0xA9059CBB PUSH1 0xE0 SHL DUP2 MSTORE PUSH1 0x1 PUSH1 0x1 PUSH1 0xA0 SHL SUB SWAP3 DUP4 AND SWAP3 PUSH4 0xA9059CBB SWAP3 PUSH2 0xFC7 SWAP3 SWAP2 AND SWAP1 DUP6 SWAP1 PUSH1 0x4 ADD PUSH2 0x2979 JUMP JUMPDEST PUSH1 0x20 PUSH1 0x40 MLOAD DUP1 DUP4 SUB DUP2 PUSH1 0x0 DUP8 GAS CALL ISZERO DUP1 ISZERO PUSH2 0xFE6 JUMPI RETURNDATASIZE PUSH1 0x0 DUP1 RETURNDATACOPY RETURNDATASIZE PUSH1 0x0 REVERT JUMPDEST POP POP POP POP PUSH1 0x40 MLOAD RETURNDATASIZE PUSH1 0x1F NOT PUSH1 0x1F DUP3 ADD AND DUP3 ADD DUP1 PUSH1 0x40 MSTORE POP DUP2 ADD SWAP1 PUSH2 0x100A SWAP2 SWAP1 PUSH2 0x2992 JUMP JUMPDEST POP POP POP POP POP POP POP POP POP POP POP JUMP JUMPDEST PUSH1 0x2 SLOAD PUSH1 0x40 DUP1 MLOAD PUSH4 0xDFE1681 PUSH1 0xE0 SHL DUP2 MSTORE SWAP1 MLOAD PUSH1 0x1 PUSH1 0x1 PUSH1 0xA0 SHL SUB SWAP1 SWAP3 AND SWAP2 PUSH1 0x0 SWAP2 DUP4 SWAP2 PUSH4 0xDFE1681 SWAP2 PUSH1 0x4 DUP1 DUP3 ADD SWAP3 PUSH1 0x20 SWAP3 SWAP1 SWAP2 SWAP1 DUP3 SWAP1 SUB ADD DUP2 DUP7 GAS STATICCALL ISZERO DUP1 ISZERO PUSH2 0x1066 JUMPI RETURNDATASIZE PUSH1 0x0 DUP1 RETURNDATACOPY RETURNDATASIZE PUSH1 0x0 REVERT JUMPDEST POP POP POP POP PUSH1 0x40 MLOAD RETURNDATASIZE PUSH1 0x1F NOT PUSH1 0x1F DUP3 ADD AND DUP3 ADD DUP1 PUSH1 0x40 MSTORE POP DUP2 ADD SWAP1 PUSH2 0x108A SWAP2 SWAP1 PUSH2 0x2DBE JUMP JUMPDEST SWAP1 POP PUSH1 0x0 DUP3 PUSH1 0x1 PUSH1 0x1 PUSH1 0xA0 SHL SUB AND PUSH4 0xD21220A7 PUSH1 0x40 MLOAD DUP2 PUSH4 0xFFFFFFFF AND PUSH1 0xE0 SHL DUP2 MSTORE PUSH1 0x4 ADD PUSH1 0x20 PUSH1 0x40 MLOAD DUP1 DUP4 SUB DUP2 DUP7 GAS STATICCALL ISZERO DUP1 ISZERO PUSH2 0x10CC JUMPI RETURNDATASIZE PUSH1 0x0 DUP1 RETURNDATACOPY RETURNDATASIZE PUSH1 0x0 REVERT JUMPDEST POP POP POP POP PUSH1 0x40 MLOAD RETURNDATASIZE PUSH1 0x1F NOT PUSH1 0x1F DUP3 ADD AND DUP3 ADD DUP1 PUSH1 0x40 MSTORE POP DUP2 ADD SWAP1 PUSH2 0x10F0 SWAP2 SWAP1 PUSH2 0x2DBE JUMP JUMPDEST SWAP1 POP PUSH1 0x0 DUP3 PUSH1 0x1 PUSH1 0x1 PUSH1 0xA0 SHL SUB AND DUP9 PUSH1 0x1 PUSH1 0x1 PUSH1 0xA0 SHL SUB AND EQ PUSH2 0x1113 JUMPI DUP3 PUSH2 0x1115 JUMP JUMPDEST DUP2 JUMPDEST SWAP1 POP PUSH1 0x0 DUP6 SWAP1 POP DUP9 PUSH1 0x1 PUSH1 0x1 PUSH1 0xA0 SHL SUB AND DUP2 PUSH1 0x1 PUSH1 0x1 PUSH1 0xA0 SHL SUB AND PUSH4 0xDFE1681 PUSH1 0x40 MLOAD DUP2 PUSH4 0xFFFFFFFF AND PUSH1 0xE0 SHL DUP2 MSTORE PUSH1 0x4 ADD PUSH1 0x20 PUSH1 0x40 MLOAD DUP1 DUP4 SUB DUP2 DUP7 GAS STATICCALL ISZERO DUP1 ISZERO PUSH2 0x1164 JUMPI RETURNDATASIZE PUSH1 0x0 DUP1 RETURNDATACOPY RETURNDATASIZE PUSH1 0x0 REVERT JUMPDEST POP POP POP POP PUSH1 0x40 MLOAD RETURNDATASIZE PUSH1 0x1F NOT PUSH1 0x1F DUP3 ADD AND DUP3 ADD DUP1 PUSH1 0x40 MSTORE POP DUP2 ADD SWAP1 PUSH2 0x1188 SWAP2 SWAP1 PUSH2 0x2DBE JUMP JUMPDEST PUSH1 0x1 PUSH1 0x1 PUSH1 0xA0 SHL SUB AND EQ DUP1 ISZERO PUSH2 0x1210 JUMPI POP DUP2 PUSH1 0x1 PUSH1 0x1 PUSH1 0xA0 SHL SUB AND DUP2 PUSH1 0x1 PUSH1 0x1 PUSH1 0xA0 SHL SUB AND PUSH4 0xD21220A7 PUSH1 0x40 MLOAD DUP2 PUSH4 0xFFFFFFFF AND PUSH1 0xE0 SHL DUP2 MSTORE PUSH1 0x4 ADD PUSH1 0x20 PUSH1 0x40 MLOAD DUP1 DUP4 SUB DUP2 DUP7 GAS STATICCALL ISZERO DUP1 ISZERO PUSH2 0x11E1 JUMPI RETURNDATASIZE PUSH1 0x0 DUP1 RETURNDATACOPY RETURNDATASIZE PUSH1 0x0 REVERT JUMPDEST POP POP POP POP PUSH1 0x40 MLOAD RETURNDATASIZE PUSH1 0x1F NOT PUSH1 0x1F DUP3 ADD AND DUP3 ADD DUP1 PUSH1 0x40 MSTORE POP DUP2 ADD SWAP1 PUSH2 0x1205 SWAP2 SWAP1 PUSH2 0x2DBE JUMP JUMPDEST PUSH1 0x1 PUSH1 0x1 PUSH1 0xA0 SHL SUB AND EQ JUMPDEST DUP1 PUSH2 0x130A JUMPI POP DUP2 PUSH1 0x1 PUSH1 0x1 PUSH1 0xA0 SHL SUB AND DUP2 PUSH1 0x1 PUSH1 0x1 PUSH1 0xA0 SHL SUB AND PUSH4 0xDFE1681 PUSH1 0x40 MLOAD DUP2 PUSH4 0xFFFFFFFF AND PUSH1 0xE0 SHL DUP2 MSTORE PUSH1 0x4 ADD PUSH1 0x20 PUSH1 0x40 MLOAD DUP1 DUP4 SUB DUP2 DUP7 GAS STATICCALL ISZERO DUP1 ISZERO PUSH2 0x125E JUMPI RETURNDATASIZE PUSH1 0x0 DUP1 RETURNDATACOPY RETURNDATASIZE PUSH1 0x0 REVERT JUMPDEST POP POP POP POP PUSH1 0x40 MLOAD RETURNDATASIZE PUSH1 0x1F NOT PUSH1 0x1F DUP3 ADD AND DUP3 ADD DUP1 PUSH1 0x40 MSTORE POP DUP2 ADD SWAP1 PUSH2 0x1282 SWAP2 SWAP1 PUSH2 0x2DBE JUMP JUMPDEST PUSH1 0x1 PUSH1 0x1 PUSH1 0xA0 SHL SUB AND EQ DUP1 ISZERO PUSH2 0x130A JUMPI POP DUP9 PUSH1 0x1 PUSH1 0x1 PUSH1 0xA0 SHL SUB AND DUP2 PUSH1 0x1 PUSH1 0x1 PUSH1 0xA0 SHL SUB AND PUSH4 0xD21220A7 PUSH1 0x40 MLOAD DUP2 PUSH4 0xFFFFFFFF AND PUSH1 0xE0 SHL DUP2 MSTORE PUSH1 0x4 ADD PUSH1 0x20 PUSH1 0x40 MLOAD DUP1 DUP4 SUB DUP2 DUP7 GAS STATICCALL ISZERO DUP1 ISZERO PUSH2 0x12DB JUMPI RETURNDATASIZE PUSH1 0x0 DUP1 RETURNDATACOPY RETURNDATASIZE PUSH1 0x0 REVERT JUMPDEST POP POP POP POP PUSH1 0x40 MLOAD RETURNDATASIZE PUSH1 0x1F NOT PUSH1 0x1F DUP3 ADD AND DUP3 ADD DUP1 PUSH1 0x40 MSTORE POP DUP2 ADD SWAP1 PUSH2 0x12FF SWAP2 SWAP1 PUSH2 0x2DBE JUMP JUMPDEST PUSH1 0x1 PUSH1 0x1 PUSH1 0xA0 SHL SUB AND EQ JUMPDEST PUSH2 0x134C JUMPI PUSH1 0x40 MLOAD PUSH3 0x461BCD PUSH1 0xE5 SHL DUP2 MSTORE PUSH1 0x20 PUSH1 0x4 DUP3 ADD MSTORE PUSH1 0x13 PUSH1 0x24 DUP3 ADD MSTORE PUSH19 0x125B9D985B1A59081D185C99D95D081C1BDBDB PUSH1 0x6A SHL PUSH1 0x44 DUP3 ADD MSTORE PUSH1 0x64 ADD PUSH2 0x1F8 JUMP JUMPDEST PUSH1 0x0 PUSH2 0x1359 DUP11 DUP5 DUP12 PUSH2 0x1C16 JUMP JUMPDEST SWAP1 POP PUSH1 0x0 PUSH2 0x1368 DUP12 DUP6 DUP5 PUSH2 0x1DC5 JUMP JUMPDEST SWAP1 POP PUSH1 0x0 DUP11 DUP3 GT ISZERO PUSH2 0x1381 JUMPI PUSH2 0x137E DUP12 DUP4 PUSH2 0x2DA7 JUMP JUMPDEST SWAP1 POP JUMPDEST DUP10 DUP2 GT ISZERO PUSH2 0x139A JUMPI PUSH2 0x1393 DUP11 DUP3 PUSH2 0x2DA7 JUMP JUMPDEST SWAP1 POP PUSH2 0x13DB JUMP JUMPDEST PUSH1 0x40 MLOAD PUSH3 0x461BCD PUSH1 0xE5 SHL DUP2 MSTORE PUSH1 0x20 PUSH1 0x4 DUP3 ADD MSTORE PUSH1 0x16 PUSH1 0x24 DUP3 ADD MSTORE PUSH22 0x556E70726F66697461626C6520617262697472616765 PUSH1 0x50 SHL PUSH1 0x44 DUP3 ADD MSTORE PUSH1 0x64 ADD PUSH2 0x1F8 JUMP JUMPDEST PUSH2 0x13E7 DUP10 DUP14 DUP14 DUP5 PUSH2 0x1EA7 JUMP JUMPDEST POP POP POP POP POP POP POP POP POP POP POP POP JUMP JUMPDEST PUSH1 0x2 DUP4 MLOAD LT ISZERO PUSH2 0x1447 JUMPI PUSH1 0x40 MLOAD PUSH3 0x461BCD PUSH1 0xE5 SHL DUP2 MSTORE PUSH1 0x20 PUSH1 0x4 DUP3 ADD MSTORE PUSH1 0x19 PUSH1 0x24 DUP3 ADD MSTORE PUSH32 0x4174206C65617374203220706169727320726571756972656400000000000000 PUSH1 0x44 DUP3 ADD MSTORE PUSH1 0x64 ADD PUSH2 0x1F8 JUMP JUMPDEST DUP3 MLOAD PUSH2 0x1454 SWAP1 PUSH1 0x1 PUSH2 0x2C6B JUMP JUMPDEST DUP3 MLOAD EQ PUSH2 0x14A3 JUMPI PUSH1 0x40 MLOAD PUSH3 0x461BCD PUSH1 0xE5 SHL DUP2 MSTORE PUSH1 0x20 PUSH1 0x4 DUP3 ADD MSTORE PUSH1 0x1B PUSH1 0x24 DUP3 ADD MSTORE PUSH32 0x496E76616C696420746F6B656E73206172726179206C656E6774680000000000 PUSH1 0x44 DUP3 ADD MSTORE PUSH1 0x64 ADD PUSH2 0x1F8 JUMP JUMPDEST DUP3 MLOAD DUP2 MLOAD EQ PUSH2 0x14F4 JUMPI PUSH1 0x40 MLOAD PUSH3 0x461BCD PUSH1 0xE5 SHL DUP2 MSTORE PUSH1 0x20 PUSH1 0x4 DUP3 ADD MSTORE PUSH1 0x1C PUSH1 0x24 DUP3 ADD MSTORE PUSH32 0x496E76616C696420616D6F756E7473206172726179206C656E67746800000000 PUSH1 0x44 DUP3 ADD MSTORE PUSH1 0x64 ADD PUSH2 0x1F8 JUMP JUMPDEST DUP6 PUSH1 0x1 PUSH1 0x1 PUSH1 0xA0 SHL SUB AND DUP3 PUSH1 0x0 DUP2 MLOAD DUP2 LT PUSH2 0x1511 JUMPI PUSH2 0x1511 PUSH2 0x2A90 JUMP JUMPDEST PUSH1 0x20 MUL PUSH1 0x20 ADD ADD MLOAD PUSH1 0x1 PUSH1 0x1 PUSH1 0xA0 SHL SUB AND EQ PUSH2 0x157F JUMPI PUSH1 0x40 MLOAD PUSH3 0x461BCD PUSH1 0xE5 SHL DUP2 MSTORE PUSH1 0x20 PUSH1 0x4 DUP3 ADD MSTORE PUSH1 0x27 PUSH1 0x24 DUP3 ADD MSTORE PUSH32 0x466972737420746F6B656E206D757374206D6174636820666C617368206C6F61 PUSH1 0x44 DUP3 ADD MSTORE PUSH7 0x37103A37B5B2B7 PUSH1 0xC9 SHL PUSH1 0x64 DUP3 ADD MSTORE PUSH1 0x84 ADD PUSH2 0x1F8 JUMP JUMPDEST DUP5 PUSH1 0x0 DUP1 JUMPDEST DUP6 MLOAD DUP2 LT ISZERO PUSH2 0x17E7 JUMPI DUP5 DUP2 DUP2 MLOAD DUP2 LT PUSH2 0x159F JUMPI PUSH2 0x159F PUSH2 0x2A90 JUMP JUMPDEST PUSH1 0x20 SWAP1 DUP2 MUL SWAP2 SWAP1 SWAP2 ADD ADD MLOAD PUSH1 0x1 SLOAD PUSH1 0x40 MLOAD PUSH4 0x95EA7B3 PUSH1 0xE0 SHL DUP2 MSTORE PUSH1 0x1 PUSH1 0x1 PUSH1 0xA0 SHL SUB SWAP3 DUP4 AND SWAP3 PUSH4 0x95EA7B3 SWAP3 PUSH2 0x15DD SWAP3 SWAP2 AND SWAP1 DUP8 SWAP1 PUSH1 0x4 ADD PUSH2 0x2979 JUMP JUMPDEST PUSH1 0x20 PUSH1 0x40 MLOAD DUP1 DUP4 SUB DUP2 PUSH1 0x0 DUP8 GAS CALL ISZERO DUP1 ISZERO PUSH2 0x15FC JUMPI RETURNDATASIZE PUSH1 0x0 DUP1 RETURNDATACOPY RETURNDATASIZE PUSH1 0x0 REVERT JUMPDEST POP POP POP POP PUSH1 0x40 MLOAD RETURNDATASIZE PUSH1 0x1F NOT PUSH1 0x1F DUP3 ADD AND DUP3 ADD DUP1 PUSH1 0x40 MSTORE POP DUP2 ADD SWAP1 PUSH2 0x1620 SWAP2 SWAP1 PUSH2 0x2992 JUMP JUMPDEST POP PUSH1 0x40 DUP1 MLOAD PUSH1 0x2 DUP1 DUP3 MSTORE PUSH1 0x60 DUP3 ADD DUP4 MSTORE PUSH1 0x0 SWAP3 PUSH1 0x20 DUP4 ADD SWAP1 DUP1 CALLDATASIZE DUP4 CALLDATACOPY ADD SWAP1 POP POP SWAP1 POP DUP6 DUP3 DUP2 MLOAD DUP2 LT PUSH2 0x1654 JUMPI PUSH2 0x1654 PUSH2 0x2A90 JUMP JUMPDEST PUSH1 0x20 MUL PUSH1 0x20 ADD ADD MLOAD DUP2 PUSH1 0x0 DUP2 MLOAD DUP2 LT PUSH2 0x166F JUMPI PUSH2 0x166F PUSH2 0x2A90 JUMP JUMPDEST PUSH1 0x1 PUSH1 0x1 PUSH1 0xA0 SHL SUB SWAP1 SWAP3 AND PUSH1 0x20 SWAP3 DUP4 MUL SWAP2 SWAP1 SWAP2 ADD SWAP1 SWAP2 ADD MSTORE DUP6 PUSH2 0x1693 DUP4 PUSH1 0x1 PUSH2 0x2C6B JUMP JUMPDEST DUP2 MLOAD DUP2 LT PUSH2 0x16A3 JUMPI PUSH2 0x16A3 PUSH2 0x2A90 JUMP JUMPDEST PUSH1 0x20 MUL PUSH1 0x20 ADD ADD MLOAD DUP2 PUSH1 0x1 DUP2 MLOAD DUP2 LT PUSH2 0x16BE JUMPI PUSH2 0x16BE PUSH2 0x2A90 JUMP JUMPDEST PUSH1 0x1 PUSH1 0x1 PUSH1 0xA0 SHL SUB SWAP1 SWAP3 AND PUSH1 0x20 SWAP3 DUP4 MUL SWAP2 SWAP1 SWAP2 ADD SWAP1 SWAP2 ADD MSTORE PUSH1 0x0 DUP3 ISZERO PUSH2 0x16E4 JUMPI DUP5 PUSH2 0x16FF JUMP JUMPDEST DUP6 DUP4 DUP2 MLOAD DUP2 LT PUSH2 0x16F6 JUMPI PUSH2 0x16F6 PUSH2 0x2A90 JUMP JUMPDEST PUSH1 0x20 MUL PUSH1 0x20 ADD ADD MLOAD JUMPDEST PUSH1 0x1 SLOAD SWAP1 SWAP2 POP PUSH1 0x0 SWAP1 PUSH1 0x1 PUSH1 0x1 PUSH1 0xA0 SHL SUB AND PUSH4 0x38ED1739 DUP4 DUP4 DUP7 ADDRESS PUSH2 0x1726 TIMESTAMP PUSH2 0x12C PUSH2 0x2C6B JUMP JUMPDEST PUSH1 0x40 MLOAD DUP7 PUSH4 0xFFFFFFFF AND PUSH1 0xE0 SHL DUP2 MSTORE PUSH1 0x4 ADD PUSH2 0x1746 SWAP6 SWAP5 SWAP4 SWAP3 SWAP2 SWAP1 PUSH2 0x2CA5 JUMP JUMPDEST PUSH1 0x0 PUSH1 0x40 MLOAD DUP1 DUP4 SUB DUP2 PUSH1 0x0 DUP8 GAS CALL ISZERO DUP1 ISZERO PUSH2 0x1765 JUMPI RETURNDATASIZE PUSH1 0x0 DUP1 RETURNDATACOPY RETURNDATASIZE PUSH1 0x0 REVERT JUMPDEST POP POP POP POP PUSH1 0x40 MLOAD RETURNDATASIZE PUSH1 0x0 DUP3 RETURNDATACOPY PUSH1 0x1F RETURNDATASIZE SWAP1 DUP2 ADD PUSH1 0x1F NOT AND DUP3 ADD PUSH1 0x40 MSTORE PUSH2 0x178D SWAP2 SWAP1 DUP2 ADD SWAP1 PUSH2 0x2D16 JUMP JUMPDEST SWAP1 POP DUP1 PUSH1 0x1 DUP3 MLOAD PUSH2 0x179E SWAP2 SWAP1 PUSH2 0x2DA7 JUMP JUMPDEST DUP2 MLOAD DUP2 LT PUSH2 0x17AE JUMPI PUSH2 0x17AE PUSH2 0x2A90 JUMP JUMPDEST PUSH1 0x20 MUL PUSH1 0x20 ADD ADD MLOAD SWAP6 POP PUSH1 0x1 DUP10 MLOAD PUSH2 0x17C6 SWAP2 SWAP1 PUSH2 0x2DA7 JUMP JUMPDEST DUP5 EQ ISZERO PUSH2 0x17D1 JUMPI DUP6 SWAP5 POP JUMPDEST POP POP POP DUP1 DUP1 PUSH2 0x17DF SWAP1 PUSH2 0x2DDB JUMP JUMPDEST SWAP2 POP POP PUSH2 0x1584 JUMP JUMPDEST POP DUP5 MLOAD SWAP1 SWAP2 POP DUP2 SWAP1 JUMPDEST DUP1 ISZERO PUSH2 0x1A00 JUMPI DUP5 DUP2 DUP2 MLOAD DUP2 LT PUSH2 0x1808 JUMPI PUSH2 0x1808 PUSH2 0x2A90 JUMP JUMPDEST PUSH1 0x20 SWAP1 DUP2 MUL SWAP2 SWAP1 SWAP2 ADD ADD MLOAD PUSH1 0x1 SLOAD PUSH1 0x40 MLOAD PUSH4 0x95EA7B3 PUSH1 0xE0 SHL DUP2 MSTORE PUSH1 0x1 PUSH1 0x1 PUSH1 0xA0 SHL SUB SWAP3 DUP4 AND SWAP3 PUSH4 0x95EA7B3 SWAP3 PUSH2 0x1846 SWAP3 SWAP2 AND SWAP1 DUP8 SWAP1 PUSH1 0x4 ADD PUSH2 0x2979 JUMP JUMPDEST PUSH1 0x20 PUSH1 0x40 MLOAD DUP1 DUP4 SUB DUP2 PUSH1 0x0 DUP8 GAS CALL ISZERO DUP1 ISZERO PUSH2 0x1865 JUMPI RETURNDATASIZE PUSH1 0x0 DUP1 RETURNDATACOPY RETURNDATASIZE PUSH1 0x0 REVERT JUMPDEST POP POP POP POP PUSH1 0x40 MLOAD RETURNDATASIZE PUSH1 0x1F NOT PUSH1 0x1F DUP3 ADD AND DUP3 ADD DUP1 PUSH1 0x40 MSTORE POP DUP2 ADD SWAP1 PUSH2 0x1889 SWAP2 SWAP1 PUSH2 0x2992 JUMP JUMPDEST POP PUSH1 0x40 DUP1 MLOAD PUSH1 0x2 DUP1 DUP3 MSTORE PUSH1 0x60 DUP3 ADD DUP4 MSTORE PUSH1 0x0 SWAP3 PUSH1 0x20 DUP4 ADD SWAP1 DUP1 CALLDATASIZE DUP4 CALLDATACOPY ADD SWAP1 POP POP SWAP1 POP DUP6 DUP3 DUP2 MLOAD DUP2 LT PUSH2 0x18BD JUMPI PUSH2 0x18BD PUSH2 0x2A90 JUMP JUMPDEST PUSH1 0x20 MUL PUSH1 0x20 ADD ADD MLOAD DUP2 PUSH1 0x0 DUP2 MLOAD DUP2 LT PUSH2 0x18D8 JUMPI PUSH2 0x18D8 PUSH2 0x2A90 JUMP JUMPDEST PUSH1 0x1 PUSH1 0x1 PUSH1 0xA0 SHL SUB SWAP1 SWAP3 AND PUSH1 0x20 SWAP3 DUP4 MUL SWAP2 SWAP1 SWAP2 ADD SWAP1 SWAP2 ADD MSTORE DUP6 PUSH2 0x18FC PUSH1 0x1 DUP5 PUSH2 0x2DA7 JUMP JUMPDEST DUP2 MLOAD DUP2 LT PUSH2 0x190C JUMPI PUSH2 0x190C PUSH2 0x2A90 JUMP JUMPDEST PUSH1 0x20 MUL PUSH1 0x20 ADD ADD MLOAD DUP2 PUSH1 0x1 DUP2 MLOAD DUP2 LT PUSH2 0x1927 JUMPI PUSH2 0x1927 PUSH2 0x2A90 JUMP JUMPDEST PUSH1 0x1 PUSH1 0x1 PUSH1 0xA0 SHL SUB SWAP3 DUP4 AND PUSH1 0x20 SWAP2 DUP3 MUL SWAP3 SWAP1 SWAP3 ADD ADD MSTORE PUSH1 0x1 SLOAD PUSH1 0x0 SWAP2 AND PUSH4 0x38ED1739 DUP7 DUP4 DUP6 ADDRESS PUSH2 0x1959 TIMESTAMP PUSH2 0x12C PUSH2 0x2C6B JUMP JUMPDEST PUSH1 0x40 MLOAD DUP7 PUSH4 0xFFFFFFFF AND PUSH1 0xE0 SHL DUP2 MSTORE PUSH1 0x4 ADD PUSH2 0x1979 SWAP6 SWAP5 SWAP4 SWAP3 SWAP2 SWAP1 PUSH2 0x2CA5 JUMP JUMPDEST PUSH1 0x0 PUSH1 0x40 MLOAD DUP1 DUP4 SUB DUP2 PUSH1 0x0 DUP8 GAS CALL ISZERO DUP1 ISZERO PUSH2 0x1998 JUMPI RETURNDATASIZE PUSH1 0x0 DUP1 RETURNDATACOPY RETURNDATASIZE PUSH1 0x0 REVERT JUMPDEST POP POP POP POP PUSH1 0x40 MLOAD RETURNDATASIZE PUSH1 0x0 DUP3 RETURNDATACOPY PUSH1 0x1F RETURNDATASIZE SWAP1 DUP2 ADD PUSH1 0x1F NOT AND DUP3 ADD PUSH1 0x40 MSTORE PUSH2 0x19C0 SWAP2 SWAP1 DUP2 ADD SWAP1 PUSH2 0x2D16 JUMP JUMPDEST SWAP1 POP DUP1 PUSH1 0x1 DUP3 MLOAD PUSH2 0x19D1 SWAP2 SWAP1 PUSH2 0x2DA7 JUMP JUMPDEST DUP2 MLOAD DUP2 LT PUSH2 0x19E1 JUMPI PUSH2 0x19E1 PUSH2 0x2A90 JUMP JUMPDEST PUSH1 0x20 MUL PUSH1 0x20 ADD ADD MLOAD SWAP5 POP POP POP DUP1 DUP1 PUSH2 0x19F8 SWAP1 PUSH2 0x2DF6 JUMP JUMPDEST SWAP2 POP POP PUSH2 0x17F0 JUMP JUMPDEST POP DUP2 PUSH1 0x0 DUP9 DUP3 GT ISZERO PUSH2 0x1A19 JUMPI PUSH2 0x1A16 DUP10 DUP4 PUSH2 0x2DA7 JUMP JUMPDEST SWAP1 POP JUMPDEST DUP8 DUP2 GT ISZERO PUSH2 0x1A32 JUMPI PUSH2 0x1A2B DUP9 DUP3 PUSH2 0x2DA7 JUMP JUMPDEST SWAP1 POP PUSH2 0x1A7A JUMP JUMPDEST PUSH1 0x40 MLOAD PUSH3 0x461BCD PUSH1 0xE5 SHL DUP2 MSTORE PUSH1 0x20 PUSH1 0x4 DUP3 ADD MSTORE PUSH1 0x1F PUSH1 0x24 DUP3 ADD MSTORE PUSH32 0x556E70726F66697461626C65206D756C74692D686F702073616E647769636800 PUSH1 0x44 DUP3 ADD MSTORE PUSH1 0x64 ADD PUSH2 0x1F8 JUMP JUMPDEST PUSH1 0x0 SLOAD PUSH1 0x40 MLOAD PUSH4 0xA9059CBB PUSH1 0xE0 SHL DUP2 MSTORE PUSH1 0x1 PUSH1 0x1 PUSH1 0xA0 SHL SUB DUP13 DUP2 AND SWAP3 PUSH4 0xA9059CBB SWAP3 PUSH2 0xFC7 SWAP3 SWAP1 SWAP2 AND SWAP1 DUP6 SWAP1 PUSH1 0x4 ADD PUSH2 0x2979 JUMP JUMPDEST PUSH1 0x0 PUSH2 0x1ABB PUSH1 0x2 DUP7 PUSH2 0x2C83 JUMP JUMPDEST SWAP1 POP PUSH1 0x0 PUSH2 0x1AC9 DUP3 DUP8 PUSH2 0x2DA7 JUMP JUMPDEST SWAP1 POP PUSH1 0x0 PUSH2 0x1AD7 DUP9 DUP5 PUSH2 0x1F7C JUMP JUMPDEST SWAP1 POP PUSH1 0x0 PUSH2 0x1AE7 DUP10 DUP5 DUP9 DUP9 PUSH2 0x22C7 JUMP JUMPDEST SWAP1 POP PUSH1 0x0 DUP5 DUP4 GT PUSH2 0x1AF9 JUMPI PUSH1 0x0 PUSH2 0x1B03 JUMP JUMPDEST PUSH2 0x1B03 DUP6 DUP5 PUSH2 0x2DA7 JUMP JUMPDEST SWAP1 POP PUSH1 0x0 DUP5 DUP4 GT PUSH2 0x1B15 JUMPI PUSH1 0x0 PUSH2 0x1B1F JUMP JUMPDEST PUSH2 0x1B1F DUP6 DUP5 PUSH2 0x2DA7 JUMP JUMPDEST SWAP1 POP PUSH1 0x0 PUSH2 0x1B2D DUP3 DUP5 PUSH2 0x2C6B JUMP JUMPDEST SWAP1 POP DUP10 DUP2 GT ISZERO PUSH2 0x1B48 JUMPI PUSH2 0x1B41 DUP11 DUP3 PUSH2 0x2DA7 JUMP JUMPDEST SWAP1 POP PUSH2 0x1B90 JUMP JUMPDEST PUSH1 0x40 MLOAD PUSH3 0x461BCD PUSH1 0xE5 SHL DUP2 MSTORE PUSH1 0x20 PUSH1 0x4 DUP3 ADD MSTORE PUSH1 0x1E PUSH1 0x24 DUP3 ADD MSTORE PUSH32 0x556E70726F66697461626C6520636F6D62696E65642073747261746567790000 PUSH1 0x44 DUP3 ADD MSTORE PUSH1 0x64 ADD PUSH2 0x1F8 JUMP JUMPDEST PUSH1 0x0 SLOAD PUSH1 0x40 MLOAD PUSH4 0xA9059CBB PUSH1 0xE0 SHL DUP2 MSTORE PUSH1 0x1 PUSH1 0x1 PUSH1 0xA0 SHL SUB DUP15 DUP2 AND SWAP3 PUSH4 0xA9059CBB SWAP3 PUSH2 0x1BC4 SWAP3 SWAP1 SWAP2 AND SWAP1 DUP6 SWAP1 PUSH1 0x4 ADD PUSH2 0x2979 JUMP JUMPDEST PUSH1 0x20 PUSH1 0x40 MLOAD DUP1 DUP4 SUB DUP2 PUSH1 0x0 DUP8 GAS CALL ISZERO DUP1 ISZERO PUSH2 0x1BE3 JUMPI RETURNDATASIZE PUSH1 0x0 DUP1 RETURNDATACOPY RETURNDATASIZE PUSH1 0x0 REVERT JUMPDEST POP POP POP POP PUSH1 0x40 MLOAD RETURNDATASIZE PUSH1 0x1F NOT PUSH1 0x1F DUP3 ADD AND DUP3 ADD DUP1 PUSH1 0x40 MSTORE POP DUP2 ADD SWAP1 PUSH2 0x1C07 SWAP2 SWAP1 PUSH2 0x2992 JUMP JUMPDEST POP POP POP POP POP POP POP POP POP POP POP POP POP JUMP JUMPDEST PUSH1 0x1 SLOAD PUSH1 0x40 MLOAD PUSH4 0x95EA7B3 PUSH1 0xE0 SHL DUP2 MSTORE PUSH1 0x0 SWAP2 PUSH1 0x1 PUSH1 0x1 PUSH1 0xA0 SHL SUB DUP1 DUP8 AND SWAP3 PUSH4 0x95EA7B3 SWAP3 PUSH2 0x1C4B SWAP3 AND SWAP1 DUP7 SWAP1 PUSH1 0x4 ADD PUSH2 0x2979 JUMP JUMPDEST PUSH1 0x20 PUSH1 0x40 MLOAD DUP1 DUP4 SUB DUP2 PUSH1 0x0 DUP8 GAS CALL ISZERO DUP1 ISZERO PUSH2 0x1C6A JUMPI RETURNDATASIZE PUSH1 0x0 DUP1 RETURNDATACOPY RETURNDATASIZE PUSH1 0x0 REVERT JUMPDEST POP POP POP POP PUSH1 0x40 MLOAD RETURNDATASIZE PUSH1 0x1F NOT PUSH1 0x1F DUP3 ADD AND DUP3 ADD DUP1 PUSH1 0x40 MSTORE POP DUP2 ADD SWAP1 PUSH2 0x1C8E SWAP2 SWAP1 PUSH2 0x2992 JUMP JUMPDEST POP PUSH1 0x40 DUP1 MLOAD PUSH1 0x2 DUP1 DUP3 MSTORE PUSH1 0x60 DUP3 ADD DUP4 MSTORE PUSH1 0x0 SWAP3 PUSH1 0x20 DUP4 ADD SWAP1 DUP1 CALLDATASIZE DUP4 CALLDATACOPY ADD SWAP1 POP POP SWAP1 POP DUP5 DUP2 PUSH1 0x0 DUP2 MLOAD DUP2 LT PUSH2 0x1CC4 JUMPI PUSH2 0x1CC4 PUSH2 0x2A90 JUMP JUMPDEST PUSH1 0x20 MUL PUSH1 0x20 ADD ADD SWAP1 PUSH1 0x1 PUSH1 0x1 PUSH1 0xA0 SHL SUB AND SWAP1 DUP2 PUSH1 0x1 PUSH1 0x1 PUSH1 0xA0 SHL SUB AND DUP2 MSTORE POP POP DUP4 DUP2 PUSH1 0x1 DUP2 MLOAD DUP2 LT PUSH2 0x1CF8 JUMPI PUSH2 0x1CF8 PUSH2 0x2A90 JUMP JUMPDEST PUSH1 0x1 PUSH1 0x1 PUSH1 0xA0 SHL SUB SWAP3 DUP4 AND PUSH1 0x20 SWAP2 DUP3 MUL SWAP3 SWAP1 SWAP3 ADD ADD MSTORE PUSH1 0x1 SLOAD PUSH1 0x0 SWAP2 AND PUSH4 0x38ED1739 DUP6 DUP4 DUP6 ADDRESS PUSH2 0x1D2A TIMESTAMP PUSH2 0x12C PUSH2 0x2C6B JUMP JUMPDEST PUSH1 0x40 MLOAD DUP7 PUSH4 0xFFFFFFFF AND PUSH1 0xE0 SHL DUP2 MSTORE PUSH1 0x4 ADD PUSH2 0x1D4A SWAP6 SWAP5 SWAP4 SWAP3 SWAP2 SWAP1 PUSH2 0x2CA5 JUMP JUMPDEST PUSH1 0x0 PUSH1 0x40 MLOAD DUP1 DUP4 SUB DUP2 PUSH1 0x0 DUP8 GAS CALL ISZERO DUP1 ISZERO PUSH2 0x1D69 JUMPI RETURNDATASIZE PUSH1 0x0 DUP1 RETURNDATACOPY RETURNDATASIZE PUSH1 0x0 REVERT JUMPDEST POP POP POP POP PUSH1 0x40 MLOAD RETURNDATASIZE PUSH1 0x0 DUP3 RETURNDATACOPY PUSH1 0x1F RETURNDATASIZE SWAP1 DUP2 ADD PUSH1 0x1F NOT AND DUP3 ADD PUSH1 0x40 MSTORE PUSH2 0x1D91 SWAP2 SWAP1 DUP2 ADD SWAP1 PUSH2 0x2D16 JUMP JUMPDEST SWAP1 POP DUP1 PUSH1 0x1 DUP3 MLOAD PUSH2 0x1DA2 SWAP2 SWAP1 PUSH2 0x2DA7 JUMP JUMPDEST DUP2 MLOAD DUP2 LT PUSH2 0x1DB2 JUMPI PUSH2 0x1DB2 PUSH2 0x2A90 JUMP JUMPDEST PUSH1 0x20 MUL PUSH1 0x20 ADD ADD MLOAD SWAP3 POP POP POP SWAP4 SWAP3 POP POP POP JUMP JUMPDEST PUSH1 0x1 SLOAD PUSH1 0x40 MLOAD PUSH4 0x95EA7B3 PUSH1 0xE0 SHL DUP2 MSTORE PUSH1 0x0 SWAP2 PUSH1 0x1 PUSH1 0x1 PUSH1 0xA0 SHL SUB DUP1 DUP7 AND SWAP3 PUSH4 0x95EA7B3 SWAP3 PUSH2 0x1DFA SWAP3 AND SWAP1 DUP7 SWAP1 PUSH1 0x4 ADD PUSH2 0x2979 JUMP JUMPDEST PUSH1 0x20 PUSH1 0x40 MLOAD DUP1 DUP4 SUB DUP2 PUSH1 0x0 DUP8 GAS CALL ISZERO DUP1 ISZERO PUSH2 0x1E19 JUMPI RETURNDATASIZE PUSH1 0x0 DUP1 RETURNDATACOPY RETURNDATASIZE PUSH1 0x0 REVERT JUMPDEST POP POP POP POP PUSH1 0x40 MLOAD RETURNDATASIZE PUSH1 0x1F NOT PUSH1 0x1F DUP3 ADD AND DUP3 ADD DUP1 PUSH1 0x40 MSTORE POP DUP2 ADD SWAP1 PUSH2 0x1E3D SWAP2 SWAP1 PUSH2 0x2992 JUMP JUMPDEST POP PUSH1 0x40 DUP1 MLOAD PUSH1 0x2 DUP1 DUP3 MSTORE PUSH1 0x60 DUP3 ADD DUP4 MSTORE PUSH1 0x0 SWAP3 PUSH1 0x20 DUP4 ADD SWAP1 DUP1 CALLDATASIZE DUP4 CALLDATACOPY ADD SWAP1 POP POP SWAP1 POP DUP4 DUP2 PUSH1 0x0 DUP2 MLOAD DUP2 LT PUSH2 0x1E73 JUMPI PUSH2 0x1E73 PUSH2 0x2A90 JUMP JUMPDEST PUSH1 0x20 MUL PUSH1 0x20 ADD ADD SWAP1 PUSH1 0x1 PUSH1 0x1 PUSH1 0xA0 SHL SUB AND SWAP1 DUP2 PUSH1 0x1 PUSH1 0x1 PUSH1 0xA0 SHL SUB AND DUP2 MSTORE POP POP DUP5 DUP2 PUSH1 0x1 DUP2 MLOAD DUP2 LT PUSH2 0x1CF8 JUMPI PUSH2 0x1CF8 PUSH2 0x2A90 JUMP JUMPDEST PUSH1 0x2 SLOAD PUSH1 0x40 DUP1 MLOAD PUSH1 0x1 PUSH1 0x1 PUSH1 0xA0 SHL SUB DUP7 DUP2 AND DUP3 MSTORE PUSH1 0x20 DUP3 ADD DUP7 SWAP1 MSTORE SWAP2 DUP2 ADD DUP5 SWAP1 MSTORE DUP7 DUP3 AND SWAP3 SWAP2 SWAP1 SWAP2 AND SWAP1 PUSH32 0x7A62EC736327D3EFAEBD2EB5695D0F27201B659E9378D8E83403A64101B6081B SWAP1 PUSH1 0x60 ADD PUSH1 0x40 MLOAD DUP1 SWAP2 SUB SWAP1 LOG3 PUSH1 0x0 SLOAD PUSH1 0x40 MLOAD PUSH4 0xA9059CBB PUSH1 0xE0 SHL DUP2 MSTORE PUSH1 0x1 PUSH1 0x1 PUSH1 0xA0 SHL SUB DUP6 DUP2 AND SWAP3 PUSH4 0xA9059CBB SWAP3 PUSH2 0x1F32 SWAP3 SWAP1 SWAP2 AND SWAP1 DUP6 SWAP1 PUSH1 0x4 ADD PUSH2 0x2979 JUMP JUMPDEST PUSH1 0x20 PUSH1 0x40 MLOAD DUP1 DUP4 SUB DUP2 PUSH1 0x0 DUP8 GAS CALL ISZERO DUP1 ISZERO PUSH2 0x1F51 JUMPI RETURNDATASIZE PUSH1 0x0 DUP1 RETURNDATACOPY RETURNDATASIZE PUSH1 0x0 REVERT JUMPDEST POP POP POP POP PUSH1 0x40 MLOAD RETURNDATASIZE PUSH1 0x1F NOT PUSH1 0x1F DUP3 ADD AND DUP3 ADD DUP1 PUSH1 0x40 MSTORE POP DUP2 ADD SWAP1 PUSH2 0x1F75 SWAP2 SWAP1 PUSH2 0x2992 JUMP JUMPDEST POP POP POP POP POP JUMP JUMPDEST PUSH1 0x1 SLOAD PUSH1 0x40 MLOAD PUSH4 0x95EA7B3 PUSH1 0xE0 SHL DUP2 MSTORE PUSH1 0x0 SWAP2 PUSH1 0x1 PUSH1 0x1 PUSH1 0xA0 SHL SUB DUP1 DUP7 AND SWAP3 PUSH4 0x95EA7B3 SWAP3 PUSH2 0x1FB1 SWAP3 AND SWAP1 DUP7 SWAP1 PUSH1 0x4 ADD PUSH2 0x2979 JUMP JUMPDEST PUSH1 0x20 PUSH1 0x40 MLOAD DUP1 DUP4 SUB DUP2 PUSH1 0x0 DUP8 GAS CALL ISZERO DUP1 ISZERO PUSH2 0x1FD0 JUMPI RETURNDATASIZE PUSH1 0x0 DUP1 RETURNDATACOPY RETURNDATASIZE PUSH1 0x0 REVERT JUMPDEST POP POP POP POP PUSH1 0x40 MLOAD RETURNDATASIZE PUSH1 0x1F NOT PUSH1 0x1F DUP3 ADD AND DUP3 ADD DUP1 PUSH1 0x40 MSTORE POP DUP2 ADD SWAP1 PUSH2 0x1FF4 SWAP2 SWAP1 PUSH2 0x2992 JUMP JUMPDEST POP PUSH1 0x40 DUP1 MLOAD PUSH1 0x2 DUP1 DUP3 MSTORE PUSH1 0x60 DUP3 ADD DUP4 MSTORE PUSH1 0x0 SWAP3 PUSH1 0x20 DUP4 ADD SWAP1 DUP1 CALLDATASIZE DUP4 CALLDATACOPY ADD SWAP1 POP POP SWAP1 POP DUP4 DUP2 PUSH1 0x0 DUP2 MLOAD DUP2 LT PUSH2 0x202A JUMPI PUSH2 0x202A PUSH2 0x2A90 JUMP JUMPDEST PUSH1 0x1 PUSH1 0x1 PUSH1 0xA0 SHL SUB SWAP3 DUP4 AND PUSH1 0x20 SWAP2 DUP3 MUL SWAP3 SWAP1 SWAP3 ADD ADD MSTORE PUSH1 0x4 SLOAD DUP3 MLOAD SWAP2 AND SWAP1 DUP3 SWAP1 PUSH1 0x1 SWAP1 DUP2 LT PUSH2 0x205B JUMPI PUSH2 0x205B PUSH2 0x2A90 JUMP JUMPDEST PUSH1 0x1 PUSH1 0x1 PUSH1 0xA0 SHL SUB SWAP3 DUP4 AND PUSH1 0x20 SWAP2 DUP3 MUL SWAP3 SWAP1 SWAP3 ADD ADD MSTORE PUSH1 0x1 SLOAD PUSH1 0x0 SWAP2 AND PUSH4 0x38ED1739 DUP6 DUP4 DUP6 ADDRESS PUSH2 0x208D TIMESTAMP PUSH2 0x12C PUSH2 0x2C6B JUMP JUMPDEST PUSH1 0x40 MLOAD DUP7 PUSH4 0xFFFFFFFF AND PUSH1 0xE0 SHL DUP2 MSTORE PUSH1 0x4 ADD PUSH2 0x20AD SWAP6 SWAP5 SWAP4 SWAP3 SWAP2 SWAP1 PUSH2 0x2CA5 JUMP JUMPDEST PUSH1 0x0 PUSH1 0x40 MLOAD DUP1 DUP4 SUB DUP2 PUSH1 0x0 DUP8 GAS CALL ISZERO DUP1 ISZERO PUSH2 0x20CC JUMPI RETURNDATASIZE PUSH1 0x0 DUP1 RETURNDATACOPY RETURNDATASIZE PUSH1 0x0 REVERT JUMPDEST POP POP POP POP PUSH1 0x40 MLOAD RETURNDATASIZE PUSH1 0x0 DUP3 RETURNDATACOPY PUSH1 0x1F RETURNDATASIZE SWAP1 DUP2 ADD PUSH1 0x1F NOT AND DUP3 ADD PUSH1 0x40 MSTORE PUSH2 0x20F4 SWAP2 SWAP1 DUP2 ADD SWAP1 PUSH2 0x2D16 JUMP JUMPDEST SWAP1 POP PUSH1 0x0 DUP2 PUSH1 0x1 DUP4 MLOAD PUSH2 0x2107 SWAP2 SWAP1 PUSH2 0x2DA7 JUMP JUMPDEST DUP2 MLOAD DUP2 LT PUSH2 0x2117 JUMPI PUSH2 0x2117 PUSH2 0x2A90 JUMP JUMPDEST PUSH1 0x20 MUL PUSH1 0x20 ADD ADD MLOAD SWAP1 POP PUSH1 0x4 PUSH1 0x0 SWAP1 SLOAD SWAP1 PUSH2 0x100 EXP SWAP1 DIV PUSH1 0x1 PUSH1 0x1 PUSH1 0xA0 SHL SUB AND DUP4 PUSH1 0x0 DUP2 MLOAD DUP2 LT PUSH2 0x214A JUMPI PUSH2 0x214A PUSH2 0x2A90 JUMP JUMPDEST PUSH1 0x20 MUL PUSH1 0x20 ADD ADD SWAP1 PUSH1 0x1 PUSH1 0x1 PUSH1 0xA0 SHL SUB AND SWAP1 DUP2 PUSH1 0x1 PUSH1 0x1 PUSH1 0xA0 SHL SUB AND DUP2 MSTORE POP POP DUP6 DUP4 PUSH1 0x1 DUP2 MLOAD DUP2 LT PUSH2 0x217E JUMPI PUSH2 0x217E PUSH2 0x2A90 JUMP JUMPDEST PUSH1 0x1 PUSH1 0x1 PUSH1 0xA0 SHL SUB SWAP3 DUP4 AND PUSH1 0x20 SWAP2 DUP3 MUL SWAP3 SWAP1 SWAP3 ADD ADD MSTORE PUSH1 0x4 DUP1 SLOAD PUSH1 0x1 SLOAD PUSH1 0x40 MLOAD PUSH4 0x95EA7B3 PUSH1 0xE0 SHL DUP2 MSTORE SWAP2 DUP5 AND SWAP4 PUSH4 0x95EA7B3 SWAP4 PUSH2 0x21C3 SWAP4 SWAP3 SWAP1 SWAP2 AND SWAP2 DUP7 SWAP2 ADD PUSH2 0x2979 JUMP JUMPDEST PUSH1 0x20 PUSH1 0x40 MLOAD DUP1 DUP4 SUB DUP2 PUSH1 0x0 DUP8 GAS CALL ISZERO DUP1 ISZERO PUSH2 0x21E2 JUMPI RETURNDATASIZE PUSH1 0x0 DUP1 RETURNDATACOPY RETURNDATASIZE PUSH1 0x0 REVERT JUMPDEST POP POP POP POP PUSH1 0x40 MLOAD RETURNDATASIZE PUSH1 0x1F NOT PUSH1 0x1F DUP3 ADD AND DUP3 ADD DUP1 PUSH1 0x40 MSTORE POP DUP2 ADD SWAP1 PUSH2 0x2206 SWAP2 SWAP1 PUSH2 0x2992 JUMP JUMPDEST POP PUSH1 0x1 SLOAD PUSH1 0x0 SWAP1 PUSH1 0x1 PUSH1 0x1 PUSH1 0xA0 SHL SUB AND PUSH4 0x38ED1739 DUP4 DUP4 DUP8 ADDRESS PUSH2 0x222B TIMESTAMP PUSH2 0x12C PUSH2 0x2C6B JUMP JUMPDEST PUSH1 0x40 MLOAD DUP7 PUSH4 0xFFFFFFFF AND PUSH1 0xE0 SHL DUP2 MSTORE PUSH1 0x4 ADD PUSH2 0x224B SWAP6 SWAP5 SWAP4 SWAP3 SWAP2 SWAP1 PUSH2 0x2CA5 JUMP JUMPDEST PUSH1 0x0 PUSH1 0x40 MLOAD DUP1 DUP4 SUB DUP2 PUSH1 0x0 DUP8 GAS CALL ISZERO DUP1 ISZERO PUSH2 0x226A JUMPI RETURNDATASIZE PUSH1 0x0 DUP1 RETURNDATACOPY RETURNDATASIZE PUSH1 0x0 REVERT JUMPDEST POP POP POP POP PUSH1 0x40 MLOAD RETURNDATASIZE PUSH1 0x0 DUP3 RETURNDATACOPY PUSH1 0x1F RETURNDATASIZE SWAP1 DUP2 ADD PUSH1 0x1F NOT AND DUP3 ADD PUSH1 0x40 MSTORE PUSH2 0x2292 SWAP2 SWAP1 DUP2 ADD SWAP1 PUSH2 0x2D16 JUMP JUMPDEST SWAP1 POP DUP1 PUSH1 0x1 DUP3 MLOAD PUSH2 0x22A3 SWAP2 SWAP1 PUSH2 0x2DA7 JUMP JUMPDEST DUP2 MLOAD DUP2 LT PUSH2 0x22B3 JUMPI PUSH2 0x22B3 PUSH2 0x2A90 JUMP JUMPDEST PUSH1 0x20 MUL PUSH1 0x20 ADD ADD MLOAD SWAP5 POP POP POP POP POP SWAP3 SWAP2 POP POP JUMP JUMPDEST PUSH1 0x0 DUP1 DUP4 SWAP1 POP PUSH1 0x0 DUP2 PUSH1 0x1 PUSH1 0x1 PUSH1 0xA0 SHL SUB AND PUSH4 0xDFE1681 PUSH1 0x40 MLOAD DUP2 PUSH4 0xFFFFFFFF AND PUSH1 0xE0 SHL DUP2 MSTORE PUSH1 0x4 ADD PUSH1 0x20 PUSH1 0x40 MLOAD DUP1 DUP4 SUB DUP2 DUP7 GAS STATICCALL ISZERO DUP1 ISZERO PUSH2 0x230D JUMPI RETURNDATASIZE PUSH1 0x0 DUP1 RETURNDATACOPY RETURNDATASIZE PUSH1 0x0 REVERT JUMPDEST POP POP POP POP PUSH1 0x40 MLOAD RETURNDATASIZE PUSH1 0x1F NOT PUSH1 0x1F DUP3 ADD AND DUP3 ADD DUP1 PUSH1 0x40 MSTORE POP DUP2 ADD SWAP1 PUSH2 0x2331 SWAP2 SWAP1 PUSH2 0x2DBE JUMP JUMPDEST SWAP1 POP PUSH1 0x0 DUP3 PUSH1 0x1 PUSH1 0x1 PUSH1 0xA0 SHL SUB AND PUSH4 0xD21220A7 PUSH1 0x40 MLOAD DUP2 PUSH4 0xFFFFFFFF AND PUSH1 0xE0 SHL DUP2 MSTORE PUSH1 0x4 ADD PUSH1 0x20 PUSH1 0x40 MLOAD DUP1 DUP4 SUB DUP2 DUP7 GAS STATICCALL ISZERO DUP1 ISZERO PUSH2 0x2373 JUMPI RETURNDATASIZE PUSH1 0x0 DUP1 RETURNDATACOPY RETURNDATASIZE PUSH1 0x0 REVERT JUMPDEST POP POP POP POP PUSH1 0x40 MLOAD RETURNDATASIZE PUSH1 0x1F NOT PUSH1 0x1F DUP3 ADD AND DUP3 ADD DUP1 PUSH1 0x40 MSTORE POP DUP2 ADD SWAP1 PUSH2 0x2397 SWAP2 SWAP1 PUSH2 0x2DBE JUMP JUMPDEST SWAP1 POP PUSH1 0x0 DUP3 PUSH1 0x1 PUSH1 0x1 PUSH1 0xA0 SHL SUB AND DUP10 PUSH1 0x1 PUSH1 0x1 PUSH1 0xA0 SHL SUB AND EQ PUSH2 0x23BA JUMPI DUP3 PUSH2 0x23BC JUMP JUMPDEST DUP2 JUMPDEST PUSH1 0x1 SLOAD PUSH1 0x40 MLOAD PUSH4 0x95EA7B3 PUSH1 0xE0 SHL DUP2 MSTORE SWAP2 SWAP3 POP PUSH1 0x1 PUSH1 0x1 PUSH1 0xA0 SHL SUB DUP1 DUP13 AND SWAP3 PUSH4 0x95EA7B3 SWAP3 PUSH2 0x23F1 SWAP3 AND SWAP1 DUP13 SWAP1 PUSH1 0x4 ADD PUSH2 0x2979 JUMP JUMPDEST PUSH1 0x20 PUSH1 0x40 MLOAD DUP1 DUP4 SUB DUP2 PUSH1 0x0 DUP8 GAS CALL ISZERO DUP1 ISZERO PUSH2 0x2410 JUMPI RETURNDATASIZE PUSH1 0x0 DUP1 RETURNDATACOPY RETURNDATASIZE PUSH1 0x0 REVERT JUMPDEST POP POP POP POP PUSH1 0x40 MLOAD RETURNDATASIZE PUSH1 0x1F NOT PUSH1 0x1F DUP3 ADD AND DUP3 ADD DUP1 PUSH1 0x40 MSTORE POP DUP2 ADD SWAP1 PUSH2 0x2434 SWAP2 SWAP1 PUSH2 0x2992 JUMP JUMPDEST POP PUSH1 0x40 DUP1 MLOAD PUSH1 0x2 DUP1 DUP3 MSTORE PUSH1 0x60 DUP3 ADD DUP4 MSTORE PUSH1 0x0 SWAP3 PUSH1 0x20 DUP4 ADD SWAP1 DUP1 CALLDATASIZE DUP4 CALLDATACOPY ADD SWAP1 POP POP SWAP1 POP DUP10 DUP2 PUSH1 0x0 DUP2 MLOAD DUP2 LT PUSH2 0x246A JUMPI PUSH2 0x246A PUSH2 0x2A90 JUMP JUMPDEST PUSH1 0x20 MUL PUSH1 0x20 ADD ADD SWAP1 PUSH1 0x1 PUSH1 0x1 PUSH1 0xA0 SHL SUB AND SWAP1 DUP2 PUSH1 0x1 PUSH1 0x1 PUSH1 0xA0 SHL SUB AND DUP2 MSTORE POP POP DUP2 DUP2 PUSH1 0x1 DUP2 MLOAD DUP2 LT PUSH2 0x249E JUMPI PUSH2 0x249E PUSH2 0x2A90 JUMP JUMPDEST PUSH1 0x1 PUSH1 0x1 PUSH1 0xA0 SHL SUB SWAP3 DUP4 AND PUSH1 0x20 SWAP2 DUP3 MUL SWAP3 SWAP1 SWAP3 ADD ADD MSTORE PUSH1 0x1 SLOAD PUSH1 0x0 SWAP2 AND PUSH4 0x38ED1739 DUP12 DUP4 DUP6 ADDRESS PUSH2 0x24D0 TIMESTAMP PUSH2 0x12C PUSH2 0x2C6B JUMP JUMPDEST PUSH1 0x40 MLOAD DUP7 PUSH4 0xFFFFFFFF AND PUSH1 0xE0 SHL DUP2 MSTORE PUSH1 0x4 ADD PUSH2 0x24F0 SWAP6 SWAP5 SWAP4 SWAP3 SWAP2 SWAP1 PUSH2 0x2CA5 JUMP JUMPDEST PUSH1 0x0 PUSH1 0x40 MLOAD DUP1 DUP4 SUB DUP2 PUSH1 0x0 DUP8 GAS CALL ISZERO DUP1 ISZERO PUSH2 0x250F JUMPI RETURNDATASIZE PUSH1 0x0 DUP1 RETURNDATACOPY RETURNDATASIZE PUSH1 0x0 REVERT JUMPDEST POP POP POP POP PUSH1 0x40 MLOAD RETURNDATASIZE PUSH1 0x0 DUP3 RETURNDATACOPY PUSH1 0x1F RETURNDATASIZE SWAP1 DUP2 ADD PUSH1 0x1F NOT AND DUP3 ADD PUSH1 0x40 MSTORE PUSH2 0x2537 SWAP2 SWAP1 DUP2 ADD SWAP1 PUSH2 0x2D16 JUMP JUMPDEST SWAP1 POP PUSH1 0x0 DUP2 PUSH1 0x1 DUP4 MLOAD PUSH2 0x254A SWAP2 SWAP1 PUSH2 0x2DA7 JUMP JUMPDEST DUP2 MLOAD DUP2 LT PUSH2 0x255A JUMPI PUSH2 0x255A PUSH2 0x2A90 JUMP JUMPDEST PUSH1 0x20 MUL PUSH1 0x20 ADD ADD MLOAD SWAP1 POP DUP4 DUP4 PUSH1 0x0 DUP2 MLOAD DUP2 LT PUSH2 0x2578 JUMPI PUSH2 0x2578 PUSH2 0x2A90 JUMP JUMPDEST PUSH1 0x20 MUL PUSH1 0x20 ADD ADD SWAP1 PUSH1 0x1 PUSH1 0x1 PUSH1 0xA0 SHL SUB AND SWAP1 DUP2 PUSH1 0x1 PUSH1 0x1 PUSH1 0xA0 SHL SUB AND DUP2 MSTORE POP POP DUP12 DUP4 PUSH1 0x1 DUP2 MLOAD DUP2 LT PUSH2 0x25AC JUMPI PUSH2 0x25AC PUSH2 0x2A90 JUMP JUMPDEST PUSH1 0x1 PUSH1 0x1 PUSH1 0xA0 SHL SUB SWAP3 DUP4 AND PUSH1 0x20 SWAP2 DUP3 MUL SWAP3 SWAP1 SWAP3 ADD ADD MSTORE PUSH1 0x1 SLOAD PUSH1 0x40 MLOAD PUSH4 0x95EA7B3 PUSH1 0xE0 SHL DUP2 MSTORE DUP7 DUP4 AND SWAP3 PUSH4 0x95EA7B3 SWAP3 PUSH2 0x25ED SWAP3 SWAP2 AND SWAP1 DUP6 SWAP1 PUSH1 0x4 ADD PUSH2 0x2979 JUMP JUMPDEST PUSH1 0x20 PUSH1 0x40 MLOAD DUP1 DUP4 SUB DUP2 PUSH1 0x0 DUP8 GAS CALL ISZERO DUP1 ISZERO PUSH2 0x260C JUMPI RETURNDATASIZE PUSH1 0x0 DUP1 RETURNDATACOPY RETURNDATASIZE PUSH1 0x0 REVERT JUMPDEST POP POP POP POP PUSH1 0x40 MLOAD RETURNDATASIZE PUSH1 0x1F NOT PUSH1 0x1F DUP3 ADD AND DUP3 ADD DUP1 PUSH1 0x40 MSTORE POP DUP2 ADD SWAP1 PUSH2 0x2630 SWAP2 SWAP1 PUSH2 0x2992 JUMP JUMPDEST POP PUSH1 0x1 SLOAD PUSH1 0x0 SWAP1 PUSH1 0x1 PUSH1 0x1 PUSH1 0xA0 SHL SUB AND PUSH4 0x38ED1739 DUP4 DUP4 DUP8 ADDRESS PUSH2 0x2655 TIMESTAMP PUSH2 0x12C PUSH2 0x2C6B JUMP JUMPDEST PUSH1 0x40 MLOAD DUP7 PUSH4 0xFFFFFFFF AND PUSH1 0xE0 SHL DUP2 MSTORE PUSH1 0x4 ADD PUSH2 0x2675 SWAP6 SWAP5 SWAP4 SWAP3 SWAP2 SWAP1 PUSH2 0x2CA5 JUMP JUMPDEST PUSH1 0x0 PUSH1 0x40 MLOAD DUP1 DUP4 SUB DUP2 PUSH1 0x0 DUP8 GAS CALL ISZERO DUP1 ISZERO PUSH2 0x2694 JUMPI RETURNDATASIZE PUSH1 0x0 DUP1 RETURNDATACOPY RETURNDATASIZE PUSH1 0x0 REVERT JUMPDEST POP POP POP POP PUSH1 0x40 MLOAD RETURNDATASIZE PUSH1 0x0 DUP3 RETURNDATACOPY PUSH1 0x1F RETURNDATASIZE SWAP1 DUP2 ADD PUSH1 0x1F NOT AND DUP3 ADD PUSH1 0x40 MSTORE PUSH2 0x26BC SWAP2 SWAP1 DUP2 ADD SWAP1 PUSH2 0x2D16 JUMP JUMPDEST SWAP1 POP DUP1 PUSH1 0x1 DUP3 MLOAD PUSH2 0x26CD SWAP2 SWAP1 PUSH2 0x2DA7 JUMP JUMPDEST DUP2 MLOAD DUP2 LT PUSH2 0x26DD JUMPI PUSH2 0x26DD PUSH2 0x2A90 JUMP JUMPDEST PUSH1 0x20 MUL PUSH1 0x20 ADD ADD MLOAD SWAP9 POP POP POP POP POP POP POP POP POP SWAP5 SWAP4 POP POP POP POP JUMP JUMPDEST PUSH1 0x1 PUSH1 0x1 PUSH1 0xA0 SHL SUB DUP2 AND DUP2 EQ PUSH2 0x270C JUMPI PUSH1 0x0 DUP1 REVERT JUMPDEST POP JUMP JUMPDEST PUSH1 0x0 PUSH1 0x20 DUP3 DUP5 SUB SLT ISZERO PUSH2 0x2721 JUMPI PUSH1 0x0 DUP1 REVERT JUMPDEST DUP2 CALLDATALOAD PUSH2 0x272C DUP2 PUSH2 0x26F7 JUMP JUMPDEST SWAP4 SWAP3 POP POP POP JUMP JUMPDEST PUSH1 0x0 DUP1 DUP4 PUSH1 0x1F DUP5 ADD SLT PUSH2 0x2745 JUMPI PUSH1 0x0 DUP1 REVERT JUMPDEST POP DUP2 CALLDATALOAD PUSH8 0xFFFFFFFFFFFFFFFF DUP2 GT ISZERO PUSH2 0x275D JUMPI PUSH1 0x0 DUP1 REVERT JUMPDEST PUSH1 0x20 DUP4 ADD SWAP2 POP DUP4 PUSH1 0x20 DUP3 PUSH1 0x5 SHL DUP6 ADD ADD GT ISZERO PUSH2 0x2778 JUMPI PUSH1 0x0 DUP1 REVERT JUMPDEST SWAP3 POP SWAP3 SWAP1 POP JUMP JUMPDEST PUSH1 0x0 DUP1 DUP4 PUSH1 0x1F DUP5 ADD SLT PUSH2 0x2791 JUMPI PUSH1 0x0 DUP1 REVERT JUMPDEST POP DUP2 CALLDATALOAD PUSH8 0xFFFFFFFFFFFFFFFF DUP2 GT ISZERO PUSH2 0x27A9 JUMPI PUSH1 0x0 DUP1 REVERT JUMPDEST PUSH1 0x20 DUP4 ADD SWAP2 POP DUP4 PUSH1 0x20 DUP3 DUP6 ADD ADD GT ISZERO PUSH2 0x2778 JUMPI PUSH1 0x0 DUP1 REVERT JUMPDEST PUSH1 0x0 DUP1 PUSH1 0x0 DUP1 PUSH1 0x0 DUP1 PUSH1 0x0 DUP1 PUSH1 0x0 PUSH1 0xA0 DUP11 DUP13 SUB SLT ISZERO PUSH2 0x27DF JUMPI PUSH1 0x0 DUP1 REVERT JUMPDEST DUP10 CALLDATALOAD PUSH8 0xFFFFFFFFFFFFFFFF DUP1 DUP3 GT ISZERO PUSH2 0x27F7 JUMPI PUSH1 0x0 DUP1 REVERT JUMPDEST PUSH2 0x2803 DUP14 DUP4 DUP15 ADD PUSH2 0x2733 JUMP JUMPDEST SWAP1 SWAP12 POP SWAP10 POP PUSH1 0x20 DUP13 ADD CALLDATALOAD SWAP2 POP DUP1 DUP3 GT ISZERO PUSH2 0x281C JUMPI PUSH1 0x0 DUP1 REVERT JUMPDEST PUSH2 0x2828 DUP14 DUP4 DUP15 ADD PUSH2 0x2733 JUMP JUMPDEST SWAP1 SWAP10 POP SWAP8 POP PUSH1 0x40 DUP13 ADD CALLDATALOAD SWAP2 POP DUP1 DUP3 GT ISZERO PUSH2 0x2841 JUMPI PUSH1 0x0 DUP1 REVERT JUMPDEST PUSH2 0x284D DUP14 DUP4 DUP15 ADD PUSH2 0x2733 JUMP JUMPDEST SWAP1 SWAP8 POP SWAP6 POP PUSH1 0x60 DUP13 ADD CALLDATALOAD SWAP2 POP PUSH2 0x2862 DUP3 PUSH2 0x26F7 JUMP JUMPDEST SWAP1 SWAP4 POP PUSH1 0x80 DUP12 ADD CALLDATALOAD SWAP1 DUP1 DUP3 GT ISZERO PUSH2 0x2878 JUMPI PUSH1 0x0 DUP1 REVERT JUMPDEST POP PUSH2 0x2885 DUP13 DUP3 DUP14 ADD PUSH2 0x277F JUMP JUMPDEST SWAP2 POP DUP1 SWAP4 POP POP DUP1 SWAP2 POP POP SWAP3 SWAP6 SWAP9 POP SWAP3 SWAP6 SWAP9 POP SWAP3 SWAP6 SWAP9 JUMP JUMPDEST PUSH1 0x0 DUP1 PUSH1 0x0 DUP1 PUSH1 0x0 DUP1 PUSH1 0x0 DUP1 PUSH1 0x80 DUP10 DUP12 SUB SLT ISZERO PUSH2 0x28B8 JUMPI PUSH1 0x0 DUP1 REVERT JUMPDEST DUP9 CALLDATALOAD PUSH8 0xFFFFFFFFFFFFFFFF DUP1 DUP3 GT ISZERO PUSH2 0x28D0 JUMPI PUSH1 0x0 DUP1 REVERT JUMPDEST PUSH2 0x28DC DUP13 DUP4 DUP14 ADD PUSH2 0x2733 JUMP JUMPDEST SWAP1 SWAP11 POP SWAP9 POP PUSH1 0x20 DUP12 ADD CALLDATALOAD SWAP2 POP DUP1 DUP3 GT ISZERO PUSH2 0x28F5 JUMPI PUSH1 0x0 DUP1 REVERT JUMPDEST PUSH2 0x2901 DUP13 DUP4 DUP14 ADD PUSH2 0x2733 JUMP JUMPDEST SWAP1 SWAP9 POP SWAP7 POP PUSH1 0x40 DUP12 ADD CALLDATALOAD SWAP2 POP DUP1 DUP3 GT ISZERO PUSH2 0x291A JUMPI PUSH1 0x0 DUP1 REVERT JUMPDEST PUSH2 0x2926 DUP13 DUP4 DUP14 ADD PUSH2 0x2733 JUMP JUMPDEST SWAP1 SWAP7 POP SWAP5 POP PUSH1 0x60 DUP12 ADD CALLDATALOAD SWAP2 POP DUP1 DUP3 GT ISZERO PUSH2 0x293F JUMPI PUSH1 0x0 DUP1 REVERT JUMPDEST POP PUSH2 0x294C DUP12 DUP3 DUP13 ADD PUSH2 0x277F JUMP JUMPDEST SWAP10 SWAP13 SWAP9 SWAP12 POP SWAP7 SWAP10 POP SWAP5 SWAP8 SWAP4 SWAP7 SWAP3 SWAP6 SWAP5 POP POP POP JUMP JUMPDEST PUSH1 0x0 PUSH1 0x20 DUP3 DUP5 SUB SLT ISZERO PUSH2 0x2972 JUMPI PUSH1 0x0 DUP1 REVERT JUMPDEST POP MLOAD SWAP2 SWAP1 POP JUMP JUMPDEST PUSH1 0x1 PUSH1 0x1 PUSH1 0xA0 SHL SUB SWAP3 SWAP1 SWAP3 AND DUP3 MSTORE PUSH1 0x20 DUP3 ADD MSTORE PUSH1 0x40 ADD SWAP1 JUMP JUMPDEST PUSH1 0x0 PUSH1 0x20 DUP3 DUP5 SUB SLT ISZERO PUSH2 0x29A4 JUMPI PUSH1 0x0 DUP1 REVERT JUMPDEST DUP2 MLOAD DUP1 ISZERO ISZERO DUP2 EQ PUSH2 0x272C JUMPI PUSH1 0x0 DUP1 REVERT JUMPDEST PUSH4 0x4E487B71 PUSH1 0xE0 SHL PUSH1 0x0 MSTORE PUSH1 0x41 PUSH1 0x4 MSTORE PUSH1 0x24 PUSH1 0x0 REVERT JUMPDEST PUSH1 0x40 MLOAD PUSH1 0x1F DUP3 ADD PUSH1 0x1F NOT AND DUP2 ADD PUSH8 0xFFFFFFFFFFFFFFFF DUP2 GT DUP3 DUP3 LT OR ISZERO PUSH2 0x29F3 JUMPI PUSH2 0x29F3 PUSH2 0x29B4 JUMP JUMPDEST PUSH1 0x40 MSTORE SWAP2 SWAP1 POP JUMP JUMPDEST PUSH1 0x0 PUSH1 0x20 DUP1 DUP4 DUP6 SUB SLT ISZERO PUSH2 0x2A0E JUMPI PUSH1 0x0 DUP1 REVERT JUMPDEST DUP3 CALLDATALOAD PUSH8 0xFFFFFFFFFFFFFFFF DUP1 DUP3 GT ISZERO PUSH2 0x2A26 JUMPI PUSH1 0x0 DUP1 REVERT JUMPDEST DUP2 DUP6 ADD SWAP2 POP DUP6 PUSH1 0x1F DUP4 ADD SLT PUSH2 0x2A3A JUMPI PUSH1 0x0 DUP1 REVERT JUMPDEST DUP2 CALLDATALOAD DUP2 DUP2 GT ISZERO PUSH2 0x2A4C JUMPI PUSH2 0x2A4C PUSH2 0x29B4 JUMP JUMPDEST PUSH2 0x2A5E PUSH1 0x1F DUP3 ADD PUSH1 0x1F NOT AND DUP6 ADD PUSH2 0x29CA JUMP JUMPDEST SWAP2 POP DUP1 DUP3 MSTORE DUP7 DUP5 DUP3 DUP6 ADD ADD GT ISZERO PUSH2 0x2A74 JUMPI PUSH1 0x0 DUP1 REVERT JUMPDEST DUP1 DUP5 DUP5 ADD DUP6 DUP5 ADD CALLDATACOPY PUSH1 0x0 SWAP1 DUP3 ADD SWAP1 SWAP4 ADD SWAP3 SWAP1 SWAP3 MSTORE POP SWAP4 SWAP3 POP POP POP JUMP JUMPDEST PUSH4 0x4E487B71 PUSH1 0xE0 SHL PUSH1 0x0 MSTORE PUSH1 0x32 PUSH1 0x4 MSTORE PUSH1 0x24 PUSH1 0x0 REVERT JUMPDEST PUSH1 0x0 PUSH8 0xFFFFFFFFFFFFFFFF DUP3 GT ISZERO PUSH2 0x2AC0 JUMPI PUSH2 0x2AC0 PUSH2 0x29B4 JUMP JUMPDEST POP PUSH1 0x5 SHL PUSH1 0x20 ADD SWAP1 JUMP JUMPDEST PUSH1 0x0 DUP3 PUSH1 0x1F DUP4 ADD SLT PUSH2 0x2ADB JUMPI PUSH1 0x0 DUP1 REVERT JUMPDEST DUP2 CALLDATALOAD PUSH1 0x20 PUSH2 0x2AF0 PUSH2 0x2AEB DUP4 PUSH2 0x2AA6 JUMP JUMPDEST PUSH2 0x29CA JUMP JUMPDEST DUP3 DUP2 MSTORE PUSH1 0x5 SWAP3 SWAP1 SWAP3 SHL DUP5 ADD DUP2 ADD SWAP2 DUP2 DUP2 ADD SWAP1 DUP7 DUP5 GT ISZERO PUSH2 0x2B0F JUMPI PUSH1 0x0 DUP1 REVERT JUMPDEST DUP3 DUP7 ADD JUMPDEST DUP5 DUP2 LT ISZERO PUSH2 0x2B33 JUMPI DUP1 CALLDATALOAD PUSH2 0x2B26 DUP2 PUSH2 0x26F7 JUMP JUMPDEST DUP4 MSTORE SWAP2 DUP4 ADD SWAP2 DUP4 ADD PUSH2 0x2B13 JUMP JUMPDEST POP SWAP7 SWAP6 POP POP POP POP POP POP JUMP JUMPDEST PUSH1 0x0 DUP1 PUSH1 0x0 PUSH1 0x60 DUP5 DUP7 SUB SLT ISZERO PUSH2 0x2B53 JUMPI PUSH1 0x0 DUP1 REVERT JUMPDEST DUP4 CALLDATALOAD PUSH8 0xFFFFFFFFFFFFFFFF DUP1 DUP3 GT ISZERO PUSH2 0x2B6B JUMPI PUSH1 0x0 DUP1 REVERT JUMPDEST PUSH2 0x2B77 DUP8 DUP4 DUP9 ADD PUSH2 0x2ACA JUMP JUMPDEST SWAP5 POP PUSH1 0x20 SWAP2 POP DUP2 DUP7 ADD CALLDATALOAD DUP2 DUP2 GT ISZERO PUSH2 0x2B8E JUMPI PUSH1 0x0 DUP1 REVERT JUMPDEST PUSH2 0x2B9A DUP9 DUP3 DUP10 ADD PUSH2 0x2ACA JUMP JUMPDEST SWAP5 POP POP PUSH1 0x40 DUP7 ADD CALLDATALOAD DUP2 DUP2 GT ISZERO PUSH2 0x2BAF JUMPI PUSH1 0x0 DUP1 REVERT JUMPDEST DUP7 ADD SWAP1 POP PUSH1 0x1F DUP2 ADD DUP8 SGT PUSH2 0x2BC2 JUMPI PUSH1 0x0 DUP1 REVERT JUMPDEST DUP1 CALLDATALOAD PUSH2 0x2BD0 PUSH2 0x2AEB DUP3 PUSH2 0x2AA6 JUMP JUMPDEST DUP2 DUP2 MSTORE PUSH1 0x5 SWAP2 SWAP1 SWAP2 SHL DUP3 ADD DUP4 ADD SWAP1 DUP4 DUP2 ADD SWAP1 DUP10 DUP4 GT ISZERO PUSH2 0x2BEF JUMPI PUSH1 0x0 DUP1 REVERT JUMPDEST SWAP3 DUP5 ADD SWAP3 JUMPDEST DUP3 DUP5 LT ISZERO PUSH2 0x2C0D JUMPI DUP4 CALLDATALOAD DUP3 MSTORE SWAP3 DUP5 ADD SWAP3 SWAP1 DUP5 ADD SWAP1 PUSH2 0x2BF4 JUMP JUMPDEST DUP1 SWAP6 POP POP POP POP POP POP SWAP3 POP SWAP3 POP SWAP3 JUMP JUMPDEST PUSH1 0x0 DUP1 PUSH1 0x40 DUP4 DUP6 SUB SLT ISZERO PUSH2 0x2C2F JUMPI PUSH1 0x0 DUP1 REVERT JUMPDEST DUP3 CALLDATALOAD PUSH2 0x2C3A DUP2 PUSH2 0x26F7 JUMP JUMPDEST SWAP2 POP PUSH1 0x20 DUP4 ADD CALLDATALOAD PUSH2 0x2C4A DUP2 PUSH2 0x26F7 JUMP JUMPDEST DUP1 SWAP2 POP POP SWAP3 POP SWAP3 SWAP1 POP JUMP JUMPDEST PUSH4 0x4E487B71 PUSH1 0xE0 SHL PUSH1 0x0 MSTORE PUSH1 0x11 PUSH1 0x4 MSTORE PUSH1 0x24 PUSH1 0x0 REVERT JUMPDEST PUSH1 0x0 DUP3 NOT DUP3 GT ISZERO PUSH2 0x2C7E JUMPI PUSH2 0x2C7E PUSH2 0x2C55 JUMP JUMPDEST POP ADD SWAP1 JUMP JUMPDEST PUSH1 0x0 DUP3 PUSH2 0x2CA0 JUMPI PUSH4 0x4E487B71 PUSH1 0xE0 SHL PUSH1 0x0 MSTORE PUSH1 0x12 PUSH1 0x4 MSTORE PUSH1 0x24 PUSH1 0x0 REVERT JUMPDEST POP DIV SWAP1 JUMP JUMPDEST PUSH1 0x0 PUSH1 0xA0 DUP3 ADD DUP8 DUP4 MSTORE PUSH1 0x20 DUP8 DUP2 DUP6 ADD MSTORE PUSH1 0xA0 PUSH1 0x40 DUP6 ADD MSTORE DUP2 DUP8 MLOAD DUP1 DUP5 MSTORE PUSH1 0xC0 DUP7 ADD SWAP2 POP DUP3 DUP10 ADD SWAP4 POP PUSH1 0x0 JUMPDEST DUP2 DUP2 LT ISZERO PUSH2 0x2CF5 JUMPI DUP5 MLOAD PUSH1 0x1 PUSH1 0x1 PUSH1 0xA0 SHL SUB AND DUP4 MSTORE SWAP4 DUP4 ADD SWAP4 SWAP2 DUP4 ADD SWAP2 PUSH1 0x1 ADD PUSH2 0x2CD0 JUMP JUMPDEST POP POP PUSH1 0x1 PUSH1 0x1 PUSH1 0xA0 SHL SUB SWAP7 SWAP1 SWAP7 AND PUSH1 0x60 DUP6 ADD MSTORE POP POP POP PUSH1 0x80 ADD MSTORE SWAP4 SWAP3 POP POP POP JUMP JUMPDEST PUSH1 0x0 PUSH1 0x20 DUP1 DUP4 DUP6 SUB SLT ISZERO PUSH2 0x2D29 JUMPI PUSH1 0x0 DUP1 REVERT JUMPDEST DUP3 MLOAD PUSH8 0xFFFFFFFFFFFFFFFF DUP2 GT ISZERO PUSH2 0x2D40 JUMPI PUSH1 0x0 DUP1 REVERT JUMPDEST DUP4 ADD PUSH1 0x1F DUP2 ADD DUP6 SGT PUSH2 0x2D51 JUMPI PUSH1 0x0 DUP1 REVERT JUMPDEST DUP1 MLOAD PUSH2 0x2D5F PUSH2 0x2AEB DUP3 PUSH2 0x2AA6 JUMP JUMPDEST DUP2 DUP2 MSTORE PUSH1 0x5 SWAP2 SWAP1 SWAP2 SHL DUP3 ADD DUP4 ADD SWAP1 DUP4 DUP2 ADD SWAP1 DUP8 DUP4 GT ISZERO PUSH2 0x2D7E JUMPI PUSH1 0x0 DUP1 REVERT JUMPDEST SWAP3 DUP5 ADD SWAP3 JUMPDEST DUP3 DUP5 LT ISZERO PUSH2 0x2D9C JUMPI DUP4 MLOAD DUP3 MSTORE SWAP3 DUP5 ADD SWAP3 SWAP1 DUP5 ADD SWAP1 PUSH2 0x2D83 JUMP JUMPDEST SWAP8 SWAP7 POP POP POP POP POP POP POP JUMP JUMPDEST PUSH1 0x0 DUP3 DUP3 LT ISZERO PUSH2 0x2DB9 JUMPI PUSH2 0x2DB9 PUSH2 0x2C55 JUMP JUMPDEST POP SUB SWAP1 JUMP JUMPDEST PUSH1 0x0 PUSH1 0x20 DUP3 DUP5 SUB SLT ISZERO PUSH2 0x2DD0 JUMPI PUSH1 0x0 DUP1 REVERT JUMPDEST DUP2 MLOAD PUSH2 0x272C DUP2 PUSH2 0x26F7 JUMP JUMPDEST PUSH1 0x0 PUSH1 0x0 NOT DUP3 EQ ISZERO PUSH2 0x2DEF JUMPI PUSH2 0x2DEF PUSH2 0x2C55 JUMP JUMPDEST POP PUSH1 0x1 ADD SWAP1 JUMP JUMPDEST PUSH1 0x0 DUP2 PUSH2 0x2E05 JUMPI PUSH2 0x2E05 PUSH2 0x2C55 JUMP JUMPDEST POP PUSH1 0x0 NOT ADD SWAP1 JUMP INVALID LOG2 PUSH5 0x6970667358 0x22 SLT KECCAK256 0xD3 0xD 0xDB 0xB4 DIV 0xAF 0xF6 0xB0 0xBE SELFDESTRUCT LOG1 XOR 0xE5 0x2E 0xAB 0xEF 0xC5 0xA9 DUP11 0xAF GASPRICE SWAP1 EQ 0xE0 SWAP15 SUB 0xBC SWAP4 0xA7 DUP3 0x5E 0xE3 PUSH5 0x736F6C6343 STOP ADDMOD EXP STOP CALLER SAR CALLCODE GT CALLVALUE 0xD1 SELFBALANCE SLOAD LOG1 0xA8 SSTORE BYTE 0x24 PUSH5 0x5C613650A3 PUSH5 0x454B81E31D EQ EQ RETURNDATASIZE 0xA7 0xBE PUSH14 0xA7B0A2646970667358221220A5C1 PUSH25 0x5BC3E8269A7DD1938AE8B4752CF8904FD20F33E9E52F40BAE1 STATICCALL 0xC2 JUMPDEST SMOD PUSH5 0x736F6C6343 STOP ADDMOD EXP STOP CALLER "},"methodIdentifiers":{"aaveFlashLoan()":"07170832","balancerFlashLoan()":"11a1b6d1","calculateSandwichProfit(address,address,address,uint256,uint256)":"4f07f7db","executeArbitrage(address,address,address,uint256)":"ca55c764","executeCombinedStrategy(address,address,address,address,uint256)":"a1c82602","executeMultiHopSandwich(address[],address[],uint256[],address,uint256)":"c3eaaca5","executeSandwich(address,address,address,uint256,uint256,uint256)":"783cac73","implementation()":"5c60da1b","isInitialized()":"392e53cd","owner()":"8da5cb5b","renounceOwnership()":"715018a6","strategyParams()":"f57f33d0","transferOwnership(address)":"f2fde38b","uniswapFactory()":"8bdb2afa","uniswapRouter()":"735de9f7","updateStrategyParams((address[],address[],uint256,uint256,uint256,uint256,bool,bool))":"c7bdbcb5","upgradeTo(address)":"3659cfe6","withdrawProfit(address,uint256,address)":"651c9156"}}}}}