{"contracts/mocks/GasOptimizerTest.sol":{"GasOptimizerTest":{"abi":[{"inputs":[{"internalType":"uint256","name":"baseFee","type":"uint256"},{"internalType":"uint256","name":"priorityFee","type":"uint256"}],"name":"testCalculateEIP1559GasPrice","outputs":[{"internalType":"uint256","name":"maxFeePerGas","type":"uint256"},{"internalType":"uint256","name":"maxPriorityFeePerGas","type":"uint256"}],"stateMutability":"pure","type":"function"},{"inputs":[{"internalType":"uint256","name":"baseGasPrice","type":"uint256"},{"internalType":"uint256","name":"maxPriorityFee","type":"uint256"},{"internalType":"uint256","name":"targetPosition","type":"uint256"}],"name":"testCalculateOptimalGasPrice","outputs":[{"internalType":"uint256","name":"","type":"uint256"}],"stateMutability":"pure","type":"function"},{"inputs":[{"internalType":"uint256","name":"baseGasPrice","type":"uint256"},{"internalType":"uint256","name":"frontRunPriorityFee","type":"uint256"},{"internalType":"uint256","name":"backRunPriorityFee","type":"uint256"}],"name":"testCalculateSandwichGasPrices","outputs":[{"internalType":"uint256","name":"frontRunGasPrice","type":"uint256"},{"internalType":"uint256","name":"backRunGasPrice","type":"uint256"}],"stateMutability":"pure","type":"function"},{"inputs":[{"internalType":"uint256","name":"gasPrice","type":"uint256"},{"internalType":"uint256","name":"gasLimit","type":"uint256"}],"name":"testEstimateGasCost","outputs":[{"internalType":"uint256","name":"","type":"uint256"}],"stateMutability":"pure","type":"function"},{"inputs":[{"internalType":"uint256","name":"expectedProfit","type":"uint256"},{"internalType":"uint256","name":"gasPrice","type":"uint256"},{"internalType":"uint256","name":"gasLimit","type":"uint256"},{"internalType":"uint256","name":"minProfitMargin","type":"uint256"}],"name":"testIsProfitableAfterGas","outputs":[{"internalType":"bool","name":"isProfitable","type":"bool"},{"internalType":"uint256","name":"netProfit","type":"uint256"}],"stateMutability":"pure","type":"function"},{"inputs":[{"internalType":"uint256","name":"currentAllowance","type":"uint256"},{"internalType":"uint256","name":"requiredAmount","type":"uint256"}],"name":"testOptimizeApprovalAmount","outputs":[{"internalType":"uint256","name":"","type":"uint256"}],"stateMutability":"pure","type":"function"}],"evm":{"bytecode":{"linkReferences":{},"object":"608060405234801561001057600080fd5b50610437806100206000396000f3fe608060405234801561001057600080fd5b50600436106100625760003560e01c80633b2d8a8f14610067578063427a73e71461008d5780635285fa1d146100b557806357f78a03146100c857806368100bfd146100f257806383509a0d14610105575b600080fd5b61007a6100753660046102fb565b610118565b6040519081526020015b60405180910390f35b6100a061009b366004610327565b61012d565b60408051928352602083019190915201610084565b61007a6100c3366004610327565b610145565b6100db6100d6366004610349565b61015a565b604080519215158352602083019190915201610084565b61007a610100366004610327565b610176565b6100a06101133660046102fb565b610182565b600061012584848461019c565b949350505050565b60008061013a84846101ff565b915091509250929050565b60006101518383610233565b90505b92915050565b6000806101698686868661023f565b9150915094509492505050565b600061015183836102a5565b6000806101908585856102d8565b91509150935093915050565b600080826101ab5750826101ec565b60058310156101d25760646101c185604b610391565b6101cb91906103b0565b90506101ec565b60646101df856032610391565b6101e991906103b0565b90505b6101f681866103d2565b95945050505050565b60008080606461021086607d610391565b61021a91906103b0565b849250905061022982826103d2565b9250509250929050565b60006101518284610391565b600080600061024e8686610233565b9050808711156102925761026281886103ea565b9150600061027083836103d2565b61027c84612710610391565b61028691906103b0565b851115935061029b9050565b60009250600091505b5094509492505050565b60008183106102b657506000610154565b82156102cd576102c683836103ea565b9050610154565b6102c6826002610391565b6000806102e584866103d2565b91506102f183866103d2565b9050935093915050565b60008060006060848603121561031057600080fd5b505081359360208301359350604090920135919050565b6000806040838503121561033a57600080fd5b50508035926020909101359150565b6000806000806080858703121561035f57600080fd5b5050823594602084013594506040840135936060013592509050565b634e487b7160e01b600052601160045260246000fd5b60008160001904831182151516156103ab576103ab61037b565b500290565b6000826103cd57634e487b7160e01b600052601260045260246000fd5b500490565b600082198211156103e5576103e561037b565b500190565b6000828210156103fc576103fc61037b565b50039056fea2646970667358221220011adccd584f9f9a26e0b2a3d72d9dcb8db5cd57b5a434b242e03fa74f6f083564736f6c634300080a0033","opcodes":"PUSH1 0x80 PUSH1 0x40 MSTORE CALLVALUE DUP1 ISZERO PUSH2 0x10 JUMPI PUSH1 0x0 DUP1 REVERT JUMPDEST POP PUSH2 0x437 DUP1 PUSH2 0x20 PUSH1 0x0 CODECOPY PUSH1 0x0 RETURN INVALID PUSH1 0x80 PUSH1 0x40 MSTORE CALLVALUE DUP1 ISZERO PUSH2 0x10 JUMPI PUSH1 0x0 DUP1 REVERT JUMPDEST POP PUSH1 0x4 CALLDATASIZE LT PUSH2 0x62 JUMPI PUSH1 0x0 CALLDATALOAD PUSH1 0xE0 SHR DUP1 PUSH4 0x3B2D8A8F EQ PUSH2 0x67 JUMPI DUP1 PUSH4 0x427A73E7 EQ PUSH2 0x8D JUMPI DUP1 PUSH4 0x5285FA1D EQ PUSH2 0xB5 JUMPI DUP1 PUSH4 0x57F78A03 EQ PUSH2 0xC8 JUMPI DUP1 PUSH4 0x68100BFD EQ PUSH2 0xF2 JUMPI DUP1 PUSH4 0x83509A0D EQ PUSH2 0x105 JUMPI JUMPDEST PUSH1 0x0 DUP1 REVERT JUMPDEST PUSH2 0x7A PUSH2 0x75 CALLDATASIZE PUSH1 0x4 PUSH2 0x2FB JUMP JUMPDEST PUSH2 0x118 JUMP JUMPDEST PUSH1 0x40 MLOAD SWAP1 DUP2 MSTORE PUSH1 0x20 ADD JUMPDEST PUSH1 0x40 MLOAD DUP1 SWAP2 SUB SWAP1 RETURN JUMPDEST PUSH2 0xA0 PUSH2 0x9B CALLDATASIZE PUSH1 0x4 PUSH2 0x327 JUMP JUMPDEST PUSH2 0x12D JUMP JUMPDEST PUSH1 0x40 DUP1 MLOAD SWAP3 DUP4 MSTORE PUSH1 0x20 DUP4 ADD SWAP2 SWAP1 SWAP2 MSTORE ADD PUSH2 0x84 JUMP JUMPDEST PUSH2 0x7A PUSH2 0xC3 CALLDATASIZE PUSH1 0x4 PUSH2 0x327 JUMP JUMPDEST PUSH2 0x145 JUMP JUMPDEST PUSH2 0xDB PUSH2 0xD6 CALLDATASIZE PUSH1 0x4 PUSH2 0x349 JUMP JUMPDEST PUSH2 0x15A JUMP JUMPDEST PUSH1 0x40 DUP1 MLOAD SWAP3 ISZERO ISZERO DUP4 MSTORE PUSH1 0x20 DUP4 ADD SWAP2 SWAP1 SWAP2 MSTORE ADD PUSH2 0x84 JUMP JUMPDEST PUSH2 0x7A PUSH2 0x100 CALLDATASIZE PUSH1 0x4 PUSH2 0x327 JUMP JUMPDEST PUSH2 0x176 JUMP JUMPDEST PUSH2 0xA0 PUSH2 0x113 CALLDATASIZE PUSH1 0x4 PUSH2 0x2FB JUMP JUMPDEST PUSH2 0x182 JUMP JUMPDEST PUSH1 0x0 PUSH2 0x125 DUP5 DUP5 DUP5 PUSH2 0x19C JUMP JUMPDEST SWAP5 SWAP4 POP POP POP POP JUMP JUMPDEST PUSH1 0x0 DUP1 PUSH2 0x13A DUP5 DUP5 PUSH2 0x1FF JUMP JUMPDEST SWAP2 POP SWAP2 POP SWAP3 POP SWAP3 SWAP1 POP JUMP JUMPDEST PUSH1 0x0 PUSH2 0x151 DUP4 DUP4 PUSH2 0x233 JUMP JUMPDEST SWAP1 POP JUMPDEST SWAP3 SWAP2 POP POP JUMP JUMPDEST PUSH1 0x0 DUP1 PUSH2 0x169 DUP7 DUP7 DUP7 DUP7 PUSH2 0x23F JUMP JUMPDEST SWAP2 POP SWAP2 POP SWAP5 POP SWAP5 SWAP3 POP POP POP JUMP JUMPDEST PUSH1 0x0 PUSH2 0x151 DUP4 DUP4 PUSH2 0x2A5 JUMP JUMPDEST PUSH1 0x0 DUP1 PUSH2 0x190 DUP6 DUP6 DUP6 PUSH2 0x2D8 JUMP JUMPDEST SWAP2 POP SWAP2 POP SWAP4 POP SWAP4 SWAP2 POP POP JUMP JUMPDEST PUSH1 0x0 DUP1 DUP3 PUSH2 0x1AB JUMPI POP DUP3 PUSH2 0x1EC JUMP JUMPDEST PUSH1 0x5 DUP4 LT ISZERO PUSH2 0x1D2 JUMPI PUSH1 0x64 PUSH2 0x1C1 DUP6 PUSH1 0x4B PUSH2 0x391 JUMP JUMPDEST PUSH2 0x1CB SWAP2 SWAP1 PUSH2 0x3B0 JUMP JUMPDEST SWAP1 POP PUSH2 0x1EC JUMP JUMPDEST PUSH1 0x64 PUSH2 0x1DF DUP6 PUSH1 0x32 PUSH2 0x391 JUMP JUMPDEST PUSH2 0x1E9 SWAP2 SWAP1 PUSH2 0x3B0 JUMP JUMPDEST SWAP1 POP JUMPDEST PUSH2 0x1F6 DUP2 DUP7 PUSH2 0x3D2 JUMP JUMPDEST SWAP6 SWAP5 POP POP POP POP POP JUMP JUMPDEST PUSH1 0x0 DUP1 DUP1 PUSH1 0x64 PUSH2 0x210 DUP7 PUSH1 0x7D PUSH2 0x391 JUMP JUMPDEST PUSH2 0x21A SWAP2 SWAP1 PUSH2 0x3B0 JUMP JUMPDEST DUP5 SWAP3 POP SWAP1 POP PUSH2 0x229 DUP3 DUP3 PUSH2 0x3D2 JUMP JUMPDEST SWAP3 POP POP SWAP3 POP SWAP3 SWAP1 POP JUMP JUMPDEST PUSH1 0x0 PUSH2 0x151 DUP3 DUP5 PUSH2 0x391 JUMP JUMPDEST PUSH1 0x0 DUP1 PUSH1 0x0 PUSH2 0x24E DUP7 DUP7 PUSH2 0x233 JUMP JUMPDEST SWAP1 POP DUP1 DUP8 GT ISZERO PUSH2 0x292 JUMPI PUSH2 0x262 DUP2 DUP9 PUSH2 0x3EA JUMP JUMPDEST SWAP2 POP PUSH1 0x0 PUSH2 0x270 DUP4 DUP4 PUSH2 0x3D2 JUMP JUMPDEST PUSH2 0x27C DUP5 PUSH2 0x2710 PUSH2 0x391 JUMP JUMPDEST PUSH2 0x286 SWAP2 SWAP1 PUSH2 0x3B0 JUMP JUMPDEST DUP6 GT ISZERO SWAP4 POP PUSH2 0x29B SWAP1 POP JUMP JUMPDEST PUSH1 0x0 SWAP3 POP PUSH1 0x0 SWAP2 POP JUMPDEST POP SWAP5 POP SWAP5 SWAP3 POP POP POP JUMP JUMPDEST PUSH1 0x0 DUP2 DUP4 LT PUSH2 0x2B6 JUMPI POP PUSH1 0x0 PUSH2 0x154 JUMP JUMPDEST DUP3 ISZERO PUSH2 0x2CD JUMPI PUSH2 0x2C6 DUP4 DUP4 PUSH2 0x3EA JUMP JUMPDEST SWAP1 POP PUSH2 0x154 JUMP JUMPDEST PUSH2 0x2C6 DUP3 PUSH1 0x2 PUSH2 0x391 JUMP JUMPDEST PUSH1 0x0 DUP1 PUSH2 0x2E5 DUP5 DUP7 PUSH2 0x3D2 JUMP JUMPDEST SWAP2 POP PUSH2 0x2F1 DUP4 DUP7 PUSH2 0x3D2 JUMP JUMPDEST SWAP1 POP SWAP4 POP SWAP4 SWAP2 POP POP JUMP JUMPDEST PUSH1 0x0 DUP1 PUSH1 0x0 PUSH1 0x60 DUP5 DUP7 SUB SLT ISZERO PUSH2 0x310 JUMPI PUSH1 0x0 DUP1 REVERT JUMPDEST POP POP DUP2 CALLDATALOAD SWAP4 PUSH1 0x20 DUP4 ADD CALLDATALOAD SWAP4 POP PUSH1 0x40 SWAP1 SWAP3 ADD CALLDATALOAD SWAP2 SWAP1 POP JUMP JUMPDEST PUSH1 0x0 DUP1 PUSH1 0x40 DUP4 DUP6 SUB SLT ISZERO PUSH2 0x33A JUMPI PUSH1 0x0 DUP1 REVERT JUMPDEST POP POP DUP1 CALLDATALOAD SWAP3 PUSH1 0x20 SWAP1 SWAP2 ADD CALLDATALOAD SWAP2 POP JUMP JUMPDEST PUSH1 0x0 DUP1 PUSH1 0x0 DUP1 PUSH1 0x80 DUP6 DUP8 SUB SLT ISZERO PUSH2 0x35F JUMPI PUSH1 0x0 DUP1 REVERT JUMPDEST POP POP DUP3 CALLDATALOAD SWAP5 PUSH1 0x20 DUP5 ADD CALLDATALOAD SWAP5 POP PUSH1 0x40 DUP5 ADD CALLDATALOAD SWAP4 PUSH1 0x60 ADD CALLDATALOAD SWAP3 POP SWAP1 POP JUMP JUMPDEST PUSH4 0x4E487B71 PUSH1 0xE0 SHL PUSH1 0x0 MSTORE PUSH1 0x11 PUSH1 0x4 MSTORE PUSH1 0x24 PUSH1 0x0 REVERT JUMPDEST PUSH1 0x0 DUP2 PUSH1 0x0 NOT DIV DUP4 GT DUP3 ISZERO ISZERO AND ISZERO PUSH2 0x3AB JUMPI PUSH2 0x3AB PUSH2 0x37B JUMP JUMPDEST POP MUL SWAP1 JUMP JUMPDEST PUSH1 0x0 DUP3 PUSH2 0x3CD JUMPI PUSH4 0x4E487B71 PUSH1 0xE0 SHL PUSH1 0x0 MSTORE PUSH1 0x12 PUSH1 0x4 MSTORE PUSH1 0x24 PUSH1 0x0 REVERT JUMPDEST POP DIV SWAP1 JUMP JUMPDEST PUSH1 0x0 DUP3 NOT DUP3 GT ISZERO PUSH2 0x3E5 JUMPI PUSH2 0x3E5 PUSH2 0x37B JUMP JUMPDEST POP ADD SWAP1 JUMP JUMPDEST PUSH1 0x0 DUP3 DUP3 LT ISZERO PUSH2 0x3FC JUMPI PUSH2 0x3FC PUSH2 0x37B JUMP JUMPDEST POP SUB SWAP1 JUMP INVALID LOG2 PUSH5 0x6970667358 0x22 SLT KECCAK256 ADD BYTE 0xDC 0xCD PC 0x4F SWAP16 SWAP11 0x26 0xE0 0xB2 LOG3 0xD7 0x2D SWAP14 0xCB DUP14 0xB5 0xCD JUMPI 0xB5 LOG4 CALLVALUE 0xB2 TIMESTAMP 0xE0 EXTCODEHASH 0xA7 0x4F PUSH16 0x83564736F6C634300080A0033000000 "},"methodIdentifiers":{"testCalculateEIP1559GasPrice(uint256,uint256)":"427a73e7","testCalculateOptimalGasPrice(uint256,uint256,uint256)":"3b2d8a8f","testCalculateSandwichGasPrices(uint256,uint256,uint256)":"83509a0d","testEstimateGasCost(uint256,uint256)":"5285fa1d","testIsProfitableAfterGas(uint256,uint256,uint256,uint256)":"57f78a03","testOptimizeApprovalAmount(uint256,uint256)":"68100bfd"}}}}}