{
  "_format": "hh-sol-artifact-1",
  "contractName": "GasOptimizerTest",
  "sourceName": "contracts/mocks/GasOptimizerTest.sol",
  "abi": [
    {
      "inputs": [
        {
          "internalType": "uint256",
          "name": "baseFee",
          "type": "uint256"
        },
        {
          "internalType": "uint256",
          "name": "priorityFee",
          "type": "uint256"
        }
      ],
      "name": "testCalculateEIP1559GasPrice",
      "outputs": [
        {
          "internalType": "uint256",
          "name": "maxFeePerGas",
          "type": "uint256"
        },
        {
          "internalType": "uint256",
          "name": "maxPriorityFeePerGas",
          "type": "uint256"
        }
      ],
      "stateMutability": "pure",
      "type": "function"
    },
    {
      "inputs": [
        {
          "internalType": "uint256",
          "name": "baseGasPrice",
          "type": "uint256"
        },
        {
          "internalType": "uint256",
          "name": "maxPriorityFee",
          "type": "uint256"
        },
        {
          "internalType": "uint256",
          "name": "targetPosition",
          "type": "uint256"
        }
      ],
      "name": "testCalculateOptimalGasPrice",
      "outputs": [
        {
          "internalType": "uint256",
          "name": "",
          "type": "uint256"
        }
      ],
      "stateMutability": "pure",
      "type": "function"
    },
    {
      "inputs": [
        {
          "internalType": "uint256",
          "name": "baseGasPrice",
          "type": "uint256"
        },
        {
          "internalType": "uint256",
          "name": "frontRunPriorityFee",
          "type": "uint256"
        },
        {
          "internalType": "uint256",
          "name": "backRunPriorityFee",
          "type": "uint256"
        }
      ],
      "name": "testCalculateSandwichGasPrices",
      "outputs": [
        {
          "internalType": "uint256",
          "name": "frontRunGasPrice",
          "type": "uint256"
        },
        {
          "internalType": "uint256",
          "name": "backRunGasPrice",
          "type": "uint256"
        }
      ],
      "stateMutability": "pure",
      "type": "function"
    },
    {
      "inputs": [
        {
          "internalType": "uint256",
          "name": "gasPrice",
          "type": "uint256"
        },
        {
          "internalType": "uint256",
          "name": "gasLimit",
          "type": "uint256"
        }
      ],
      "name": "testEstimateGasCost",
      "outputs": [
        {
          "internalType": "uint256",
          "name": "",
          "type": "uint256"
        }
      ],
      "stateMutability": "pure",
      "type": "function"
    },
    {
      "inputs": [
        {
          "internalType": "uint256",
          "name": "expectedProfit",
          "type": "uint256"
        },
        {
          "internalType": "uint256",
          "name": "gasPrice",
          "type": "uint256"
        },
        {
          "internalType": "uint256",
          "name": "gasLimit",
          "type": "uint256"
        },
        {
          "internalType": "uint256",
          "name": "minProfitMargin",
          "type": "uint256"
        }
      ],
      "name": "testIsProfitableAfterGas",
      "outputs": [
        {
          "internalType": "bool",
          "name": "isProfitable",
          "type": "bool"
        },
        {
          "internalType": "uint256",
          "name": "netProfit",
          "type": "uint256"
        }
      ],
      "stateMutability": "pure",
      "type": "function"
    },
    {
      "inputs": [
        {
          "internalType": "uint256",
          "name": "currentAllowance",
          "type": "uint256"
        },
        {
          "internalType": "uint256",
          "name": "requiredAmount",
          "type": "uint256"
        }
      ],
      "name": "testOptimizeApprovalAmount",
      "outputs": [
        {
          "internalType": "uint256",
          "name": "",
          "type": "uint256"
        }
      ],
      "stateMutability": "pure",
      "type": "function"
    }
  ],
  "bytecode": "0x608060405234801561001057600080fd5b50610437806100206000396000f3fe608060405234801561001057600080fd5b50600436106100625760003560e01c80633b2d8a8f14610067578063427a73e71461008d5780635285fa1d146100b557806357f78a03146100c857806368100bfd146100f257806383509a0d14610105575b600080fd5b61007a6100753660046102fb565b610118565b6040519081526020015b60405180910390f35b6100a061009b366004610327565b61012d565b60408051928352602083019190915201610084565b61007a6100c3366004610327565b610145565b6100db6100d6366004610349565b61015a565b604080519215158352602083019190915201610084565b61007a610100366004610327565b610176565b6100a06101133660046102fb565b610182565b600061012584848461019c565b949350505050565b60008061013a84846101ff565b915091509250929050565b60006101518383610233565b90505b92915050565b6000806101698686868661023f565b9150915094509492505050565b600061015183836102a5565b6000806101908585856102d8565b91509150935093915050565b600080826101ab5750826101ec565b60058310156101d25760646101c185604b610391565b6101cb91906103b0565b90506101ec565b60646101df856032610391565b6101e991906103b0565b90505b6101f681866103d2565b95945050505050565b60008080606461021086607d610391565b61021a91906103b0565b849250905061022982826103d2565b9250509250929050565b60006101518284610391565b600080600061024e8686610233565b9050808711156102925761026281886103ea565b9150600061027083836103d2565b61027c84612710610391565b61028691906103b0565b851115935061029b9050565b60009250600091505b5094509492505050565b60008183106102b657506000610154565b82156102cd576102c683836103ea565b9050610154565b6102c6826002610391565b6000806102e584866103d2565b91506102f183866103d2565b9050935093915050565b60008060006060848603121561031057600080fd5b505081359360208301359350604090920135919050565b6000806040838503121561033a57600080fd5b50508035926020909101359150565b6000806000806080858703121561035f57600080fd5b5050823594602084013594506040840135936060013592509050565b634e487b7160e01b600052601160045260246000fd5b60008160001904831182151516156103ab576103ab61037b565b500290565b6000826103cd57634e487b7160e01b600052601260045260246000fd5b500490565b600082198211156103e5576103e561037b565b500190565b6000828210156103fc576103fc61037b565b50039056fea2646970667358221220011adccd584f9f9a26e0b2a3d72d9dcb8db5cd57b5a434b242e03fa74f6f083564736f6c634300080a0033",
  "linkReferences": {},
  "deployedLinkReferences": {}
}