{
  "_format": "hh-sol-artifact-1",
  "contractName": "FlashLoanReceiver",
  "sourceName": "contracts/FlashLoanReceiver.sol",
  "abi": [
    {
      "inputs": [
        {
          "internalType": "address",
          "name": "_owner",
          "type": "address"
        },
        {
          "internalType": "address",
          "name": "_uniswapRouter",
          "type": "address"
        },
        {
          "internalType": "address",
          "name": "_targetPair",
          "type": "address"
        },
        {
          "internalType": "address",
          "name": "_tokenIn",
          "type": "address"
        },
        {
          "internalType": "address",
          "name": "_tokenOut",
          "type": "address"
        },
        {
          "internalType": "uint256",
          "name": "_victimAmount",
          "type": "uint256"
        },
        {
          "internalType": "uint256",
          "name": "_victimMinOut",
          "type": "uint256"
        }
      ],
      "stateMutability": "nonpayable",
      "type": "constructor"
    },
    {
      "anonymous": false,
      "inputs": [
        {
          "indexed": true,
          "internalType": "address",
          "name": "sourcePool",
          "type": "address"
        },
        {
          "indexed": true,
          "internalType": "address",
          "name": "targetPool",
          "type": "address"
        },
        {
          "indexed": false,
          "internalType": "address",
          "name": "tokenIn",
          "type": "address"
        },
        {
          "indexed": false,
          "internalType": "uint256",
          "name": "amountIn",
          "type": "uint256"
        },
        {
          "indexed": false,
          "internalType": "uint256",
          "name": "profit",
          "type": "uint256"
        }
      ],
      "name": "ArbitrageExecuted",
      "type": "event"
    },
    {
      "anonymous": false,
      "inputs": [
        {
          "indexed": true,
          "internalType": "address",
          "name": "pair",
          "type": "address"
        },
        {
          "indexed": true,
          "internalType": "address",
          "name": "tokenIn",
          "type": "address"
        },
        {
          "indexed": true,
          "internalType": "address",
          "name": "tokenOut",
          "type": "address"
        },
        {
          "indexed": false,
          "internalType": "uint256",
          "name": "amountIn",
          "type": "uint256"
        },
        {
          "indexed": false,
          "internalType": "uint256",
          "name": "amountOut",
          "type": "uint256"
        },
        {
          "indexed": false,
          "internalType": "uint256",
          "name": "profit",
          "type": "uint256"
        }
      ],
      "name": "BackRunExecuted",
      "type": "event"
    },
    {
      "anonymous": false,
      "inputs": [
        {
          "indexed": true,
          "internalType": "address",
          "name": "pair",
          "type": "address"
        },
        {
          "indexed": true,
          "internalType": "address",
          "name": "tokenIn",
          "type": "address"
        },
        {
          "indexed": true,
          "internalType": "address",
          "name": "tokenOut",
          "type": "address"
        },
        {
          "indexed": false,
          "internalType": "uint256",
          "name": "amountIn",
          "type": "uint256"
        },
        {
          "indexed": false,
          "internalType": "uint256",
          "name": "amountOut",
          "type": "uint256"
        }
      ],
      "name": "FrontRunExecuted",
      "type": "event"
    },
    {
      "inputs": [
        {
          "internalType": "bytes",
          "name": "params",
          "type": "bytes"
        }
      ],
      "name": "decodeCombinedParams",
      "outputs": [
        {
          "internalType": "address",
          "name": "sourcePool",
          "type": "address"
        },
        {
          "internalType": "address",
          "name": "targetPool",
          "type": "address"
        }
      ],
      "stateMutability": "pure",
      "type": "function"
    },
    {
      "inputs": [
        {
          "internalType": "bytes",
          "name": "params",
          "type": "bytes"
        }
      ],
      "name": "decodeMultiHopParams",
      "outputs": [
        {
          "internalType": "address[]",
          "name": "pairs",
          "type": "address[]"
        },
        {
          "internalType": "address[]",
          "name": "tokens",
          "type": "address[]"
        },
        {
          "internalType": "uint256[]",
          "name": "amounts",
          "type": "uint256[]"
        }
      ],
      "stateMutability": "pure",
      "type": "function"
    },
    {
      "inputs": [
        {
          "internalType": "bytes",
          "name": "params",
          "type": "bytes"
        }
      ],
      "name": "decodeStrategyType",
      "outputs": [
        {
          "internalType": "string",
          "name": "",
          "type": "string"
        }
      ],
      "stateMutability": "pure",
      "type": "function"
    },
    {
      "inputs": [
        {
          "internalType": "bytes",
          "name": "params",
          "type": "bytes"
        }
      ],
      "name": "decodeTargetPool",
      "outputs": [
        {
          "internalType": "address",
          "name": "",
          "type": "address"
        }
      ],
      "stateMutability": "pure",
      "type": "function"
    },
    {
      "inputs": [
        {
          "internalType": "address[]",
          "name": "assets",
          "type": "address[]"
        },
        {
          "internalType": "uint256[]",
          "name": "amounts",
          "type": "uint256[]"
        },
        {
          "internalType": "uint256[]",
          "name": "premiums",
          "type": "uint256[]"
        },
        {
          "internalType": "address",
          "name": "initiator",
          "type": "address"
        },
        {
          "internalType": "bytes",
          "name": "params",
          "type": "bytes"
        }
      ],
      "name": "executeOperation",
      "outputs": [
        {
          "internalType": "bool",
          "name": "",
          "type": "bool"
        }
      ],
      "stateMutability": "nonpayable",
      "type": "function"
    },
    {
      "inputs": [],
      "name": "owner",
      "outputs": [
        {
          "internalType": "address",
          "name": "",
          "type": "address"
        }
      ],
      "stateMutability": "view",
      "type": "function"
    },
    {
      "inputs": [
        {
          "internalType": "contract IERC20[]",
          "name": "tokens",
          "type": "address[]"
        },
        {
          "internalType": "uint256[]",
          "name": "amounts",
          "type": "uint256[]"
        },
        {
          "internalType": "uint256[]",
          "name": "feeAmounts",
          "type": "uint256[]"
        },
        {
          "internalType": "bytes",
          "name": "userData",
          "type": "bytes"
        }
      ],
      "name": "receiveFlashLoan",
      "outputs": [],
      "stateMutability": "nonpayable",
      "type": "function"
    },
    {
      "inputs": [
        {
          "internalType": "address",
          "name": "token",
          "type": "address"
        }
      ],
      "name": "recoverTokens",
      "outputs": [],
      "stateMutability": "nonpayable",
      "type": "function"
    },
    {
      "inputs": [],
      "name": "strategyCompleted",
      "outputs": [
        {
          "internalType": "bool",
          "name": "",
          "type": "bool"
        }
      ],
      "stateMutability": "view",
      "type": "function"
    },
    {
      "inputs": [],
      "name": "targetPair",
      "outputs": [
        {
          "internalType": "address",
          "name": "",
          "type": "address"
        }
      ],
      "stateMutability": "view",
      "type": "function"
    },
    {
      "inputs": [],
      "name": "tokenIn",
      "outputs": [
        {
          "internalType": "address",
          "name": "",
          "type": "address"
        }
      ],
      "stateMutability": "view",
      "type": "function"
    },
    {
      "inputs": [],
      "name": "tokenOut",
      "outputs": [
        {
          "internalType": "address",
          "name": "",
          "type": "address"
        }
      ],
      "stateMutability": "view",
      "type": "function"
    },
    {
      "inputs": [],
      "name": "uniswapRouter",
      "outputs": [
        {
          "internalType": "address",
          "name": "",
          "type": "address"
        }
      ],
      "stateMutability": "view",
      "type": "function"
    },
    {
      "inputs": [],
      "name": "victimAmount",
      "outputs": [
        {
          "internalType": "uint256",
          "name": "",
          "type": "uint256"
        }
      ],
      "stateMutability": "view",
      "type": "function"
    },
    {
      "inputs": [],
      "name": "victimMinOut",
      "outputs": [
        {
          "internalType": "uint256",
          "name": "",
          "type": "uint256"
        }
      ],
      "stateMutability": "view",
      "type": "function"
    }
  ],
  "bytecode": "0x60806040523480156200001157600080fd5b5060405162003989380380620039898339810160408190526200003491620000c9565b600080546001600160a01b03199081166001600160a01b03998a1617909155600180548216978916979097179096556002805487169588169590951790945560038054861693871693909317909255600480549094169416939093179091556005919091556006556007805460ff191690556200014c565b80516001600160a01b0381168114620000c457600080fd5b919050565b600080600080600080600060e0888a031215620000e557600080fd5b620000f088620000ac565b96506200010060208901620000ac565b95506200011060408901620000ac565b94506200012060608901620000ac565b93506200013060808901620000ac565b925060a0880151915060c0880151905092959891949750929550565b61382d806200015c6000396000f3fe608060405234801561001057600080fd5b50600436106100f55760003560e01c8063ac84923011610097578063c6c6c5ab11610066578063c6c6c5ab14610230578063d0202d3b14610243578063e5d2ab7f14610256578063f04f27071461026357600080fd5b8063ac849230146101d2578063aec64e1f146101e5578063b81217b914610205578063c0e4fb5c1461020e57600080fd5b8063735de9f7116100d3578063735de9f7146101565780638da5cb5b14610169578063920f5c841461017c578063a0d558781461019f57600080fd5b8063077e9f09146100fa57806316114acd146101165780636daf390b1461012b575b600080fd5b61010360055481565b6040519081526020015b60405180910390f35b610129610124366004612dd0565b610276565b005b60035461013e906001600160a01b031681565b6040516001600160a01b03909116815260200161010d565b60015461013e906001600160a01b031681565b60005461013e906001600160a01b031681565b61018f61018a366004612e79565b6103c5565b604051901515815260200161010d565b6101b26101ad366004612f53565b610acf565b604080516001600160a01b0393841681529290911660208301520161010d565b61013e6101e0366004612f53565b610b00565b6101f86101f3366004612f53565b610b28565b60405161010d9190612fc0565b61010360065481565b61022161021c366004612f53565b610b64565b60405161010d93929190613037565b60025461013e906001600160a01b031681565b60045461013e906001600160a01b031681565b60075461018f9060ff1681565b6101296102713660046130a0565b610bb4565b6000546001600160a01b031633146102d55760405162461bcd60e51b815260206004820152601d60248201527f4f6e6c79206f776e65722063616e207265636f76657220746f6b656e7300000060448201526064015b60405180910390fd5b6040516370a0823160e01b81523060048201526000906001600160a01b038316906370a0823190602401602060405180830381865afa15801561031c573d6000803e3d6000fd5b505050506040513d601f19601f820116820180604052508101906103409190613163565b905080156103c15760005460405163a9059cbb60e01b81526001600160a01b038481169263a9059cbb9261037c9290911690859060040161317c565b6020604051808303816000875af115801561039b573d6000803e3d6000fd5b505050506040513d601f19601f820116820180604052508101906103bf9190613195565b505b5050565b600080546001600160a01b0385811691161461041c5760405162461bcd60e51b81526020600482015260166024820152752ab730baba3437b934bd32b21034b734ba34b0ba37b960511b60448201526064016102cc565b60075460ff161561046f5760405162461bcd60e51b815260206004820152601a60248201527f537472617465677920616c726561647920636f6d706c6574656400000000000060448201526064016102cc565b60405163aec64e1f60e01b8152606090309063aec64e1f9061049790879087906004016131b7565b600060405180830381865afa9250505080156104d557506040513d6000823e601f3d908101601f191682016040526104d29190810190613253565b60015b6104fe57506040805180820190915260088152670a6829c88ae9286960c31b6020820152610501565b90505b6040805180820190915260088152670a6829c88ae9286960c31b6020918201528151908201207f392eb93b15431fed24df9bba1922ff30a6b9e9ebd22a5c4c61fe780e92be191714156105b7576105b28b8b6000818110610564576105646132ce565b90506020020160208101906105799190612dd0565b8a8a600081811061058c5761058c6132ce565b90506020020135898960008181106105a6576105a66132ce565b90506020020135610fee565b6109d3565b60408051808201909152600981526841524249545241474560b81b6020918201528151908201207f6531f762ad9fe1348e5cbc8ce25386420ae7bac169c1795e239d9399e722b73f14156106e057604051630ac8492360e41b8152600090309063ac8492309061062d90889088906004016131b7565b602060405180830381865afa925050508015610666575060408051601f3d908101601f19168201909252610663918101906132e4565b60015b61067257506000610675565b90505b6106da8c8c600081811061068b5761068b6132ce565b90506020020160208101906106a09190612dd0565b8b8b60008181106106b3576106b36132ce565b905060200201358a8a60008181106106cd576106cd6132ce565b9050602002013584611548565b506109d3565b60408051808201909152600881526704d554c5449484f560c41b6020918201528151908201207f77e816de5a30f937416c4c170d45a22395916fda915af3fbbf1317b9b02bbcd214156108ac576040805160008082526020820181815282840191825260608301938490526330393ed760e21b9093529091903063c0e4fb5c61076d8989606488016131b7565b600060405180830381865afa9250505080156107ab57506040513d6000823e601f3d908101601f191682016040526107a891908101906133ee565b60015b6107b4576107bc565b919450925090505b600083511180156107ce575060008251115b80156107db575060008151115b1561084c576108478e8e60008181106107f6576107f66132ce565b905060200201602081019061080b9190612dd0565b8d8d600081811061081e5761081e6132ce565b905060200201358c8c6000818110610838576108386132ce565b90506020020135868686611a23565b6108a4565b6108a48e8e6000818110610862576108626132ce565b90506020020160208101906108779190612dd0565b8d8d600081811061088a5761088a6132ce565b905060200201358c8c60008181106105a6576105a66132ce565b5050506109d3565b60408051808201909152600881526710d3d3509253915160c21b6020918201528151908201207f3ee9fab4ce628daedcc8d0cb548e7a5a5122cdaba91e83dcefdd038e7815f79a14156109d35760405163141aab0f60e31b81526000908190309063a0d558789061092390899089906004016131b7565b6040805180830381865afa92505050801561095b575060408051601f3d908101601f1916820190925261095891810190613475565b60015b6109645761096a565b90925090505b6109d08d8d6000818110610980576109806132ce565b90506020020160208101906109959190612dd0565b8c8c60008181106109a8576109a86132ce565b905060200201358b8b60008181106109c2576109c26132ce565b9050602002013585856120dc565b50505b6000878760008181106109e8576109e86132ce565b905060200201358a8a6000818110610a0257610a026132ce565b90506020020135610a1391906134c5565b90508b8b6000818110610a2857610a286132ce565b9050602002016020810190610a3d9190612dd0565b6001600160a01b031663095ea7b333836040518363ffffffff1660e01b8152600401610a6a92919061317c565b6020604051808303816000875af1158015610a89573d6000803e3d6000fd5b505050506040513d601f19601f82011682018060405250810190610aad9190613195565b50506007805460ff191660019081179091559150509998505050505050505050565b6000806060831015610ae657506000905080610af9565b610af28385018561352e565b5090925090505b9250929050565b60006020821015610b1357506000610b22565b610b1f82840184612dd0565b90505b92915050565b60606040821015610b5857506040805180820190915260088152670a6829c88ae9286960c31b6020820152610b22565b610b1f82840184613585565b606080806080841015610b985750506040805160008082526020820181815282840191825260608301909352909250610bad565b610ba48486018661361d565b50919450925090505b9250925092565b60075460ff1615610c075760405162461bcd60e51b815260206004820152601a60248201527f537472617465677920616c726561647920636f6d706c6574656400000000000060448201526064016102cc565b60405163aec64e1f60e01b8152606090309063aec64e1f90610c2f90869086906004016131b7565b600060405180830381865afa925050508015610c6d57506040513d6000823e601f3d908101601f19168201604052610c6a9190810190613253565b60015b610c9657506040805180820190915260088152670a6829c88ae9286960c31b6020820152610c99565b90505b600089896000818110610cae57610cae6132ce565b9050602002016020810190610cc39190612dd0565b9050600088886000818110610cda57610cda6132ce565b905060200201359050600087876000818110610cf857610cf86132ce565b6040805180820190915260088152670a6829c88ae9286960c31b602091820152875188820120910292909201359250507f392eb93b15431fed24df9bba1922ff30a6b9e9ebd22a5c4c61fe780e92be19171415610d5f57610d5a838383610fee565b610f51565b60408051808201909152600981526841524249545241474560b81b6020918201528451908501207f6531f762ad9fe1348e5cbc8ce25386420ae7bac169c1795e239d9399e722b73f1415610e2f57604051630ac8492360e41b8152600090309063ac84923090610dd5908a908a906004016131b7565b602060405180830381865afa925050508015610e0e575060408051601f3d908101601f19168201909252610e0b918101906132e4565b60015b610e1a57506000610e1d565b90505b610e2984848484611548565b50610f51565b60408051808201909152600881526704d554c5449484f560c41b6020918201528451908501207f77e816de5a30f937416c4c170d45a22395916fda915af3fbbf1317b9b02bbcd21415610f51576040805160008082526020820181815282840191825260608301938490526330393ed760e21b9093529091903063c0e4fb5c610ebc8b8b606488016131b7565b600060405180830381865afa925050508015610efa57506040513d6000823e601f3d908101601f19168201604052610ef791908101906133ee565b60015b610f0357610f0b565b919450925090505b60008351118015610f1d575060008251115b8015610f2a575060008151115b15610f4257610f3d868686868686611a23565b610f4d565b610f4d868686610fee565b5050505b6000610f5d82846134c5565b60405163095ea7b360e01b81529091506001600160a01b0385169063095ea7b390610f8e903390859060040161317c565b6020604051808303816000875af1158015610fad573d6000803e3d6000fd5b505050506040513d601f19601f82011682018060405250810190610fd19190613195565b50506007805460ff19166001179055505050505050505050505050565b6003546001600160a01b0384811691161461103b5760405162461bcd60e51b815260206004820152600d60248201526c24b73b30b634b2103a37b5b2b760991b60448201526064016102cc565b60035460015460405163095ea7b360e01b81526001600160a01b039283169263095ea7b39261107192911690869060040161317c565b6020604051808303816000875af1158015611090573d6000803e3d6000fd5b505050506040513d601f19601f820116820180604052508101906110b49190613195565b50604080516002808252606082018352600092602083019080368337505060035482519293506001600160a01b0316918391506000906110f6576110f66132ce565b6001600160a01b039283166020918202929092010152600454825191169082906001908110611127576111276132ce565b6001600160a01b0390921660209283029190910190910152600061114c60028561371c565b6001549091506000906001600160a01b03166338ed1739838386306111734261012c6134c5565b6040518663ffffffff1660e01b815260040161119395949392919061373e565b6000604051808303816000875af11580156111b2573d6000803e3d6000fd5b505050506040513d6000823e601f3d908101601f191682016040526111da919081019061377a565b9050600081600183516111ed91906137ae565b815181106111fd576111fd6132ce565b602090810291909101810151600454600354600254604080518981529586018590529395506001600160a01b0392831694918316939216917f51c932de59c046c124d6faac1f1e5a1f1ca96af8634e3d30bf0be71819534a5f910160405180910390a460045484516001600160a01b03909116908590600090611282576112826132ce565b6001600160a01b0392831660209182029290920101526003548551911690859060019081106112b3576112b36132ce565b6001600160a01b0392831660209182029290920101526004805460015460405163095ea7b360e01b81529184169363095ea7b3936112f893929091169186910161317c565b6020604051808303816000875af1158015611317573d6000803e3d6000fd5b505050506040513d601f19601f8201168201806040525081019061133b9190613195565b506001546000906001600160a01b03166338ed1739838388306113604261012c6134c5565b6040518663ffffffff1660e01b815260040161138095949392919061373e565b6000604051808303816000875af115801561139f573d6000803e3d6000fd5b505050506040513d6000823e601f3d908101601f191682016040526113c7919081019061377a565b9050600081600183516113da91906137ae565b815181106113ea576113ea6132ce565b6020026020010151905060008582111561140b5761140886836137ae565b90505b878111156114245761141d88826137ae565b9050611464565b60405162461bcd60e51b81526020600482015260156024820152740aadce0e4deccd2e8c2c4d8ca40e6c2dcc8eed2c6d605b1b60448201526064016102cc565b60035460045460025460408051888152602081018790529081018590526001600160a01b039384169392831692909116907fd59dd7ff720795cb90db0eaf4f250c5d745a73628bf936169effbb810ee9a0469060600160405180910390a460035460005460405163a9059cbb60e01b81526001600160a01b039283169263a9059cbb926114f892911690859060040161317c565b6020604051808303816000875af1158015611517573d6000803e3d6000fd5b505050506040513d601f19601f8201168201806040525081019061153b9190613195565b5050505050505050505050565b6002546001600160a01b03168061155f5750611a1d565b6000816001600160a01b0316630dfe16816040518163ffffffff1660e01b8152600401602060405180830381865afa9250505080156115bb575060408051601f3d908101601f191682019092526115b8918101906132e4565b60015b6115c6575050611a1d565b829150506000816001600160a01b0316630dfe16816040518163ffffffff1660e01b8152600401602060405180830381865afa15801561160a573d6000803e3d6000fd5b505050506040513d601f19601f8201168201806040525081019061162e91906132e4565b90506000826001600160a01b031663d21220a76040518163ffffffff1660e01b8152600401602060405180830381865afa158015611670573d6000803e3d6000fd5b505050506040513d601f19601f8201168201806040525081019061169491906132e4565b90506000826001600160a01b0316896001600160a01b0316146116b757826116b9565b815b90506001600160a01b0386166116d3575050505050611a1d565b6000866001600160a01b0316630dfe16816040518163ffffffff1660e01b8152600401602060405180830381865afa92505050801561172f575060408051601f3d908101601f1916820190925261172c918101906132e4565b60015b61173e57505050505050611a1d565b8791505060008a6001600160a01b0316826001600160a01b0316630dfe16816040518163ffffffff1660e01b8152600401602060405180830381865afa15801561178c573d6000803e3d6000fd5b505050506040513d601f19601f820116820180604052508101906117b091906132e4565b6001600160a01b03161480156118385750826001600160a01b0316826001600160a01b031663d21220a76040518163ffffffff1660e01b8152600401602060405180830381865afa158015611809573d6000803e3d6000fd5b505050506040513d601f19601f8201168201806040525081019061182d91906132e4565b6001600160a01b0316145b806119325750826001600160a01b0316826001600160a01b0316630dfe16816040518163ffffffff1660e01b8152600401602060405180830381865afa158015611886573d6000803e3d6000fd5b505050506040513d601f19601f820116820180604052508101906118aa91906132e4565b6001600160a01b031614801561193257508a6001600160a01b0316826001600160a01b031663d21220a76040518163ffffffff1660e01b8152600401602060405180830381865afa158015611903573d6000803e3d6000fd5b505050506040513d601f19601f8201168201806040525081019061192791906132e4565b6001600160a01b0316145b9050806119775760405162461bcd60e51b8152602060048201526013602482015272125b9d985b1a59081d185c99d95d081c1bdbdb606a1b60448201526064016102cc565b60006119848c858d612244565b905060006119938d86846123f3565b905060008c8211156119ac576119a98d836137ae565b90505b8b8111156119c5576119be8c826137ae565b9050611a06565b60405162461bcd60e51b8152602060048201526016602482015275556e70726f66697461626c652061726269747261676560501b60448201526064016102cc565b611a128b8f8f846124d5565b505050505050505050505b50505050565b600283511015611a755760405162461bcd60e51b815260206004820152601960248201527f4174206c6561737420322070616972732072657175697265640000000000000060448201526064016102cc565b8251611a829060016134c5565b825114611ad15760405162461bcd60e51b815260206004820152601b60248201527f496e76616c696420746f6b656e73206172726179206c656e677468000000000060448201526064016102cc565b8251815114611b225760405162461bcd60e51b815260206004820152601c60248201527f496e76616c696420616d6f756e7473206172726179206c656e6774680000000060448201526064016102cc565b856001600160a01b031682600081518110611b3f57611b3f6132ce565b60200260200101516001600160a01b031614611bad5760405162461bcd60e51b815260206004820152602760248201527f466972737420746f6b656e206d757374206d6174636820666c617368206c6f6160448201526637103a37b5b2b760c91b60648201526084016102cc565b846000805b8551811015611e1557848181518110611bcd57611bcd6132ce565b602090810291909101015160015460405163095ea7b360e01b81526001600160a01b039283169263095ea7b392611c0b92911690879060040161317c565b6020604051808303816000875af1158015611c2a573d6000803e3d6000fd5b505050506040513d601f19601f82011682018060405250810190611c4e9190613195565b50604080516002808252606082018352600092602083019080368337019050509050858281518110611c8257611c826132ce565b602002602001015181600081518110611c9d57611c9d6132ce565b6001600160a01b039092166020928302919091019091015285611cc18360016134c5565b81518110611cd157611cd16132ce565b602002602001015181600181518110611cec57611cec6132ce565b6001600160a01b039092166020928302919091019091015260008215611d125784611d2d565b858381518110611d2457611d246132ce565b60200260200101515b6001549091506000906001600160a01b03166338ed173983838630611d544261012c6134c5565b6040518663ffffffff1660e01b8152600401611d7495949392919061373e565b6000604051808303816000875af1158015611d93573d6000803e3d6000fd5b505050506040513d6000823e601f3d908101601f19168201604052611dbb919081019061377a565b90508060018251611dcc91906137ae565b81518110611ddc57611ddc6132ce565b6020026020010151955060018951611df491906137ae565b841415611dff578594505b5050508080611e0d906137c5565b915050611bb2565b50845190915081905b801561202e57848181518110611e3657611e366132ce565b602090810291909101015160015460405163095ea7b360e01b81526001600160a01b039283169263095ea7b392611e7492911690879060040161317c565b6020604051808303816000875af1158015611e93573d6000803e3d6000fd5b505050506040513d601f19601f82011682018060405250810190611eb79190613195565b50604080516002808252606082018352600092602083019080368337019050509050858281518110611eeb57611eeb6132ce565b602002602001015181600081518110611f0657611f066132ce565b6001600160a01b039092166020928302919091019091015285611f2a6001846137ae565b81518110611f3a57611f3a6132ce565b602002602001015181600181518110611f5557611f556132ce565b6001600160a01b039283166020918202929092010152600154600091166338ed173986838530611f874261012c6134c5565b6040518663ffffffff1660e01b8152600401611fa795949392919061373e565b6000604051808303816000875af1158015611fc6573d6000803e3d6000fd5b505050506040513d6000823e601f3d908101601f19168201604052611fee919081019061377a565b90508060018251611fff91906137ae565b8151811061200f5761200f6132ce565b6020026020010151945050508080612026906137e0565b915050611e1e565b50816000888211156120475761204489836137ae565b90505b878111156120605761205988826137ae565b90506120a8565b60405162461bcd60e51b815260206004820152601f60248201527f556e70726f66697461626c65206d756c74692d686f702073616e64776963680060448201526064016102cc565b60005460405163a9059cbb60e01b81526001600160a01b038c81169263a9059cbb926114f89290911690859060040161317c565b60006120e960028661371c565b905060006120f782876137ae565b9050600061210588846125aa565b90506000612115898488886128f5565b90506000848311612127576000612131565b61213185846137ae565b9050600084831161214357600061214d565b61214d85846137ae565b9050600061215b82846134c5565b9050898111156121765761216f8a826137ae565b90506121be565b60405162461bcd60e51b815260206004820152601e60248201527f556e70726f66697461626c6520636f6d62696e6564207374726174656779000060448201526064016102cc565b60005460405163a9059cbb60e01b81526001600160a01b038e81169263a9059cbb926121f29290911690859060040161317c565b6020604051808303816000875af1158015612211573d6000803e3d6000fd5b505050506040513d601f19601f820116820180604052508101906122359190613195565b50505050505050505050505050565b60015460405163095ea7b360e01b81526000916001600160a01b038087169263095ea7b392612279921690869060040161317c565b6020604051808303816000875af1158015612298573d6000803e3d6000fd5b505050506040513d601f19601f820116820180604052508101906122bc9190613195565b5060408051600280825260608201835260009260208301908036833701905050905084816000815181106122f2576122f26132ce565b60200260200101906001600160a01b031690816001600160a01b0316815250508381600181518110612326576123266132ce565b6001600160a01b039283166020918202929092010152600154600091166338ed1739858385306123584261012c6134c5565b6040518663ffffffff1660e01b815260040161237895949392919061373e565b6000604051808303816000875af1158015612397573d6000803e3d6000fd5b505050506040513d6000823e601f3d908101601f191682016040526123bf919081019061377a565b905080600182516123d091906137ae565b815181106123e0576123e06132ce565b6020026020010151925050509392505050565b60015460405163095ea7b360e01b81526000916001600160a01b038086169263095ea7b392612428921690869060040161317c565b6020604051808303816000875af1158015612447573d6000803e3d6000fd5b505050506040513d601f19601f8201168201806040525081019061246b9190613195565b5060408051600280825260608201835260009260208301908036833701905050905083816000815181106124a1576124a16132ce565b60200260200101906001600160a01b031690816001600160a01b0316815250508481600181518110612326576123266132ce565b600254604080516001600160a01b038681168252602082018690529181018490528682169291909116907f7a62ec736327d3efaebd2eb5695d0f27201b659e9378d8e83403a64101b6081b9060600160405180910390a360005460405163a9059cbb60e01b81526001600160a01b038581169263a9059cbb926125609290911690859060040161317c565b6020604051808303816000875af115801561257f573d6000803e3d6000fd5b505050506040513d601f19601f820116820180604052508101906125a39190613195565b5050505050565b60015460405163095ea7b360e01b81526000916001600160a01b038086169263095ea7b3926125df921690869060040161317c565b6020604051808303816000875af11580156125fe573d6000803e3d6000fd5b505050506040513d601f19601f820116820180604052508101906126229190613195565b506040805160028082526060820183526000926020830190803683370190505090508381600081518110612658576126586132ce565b6001600160a01b039283166020918202929092010152600454825191169082906001908110612689576126896132ce565b6001600160a01b039283166020918202929092010152600154600091166338ed1739858385306126bb4261012c6134c5565b6040518663ffffffff1660e01b81526004016126db95949392919061373e565b6000604051808303816000875af11580156126fa573d6000803e3d6000fd5b505050506040513d6000823e601f3d908101601f19168201604052612722919081019061377a565b90506000816001835161273591906137ae565b81518110612745576127456132ce565b60200260200101519050600460009054906101000a90046001600160a01b031683600081518110612778576127786132ce565b60200260200101906001600160a01b031690816001600160a01b03168152505085836001815181106127ac576127ac6132ce565b6001600160a01b0392831660209182029290920101526004805460015460405163095ea7b360e01b81529184169363095ea7b3936127f193929091169186910161317c565b6020604051808303816000875af1158015612810573d6000803e3d6000fd5b505050506040513d601f19601f820116820180604052508101906128349190613195565b506001546000906001600160a01b03166338ed1739838387306128594261012c6134c5565b6040518663ffffffff1660e01b815260040161287995949392919061373e565b6000604051808303816000875af1158015612898573d6000803e3d6000fd5b505050506040513d6000823e601f3d908101601f191682016040526128c0919081019061377a565b905080600182516128d191906137ae565b815181106128e1576128e16132ce565b602002602001015194505050505092915050565b60006001600160a01b038316158061291457506001600160a01b038216155b15612920575082612db0565b6000836001600160a01b0316630dfe16816040518163ffffffff1660e01b8152600401602060405180830381865afa92505050801561297c575060408051601f3d908101601f19168201909252612979918101906132e4565b60015b6129895784915050612db0565b849150506000816001600160a01b0316630dfe16816040518163ffffffff1660e01b8152600401602060405180830381865afa1580156129cd573d6000803e3d6000fd5b505050506040513d601f19601f820116820180604052508101906129f191906132e4565b90506000826001600160a01b031663d21220a76040518163ffffffff1660e01b8152600401602060405180830381865afa158015612a33573d6000803e3d6000fd5b505050506040513d601f19601f82011682018060405250810190612a5791906132e4565b90506000826001600160a01b0316896001600160a01b031614612a7a5782612a7c565b815b60015460405163095ea7b360e01b81529192506001600160a01b03808c169263095ea7b392612ab19216908c9060040161317c565b6020604051808303816000875af1158015612ad0573d6000803e3d6000fd5b505050506040513d601f19601f82011682018060405250810190612af49190613195565b506040805160028082526060820183526000926020830190803683370190505090508981600081518110612b2a57612b2a6132ce565b60200260200101906001600160a01b031690816001600160a01b0316815250508181600181518110612b5e57612b5e6132ce565b6001600160a01b039283166020918202929092010152600154600091166338ed17398b838530612b904261012c6134c5565b6040518663ffffffff1660e01b8152600401612bb095949392919061373e565b6000604051808303816000875af1158015612bcf573d6000803e3d6000fd5b505050506040513d6000823e601f3d908101601f19168201604052612bf7919081019061377a565b905060008160018351612c0a91906137ae565b81518110612c1a57612c1a6132ce565b602002602001015190508383600081518110612c3857612c386132ce565b60200260200101906001600160a01b031690816001600160a01b0316815250508b83600181518110612c6c57612c6c6132ce565b6001600160a01b03928316602091820292909201015260015460405163095ea7b360e01b81528683169263095ea7b392612cad92911690859060040161317c565b6020604051808303816000875af1158015612ccc573d6000803e3d6000fd5b505050506040513d601f19601f82011682018060405250810190612cf09190613195565b506001546000906001600160a01b03166338ed173983838730612d154261012c6134c5565b6040518663ffffffff1660e01b8152600401612d3595949392919061373e565b6000604051808303816000875af1158015612d54573d6000803e3d6000fd5b505050506040513d6000823e601f3d908101601f19168201604052612d7c919081019061377a565b90508060018251612d8d91906137ae565b81518110612d9d57612d9d6132ce565b6020026020010151985050505050505050505b949350505050565b6001600160a01b0381168114612dcd57600080fd5b50565b600060208284031215612de257600080fd5b8135612ded81612db8565b9392505050565b60008083601f840112612e0657600080fd5b5081356001600160401b03811115612e1d57600080fd5b6020830191508360208260051b8501011115610af957600080fd5b60008083601f840112612e4a57600080fd5b5081356001600160401b03811115612e6157600080fd5b602083019150836020828501011115610af957600080fd5b600080600080600080600080600060a08a8c031215612e9757600080fd5b89356001600160401b0380821115612eae57600080fd5b612eba8d838e01612df4565b909b50995060208c0135915080821115612ed357600080fd5b612edf8d838e01612df4565b909950975060408c0135915080821115612ef857600080fd5b612f048d838e01612df4565b909750955060608c01359150612f1982612db8565b90935060808b01359080821115612f2f57600080fd5b50612f3c8c828d01612e38565b915080935050809150509295985092959850929598565b60008060208385031215612f6657600080fd5b82356001600160401b03811115612f7c57600080fd5b612f8885828601612e38565b90969095509350505050565b60005b83811015612faf578181015183820152602001612f97565b83811115611a1d5750506000910152565b6020815260008251806020840152612fdf816040850160208701612f94565b601f01601f19169190910160400192915050565b600081518084526020808501945080840160005b8381101561302c5781516001600160a01b031687529582019590820190600101613007565b509495945050505050565b60608152600061304a6060830186612ff3565b60208382038185015261305d8287612ff3565b8481036040860152855180825282870193509082019060005b8181101561309257845183529383019391830191600101613076565b509098975050505050505050565b6000806000806000806000806080898b0312156130bc57600080fd5b88356001600160401b03808211156130d357600080fd5b6130df8c838d01612df4565b909a50985060208b01359150808211156130f857600080fd5b6131048c838d01612df4565b909850965060408b013591508082111561311d57600080fd5b6131298c838d01612df4565b909650945060608b013591508082111561314257600080fd5b5061314f8b828c01612e38565b999c989b5096995094979396929594505050565b60006020828403121561317557600080fd5b5051919050565b6001600160a01b03929092168252602082015260400190565b6000602082840312156131a757600080fd5b81518015158114612ded57600080fd5b60208152816020820152818360408301376000818301604090810191909152601f909201601f19160101919050565b634e487b7160e01b600052604160045260246000fd5b604051601f8201601f191681016001600160401b0381118282101715613224576132246131e6565b604052919050565b60006001600160401b03821115613245576132456131e6565b50601f01601f191660200190565b60006020828403121561326557600080fd5b81516001600160401b0381111561327b57600080fd5b8201601f8101841361328c57600080fd5b805161329f61329a8261322c565b6131fc565b8181528560208385010111156132b457600080fd5b6132c5826020830160208601612f94565b95945050505050565b634e487b7160e01b600052603260045260246000fd5b6000602082840312156132f657600080fd5b8151612ded81612db8565b60006001600160401b0382111561331a5761331a6131e6565b5060051b60200190565b600082601f83011261333557600080fd5b8151602061334561329a83613301565b82815260059290921b8401810191818101908684111561336457600080fd5b8286015b8481101561338857805161337b81612db8565b8352918301918301613368565b509695505050505050565b600082601f8301126133a457600080fd5b815160206133b461329a83613301565b82815260059290921b840181019181810190868411156133d357600080fd5b8286015b8481101561338857805183529183019183016133d7565b60008060006060848603121561340357600080fd5b83516001600160401b038082111561341a57600080fd5b61342687838801613324565b9450602086015191508082111561343c57600080fd5b61344887838801613324565b9350604086015191508082111561345e57600080fd5b5061346b86828701613393565b9150509250925092565b6000806040838503121561348857600080fd5b825161349381612db8565b60208401519092506134a481612db8565b809150509250929050565b634e487b7160e01b600052601160045260246000fd5b600082198211156134d8576134d86134af565b500190565b600082601f8301126134ee57600080fd5b81356134fc61329a8261322c565b81815284602083860101111561351157600080fd5b816020850160208301376000918101602001919091529392505050565b60008060006060848603121561354357600080fd5b833561354e81612db8565b9250602084013561355e81612db8565b915060408401356001600160401b0381111561357957600080fd5b61346b868287016134dd565b60006020828403121561359757600080fd5b81356001600160401b038111156135ad57600080fd5b612db0848285016134dd565b600082601f8301126135ca57600080fd5b813560206135da61329a83613301565b82815260059290921b840181019181810190868411156135f957600080fd5b8286015b8481101561338857803561361081612db8565b83529183019183016135fd565b6000806000806080858703121561363357600080fd5b84356001600160401b038082111561364a57600080fd5b613656888389016135b9565b955060209150818701358181111561366d57600080fd5b61367989828a016135b9565b95505060408701358181111561368e57600080fd5b8701601f8101891361369f57600080fd5b80356136ad61329a82613301565b81815260059190911b8201840190848101908b8311156136cc57600080fd5b928501925b828410156136ea578335825292850192908501906136d1565b9650505050606087013591508082111561370357600080fd5b50613710878288016134dd565b91505092959194509250565b60008261373957634e487b7160e01b600052601260045260246000fd5b500490565b85815284602082015260a06040820152600061375d60a0830186612ff3565b6001600160a01b0394909416606083015250608001529392505050565b60006020828403121561378c57600080fd5b81516001600160401b038111156137a257600080fd5b612db084828501613393565b6000828210156137c0576137c06134af565b500390565b60006000198214156137d9576137d96134af565b5060010190565b6000816137ef576137ef6134af565b50600019019056fea26469706673582212209b1354902d7b0c0c80a473c036686161750dfd2f117eff5dfbe1b11738c30a0664736f6c634300080a0033",
  "linkReferences": {},
  "deployedLinkReferences": {}
}