{
  "_format": "hh-sol-artifact-1",
  "contractName": "FlashLoanReceiver",
  "sourceName": "contracts/FlashLoanReceiver.sol",
  "abi": [
    {
      "inputs": [
        {
          "internalType": "address",
          "name": "_owner",
          "type": "address"
        },
        {
          "internalType": "address",
          "name": "_uniswapRouter",
          "type": "address"
        },
        {
          "internalType": "address",
          "name": "_targetPair",
          "type": "address"
        },
        {
          "internalType": "address",
          "name": "_tokenIn",
          "type": "address"
        },
        {
          "internalType": "address",
          "name": "_tokenOut",
          "type": "address"
        },
        {
          "internalType": "uint256",
          "name": "_victimAmount",
          "type": "uint256"
        },
        {
          "internalType": "uint256",
          "name": "_victimMinOut",
          "type": "uint256"
        }
      ],
      "stateMutability": "nonpayable",
      "type": "constructor"
    },
    {
      "anonymous": false,
      "inputs": [
        {
          "indexed": true,
          "internalType": "address",
          "name": "sourcePool",
          "type": "address"
        },
        {
          "indexed": true,
          "internalType": "address",
          "name": "targetPool",
          "type": "address"
        },
        {
          "indexed": false,
          "internalType": "address",
          "name": "tokenIn",
          "type": "address"
        },
        {
          "indexed": false,
          "internalType": "uint256",
          "name": "amountIn",
          "type": "uint256"
        },
        {
          "indexed": false,
          "internalType": "uint256",
          "name": "profit",
          "type": "uint256"
        }
      ],
      "name": "ArbitrageExecuted",
      "type": "event"
    },
    {
      "anonymous": false,
      "inputs": [
        {
          "indexed": true,
          "internalType": "address",
          "name": "pair",
          "type": "address"
        },
        {
          "indexed": true,
          "internalType": "address",
          "name": "tokenIn",
          "type": "address"
        },
        {
          "indexed": true,
          "internalType": "address",
          "name": "tokenOut",
          "type": "address"
        },
        {
          "indexed": false,
          "internalType": "uint256",
          "name": "amountIn",
          "type": "uint256"
        },
        {
          "indexed": false,
          "internalType": "uint256",
          "name": "amountOut",
          "type": "uint256"
        },
        {
          "indexed": false,
          "internalType": "uint256",
          "name": "profit",
          "type": "uint256"
        }
      ],
      "name": "BackRunExecuted",
      "type": "event"
    },
    {
      "anonymous": false,
      "inputs": [
        {
          "indexed": true,
          "internalType": "address",
          "name": "pair",
          "type": "address"
        },
        {
          "indexed": true,
          "internalType": "address",
          "name": "tokenIn",
          "type": "address"
        },
        {
          "indexed": true,
          "internalType": "address",
          "name": "tokenOut",
          "type": "address"
        },
        {
          "indexed": false,
          "internalType": "uint256",
          "name": "amountIn",
          "type": "uint256"
        },
        {
          "indexed": false,
          "internalType": "uint256",
          "name": "amountOut",
          "type": "uint256"
        }
      ],
      "name": "FrontRunExecuted",
      "type": "event"
    },
    {
      "inputs": [
        {
          "internalType": "address[]",
          "name": "assets",
          "type": "address[]"
        },
        {
          "internalType": "uint256[]",
          "name": "amounts",
          "type": "uint256[]"
        },
        {
          "internalType": "uint256[]",
          "name": "premiums",
          "type": "uint256[]"
        },
        {
          "internalType": "address",
          "name": "initiator",
          "type": "address"
        },
        {
          "internalType": "bytes",
          "name": "params",
          "type": "bytes"
        }
      ],
      "name": "executeOperation",
      "outputs": [
        {
          "internalType": "bool",
          "name": "",
          "type": "bool"
        }
      ],
      "stateMutability": "nonpayable",
      "type": "function"
    },
    {
      "inputs": [],
      "name": "owner",
      "outputs": [
        {
          "internalType": "address",
          "name": "",
          "type": "address"
        }
      ],
      "stateMutability": "view",
      "type": "function"
    },
    {
      "inputs": [
        {
          "internalType": "contract IERC20[]",
          "name": "tokens",
          "type": "address[]"
        },
        {
          "internalType": "uint256[]",
          "name": "amounts",
          "type": "uint256[]"
        },
        {
          "internalType": "uint256[]",
          "name": "feeAmounts",
          "type": "uint256[]"
        },
        {
          "internalType": "bytes",
          "name": "userData",
          "type": "bytes"
        }
      ],
      "name": "receiveFlashLoan",
      "outputs": [],
      "stateMutability": "nonpayable",
      "type": "function"
    },
    {
      "inputs": [
        {
          "internalType": "address",
          "name": "token",
          "type": "address"
        }
      ],
      "name": "recoverTokens",
      "outputs": [],
      "stateMutability": "nonpayable",
      "type": "function"
    },
    {
      "inputs": [],
      "name": "strategyCompleted",
      "outputs": [
        {
          "internalType": "bool",
          "name": "",
          "type": "bool"
        }
      ],
      "stateMutability": "view",
      "type": "function"
    },
    {
      "inputs": [],
      "name": "targetPair",
      "outputs": [
        {
          "internalType": "address",
          "name": "",
          "type": "address"
        }
      ],
      "stateMutability": "view",
      "type": "function"
    },
    {
      "inputs": [],
      "name": "tokenIn",
      "outputs": [
        {
          "internalType": "address",
          "name": "",
          "type": "address"
        }
      ],
      "stateMutability": "view",
      "type": "function"
    },
    {
      "inputs": [],
      "name": "tokenOut",
      "outputs": [
        {
          "internalType": "address",
          "name": "",
          "type": "address"
        }
      ],
      "stateMutability": "view",
      "type": "function"
    },
    {
      "inputs": [],
      "name": "uniswapRouter",
      "outputs": [
        {
          "internalType": "address",
          "name": "",
          "type": "address"
        }
      ],
      "stateMutability": "view",
      "type": "function"
    },
    {
      "inputs": [],
      "name": "victimAmount",
      "outputs": [
        {
          "internalType": "uint256",
          "name": "",
          "type": "uint256"
        }
      ],
      "stateMutability": "view",
      "type": "function"
    },
    {
      "inputs": [],
      "name": "victimMinOut",
      "outputs": [
        {
          "internalType": "uint256",
          "name": "",
          "type": "uint256"
        }
      ],
      "stateMutability": "view",
      "type": "function"
    }
  ],
  "bytecode": "0x60806040523480156200001157600080fd5b5060405162002f9f38038062002f9f8339810160408190526200003491620000c9565b600080546001600160a01b03199081166001600160a01b03998a1617909155600180548216978916979097179096556002805487169588169590951790945560038054861693871693909317909255600480549094169416939093179091556005919091556006556007805460ff191690556200014c565b80516001600160a01b0381168114620000c457600080fd5b919050565b600080600080600080600060e0888a031215620000e557600080fd5b620000f088620000ac565b96506200010060208901620000ac565b95506200011060408901620000ac565b94506200012060608901620000ac565b93506200013060808901620000ac565b925060a0880151915060c0880151905092959891949750929550565b612e43806200015c6000396000f3fe608060405234801561001057600080fd5b50600436106100a95760003560e01c8063920f5c8411610071578063920f5c8414610130578063b81217b914610153578063c6c6c5ab1461015c578063d0202d3b1461016f578063e5d2ab7f14610182578063f04f27071461018f57600080fd5b8063077e9f09146100ae57806316114acd146100ca5780636daf390b146100df578063735de9f71461010a5780638da5cb5b1461011d575b600080fd5b6100b760055481565b6040519081526020015b60405180910390f35b6100dd6100d836600461270f565b6101a2565b005b6003546100f2906001600160a01b031681565b6040516001600160a01b0390911681526020016100c1565b6001546100f2906001600160a01b031681565b6000546100f2906001600160a01b031681565b61014361013e3660046127c1565b6102f1565b60405190151581526020016100c1565b6100b760065481565b6002546100f2906001600160a01b031681565b6004546100f2906001600160a01b031681565b6007546101439060ff1681565b6100dd61019d36600461289c565b6107c2565b6000546001600160a01b031633146102015760405162461bcd60e51b815260206004820152601d60248201527f4f6e6c79206f776e65722063616e207265636f76657220746f6b656e7300000060448201526064015b60405180910390fd5b6040516370a0823160e01b81523060048201526000906001600160a01b038316906370a0823190602401602060405180830381865afa158015610248573d6000803e3d6000fd5b505050506040513d601f19601f8201168201806040525081019061026c9190612960565b905080156102ed5760005460405163a9059cbb60e01b81526001600160a01b038481169263a9059cbb926102a892909116908590600401612979565b6020604051808303816000875af11580156102c7573d6000803e3d6000fd5b505050506040513d601f19601f820116820180604052508101906102eb9190612992565b505b5050565b600080546001600160a01b038581169116146103485760405162461bcd60e51b81526020600482015260166024820152752ab730baba3437b934bd32b21034b734ba34b0ba37b960511b60448201526064016101f8565b60075460ff161561039b5760405162461bcd60e51b815260206004820152601a60248201527f537472617465677920616c726561647920636f6d706c6574656400000000000060448201526064016101f8565b60006103a9838501856129fb565b6040805180820190915260088152670a6829c88ae9286960c31b6020918201528151908201209091507f392eb93b15431fed24df9bba1922ff30a6b9e9ebd22a5c4c61fe780e92be191714156104625761045d8b8b600081811061040f5761040f612a90565b9050602002016020810190610424919061270f565b8a8a600081811061043757610437612a90565b905060200201358989600081811061045157610451612a90565b90506020020135610abd565b6106c6565b60408051808201909152600981526841524249545241474560b81b6020918201528151908201207f6531f762ad9fe1348e5cbc8ce25386420ae7bac169c1795e239d9399e722b73f141561052b5760006104be8486018661270f565b90506105258c8c60008181106104d6576104d6612a90565b90506020020160208101906104eb919061270f565b8b8b60008181106104fe576104fe612a90565b905060200201358a8a600081811061051857610518612a90565b9050602002013584611017565b506106c6565b60408051808201909152600881526704d554c5449484f560c41b6020918201528151908201207f77e816de5a30f937416c4c170d45a22395916fda915af3fbbf1317b9b02bbcd214156105fd576000808061058886880188612b3e565b9250925092506105f58e8e60008181106105a4576105a4612a90565b90506020020160208101906105b9919061270f565b8d8d60008181106105cc576105cc612a90565b905060200201358c8c60008181106105e6576105e6612a90565b905060200201358686866113f5565b5050506106c6565b60408051808201909152600881526710d3d3509253915160c21b6020918201528151908201207f3ee9fab4ce628daedcc8d0cb548e7a5a5122cdaba91e83dcefdd038e7815f79a14156106c65760008061065985870187612c1c565b915091506106c38d8d600081811061067357610673612a90565b9050602002016020810190610688919061270f565b8c8c600081811061069b5761069b612a90565b905060200201358b8b60008181106106b5576106b5612a90565b905060200201358585611aae565b50505b6000878760008181106106db576106db612a90565b905060200201358a8a60008181106106f5576106f5612a90565b905060200201356107069190612c6b565b90508b8b600081811061071b5761071b612a90565b9050602002016020810190610730919061270f565b6001600160a01b031663095ea7b333836040518363ffffffff1660e01b815260040161075d929190612979565b6020604051808303816000875af115801561077c573d6000803e3d6000fd5b505050506040513d601f19601f820116820180604052508101906107a09190612992565b50506007805460ff191660019081179091559150509998505050505050505050565b6001546001600160a01b031633146108125760405162461bcd60e51b81526020600482015260136024820152722ab730baba3437b934bd32b21039b2b73232b960691b60448201526064016101f8565b60075460ff16156108655760405162461bcd60e51b815260206004820152601a60248201527f537472617465677920616c726561647920636f6d706c6574656400000000000060448201526064016101f8565b6000610873828401846129fb565b905060008989600081811061088a5761088a612a90565b905060200201602081019061089f919061270f565b90506000888860008181106108b6576108b6612a90565b9050602002013590506000878760008181106108d4576108d4612a90565b6040805180820190915260088152670a6829c88ae9286960c31b602091820152875188820120910292909201359250507f392eb93b15431fed24df9bba1922ff30a6b9e9ebd22a5c4c61fe780e92be1917141561093b57610936838383610abd565b610a20565b60408051808201909152600981526841524249545241474560b81b6020918201528451908501207f6531f762ad9fe1348e5cbc8ce25386420ae7bac169c1795e239d9399e722b73f14156109ab5760006109978688018861270f565b90506109a584848484611017565b50610a20565b60408051808201909152600881526704d554c5449484f560c41b6020918201528451908501207f77e816de5a30f937416c4c170d45a22395916fda915af3fbbf1317b9b02bbcd21415610a205760008080610a08888a018a612b3e565b925092509250610a1c8686868686866113f5565b5050505b6000610a2c8284612c6b565b60405163095ea7b360e01b81529091506001600160a01b0385169063095ea7b390610a5d9033908590600401612979565b6020604051808303816000875af1158015610a7c573d6000803e3d6000fd5b505050506040513d601f19601f82011682018060405250810190610aa09190612992565b50506007805460ff19166001179055505050505050505050505050565b6003546001600160a01b03848116911614610b0a5760405162461bcd60e51b815260206004820152600d60248201526c24b73b30b634b2103a37b5b2b760991b60448201526064016101f8565b60035460015460405163095ea7b360e01b81526001600160a01b039283169263095ea7b392610b40929116908690600401612979565b6020604051808303816000875af1158015610b5f573d6000803e3d6000fd5b505050506040513d601f19601f82011682018060405250810190610b839190612992565b50604080516002808252606082018352600092602083019080368337505060035482519293506001600160a01b031691839150600090610bc557610bc5612a90565b6001600160a01b039283166020918202929092010152600454825191169082906001908110610bf657610bf6612a90565b6001600160a01b03909216602092830291909101909101526000610c1b600285612c83565b6001549091506000906001600160a01b03166338ed173983838630610c424261012c612c6b565b6040518663ffffffff1660e01b8152600401610c62959493929190612ca5565b6000604051808303816000875af1158015610c81573d6000803e3d6000fd5b505050506040513d6000823e601f3d908101601f19168201604052610ca99190810190612d16565b905060008160018351610cbc9190612da7565b81518110610ccc57610ccc612a90565b602090810291909101810151600454600354600254604080518981529586018590529395506001600160a01b0392831694918316939216917f51c932de59c046c124d6faac1f1e5a1f1ca96af8634e3d30bf0be71819534a5f910160405180910390a460045484516001600160a01b03909116908590600090610d5157610d51612a90565b6001600160a01b039283166020918202929092010152600354855191169085906001908110610d8257610d82612a90565b6001600160a01b0392831660209182029290920101526004805460015460405163095ea7b360e01b81529184169363095ea7b393610dc7939290911691869101612979565b6020604051808303816000875af1158015610de6573d6000803e3d6000fd5b505050506040513d601f19601f82011682018060405250810190610e0a9190612992565b506001546000906001600160a01b03166338ed173983838830610e2f4261012c612c6b565b6040518663ffffffff1660e01b8152600401610e4f959493929190612ca5565b6000604051808303816000875af1158015610e6e573d6000803e3d6000fd5b505050506040513d6000823e601f3d908101601f19168201604052610e969190810190612d16565b905060008160018351610ea99190612da7565b81518110610eb957610eb9612a90565b60200260200101519050600085821115610eda57610ed78683612da7565b90505b87811115610ef357610eec8882612da7565b9050610f33565b60405162461bcd60e51b81526020600482015260156024820152740aadce0e4deccd2e8c2c4d8ca40e6c2dcc8eed2c6d605b1b60448201526064016101f8565b60035460045460025460408051888152602081018790529081018590526001600160a01b039384169392831692909116907fd59dd7ff720795cb90db0eaf4f250c5d745a73628bf936169effbb810ee9a0469060600160405180910390a460035460005460405163a9059cbb60e01b81526001600160a01b039283169263a9059cbb92610fc7929116908590600401612979565b6020604051808303816000875af1158015610fe6573d6000803e3d6000fd5b505050506040513d601f19601f8201168201806040525081019061100a9190612992565b5050505050505050505050565b60025460408051630dfe168160e01b815290516001600160a01b03909216916000918391630dfe1681916004808201926020929091908290030181865afa158015611066573d6000803e3d6000fd5b505050506040513d601f19601f8201168201806040525081019061108a9190612dbe565b90506000826001600160a01b031663d21220a76040518163ffffffff1660e01b8152600401602060405180830381865afa1580156110cc573d6000803e3d6000fd5b505050506040513d601f19601f820116820180604052508101906110f09190612dbe565b90506000826001600160a01b0316886001600160a01b0316146111135782611115565b815b90506000859050886001600160a01b0316816001600160a01b0316630dfe16816040518163ffffffff1660e01b8152600401602060405180830381865afa158015611164573d6000803e3d6000fd5b505050506040513d601f19601f820116820180604052508101906111889190612dbe565b6001600160a01b03161480156112105750816001600160a01b0316816001600160a01b031663d21220a76040518163ffffffff1660e01b8152600401602060405180830381865afa1580156111e1573d6000803e3d6000fd5b505050506040513d601f19601f820116820180604052508101906112059190612dbe565b6001600160a01b0316145b8061130a5750816001600160a01b0316816001600160a01b0316630dfe16816040518163ffffffff1660e01b8152600401602060405180830381865afa15801561125e573d6000803e3d6000fd5b505050506040513d601f19601f820116820180604052508101906112829190612dbe565b6001600160a01b031614801561130a5750886001600160a01b0316816001600160a01b031663d21220a76040518163ffffffff1660e01b8152600401602060405180830381865afa1580156112db573d6000803e3d6000fd5b505050506040513d601f19601f820116820180604052508101906112ff9190612dbe565b6001600160a01b0316145b61134c5760405162461bcd60e51b8152602060048201526013602482015272125b9d985b1a59081d185c99d95d081c1bdbdb606a1b60448201526064016101f8565b60006113598a848b611c16565b905060006113688b8584611dc5565b905060008a8211156113815761137e8b83612da7565b90505b8981111561139a576113938a82612da7565b90506113db565b60405162461bcd60e51b8152602060048201526016602482015275556e70726f66697461626c652061726269747261676560501b60448201526064016101f8565b6113e7898d8d84611ea7565b505050505050505050505050565b6002835110156114475760405162461bcd60e51b815260206004820152601960248201527f4174206c6561737420322070616972732072657175697265640000000000000060448201526064016101f8565b8251611454906001612c6b565b8251146114a35760405162461bcd60e51b815260206004820152601b60248201527f496e76616c696420746f6b656e73206172726179206c656e677468000000000060448201526064016101f8565b82518151146114f45760405162461bcd60e51b815260206004820152601c60248201527f496e76616c696420616d6f756e7473206172726179206c656e6774680000000060448201526064016101f8565b856001600160a01b03168260008151811061151157611511612a90565b60200260200101516001600160a01b03161461157f5760405162461bcd60e51b815260206004820152602760248201527f466972737420746f6b656e206d757374206d6174636820666c617368206c6f6160448201526637103a37b5b2b760c91b60648201526084016101f8565b846000805b85518110156117e75784818151811061159f5761159f612a90565b602090810291909101015160015460405163095ea7b360e01b81526001600160a01b039283169263095ea7b3926115dd929116908790600401612979565b6020604051808303816000875af11580156115fc573d6000803e3d6000fd5b505050506040513d601f19601f820116820180604052508101906116209190612992565b5060408051600280825260608201835260009260208301908036833701905050905085828151811061165457611654612a90565b60200260200101518160008151811061166f5761166f612a90565b6001600160a01b039092166020928302919091019091015285611693836001612c6b565b815181106116a3576116a3612a90565b6020026020010151816001815181106116be576116be612a90565b6001600160a01b0390921660209283029190910190910152600082156116e457846116ff565b8583815181106116f6576116f6612a90565b60200260200101515b6001549091506000906001600160a01b03166338ed1739838386306117264261012c612c6b565b6040518663ffffffff1660e01b8152600401611746959493929190612ca5565b6000604051808303816000875af1158015611765573d6000803e3d6000fd5b505050506040513d6000823e601f3d908101601f1916820160405261178d9190810190612d16565b9050806001825161179e9190612da7565b815181106117ae576117ae612a90565b60200260200101519550600189516117c69190612da7565b8414156117d1578594505b50505080806117df90612ddb565b915050611584565b50845190915081905b8015611a005784818151811061180857611808612a90565b602090810291909101015160015460405163095ea7b360e01b81526001600160a01b039283169263095ea7b392611846929116908790600401612979565b6020604051808303816000875af1158015611865573d6000803e3d6000fd5b505050506040513d601f19601f820116820180604052508101906118899190612992565b506040805160028082526060820183526000926020830190803683370190505090508582815181106118bd576118bd612a90565b6020026020010151816000815181106118d8576118d8612a90565b6001600160a01b0390921660209283029190910190910152856118fc600184612da7565b8151811061190c5761190c612a90565b60200260200101518160018151811061192757611927612a90565b6001600160a01b039283166020918202929092010152600154600091166338ed1739868385306119594261012c612c6b565b6040518663ffffffff1660e01b8152600401611979959493929190612ca5565b6000604051808303816000875af1158015611998573d6000803e3d6000fd5b505050506040513d6000823e601f3d908101601f191682016040526119c09190810190612d16565b905080600182516119d19190612da7565b815181106119e1576119e1612a90565b60200260200101519450505080806119f890612df6565b9150506117f0565b5081600088821115611a1957611a168983612da7565b90505b87811115611a3257611a2b8882612da7565b9050611a7a565b60405162461bcd60e51b815260206004820152601f60248201527f556e70726f66697461626c65206d756c74692d686f702073616e64776963680060448201526064016101f8565b60005460405163a9059cbb60e01b81526001600160a01b038c81169263a9059cbb92610fc792909116908590600401612979565b6000611abb600286612c83565b90506000611ac98287612da7565b90506000611ad78884611f7c565b90506000611ae7898488886122c7565b90506000848311611af9576000611b03565b611b038584612da7565b90506000848311611b15576000611b1f565b611b1f8584612da7565b90506000611b2d8284612c6b565b905089811115611b4857611b418a82612da7565b9050611b90565b60405162461bcd60e51b815260206004820152601e60248201527f556e70726f66697461626c6520636f6d62696e6564207374726174656779000060448201526064016101f8565b60005460405163a9059cbb60e01b81526001600160a01b038e81169263a9059cbb92611bc492909116908590600401612979565b6020604051808303816000875af1158015611be3573d6000803e3d6000fd5b505050506040513d601f19601f82011682018060405250810190611c079190612992565b50505050505050505050505050565b60015460405163095ea7b360e01b81526000916001600160a01b038087169263095ea7b392611c4b9216908690600401612979565b6020604051808303816000875af1158015611c6a573d6000803e3d6000fd5b505050506040513d601f19601f82011682018060405250810190611c8e9190612992565b506040805160028082526060820183526000926020830190803683370190505090508481600081518110611cc457611cc4612a90565b60200260200101906001600160a01b031690816001600160a01b0316815250508381600181518110611cf857611cf8612a90565b6001600160a01b039283166020918202929092010152600154600091166338ed173985838530611d2a4261012c612c6b565b6040518663ffffffff1660e01b8152600401611d4a959493929190612ca5565b6000604051808303816000875af1158015611d69573d6000803e3d6000fd5b505050506040513d6000823e601f3d908101601f19168201604052611d919190810190612d16565b90508060018251611da29190612da7565b81518110611db257611db2612a90565b6020026020010151925050509392505050565b60015460405163095ea7b360e01b81526000916001600160a01b038086169263095ea7b392611dfa9216908690600401612979565b6020604051808303816000875af1158015611e19573d6000803e3d6000fd5b505050506040513d601f19601f82011682018060405250810190611e3d9190612992565b506040805160028082526060820183526000926020830190803683370190505090508381600081518110611e7357611e73612a90565b60200260200101906001600160a01b031690816001600160a01b0316815250508481600181518110611cf857611cf8612a90565b600254604080516001600160a01b038681168252602082018690529181018490528682169291909116907f7a62ec736327d3efaebd2eb5695d0f27201b659e9378d8e83403a64101b6081b9060600160405180910390a360005460405163a9059cbb60e01b81526001600160a01b038581169263a9059cbb92611f3292909116908590600401612979565b6020604051808303816000875af1158015611f51573d6000803e3d6000fd5b505050506040513d601f19601f82011682018060405250810190611f759190612992565b5050505050565b60015460405163095ea7b360e01b81526000916001600160a01b038086169263095ea7b392611fb19216908690600401612979565b6020604051808303816000875af1158015611fd0573d6000803e3d6000fd5b505050506040513d601f19601f82011682018060405250810190611ff49190612992565b50604080516002808252606082018352600092602083019080368337019050509050838160008151811061202a5761202a612a90565b6001600160a01b03928316602091820292909201015260045482519116908290600190811061205b5761205b612a90565b6001600160a01b039283166020918202929092010152600154600091166338ed17398583853061208d4261012c612c6b565b6040518663ffffffff1660e01b81526004016120ad959493929190612ca5565b6000604051808303816000875af11580156120cc573d6000803e3d6000fd5b505050506040513d6000823e601f3d908101601f191682016040526120f49190810190612d16565b9050600081600183516121079190612da7565b8151811061211757612117612a90565b60200260200101519050600460009054906101000a90046001600160a01b03168360008151811061214a5761214a612a90565b60200260200101906001600160a01b031690816001600160a01b031681525050858360018151811061217e5761217e612a90565b6001600160a01b0392831660209182029290920101526004805460015460405163095ea7b360e01b81529184169363095ea7b3936121c3939290911691869101612979565b6020604051808303816000875af11580156121e2573d6000803e3d6000fd5b505050506040513d601f19601f820116820180604052508101906122069190612992565b506001546000906001600160a01b03166338ed17398383873061222b4261012c612c6b565b6040518663ffffffff1660e01b815260040161224b959493929190612ca5565b6000604051808303816000875af115801561226a573d6000803e3d6000fd5b505050506040513d6000823e601f3d908101601f191682016040526122929190810190612d16565b905080600182516122a39190612da7565b815181106122b3576122b3612a90565b602002602001015194505050505092915050565b6000808390506000816001600160a01b0316630dfe16816040518163ffffffff1660e01b8152600401602060405180830381865afa15801561230d573d6000803e3d6000fd5b505050506040513d601f19601f820116820180604052508101906123319190612dbe565b90506000826001600160a01b031663d21220a76040518163ffffffff1660e01b8152600401602060405180830381865afa158015612373573d6000803e3d6000fd5b505050506040513d601f19601f820116820180604052508101906123979190612dbe565b90506000826001600160a01b0316896001600160a01b0316146123ba57826123bc565b815b60015460405163095ea7b360e01b81529192506001600160a01b03808c169263095ea7b3926123f19216908c90600401612979565b6020604051808303816000875af1158015612410573d6000803e3d6000fd5b505050506040513d601f19601f820116820180604052508101906124349190612992565b50604080516002808252606082018352600092602083019080368337019050509050898160008151811061246a5761246a612a90565b60200260200101906001600160a01b031690816001600160a01b031681525050818160018151811061249e5761249e612a90565b6001600160a01b039283166020918202929092010152600154600091166338ed17398b8385306124d04261012c612c6b565b6040518663ffffffff1660e01b81526004016124f0959493929190612ca5565b6000604051808303816000875af115801561250f573d6000803e3d6000fd5b505050506040513d6000823e601f3d908101601f191682016040526125379190810190612d16565b90506000816001835161254a9190612da7565b8151811061255a5761255a612a90565b60200260200101519050838360008151811061257857612578612a90565b60200260200101906001600160a01b031690816001600160a01b0316815250508b836001815181106125ac576125ac612a90565b6001600160a01b03928316602091820292909201015260015460405163095ea7b360e01b81528683169263095ea7b3926125ed929116908590600401612979565b6020604051808303816000875af115801561260c573d6000803e3d6000fd5b505050506040513d601f19601f820116820180604052508101906126309190612992565b506001546000906001600160a01b03166338ed1739838387306126554261012c612c6b565b6040518663ffffffff1660e01b8152600401612675959493929190612ca5565b6000604051808303816000875af1158015612694573d6000803e3d6000fd5b505050506040513d6000823e601f3d908101601f191682016040526126bc9190810190612d16565b905080600182516126cd9190612da7565b815181106126dd576126dd612a90565b602002602001015198505050505050505050949350505050565b6001600160a01b038116811461270c57600080fd5b50565b60006020828403121561272157600080fd5b813561272c816126f7565b9392505050565b60008083601f84011261274557600080fd5b50813567ffffffffffffffff81111561275d57600080fd5b6020830191508360208260051b850101111561277857600080fd5b9250929050565b60008083601f84011261279157600080fd5b50813567ffffffffffffffff8111156127a957600080fd5b60208301915083602082850101111561277857600080fd5b600080600080600080600080600060a08a8c0312156127df57600080fd5b893567ffffffffffffffff808211156127f757600080fd5b6128038d838e01612733565b909b50995060208c013591508082111561281c57600080fd5b6128288d838e01612733565b909950975060408c013591508082111561284157600080fd5b61284d8d838e01612733565b909750955060608c01359150612862826126f7565b90935060808b0135908082111561287857600080fd5b506128858c828d0161277f565b915080935050809150509295985092959850929598565b6000806000806000806000806080898b0312156128b857600080fd5b883567ffffffffffffffff808211156128d057600080fd5b6128dc8c838d01612733565b909a50985060208b01359150808211156128f557600080fd5b6129018c838d01612733565b909850965060408b013591508082111561291a57600080fd5b6129268c838d01612733565b909650945060608b013591508082111561293f57600080fd5b5061294c8b828c0161277f565b999c989b5096995094979396929594505050565b60006020828403121561297257600080fd5b5051919050565b6001600160a01b03929092168252602082015260400190565b6000602082840312156129a457600080fd5b8151801515811461272c57600080fd5b634e487b7160e01b600052604160045260246000fd5b604051601f8201601f1916810167ffffffffffffffff811182821017156129f3576129f36129b4565b604052919050565b60006020808385031215612a0e57600080fd5b823567ffffffffffffffff80821115612a2657600080fd5b818501915085601f830112612a3a57600080fd5b813581811115612a4c57612a4c6129b4565b612a5e601f8201601f191685016129ca565b91508082528684828501011115612a7457600080fd5b8084840185840137600090820190930192909252509392505050565b634e487b7160e01b600052603260045260246000fd5b600067ffffffffffffffff821115612ac057612ac06129b4565b5060051b60200190565b600082601f830112612adb57600080fd5b81356020612af0612aeb83612aa6565b6129ca565b82815260059290921b84018101918181019086841115612b0f57600080fd5b8286015b84811015612b33578035612b26816126f7565b8352918301918301612b13565b509695505050505050565b600080600060608486031215612b5357600080fd5b833567ffffffffffffffff80821115612b6b57600080fd5b612b7787838801612aca565b9450602091508186013581811115612b8e57600080fd5b612b9a88828901612aca565b945050604086013581811115612baf57600080fd5b86019050601f81018713612bc257600080fd5b8035612bd0612aeb82612aa6565b81815260059190911b82018301908381019089831115612bef57600080fd5b928401925b82841015612c0d57833582529284019290840190612bf4565b80955050505050509250925092565b60008060408385031215612c2f57600080fd5b8235612c3a816126f7565b91506020830135612c4a816126f7565b809150509250929050565b634e487b7160e01b600052601160045260246000fd5b60008219821115612c7e57612c7e612c55565b500190565b600082612ca057634e487b7160e01b600052601260045260246000fd5b500490565b600060a082018783526020878185015260a0604085015281875180845260c086019150828901935060005b81811015612cf55784516001600160a01b031683529383019391830191600101612cd0565b50506001600160a01b03969096166060850152505050608001529392505050565b60006020808385031215612d2957600080fd5b825167ffffffffffffffff811115612d4057600080fd5b8301601f81018513612d5157600080fd5b8051612d5f612aeb82612aa6565b81815260059190911b82018301908381019087831115612d7e57600080fd5b928401925b82841015612d9c57835182529284019290840190612d83565b979650505050505050565b600082821015612db957612db9612c55565b500390565b600060208284031215612dd057600080fd5b815161272c816126f7565b6000600019821415612def57612def612c55565b5060010190565b600081612e0557612e05612c55565b50600019019056fea2646970667358221220413aeeb84d496dc09aa0c216e4854b84cfa349e920aca94878195ee9e2dbc31964736f6c634300080a0033",
  "linkReferences": {},
  "deployedLinkReferences": {}
}