{
  "_format": "hh-sol-artifact-1",
  "contractName": "TestFlashLoanReceiver",
  "sourceName": "contracts/mocks/TestFlashLoanReceiver.sol",
  "abi": [
    {
      "inputs": [
        {
          "internalType": "address",
          "name": "_owner",
          "type": "address"
        },
        {
          "internalType": "address",
          "name": "_uniswapRouter",
          "type": "address"
        },
        {
          "internalType": "address",
          "name": "_targetPair",
          "type": "address"
        },
        {
          "internalType": "address",
          "name": "_tokenIn",
          "type": "address"
        },
        {
          "internalType": "address",
          "name": "_tokenOut",
          "type": "address"
        },
        {
          "internalType": "uint256",
          "name": "_victimAmount",
          "type": "uint256"
        },
        {
          "internalType": "uint256",
          "name": "_victimMinOut",
          "type": "uint256"
        }
      ],
      "stateMutability": "nonpayable",
      "type": "constructor"
    },
    {
      "anonymous": false,
      "inputs": [
        {
          "indexed": true,
          "internalType": "address",
          "name": "sourcePool",
          "type": "address"
        },
        {
          "indexed": true,
          "internalType": "address",
          "name": "targetPool",
          "type": "address"
        },
        {
          "indexed": false,
          "internalType": "address",
          "name": "tokenIn",
          "type": "address"
        },
        {
          "indexed": false,
          "internalType": "uint256",
          "name": "amountIn",
          "type": "uint256"
        },
        {
          "indexed": false,
          "internalType": "uint256",
          "name": "profit",
          "type": "uint256"
        }
      ],
      "name": "ArbitrageExecuted",
      "type": "event"
    },
    {
      "anonymous": false,
      "inputs": [
        {
          "indexed": true,
          "internalType": "address",
          "name": "pair",
          "type": "address"
        },
        {
          "indexed": true,
          "internalType": "address",
          "name": "tokenIn",
          "type": "address"
        },
        {
          "indexed": true,
          "internalType": "address",
          "name": "tokenOut",
          "type": "address"
        },
        {
          "indexed": false,
          "internalType": "uint256",
          "name": "amountIn",
          "type": "uint256"
        },
        {
          "indexed": false,
          "internalType": "uint256",
          "name": "amountOut",
          "type": "uint256"
        },
        {
          "indexed": false,
          "internalType": "uint256",
          "name": "profit",
          "type": "uint256"
        }
      ],
      "name": "BackRunExecuted",
      "type": "event"
    },
    {
      "anonymous": false,
      "inputs": [
        {
          "indexed": true,
          "internalType": "address",
          "name": "pair",
          "type": "address"
        },
        {
          "indexed": true,
          "internalType": "address",
          "name": "tokenIn",
          "type": "address"
        },
        {
          "indexed": true,
          "internalType": "address",
          "name": "tokenOut",
          "type": "address"
        },
        {
          "indexed": false,
          "internalType": "uint256",
          "name": "amountIn",
          "type": "uint256"
        },
        {
          "indexed": false,
          "internalType": "uint256",
          "name": "amountOut",
          "type": "uint256"
        }
      ],
      "name": "FrontRunExecuted",
      "type": "event"
    },
    {
      "inputs": [
        {
          "internalType": "address[]",
          "name": "assets",
          "type": "address[]"
        },
        {
          "internalType": "uint256[]",
          "name": "amounts",
          "type": "uint256[]"
        },
        {
          "internalType": "uint256[]",
          "name": "premiums",
          "type": "uint256[]"
        },
        {
          "internalType": "address",
          "name": "initiator",
          "type": "address"
        },
        {
          "internalType": "bytes",
          "name": "params",
          "type": "bytes"
        }
      ],
      "name": "executeOperation",
      "outputs": [
        {
          "internalType": "bool",
          "name": "",
          "type": "bool"
        }
      ],
      "stateMutability": "nonpayable",
      "type": "function"
    },
    {
      "inputs": [],
      "name": "owner",
      "outputs": [
        {
          "internalType": "address",
          "name": "",
          "type": "address"
        }
      ],
      "stateMutability": "view",
      "type": "function"
    },
    {
      "inputs": [
        {
          "internalType": "contract IERC20[]",
          "name": "tokens",
          "type": "address[]"
        },
        {
          "internalType": "uint256[]",
          "name": "amounts",
          "type": "uint256[]"
        },
        {
          "internalType": "uint256[]",
          "name": "feeAmounts",
          "type": "uint256[]"
        },
        {
          "internalType": "bytes",
          "name": "userData",
          "type": "bytes"
        }
      ],
      "name": "receiveFlashLoan",
      "outputs": [],
      "stateMutability": "nonpayable",
      "type": "function"
    },
    {
      "inputs": [
        {
          "internalType": "address",
          "name": "token",
          "type": "address"
        }
      ],
      "name": "recoverTokens",
      "outputs": [],
      "stateMutability": "nonpayable",
      "type": "function"
    },
    {
      "inputs": [
        {
          "internalType": "bool",
          "name": "_shouldBeUnprofitable",
          "type": "bool"
        }
      ],
      "name": "setShouldBeUnprofitable",
      "outputs": [],
      "stateMutability": "nonpayable",
      "type": "function"
    },
    {
      "inputs": [],
      "name": "shouldBeUnprofitable",
      "outputs": [
        {
          "internalType": "bool",
          "name": "",
          "type": "bool"
        }
      ],
      "stateMutability": "view",
      "type": "function"
    },
    {
      "inputs": [],
      "name": "strategyCompleted",
      "outputs": [
        {
          "internalType": "bool",
          "name": "",
          "type": "bool"
        }
      ],
      "stateMutability": "view",
      "type": "function"
    },
    {
      "inputs": [],
      "name": "targetPair",
      "outputs": [
        {
          "internalType": "address",
          "name": "",
          "type": "address"
        }
      ],
      "stateMutability": "view",
      "type": "function"
    },
    {
      "inputs": [],
      "name": "tokenIn",
      "outputs": [
        {
          "internalType": "address",
          "name": "",
          "type": "address"
        }
      ],
      "stateMutability": "view",
      "type": "function"
    },
    {
      "inputs": [],
      "name": "tokenOut",
      "outputs": [
        {
          "internalType": "address",
          "name": "",
          "type": "address"
        }
      ],
      "stateMutability": "view",
      "type": "function"
    },
    {
      "inputs": [],
      "name": "uniswapRouter",
      "outputs": [
        {
          "internalType": "address",
          "name": "",
          "type": "address"
        }
      ],
      "stateMutability": "view",
      "type": "function"
    },
    {
      "inputs": [],
      "name": "victimAmount",
      "outputs": [
        {
          "internalType": "uint256",
          "name": "",
          "type": "uint256"
        }
      ],
      "stateMutability": "view",
      "type": "function"
    },
    {
      "inputs": [],
      "name": "victimMinOut",
      "outputs": [
        {
          "internalType": "uint256",
          "name": "",
          "type": "uint256"
        }
      ],
      "stateMutability": "view",
      "type": "function"
    }
  ],
  "bytecode": "0x60806040523480156200001157600080fd5b5060405162003086380380620030868339810160408190526200003491620000cf565b600080546001600160a01b039889166001600160a01b03199182161790915560018054978916978216979097179096556002805495881695871695909517909455600380549387169386169390931790925560048054919095169316929092179092556005556006556007805461ffff191661010017905562000152565b80516001600160a01b0381168114620000ca57600080fd5b919050565b600080600080600080600060e0888a031215620000eb57600080fd5b620000f688620000b2565b96506200010660208901620000b2565b95506200011660408901620000b2565b94506200012660608901620000b2565b93506200013660808901620000b2565b925060a0880151915060c0880151905092959891949750929550565b612f2480620001626000396000f3fe608060405234801561001057600080fd5b50600436106100cf5760003560e01c8063b81217b91161008c578063d0202d3b11610066578063d0202d3b146101bd578063e5d2ab7f146101d0578063f04f2707146101dd578063f6f415f6146101f057600080fd5b8063b81217b914610179578063bdf672a314610182578063c6c6c5ab146101aa57600080fd5b8063077e9f09146100d457806316114acd146100f05780636daf390b14610105578063735de9f7146101305780638da5cb5b14610143578063920f5c8414610156575b600080fd5b6100dd60055481565b6040519081526020015b60405180910390f35b6101036100fe3660046127ca565b610202565b005b600354610118906001600160a01b031681565b6040516001600160a01b0390911681526020016100e7565b600154610118906001600160a01b031681565b600054610118906001600160a01b031681565b61016961016436600461287c565b610351565b60405190151581526020016100e7565b6100dd60065481565b610103610190366004612965565b600780549115156101000261ff0019909216919091179055565b600254610118906001600160a01b031681565b600454610118906001600160a01b031681565b6007546101699060ff1681565b6101036101eb366004612982565b610822565b60075461016990610100900460ff1681565b6000546001600160a01b031633146102615760405162461bcd60e51b815260206004820152601d60248201527f4f6e6c79206f776e65722063616e207265636f76657220746f6b656e7300000060448201526064015b60405180910390fd5b6040516370a0823160e01b81523060048201526000906001600160a01b038316906370a0823190602401602060405180830381865afa1580156102a8573d6000803e3d6000fd5b505050506040513d601f19601f820116820180604052508101906102cc9190612a46565b9050801561034d5760005460405163a9059cbb60e01b81526001600160a01b038481169263a9059cbb9261030892909116908590600401612a5f565b6020604051808303816000875af1158015610327573d6000803e3d6000fd5b505050506040513d601f19601f8201168201806040525081019061034b9190612a78565b505b5050565b600080546001600160a01b038581169116146103a85760405162461bcd60e51b81526020600482015260166024820152752ab730baba3437b934bd32b21034b734ba34b0ba37b960511b6044820152606401610258565b60075460ff16156103fb5760405162461bcd60e51b815260206004820152601a60248201527f537472617465677920616c726561647920636f6d706c657465640000000000006044820152606401610258565b600061040983850185612adc565b6040805180820190915260088152670a6829c88ae9286960c31b6020918201528151908201209091507f392eb93b15431fed24df9bba1922ff30a6b9e9ebd22a5c4c61fe780e92be191714156104c2576104bd8b8b600081811061046f5761046f612b71565b905060200201602081019061048491906127ca565b8a8a600081811061049757610497612b71565b90506020020135898960008181106104b1576104b1612b71565b90506020020135610b1d565b610726565b60408051808201909152600981526841524249545241474560b81b6020918201528151908201207f6531f762ad9fe1348e5cbc8ce25386420ae7bac169c1795e239d9399e722b73f141561058b57600061051e848601866127ca565b90506105858c8c600081811061053657610536612b71565b905060200201602081019061054b91906127ca565b8b8b600081811061055e5761055e612b71565b905060200201358a8a600081811061057857610578612b71565b9050602002013584610b78565b50610726565b60408051808201909152600881526704d554c5449484f560c41b6020918201528151908201207f77e816de5a30f937416c4c170d45a22395916fda915af3fbbf1317b9b02bbcd2141561065d57600080806105e886880188612c1f565b9250925092506106558e8e600081811061060457610604612b71565b905060200201602081019061061991906127ca565b8d8d600081811061062c5761062c612b71565b905060200201358c8c600081811061064657610646612b71565b90506020020135868686610f56565b505050610726565b60408051808201909152600881526710d3d3509253915160c21b6020918201528151908201207f3ee9fab4ce628daedcc8d0cb548e7a5a5122cdaba91e83dcefdd038e7815f79a1415610726576000806106b985870187612cfd565b915091506107238d8d60008181106106d3576106d3612b71565b90506020020160208101906106e891906127ca565b8c8c60008181106106fb576106fb612b71565b905060200201358b8b600081811061071557610715612b71565b90506020020135858561165f565b50505b60008787600081811061073b5761073b612b71565b905060200201358a8a600081811061075557610755612b71565b905060200201356107669190612d4c565b90508b8b600081811061077b5761077b612b71565b905060200201602081019061079091906127ca565b6001600160a01b031663095ea7b333836040518363ffffffff1660e01b81526004016107bd929190612a5f565b6020604051808303816000875af11580156107dc573d6000803e3d6000fd5b505050506040513d601f19601f820116820180604052508101906108009190612a78565b50506007805460ff191660019081179091559150509998505050505050505050565b6001546001600160a01b031633146108725760405162461bcd60e51b81526020600482015260136024820152722ab730baba3437b934bd32b21039b2b73232b960691b6044820152606401610258565b60075460ff16156108c55760405162461bcd60e51b815260206004820152601a60248201527f537472617465677920616c726561647920636f6d706c657465640000000000006044820152606401610258565b60006108d382840184612adc565b90506000898960008181106108ea576108ea612b71565b90506020020160208101906108ff91906127ca565b905060008888600081811061091657610916612b71565b90506020020135905060008787600081811061093457610934612b71565b6040805180820190915260088152670a6829c88ae9286960c31b602091820152875188820120910292909201359250507f392eb93b15431fed24df9bba1922ff30a6b9e9ebd22a5c4c61fe780e92be1917141561099b57610996838383610b1d565b610a80565b60408051808201909152600981526841524249545241474560b81b6020918201528451908501207f6531f762ad9fe1348e5cbc8ce25386420ae7bac169c1795e239d9399e722b73f1415610a0b5760006109f7868801886127ca565b9050610a0584848484610b78565b50610a80565b60408051808201909152600881526704d554c5449484f560c41b6020918201528451908501207f77e816de5a30f937416c4c170d45a22395916fda915af3fbbf1317b9b02bbcd21415610a805760008080610a68888a018a612c1f565b925092509250610a7c868686868686610f56565b5050505b6000610a8c8284612d4c565b60405163095ea7b360e01b81529091506001600160a01b0385169063095ea7b390610abd9033908590600401612a5f565b6020604051808303816000875af1158015610adc573d6000803e3d6000fd5b505050506040513d601f19601f82011682018060405250810190610b009190612a78565b50506007805460ff19166001179055505050505050505050505050565b600754610100900460ff1615610b6d5760405162461bcd60e51b81526020600482015260156024820152740aadce0e4deccd2e8c2c4d8ca40e6c2dcc8eed2c6d605b1b6044820152606401610258565b61034b8383836117c7565b60025460408051630dfe168160e01b815290516001600160a01b03909216916000918391630dfe1681916004808201926020929091908290030181865afa158015610bc7573d6000803e3d6000fd5b505050506040513d601f19601f82011682018060405250810190610beb9190612d64565b90506000826001600160a01b031663d21220a76040518163ffffffff1660e01b8152600401602060405180830381865afa158015610c2d573d6000803e3d6000fd5b505050506040513d601f19601f82011682018060405250810190610c519190612d64565b90506000826001600160a01b0316886001600160a01b031614610c745782610c76565b815b90506000859050886001600160a01b0316816001600160a01b0316630dfe16816040518163ffffffff1660e01b8152600401602060405180830381865afa158015610cc5573d6000803e3d6000fd5b505050506040513d601f19601f82011682018060405250810190610ce99190612d64565b6001600160a01b0316148015610d715750816001600160a01b0316816001600160a01b031663d21220a76040518163ffffffff1660e01b8152600401602060405180830381865afa158015610d42573d6000803e3d6000fd5b505050506040513d601f19601f82011682018060405250810190610d669190612d64565b6001600160a01b0316145b80610e6b5750816001600160a01b0316816001600160a01b0316630dfe16816040518163ffffffff1660e01b8152600401602060405180830381865afa158015610dbf573d6000803e3d6000fd5b505050506040513d601f19601f82011682018060405250810190610de39190612d64565b6001600160a01b0316148015610e6b5750886001600160a01b0316816001600160a01b031663d21220a76040518163ffffffff1660e01b8152600401602060405180830381865afa158015610e3c573d6000803e3d6000fd5b505050506040513d601f19601f82011682018060405250810190610e609190612d64565b6001600160a01b0316145b610ead5760405162461bcd60e51b8152602060048201526013602482015272125b9d985b1a59081d185c99d95d081c1bdbdb606a1b6044820152606401610258565b6000610eba8a848b611cd1565b90506000610ec98b8584611e80565b905060008a821115610ee257610edf8b83612d81565b90505b89811115610efb57610ef48a82612d81565b9050610f3c565b60405162461bcd60e51b8152602060048201526016602482015275556e70726f66697461626c652061726269747261676560501b6044820152606401610258565b610f48898d8d84611f62565b505050505050505050505050565b600283511015610fa85760405162461bcd60e51b815260206004820152601960248201527f4174206c656173742032207061697273207265717569726564000000000000006044820152606401610258565b8251610fb5906001612d4c565b8251146110045760405162461bcd60e51b815260206004820152601b60248201527f496e76616c696420746f6b656e73206172726179206c656e67746800000000006044820152606401610258565b82518151146110555760405162461bcd60e51b815260206004820152601c60248201527f496e76616c696420616d6f756e7473206172726179206c656e677468000000006044820152606401610258565b856001600160a01b03168260008151811061107257611072612b71565b60200260200101516001600160a01b0316146110e05760405162461bcd60e51b815260206004820152602760248201527f466972737420746f6b656e206d757374206d6174636820666c617368206c6f6160448201526637103a37b5b2b760c91b6064820152608401610258565b846000805b85518110156113485784818151811061110057611100612b71565b602090810291909101015160015460405163095ea7b360e01b81526001600160a01b039283169263095ea7b39261113e929116908790600401612a5f565b6020604051808303816000875af115801561115d573d6000803e3d6000fd5b505050506040513d601f19601f820116820180604052508101906111819190612a78565b506040805160028082526060820183526000926020830190803683370190505090508582815181106111b5576111b5612b71565b6020026020010151816000815181106111d0576111d0612b71565b6001600160a01b0390921660209283029190910190910152856111f4836001612d4c565b8151811061120457611204612b71565b60200260200101518160018151811061121f5761121f612b71565b6001600160a01b0390921660209283029190910190910152600082156112455784611260565b85838151811061125757611257612b71565b60200260200101515b6001549091506000906001600160a01b03166338ed1739838386306112874261012c612d4c565b6040518663ffffffff1660e01b81526004016112a7959493929190612d98565b6000604051808303816000875af11580156112c6573d6000803e3d6000fd5b505050506040513d6000823e601f3d908101601f191682016040526112ee9190810190612e09565b905080600182516112ff9190612d81565b8151811061130f5761130f612b71565b60200260200101519550600189516113279190612d81565b841415611332578594505b505050808061134090612e9a565b9150506110e5565b50845190915081905b80156115615784818151811061136957611369612b71565b602090810291909101015160015460405163095ea7b360e01b81526001600160a01b039283169263095ea7b3926113a7929116908790600401612a5f565b6020604051808303816000875af11580156113c6573d6000803e3d6000fd5b505050506040513d601f19601f820116820180604052508101906113ea9190612a78565b5060408051600280825260608201835260009260208301908036833701905050905085828151811061141e5761141e612b71565b60200260200101518160008151811061143957611439612b71565b6001600160a01b03909216602092830291909101909101528561145d600184612d81565b8151811061146d5761146d612b71565b60200260200101518160018151811061148857611488612b71565b6001600160a01b039283166020918202929092010152600154600091166338ed1739868385306114ba4261012c612d4c565b6040518663ffffffff1660e01b81526004016114da959493929190612d98565b6000604051808303816000875af11580156114f9573d6000803e3d6000fd5b505050506040513d6000823e601f3d908101601f191682016040526115219190810190612e09565b905080600182516115329190612d81565b8151811061154257611542612b71565b602002602001015194505050808061155990612eb5565b915050611351565b508160008882111561157a576115778983612d81565b90505b878111156115935761158c8882612d81565b90506115db565b60405162461bcd60e51b815260206004820152601f60248201527f556e70726f66697461626c65206d756c74692d686f702073616e6477696368006044820152606401610258565b60005460405163a9059cbb60e01b81526001600160a01b038c81169263a9059cbb9261160f92909116908590600401612a5f565b6020604051808303816000875af115801561162e573d6000803e3d6000fd5b505050506040513d601f19601f820116820180604052508101906116529190612a78565b5050505050505050505050565b600061166c600286612ecc565b9050600061167a8287612d81565b905060006116888884612037565b9050600061169889848888612382565b905060008483116116aa5760006116b4565b6116b48584612d81565b905060008483116116c65760006116d0565b6116d08584612d81565b905060006116de8284612d4c565b9050898111156116f9576116f28a82612d81565b9050611741565b60405162461bcd60e51b815260206004820152601e60248201527f556e70726f66697461626c6520636f6d62696e656420737472617465677900006044820152606401610258565b60005460405163a9059cbb60e01b81526001600160a01b038e81169263a9059cbb9261177592909116908590600401612a5f565b6020604051808303816000875af1158015611794573d6000803e3d6000fd5b505050506040513d601f19601f820116820180604052508101906117b89190612a78565b50505050505050505050505050565b6003546001600160a01b038481169116146118145760405162461bcd60e51b815260206004820152600d60248201526c24b73b30b634b2103a37b5b2b760991b6044820152606401610258565b60035460015460405163095ea7b360e01b81526001600160a01b039283169263095ea7b39261184a929116908690600401612a5f565b6020604051808303816000875af1158015611869573d6000803e3d6000fd5b505050506040513d601f19601f8201168201806040525081019061188d9190612a78565b50604080516002808252606082018352600092602083019080368337505060035482519293506001600160a01b0316918391506000906118cf576118cf612b71565b6001600160a01b03928316602091820292909201015260045482519116908290600190811061190057611900612b71565b6001600160a01b03909216602092830291909101909101526000611925600285612ecc565b6001549091506000906001600160a01b03166338ed17398383863061194c4261012c612d4c565b6040518663ffffffff1660e01b815260040161196c959493929190612d98565b6000604051808303816000875af115801561198b573d6000803e3d6000fd5b505050506040513d6000823e601f3d908101601f191682016040526119b39190810190612e09565b9050600081600183516119c69190612d81565b815181106119d6576119d6612b71565b602090810291909101810151600454600354600254604080518981529586018590529395506001600160a01b0392831694918316939216917f51c932de59c046c124d6faac1f1e5a1f1ca96af8634e3d30bf0be71819534a5f910160405180910390a460045484516001600160a01b03909116908590600090611a5b57611a5b612b71565b6001600160a01b039283166020918202929092010152600354855191169085906001908110611a8c57611a8c612b71565b6001600160a01b0392831660209182029290920101526004805460015460405163095ea7b360e01b81529184169363095ea7b393611ad1939290911691869101612a5f565b6020604051808303816000875af1158015611af0573d6000803e3d6000fd5b505050506040513d601f19601f82011682018060405250810190611b149190612a78565b506001546000906001600160a01b03166338ed173983838830611b394261012c612d4c565b6040518663ffffffff1660e01b8152600401611b59959493929190612d98565b6000604051808303816000875af1158015611b78573d6000803e3d6000fd5b505050506040513d6000823e601f3d908101601f19168201604052611ba09190810190612e09565b905060008160018351611bb39190612d81565b81518110611bc357611bc3612b71565b60200260200101519050600085821115611be457611be18683612d81565b90505b87811115611bfd57611bf68882612d81565b9050611c3d565b60405162461bcd60e51b81526020600482015260156024820152740aadce0e4deccd2e8c2c4d8ca40e6c2dcc8eed2c6d605b1b6044820152606401610258565b60035460045460025460408051888152602081018790529081018590526001600160a01b039384169392831692909116907fd59dd7ff720795cb90db0eaf4f250c5d745a73628bf936169effbb810ee9a0469060600160405180910390a460035460005460405163a9059cbb60e01b81526001600160a01b039283169263a9059cbb9261160f929116908590600401612a5f565b60015460405163095ea7b360e01b81526000916001600160a01b038087169263095ea7b392611d069216908690600401612a5f565b6020604051808303816000875af1158015611d25573d6000803e3d6000fd5b505050506040513d601f19601f82011682018060405250810190611d499190612a78565b506040805160028082526060820183526000926020830190803683370190505090508481600081518110611d7f57611d7f612b71565b60200260200101906001600160a01b031690816001600160a01b0316815250508381600181518110611db357611db3612b71565b6001600160a01b039283166020918202929092010152600154600091166338ed173985838530611de54261012c612d4c565b6040518663ffffffff1660e01b8152600401611e05959493929190612d98565b6000604051808303816000875af1158015611e24573d6000803e3d6000fd5b505050506040513d6000823e601f3d908101601f19168201604052611e4c9190810190612e09565b90508060018251611e5d9190612d81565b81518110611e6d57611e6d612b71565b6020026020010151925050509392505050565b60015460405163095ea7b360e01b81526000916001600160a01b038086169263095ea7b392611eb59216908690600401612a5f565b6020604051808303816000875af1158015611ed4573d6000803e3d6000fd5b505050506040513d601f19601f82011682018060405250810190611ef89190612a78565b506040805160028082526060820183526000926020830190803683370190505090508381600081518110611f2e57611f2e612b71565b60200260200101906001600160a01b031690816001600160a01b0316815250508481600181518110611db357611db3612b71565b600254604080516001600160a01b038681168252602082018690529181018490528682169291909116907f7a62ec736327d3efaebd2eb5695d0f27201b659e9378d8e83403a64101b6081b9060600160405180910390a360005460405163a9059cbb60e01b81526001600160a01b038581169263a9059cbb92611fed92909116908590600401612a5f565b6020604051808303816000875af115801561200c573d6000803e3d6000fd5b505050506040513d601f19601f820116820180604052508101906120309190612a78565b5050505050565b60015460405163095ea7b360e01b81526000916001600160a01b038086169263095ea7b39261206c9216908690600401612a5f565b6020604051808303816000875af115801561208b573d6000803e3d6000fd5b505050506040513d601f19601f820116820180604052508101906120af9190612a78565b5060408051600280825260608201835260009260208301908036833701905050905083816000815181106120e5576120e5612b71565b6001600160a01b03928316602091820292909201015260045482519116908290600190811061211657612116612b71565b6001600160a01b039283166020918202929092010152600154600091166338ed1739858385306121484261012c612d4c565b6040518663ffffffff1660e01b8152600401612168959493929190612d98565b6000604051808303816000875af1158015612187573d6000803e3d6000fd5b505050506040513d6000823e601f3d908101601f191682016040526121af9190810190612e09565b9050600081600183516121c29190612d81565b815181106121d2576121d2612b71565b60200260200101519050600460009054906101000a90046001600160a01b03168360008151811061220557612205612b71565b60200260200101906001600160a01b031690816001600160a01b031681525050858360018151811061223957612239612b71565b6001600160a01b0392831660209182029290920101526004805460015460405163095ea7b360e01b81529184169363095ea7b39361227e939290911691869101612a5f565b6020604051808303816000875af115801561229d573d6000803e3d6000fd5b505050506040513d601f19601f820116820180604052508101906122c19190612a78565b506001546000906001600160a01b03166338ed1739838387306122e64261012c612d4c565b6040518663ffffffff1660e01b8152600401612306959493929190612d98565b6000604051808303816000875af1158015612325573d6000803e3d6000fd5b505050506040513d6000823e601f3d908101601f1916820160405261234d9190810190612e09565b9050806001825161235e9190612d81565b8151811061236e5761236e612b71565b602002602001015194505050505092915050565b6000808390506000816001600160a01b0316630dfe16816040518163ffffffff1660e01b8152600401602060405180830381865afa1580156123c8573d6000803e3d6000fd5b505050506040513d601f19601f820116820180604052508101906123ec9190612d64565b90506000826001600160a01b031663d21220a76040518163ffffffff1660e01b8152600401602060405180830381865afa15801561242e573d6000803e3d6000fd5b505050506040513d601f19601f820116820180604052508101906124529190612d64565b90506000826001600160a01b0316896001600160a01b0316146124755782612477565b815b60015460405163095ea7b360e01b81529192506001600160a01b03808c169263095ea7b3926124ac9216908c90600401612a5f565b6020604051808303816000875af11580156124cb573d6000803e3d6000fd5b505050506040513d601f19601f820116820180604052508101906124ef9190612a78565b50604080516002808252606082018352600092602083019080368337019050509050898160008151811061252557612525612b71565b60200260200101906001600160a01b031690816001600160a01b031681525050818160018151811061255957612559612b71565b6001600160a01b039283166020918202929092010152600154600091166338ed17398b83853061258b4261012c612d4c565b6040518663ffffffff1660e01b81526004016125ab959493929190612d98565b6000604051808303816000875af11580156125ca573d6000803e3d6000fd5b505050506040513d6000823e601f3d908101601f191682016040526125f29190810190612e09565b9050600081600183516126059190612d81565b8151811061261557612615612b71565b60200260200101519050838360008151811061263357612633612b71565b60200260200101906001600160a01b031690816001600160a01b0316815250508b8360018151811061266757612667612b71565b6001600160a01b03928316602091820292909201015260015460405163095ea7b360e01b81528683169263095ea7b3926126a8929116908590600401612a5f565b6020604051808303816000875af11580156126c7573d6000803e3d6000fd5b505050506040513d601f19601f820116820180604052508101906126eb9190612a78565b506001546000906001600160a01b03166338ed1739838387306127104261012c612d4c565b6040518663ffffffff1660e01b8152600401612730959493929190612d98565b6000604051808303816000875af115801561274f573d6000803e3d6000fd5b505050506040513d6000823e601f3d908101601f191682016040526127779190810190612e09565b905080600182516127889190612d81565b8151811061279857612798612b71565b602002602001015198505050505050505050949350505050565b6001600160a01b03811681146127c757600080fd5b50565b6000602082840312156127dc57600080fd5b81356127e7816127b2565b9392505050565b60008083601f84011261280057600080fd5b50813567ffffffffffffffff81111561281857600080fd5b6020830191508360208260051b850101111561283357600080fd5b9250929050565b60008083601f84011261284c57600080fd5b50813567ffffffffffffffff81111561286457600080fd5b60208301915083602082850101111561283357600080fd5b600080600080600080600080600060a08a8c03121561289a57600080fd5b893567ffffffffffffffff808211156128b257600080fd5b6128be8d838e016127ee565b909b50995060208c01359150808211156128d757600080fd5b6128e38d838e016127ee565b909950975060408c01359150808211156128fc57600080fd5b6129088d838e016127ee565b909750955060608c0135915061291d826127b2565b90935060808b0135908082111561293357600080fd5b506129408c828d0161283a565b915080935050809150509295985092959850929598565b80151581146127c757600080fd5b60006020828403121561297757600080fd5b81356127e781612957565b6000806000806000806000806080898b03121561299e57600080fd5b883567ffffffffffffffff808211156129b657600080fd5b6129c28c838d016127ee565b909a50985060208b01359150808211156129db57600080fd5b6129e78c838d016127ee565b909850965060408b0135915080821115612a0057600080fd5b612a0c8c838d016127ee565b909650945060608b0135915080821115612a2557600080fd5b50612a328b828c0161283a565b999c989b5096995094979396929594505050565b600060208284031215612a5857600080fd5b5051919050565b6001600160a01b03929092168252602082015260400190565b600060208284031215612a8a57600080fd5b81516127e781612957565b634e487b7160e01b600052604160045260246000fd5b604051601f8201601f1916810167ffffffffffffffff81118282101715612ad457612ad4612a95565b604052919050565b60006020808385031215612aef57600080fd5b823567ffffffffffffffff80821115612b0757600080fd5b818501915085601f830112612b1b57600080fd5b813581811115612b2d57612b2d612a95565b612b3f601f8201601f19168501612aab565b91508082528684828501011115612b5557600080fd5b8084840185840137600090820190930192909252509392505050565b634e487b7160e01b600052603260045260246000fd5b600067ffffffffffffffff821115612ba157612ba1612a95565b5060051b60200190565b600082601f830112612bbc57600080fd5b81356020612bd1612bcc83612b87565b612aab565b82815260059290921b84018101918181019086841115612bf057600080fd5b8286015b84811015612c14578035612c07816127b2565b8352918301918301612bf4565b509695505050505050565b600080600060608486031215612c3457600080fd5b833567ffffffffffffffff80821115612c4c57600080fd5b612c5887838801612bab565b9450602091508186013581811115612c6f57600080fd5b612c7b88828901612bab565b945050604086013581811115612c9057600080fd5b86019050601f81018713612ca357600080fd5b8035612cb1612bcc82612b87565b81815260059190911b82018301908381019089831115612cd057600080fd5b928401925b82841015612cee57833582529284019290840190612cd5565b80955050505050509250925092565b60008060408385031215612d1057600080fd5b8235612d1b816127b2565b91506020830135612d2b816127b2565b809150509250929050565b634e487b7160e01b600052601160045260246000fd5b60008219821115612d5f57612d5f612d36565b500190565b600060208284031215612d7657600080fd5b81516127e7816127b2565b600082821015612d9357612d93612d36565b500390565b600060a082018783526020878185015260a0604085015281875180845260c086019150828901935060005b81811015612de85784516001600160a01b031683529383019391830191600101612dc3565b50506001600160a01b03969096166060850152505050608001529392505050565b60006020808385031215612e1c57600080fd5b825167ffffffffffffffff811115612e3357600080fd5b8301601f81018513612e4457600080fd5b8051612e52612bcc82612b87565b81815260059190911b82018301908381019087831115612e7157600080fd5b928401925b82841015612e8f57835182529284019290840190612e76565b979650505050505050565b6000600019821415612eae57612eae612d36565b5060010190565b600081612ec457612ec4612d36565b506000190190565b600082612ee957634e487b7160e01b600052601260045260246000fd5b50049056fea2646970667358221220faaff1b50b57cfd2c6218532270562e7a56f823dbad79a2339f61121f9a1492964736f6c634300080a0033",
  "linkReferences": {},
  "deployedLinkReferences": {}
}