{
  "_format": "hh-sol-artifact-1",
  "contractName": "TestFlashLoanReceiver",
  "sourceName": "contracts/mocks/TestFlashLoanReceiver.sol",
  "abi": [
    {
      "inputs": [
        {
          "internalType": "address",
          "name": "_owner",
          "type": "address"
        },
        {
          "internalType": "address",
          "name": "_uniswapRouter",
          "type": "address"
        },
        {
          "internalType": "address",
          "name": "_targetPair",
          "type": "address"
        },
        {
          "internalType": "address",
          "name": "_tokenIn",
          "type": "address"
        },
        {
          "internalType": "address",
          "name": "_tokenOut",
          "type": "address"
        },
        {
          "internalType": "uint256",
          "name": "_victimAmount",
          "type": "uint256"
        },
        {
          "internalType": "uint256",
          "name": "_victimMinOut",
          "type": "uint256"
        }
      ],
      "stateMutability": "nonpayable",
      "type": "constructor"
    },
    {
      "anonymous": false,
      "inputs": [
        {
          "indexed": true,
          "internalType": "address",
          "name": "sourcePool",
          "type": "address"
        },
        {
          "indexed": true,
          "internalType": "address",
          "name": "targetPool",
          "type": "address"
        },
        {
          "indexed": false,
          "internalType": "address",
          "name": "tokenIn",
          "type": "address"
        },
        {
          "indexed": false,
          "internalType": "uint256",
          "name": "amountIn",
          "type": "uint256"
        },
        {
          "indexed": false,
          "internalType": "uint256",
          "name": "profit",
          "type": "uint256"
        }
      ],
      "name": "ArbitrageExecuted",
      "type": "event"
    },
    {
      "anonymous": false,
      "inputs": [
        {
          "indexed": true,
          "internalType": "address",
          "name": "pair",
          "type": "address"
        },
        {
          "indexed": true,
          "internalType": "address",
          "name": "tokenIn",
          "type": "address"
        },
        {
          "indexed": true,
          "internalType": "address",
          "name": "tokenOut",
          "type": "address"
        },
        {
          "indexed": false,
          "internalType": "uint256",
          "name": "amountIn",
          "type": "uint256"
        },
        {
          "indexed": false,
          "internalType": "uint256",
          "name": "amountOut",
          "type": "uint256"
        },
        {
          "indexed": false,
          "internalType": "uint256",
          "name": "profit",
          "type": "uint256"
        }
      ],
      "name": "BackRunExecuted",
      "type": "event"
    },
    {
      "anonymous": false,
      "inputs": [
        {
          "indexed": true,
          "internalType": "address",
          "name": "pair",
          "type": "address"
        },
        {
          "indexed": true,
          "internalType": "address",
          "name": "tokenIn",
          "type": "address"
        },
        {
          "indexed": true,
          "internalType": "address",
          "name": "tokenOut",
          "type": "address"
        },
        {
          "indexed": false,
          "internalType": "uint256",
          "name": "amountIn",
          "type": "uint256"
        },
        {
          "indexed": false,
          "internalType": "uint256",
          "name": "amountOut",
          "type": "uint256"
        }
      ],
      "name": "FrontRunExecuted",
      "type": "event"
    },
    {
      "inputs": [
        {
          "internalType": "bytes",
          "name": "params",
          "type": "bytes"
        }
      ],
      "name": "decodeCombinedParams",
      "outputs": [
        {
          "internalType": "address",
          "name": "sourcePool",
          "type": "address"
        },
        {
          "internalType": "address",
          "name": "targetPool",
          "type": "address"
        }
      ],
      "stateMutability": "pure",
      "type": "function"
    },
    {
      "inputs": [
        {
          "internalType": "bytes",
          "name": "params",
          "type": "bytes"
        }
      ],
      "name": "decodeMultiHopParams",
      "outputs": [
        {
          "internalType": "address[]",
          "name": "pairs",
          "type": "address[]"
        },
        {
          "internalType": "address[]",
          "name": "tokens",
          "type": "address[]"
        },
        {
          "internalType": "uint256[]",
          "name": "amounts",
          "type": "uint256[]"
        }
      ],
      "stateMutability": "pure",
      "type": "function"
    },
    {
      "inputs": [
        {
          "internalType": "bytes",
          "name": "params",
          "type": "bytes"
        }
      ],
      "name": "decodeStrategyType",
      "outputs": [
        {
          "internalType": "string",
          "name": "",
          "type": "string"
        }
      ],
      "stateMutability": "pure",
      "type": "function"
    },
    {
      "inputs": [
        {
          "internalType": "bytes",
          "name": "params",
          "type": "bytes"
        }
      ],
      "name": "decodeTargetPool",
      "outputs": [
        {
          "internalType": "address",
          "name": "",
          "type": "address"
        }
      ],
      "stateMutability": "pure",
      "type": "function"
    },
    {
      "inputs": [
        {
          "internalType": "address[]",
          "name": "assets",
          "type": "address[]"
        },
        {
          "internalType": "uint256[]",
          "name": "amounts",
          "type": "uint256[]"
        },
        {
          "internalType": "uint256[]",
          "name": "premiums",
          "type": "uint256[]"
        },
        {
          "internalType": "address",
          "name": "initiator",
          "type": "address"
        },
        {
          "internalType": "bytes",
          "name": "params",
          "type": "bytes"
        }
      ],
      "name": "executeOperation",
      "outputs": [
        {
          "internalType": "bool",
          "name": "",
          "type": "bool"
        }
      ],
      "stateMutability": "nonpayable",
      "type": "function"
    },
    {
      "inputs": [],
      "name": "owner",
      "outputs": [
        {
          "internalType": "address",
          "name": "",
          "type": "address"
        }
      ],
      "stateMutability": "view",
      "type": "function"
    },
    {
      "inputs": [
        {
          "internalType": "contract IERC20[]",
          "name": "tokens",
          "type": "address[]"
        },
        {
          "internalType": "uint256[]",
          "name": "amounts",
          "type": "uint256[]"
        },
        {
          "internalType": "uint256[]",
          "name": "feeAmounts",
          "type": "uint256[]"
        },
        {
          "internalType": "bytes",
          "name": "userData",
          "type": "bytes"
        }
      ],
      "name": "receiveFlashLoan",
      "outputs": [],
      "stateMutability": "nonpayable",
      "type": "function"
    },
    {
      "inputs": [
        {
          "internalType": "address",
          "name": "token",
          "type": "address"
        }
      ],
      "name": "recoverTokens",
      "outputs": [],
      "stateMutability": "nonpayable",
      "type": "function"
    },
    {
      "inputs": [
        {
          "internalType": "bool",
          "name": "_shouldBeUnprofitable",
          "type": "bool"
        }
      ],
      "name": "setShouldBeUnprofitable",
      "outputs": [],
      "stateMutability": "nonpayable",
      "type": "function"
    },
    {
      "inputs": [],
      "name": "shouldBeUnprofitable",
      "outputs": [
        {
          "internalType": "bool",
          "name": "",
          "type": "bool"
        }
      ],
      "stateMutability": "view",
      "type": "function"
    },
    {
      "inputs": [],
      "name": "strategyCompleted",
      "outputs": [
        {
          "internalType": "bool",
          "name": "",
          "type": "bool"
        }
      ],
      "stateMutability": "view",
      "type": "function"
    },
    {
      "inputs": [],
      "name": "targetPair",
      "outputs": [
        {
          "internalType": "address",
          "name": "",
          "type": "address"
        }
      ],
      "stateMutability": "view",
      "type": "function"
    },
    {
      "inputs": [],
      "name": "tokenIn",
      "outputs": [
        {
          "internalType": "address",
          "name": "",
          "type": "address"
        }
      ],
      "stateMutability": "view",
      "type": "function"
    },
    {
      "inputs": [],
      "name": "tokenOut",
      "outputs": [
        {
          "internalType": "address",
          "name": "",
          "type": "address"
        }
      ],
      "stateMutability": "view",
      "type": "function"
    },
    {
      "inputs": [],
      "name": "uniswapRouter",
      "outputs": [
        {
          "internalType": "address",
          "name": "",
          "type": "address"
        }
      ],
      "stateMutability": "view",
      "type": "function"
    },
    {
      "inputs": [],
      "name": "victimAmount",
      "outputs": [
        {
          "internalType": "uint256",
          "name": "",
          "type": "uint256"
        }
      ],
      "stateMutability": "view",
      "type": "function"
    },
    {
      "inputs": [],
      "name": "victimMinOut",
      "outputs": [
        {
          "internalType": "uint256",
          "name": "",
          "type": "uint256"
        }
      ],
      "stateMutability": "view",
      "type": "function"
    }
  ],
  "bytecode": "0x60806040523480156200001157600080fd5b5060405162003a6038038062003a608339810160408190526200003491620000cf565b600080546001600160a01b039889166001600160a01b03199182161790915560018054978916978216979097179096556002805495881695871695909517909455600380549387169386169390931790925560048054919095169316929092179092556005556006556007805461ffff191661010017905562000152565b80516001600160a01b0381168114620000ca57600080fd5b919050565b600080600080600080600060e0888a031215620000eb57600080fd5b620000f688620000b2565b96506200010660208901620000b2565b95506200011660408901620000b2565b94506200012660608901620000b2565b93506200013660808901620000b2565b925060a0880151915060c0880151905092959891949750929550565b6138fe80620001626000396000f3fe608060405234801561001057600080fd5b506004361061010b5760003560e01c8063aec64e1f116100a2578063c6c6c5ab11610071578063c6c6c5ab1461026e578063d0202d3b14610281578063e5d2ab7f14610294578063f04f2707146102a1578063f6f415f6146102b457600080fd5b8063aec64e1f146101fb578063b81217b91461021b578063bdf672a314610224578063c0e4fb5c1461024c57600080fd5b80638da5cb5b116100de5780638da5cb5b1461017f578063920f5c8414610192578063a0d55878146101b5578063ac849230146101e857600080fd5b8063077e9f091461011057806316114acd1461012c5780636daf390b14610141578063735de9f71461016c575b600080fd5b61011960055481565b6040519081526020015b60405180910390f35b61013f61013a366004612e7b565b6102c6565b005b600354610154906001600160a01b031681565b6040516001600160a01b039091168152602001610123565b600154610154906001600160a01b031681565b600054610154906001600160a01b031681565b6101a56101a0366004612f24565b610415565b6040519015158152602001610123565b6101c86101c3366004612ffe565b610b1f565b604080516001600160a01b03938416815292909116602083015201610123565b6101546101f6366004612ffe565b610b50565b61020e610209366004612ffe565b610b78565b604051610123919061306b565b61011960065481565b61013f6102323660046130ac565b600780549115156101000261ff0019909216919091179055565b61025f61025a366004612ffe565b610bb4565b6040516101239392919061310d565b600254610154906001600160a01b031681565b600454610154906001600160a01b031681565b6007546101a59060ff1681565b61013f6102af366004613176565b610c04565b6007546101a590610100900460ff1681565b6000546001600160a01b031633146103255760405162461bcd60e51b815260206004820152601d60248201527f4f6e6c79206f776e65722063616e207265636f76657220746f6b656e7300000060448201526064015b60405180910390fd5b6040516370a0823160e01b81523060048201526000906001600160a01b038316906370a0823190602401602060405180830381865afa15801561036c573d6000803e3d6000fd5b505050506040513d601f19601f820116820180604052508101906103909190613239565b905080156104115760005460405163a9059cbb60e01b81526001600160a01b038481169263a9059cbb926103cc92909116908590600401613252565b6020604051808303816000875af11580156103eb573d6000803e3d6000fd5b505050506040513d601f19601f8201168201806040525081019061040f919061326b565b505b5050565b600080546001600160a01b0385811691161461046c5760405162461bcd60e51b81526020600482015260166024820152752ab730baba3437b934bd32b21034b734ba34b0ba37b960511b604482015260640161031c565b60075460ff16156104bf5760405162461bcd60e51b815260206004820152601a60248201527f537472617465677920616c726561647920636f6d706c65746564000000000000604482015260640161031c565b60405163aec64e1f60e01b8152606090309063aec64e1f906104e79087908790600401613288565b600060405180830381865afa92505050801561052557506040513d6000823e601f3d908101601f191682016040526105229190810190613324565b60015b61054e57506040805180820190915260088152670a6829c88ae9286960c31b6020820152610551565b90505b6040805180820190915260088152670a6829c88ae9286960c31b6020918201528151908201207f392eb93b15431fed24df9bba1922ff30a6b9e9ebd22a5c4c61fe780e92be19171415610607576106028b8b60008181106105b4576105b461339f565b90506020020160208101906105c99190612e7b565b8a8a60008181106105dc576105dc61339f565b90506020020135898960008181106105f6576105f661339f565b9050602002013561103e565b610a23565b60408051808201909152600981526841524249545241474560b81b6020918201528151908201207f6531f762ad9fe1348e5cbc8ce25386420ae7bac169c1795e239d9399e722b73f141561073057604051630ac8492360e41b8152600090309063ac8492309061067d9088908890600401613288565b602060405180830381865afa9250505080156106b6575060408051601f3d908101601f191682019092526106b3918101906133b5565b60015b6106c2575060006106c5565b90505b61072a8c8c60008181106106db576106db61339f565b90506020020160208101906106f09190612e7b565b8b8b60008181106107035761070361339f565b905060200201358a8a600081811061071d5761071d61339f565b9050602002013584611099565b50610a23565b60408051808201909152600881526704d554c5449484f560c41b6020918201528151908201207f77e816de5a30f937416c4c170d45a22395916fda915af3fbbf1317b9b02bbcd214156108fc576040805160008082526020820181815282840191825260608301938490526330393ed760e21b9093529091903063c0e4fb5c6107bd898960648801613288565b600060405180830381865afa9250505080156107fb57506040513d6000823e601f3d908101601f191682016040526107f891908101906134bf565b60015b6108045761080c565b919450925090505b6000835111801561081e575060008251115b801561082b575060008151115b1561089c576108978e8e60008181106108465761084661339f565b905060200201602081019061085b9190612e7b565b8d8d600081811061086e5761086e61339f565b905060200201358c8c60008181106108885761088861339f565b90506020020135868686611574565b6108f4565b6108f48e8e60008181106108b2576108b261339f565b90506020020160208101906108c79190612e7b565b8d8d60008181106108da576108da61339f565b905060200201358c8c60008181106105f6576105f661339f565b505050610a23565b60408051808201909152600881526710d3d3509253915160c21b6020918201528151908201207f3ee9fab4ce628daedcc8d0cb548e7a5a5122cdaba91e83dcefdd038e7815f79a1415610a235760405163141aab0f60e31b81526000908190309063a0d55878906109739089908990600401613288565b6040805180830381865afa9250505080156109ab575060408051601f3d908101601f191682019092526109a891810190613546565b60015b6109b4576109ba565b90925090505b610a208d8d60008181106109d0576109d061339f565b90506020020160208101906109e59190612e7b565b8c8c60008181106109f8576109f861339f565b905060200201358b8b6000818110610a1257610a1261339f565b905060200201358585611c7d565b50505b600087876000818110610a3857610a3861339f565b905060200201358a8a6000818110610a5257610a5261339f565b90506020020135610a639190613596565b90508b8b6000818110610a7857610a7861339f565b9050602002016020810190610a8d9190612e7b565b6001600160a01b031663095ea7b333836040518363ffffffff1660e01b8152600401610aba929190613252565b6020604051808303816000875af1158015610ad9573d6000803e3d6000fd5b505050506040513d601f19601f82011682018060405250810190610afd919061326b565b50506007805460ff191660019081179091559150509998505050505050505050565b6000806060831015610b3657506000905080610b49565b610b42838501856135ff565b5090925090505b9250929050565b60006020821015610b6357506000610b72565b610b6f82840184612e7b565b90505b92915050565b60606040821015610ba857506040805180820190915260088152670a6829c88ae9286960c31b6020820152610b72565b610b6f82840184613656565b606080806080841015610be85750506040805160008082526020820181815282840191825260608301909352909250610bfd565b610bf4848601866136ee565b50919450925090505b9250925092565b60075460ff1615610c575760405162461bcd60e51b815260206004820152601a60248201527f537472617465677920616c726561647920636f6d706c65746564000000000000604482015260640161031c565b60405163aec64e1f60e01b8152606090309063aec64e1f90610c7f9086908690600401613288565b600060405180830381865afa925050508015610cbd57506040513d6000823e601f3d908101601f19168201604052610cba9190810190613324565b60015b610ce657506040805180820190915260088152670a6829c88ae9286960c31b6020820152610ce9565b90505b600089896000818110610cfe57610cfe61339f565b9050602002016020810190610d139190612e7b565b9050600088886000818110610d2a57610d2a61339f565b905060200201359050600087876000818110610d4857610d4861339f565b6040805180820190915260088152670a6829c88ae9286960c31b602091820152875188820120910292909201359250507f392eb93b15431fed24df9bba1922ff30a6b9e9ebd22a5c4c61fe780e92be19171415610daf57610daa83838361103e565b610fa1565b60408051808201909152600981526841524249545241474560b81b6020918201528451908501207f6531f762ad9fe1348e5cbc8ce25386420ae7bac169c1795e239d9399e722b73f1415610e7f57604051630ac8492360e41b8152600090309063ac84923090610e25908a908a90600401613288565b602060405180830381865afa925050508015610e5e575060408051601f3d908101601f19168201909252610e5b918101906133b5565b60015b610e6a57506000610e6d565b90505b610e7984848484611099565b50610fa1565b60408051808201909152600881526704d554c5449484f560c41b6020918201528451908501207f77e816de5a30f937416c4c170d45a22395916fda915af3fbbf1317b9b02bbcd21415610fa1576040805160008082526020820181815282840191825260608301938490526330393ed760e21b9093529091903063c0e4fb5c610f0c8b8b60648801613288565b600060405180830381865afa925050508015610f4a57506040513d6000823e601f3d908101601f19168201604052610f4791908101906134bf565b60015b610f5357610f5b565b919450925090505b60008351118015610f6d575060008251115b8015610f7a575060008151115b15610f9257610f8d868686868686611574565b610f9d565b610f9d86868661103e565b5050505b6000610fad8284613596565b60405163095ea7b360e01b81529091506001600160a01b0385169063095ea7b390610fde9033908590600401613252565b6020604051808303816000875af1158015610ffd573d6000803e3d6000fd5b505050506040513d601f19601f82011682018060405250810190611021919061326b565b50506007805460ff19166001179055505050505050505050505050565b600754610100900460ff161561108e5760405162461bcd60e51b81526020600482015260156024820152740aadce0e4deccd2e8c2c4d8ca40e6c2dcc8eed2c6d605b1b604482015260640161031c565b61040f838383611de5565b6002546001600160a01b0316806110b0575061156e565b6000816001600160a01b0316630dfe16816040518163ffffffff1660e01b8152600401602060405180830381865afa92505050801561110c575060408051601f3d908101601f19168201909252611109918101906133b5565b60015b61111757505061156e565b829150506000816001600160a01b0316630dfe16816040518163ffffffff1660e01b8152600401602060405180830381865afa15801561115b573d6000803e3d6000fd5b505050506040513d601f19601f8201168201806040525081019061117f91906133b5565b90506000826001600160a01b031663d21220a76040518163ffffffff1660e01b8152600401602060405180830381865afa1580156111c1573d6000803e3d6000fd5b505050506040513d601f19601f820116820180604052508101906111e591906133b5565b90506000826001600160a01b0316896001600160a01b031614611208578261120a565b815b90506001600160a01b03861661122457505050505061156e565b6000866001600160a01b0316630dfe16816040518163ffffffff1660e01b8152600401602060405180830381865afa925050508015611280575060408051601f3d908101601f1916820190925261127d918101906133b5565b60015b61128f5750505050505061156e565b8791505060008a6001600160a01b0316826001600160a01b0316630dfe16816040518163ffffffff1660e01b8152600401602060405180830381865afa1580156112dd573d6000803e3d6000fd5b505050506040513d601f19601f8201168201806040525081019061130191906133b5565b6001600160a01b03161480156113895750826001600160a01b0316826001600160a01b031663d21220a76040518163ffffffff1660e01b8152600401602060405180830381865afa15801561135a573d6000803e3d6000fd5b505050506040513d601f19601f8201168201806040525081019061137e91906133b5565b6001600160a01b0316145b806114835750826001600160a01b0316826001600160a01b0316630dfe16816040518163ffffffff1660e01b8152600401602060405180830381865afa1580156113d7573d6000803e3d6000fd5b505050506040513d601f19601f820116820180604052508101906113fb91906133b5565b6001600160a01b031614801561148357508a6001600160a01b0316826001600160a01b031663d21220a76040518163ffffffff1660e01b8152600401602060405180830381865afa158015611454573d6000803e3d6000fd5b505050506040513d601f19601f8201168201806040525081019061147891906133b5565b6001600160a01b0316145b9050806114c85760405162461bcd60e51b8152602060048201526013602482015272125b9d985b1a59081d185c99d95d081c1bdbdb606a1b604482015260640161031c565b60006114d58c858d6122ef565b905060006114e48d868461249e565b905060008c8211156114fd576114fa8d836137ed565b90505b8b8111156115165761150f8c826137ed565b9050611557565b60405162461bcd60e51b8152602060048201526016602482015275556e70726f66697461626c652061726269747261676560501b604482015260640161031c565b6115638b8f8f84612580565b505050505050505050505b50505050565b6002835110156115c65760405162461bcd60e51b815260206004820152601960248201527f4174206c65617374203220706169727320726571756972656400000000000000604482015260640161031c565b82516115d3906001613596565b8251146116225760405162461bcd60e51b815260206004820152601b60248201527f496e76616c696420746f6b656e73206172726179206c656e6774680000000000604482015260640161031c565b82518151146116735760405162461bcd60e51b815260206004820152601c60248201527f496e76616c696420616d6f756e7473206172726179206c656e67746800000000604482015260640161031c565b856001600160a01b0316826000815181106116905761169061339f565b60200260200101516001600160a01b0316146116fe5760405162461bcd60e51b815260206004820152602760248201527f466972737420746f6b656e206d757374206d6174636820666c617368206c6f6160448201526637103a37b5b2b760c91b606482015260840161031c565b846000805b85518110156119665784818151811061171e5761171e61339f565b602090810291909101015160015460405163095ea7b360e01b81526001600160a01b039283169263095ea7b39261175c929116908790600401613252565b6020604051808303816000875af115801561177b573d6000803e3d6000fd5b505050506040513d601f19601f8201168201806040525081019061179f919061326b565b506040805160028082526060820183526000926020830190803683370190505090508582815181106117d3576117d361339f565b6020026020010151816000815181106117ee576117ee61339f565b6001600160a01b039092166020928302919091019091015285611812836001613596565b815181106118225761182261339f565b60200260200101518160018151811061183d5761183d61339f565b6001600160a01b039092166020928302919091019091015260008215611863578461187e565b8583815181106118755761187561339f565b60200260200101515b6001549091506000906001600160a01b03166338ed1739838386306118a54261012c613596565b6040518663ffffffff1660e01b81526004016118c5959493929190613804565b6000604051808303816000875af11580156118e4573d6000803e3d6000fd5b505050506040513d6000823e601f3d908101601f1916820160405261190c9190810190613840565b9050806001825161191d91906137ed565b8151811061192d5761192d61339f565b602002602001015195506001895161194591906137ed565b841415611950578594505b505050808061195e90613874565b915050611703565b50845190915081905b8015611b7f578481815181106119875761198761339f565b602090810291909101015160015460405163095ea7b360e01b81526001600160a01b039283169263095ea7b3926119c5929116908790600401613252565b6020604051808303816000875af11580156119e4573d6000803e3d6000fd5b505050506040513d601f19601f82011682018060405250810190611a08919061326b565b50604080516002808252606082018352600092602083019080368337019050509050858281518110611a3c57611a3c61339f565b602002602001015181600081518110611a5757611a5761339f565b6001600160a01b039092166020928302919091019091015285611a7b6001846137ed565b81518110611a8b57611a8b61339f565b602002602001015181600181518110611aa657611aa661339f565b6001600160a01b039283166020918202929092010152600154600091166338ed173986838530611ad84261012c613596565b6040518663ffffffff1660e01b8152600401611af8959493929190613804565b6000604051808303816000875af1158015611b17573d6000803e3d6000fd5b505050506040513d6000823e601f3d908101601f19168201604052611b3f9190810190613840565b90508060018251611b5091906137ed565b81518110611b6057611b6061339f565b6020026020010151945050508080611b779061388f565b91505061196f565b5081600088821115611b9857611b9589836137ed565b90505b87811115611bb157611baa88826137ed565b9050611bf9565b60405162461bcd60e51b815260206004820152601f60248201527f556e70726f66697461626c65206d756c74692d686f702073616e647769636800604482015260640161031c565b60005460405163a9059cbb60e01b81526001600160a01b038c81169263a9059cbb92611c2d92909116908590600401613252565b6020604051808303816000875af1158015611c4c573d6000803e3d6000fd5b505050506040513d601f19601f82011682018060405250810190611c70919061326b565b5050505050505050505050565b6000611c8a6002866138a6565b90506000611c9882876137ed565b90506000611ca68884612655565b90506000611cb6898488886129a0565b90506000848311611cc8576000611cd2565b611cd285846137ed565b90506000848311611ce4576000611cee565b611cee85846137ed565b90506000611cfc8284613596565b905089811115611d1757611d108a826137ed565b9050611d5f565b60405162461bcd60e51b815260206004820152601e60248201527f556e70726f66697461626c6520636f6d62696e65642073747261746567790000604482015260640161031c565b60005460405163a9059cbb60e01b81526001600160a01b038e81169263a9059cbb92611d9392909116908590600401613252565b6020604051808303816000875af1158015611db2573d6000803e3d6000fd5b505050506040513d601f19601f82011682018060405250810190611dd6919061326b565b50505050505050505050505050565b6003546001600160a01b03848116911614611e325760405162461bcd60e51b815260206004820152600d60248201526c24b73b30b634b2103a37b5b2b760991b604482015260640161031c565b60035460015460405163095ea7b360e01b81526001600160a01b039283169263095ea7b392611e68929116908690600401613252565b6020604051808303816000875af1158015611e87573d6000803e3d6000fd5b505050506040513d601f19601f82011682018060405250810190611eab919061326b565b50604080516002808252606082018352600092602083019080368337505060035482519293506001600160a01b031691839150600090611eed57611eed61339f565b6001600160a01b039283166020918202929092010152600454825191169082906001908110611f1e57611f1e61339f565b6001600160a01b03909216602092830291909101909101526000611f436002856138a6565b6001549091506000906001600160a01b03166338ed173983838630611f6a4261012c613596565b6040518663ffffffff1660e01b8152600401611f8a959493929190613804565b6000604051808303816000875af1158015611fa9573d6000803e3d6000fd5b505050506040513d6000823e601f3d908101601f19168201604052611fd19190810190613840565b905060008160018351611fe491906137ed565b81518110611ff457611ff461339f565b602090810291909101810151600454600354600254604080518981529586018590529395506001600160a01b0392831694918316939216917f51c932de59c046c124d6faac1f1e5a1f1ca96af8634e3d30bf0be71819534a5f910160405180910390a460045484516001600160a01b039091169085906000906120795761207961339f565b6001600160a01b0392831660209182029290920101526003548551911690859060019081106120aa576120aa61339f565b6001600160a01b0392831660209182029290920101526004805460015460405163095ea7b360e01b81529184169363095ea7b3936120ef939290911691869101613252565b6020604051808303816000875af115801561210e573d6000803e3d6000fd5b505050506040513d601f19601f82011682018060405250810190612132919061326b565b506001546000906001600160a01b03166338ed1739838388306121574261012c613596565b6040518663ffffffff1660e01b8152600401612177959493929190613804565b6000604051808303816000875af1158015612196573d6000803e3d6000fd5b505050506040513d6000823e601f3d908101601f191682016040526121be9190810190613840565b9050600081600183516121d191906137ed565b815181106121e1576121e161339f565b60200260200101519050600085821115612202576121ff86836137ed565b90505b8781111561221b5761221488826137ed565b905061225b565b60405162461bcd60e51b81526020600482015260156024820152740aadce0e4deccd2e8c2c4d8ca40e6c2dcc8eed2c6d605b1b604482015260640161031c565b60035460045460025460408051888152602081018790529081018590526001600160a01b039384169392831692909116907fd59dd7ff720795cb90db0eaf4f250c5d745a73628bf936169effbb810ee9a0469060600160405180910390a460035460005460405163a9059cbb60e01b81526001600160a01b039283169263a9059cbb92611c2d929116908590600401613252565b60015460405163095ea7b360e01b81526000916001600160a01b038087169263095ea7b3926123249216908690600401613252565b6020604051808303816000875af1158015612343573d6000803e3d6000fd5b505050506040513d601f19601f82011682018060405250810190612367919061326b565b50604080516002808252606082018352600092602083019080368337019050509050848160008151811061239d5761239d61339f565b60200260200101906001600160a01b031690816001600160a01b03168152505083816001815181106123d1576123d161339f565b6001600160a01b039283166020918202929092010152600154600091166338ed1739858385306124034261012c613596565b6040518663ffffffff1660e01b8152600401612423959493929190613804565b6000604051808303816000875af1158015612442573d6000803e3d6000fd5b505050506040513d6000823e601f3d908101601f1916820160405261246a9190810190613840565b9050806001825161247b91906137ed565b8151811061248b5761248b61339f565b6020026020010151925050509392505050565b60015460405163095ea7b360e01b81526000916001600160a01b038086169263095ea7b3926124d39216908690600401613252565b6020604051808303816000875af11580156124f2573d6000803e3d6000fd5b505050506040513d601f19601f82011682018060405250810190612516919061326b565b50604080516002808252606082018352600092602083019080368337019050509050838160008151811061254c5761254c61339f565b60200260200101906001600160a01b031690816001600160a01b03168152505084816001815181106123d1576123d161339f565b600254604080516001600160a01b038681168252602082018690529181018490528682169291909116907f7a62ec736327d3efaebd2eb5695d0f27201b659e9378d8e83403a64101b6081b9060600160405180910390a360005460405163a9059cbb60e01b81526001600160a01b038581169263a9059cbb9261260b92909116908590600401613252565b6020604051808303816000875af115801561262a573d6000803e3d6000fd5b505050506040513d601f19601f8201168201806040525081019061264e919061326b565b5050505050565b60015460405163095ea7b360e01b81526000916001600160a01b038086169263095ea7b39261268a9216908690600401613252565b6020604051808303816000875af11580156126a9573d6000803e3d6000fd5b505050506040513d601f19601f820116820180604052508101906126cd919061326b565b5060408051600280825260608201835260009260208301908036833701905050905083816000815181106127035761270361339f565b6001600160a01b0392831660209182029290920101526004548251911690829060019081106127345761273461339f565b6001600160a01b039283166020918202929092010152600154600091166338ed1739858385306127664261012c613596565b6040518663ffffffff1660e01b8152600401612786959493929190613804565b6000604051808303816000875af11580156127a5573d6000803e3d6000fd5b505050506040513d6000823e601f3d908101601f191682016040526127cd9190810190613840565b9050600081600183516127e091906137ed565b815181106127f0576127f061339f565b60200260200101519050600460009054906101000a90046001600160a01b0316836000815181106128235761282361339f565b60200260200101906001600160a01b031690816001600160a01b03168152505085836001815181106128575761285761339f565b6001600160a01b0392831660209182029290920101526004805460015460405163095ea7b360e01b81529184169363095ea7b39361289c939290911691869101613252565b6020604051808303816000875af11580156128bb573d6000803e3d6000fd5b505050506040513d601f19601f820116820180604052508101906128df919061326b565b506001546000906001600160a01b03166338ed1739838387306129044261012c613596565b6040518663ffffffff1660e01b8152600401612924959493929190613804565b6000604051808303816000875af1158015612943573d6000803e3d6000fd5b505050506040513d6000823e601f3d908101601f1916820160405261296b9190810190613840565b9050806001825161297c91906137ed565b8151811061298c5761298c61339f565b602002602001015194505050505092915050565b60006001600160a01b03831615806129bf57506001600160a01b038216155b156129cb575082612e5b565b6000836001600160a01b0316630dfe16816040518163ffffffff1660e01b8152600401602060405180830381865afa925050508015612a27575060408051601f3d908101601f19168201909252612a24918101906133b5565b60015b612a345784915050612e5b565b849150506000816001600160a01b0316630dfe16816040518163ffffffff1660e01b8152600401602060405180830381865afa158015612a78573d6000803e3d6000fd5b505050506040513d601f19601f82011682018060405250810190612a9c91906133b5565b90506000826001600160a01b031663d21220a76040518163ffffffff1660e01b8152600401602060405180830381865afa158015612ade573d6000803e3d6000fd5b505050506040513d601f19601f82011682018060405250810190612b0291906133b5565b90506000826001600160a01b0316896001600160a01b031614612b255782612b27565b815b60015460405163095ea7b360e01b81529192506001600160a01b03808c169263095ea7b392612b5c9216908c90600401613252565b6020604051808303816000875af1158015612b7b573d6000803e3d6000fd5b505050506040513d601f19601f82011682018060405250810190612b9f919061326b565b506040805160028082526060820183526000926020830190803683370190505090508981600081518110612bd557612bd561339f565b60200260200101906001600160a01b031690816001600160a01b0316815250508181600181518110612c0957612c0961339f565b6001600160a01b039283166020918202929092010152600154600091166338ed17398b838530612c3b4261012c613596565b6040518663ffffffff1660e01b8152600401612c5b959493929190613804565b6000604051808303816000875af1158015612c7a573d6000803e3d6000fd5b505050506040513d6000823e601f3d908101601f19168201604052612ca29190810190613840565b905060008160018351612cb591906137ed565b81518110612cc557612cc561339f565b602002602001015190508383600081518110612ce357612ce361339f565b60200260200101906001600160a01b031690816001600160a01b0316815250508b83600181518110612d1757612d1761339f565b6001600160a01b03928316602091820292909201015260015460405163095ea7b360e01b81528683169263095ea7b392612d58929116908590600401613252565b6020604051808303816000875af1158015612d77573d6000803e3d6000fd5b505050506040513d601f19601f82011682018060405250810190612d9b919061326b565b506001546000906001600160a01b03166338ed173983838730612dc04261012c613596565b6040518663ffffffff1660e01b8152600401612de0959493929190613804565b6000604051808303816000875af1158015612dff573d6000803e3d6000fd5b505050506040513d6000823e601f3d908101601f19168201604052612e279190810190613840565b90508060018251612e3891906137ed565b81518110612e4857612e4861339f565b6020026020010151985050505050505050505b949350505050565b6001600160a01b0381168114612e7857600080fd5b50565b600060208284031215612e8d57600080fd5b8135612e9881612e63565b9392505050565b60008083601f840112612eb157600080fd5b5081356001600160401b03811115612ec857600080fd5b6020830191508360208260051b8501011115610b4957600080fd5b60008083601f840112612ef557600080fd5b5081356001600160401b03811115612f0c57600080fd5b602083019150836020828501011115610b4957600080fd5b600080600080600080600080600060a08a8c031215612f4257600080fd5b89356001600160401b0380821115612f5957600080fd5b612f658d838e01612e9f565b909b50995060208c0135915080821115612f7e57600080fd5b612f8a8d838e01612e9f565b909950975060408c0135915080821115612fa357600080fd5b612faf8d838e01612e9f565b909750955060608c01359150612fc482612e63565b90935060808b01359080821115612fda57600080fd5b50612fe78c828d01612ee3565b915080935050809150509295985092959850929598565b6000806020838503121561301157600080fd5b82356001600160401b0381111561302757600080fd5b61303385828601612ee3565b90969095509350505050565b60005b8381101561305a578181015183820152602001613042565b8381111561156e5750506000910152565b602081526000825180602084015261308a81604085016020870161303f565b601f01601f19169190910160400192915050565b8015158114612e7857600080fd5b6000602082840312156130be57600080fd5b8135612e988161309e565b600081518084526020808501945080840160005b838110156131025781516001600160a01b0316875295820195908201906001016130dd565b509495945050505050565b60608152600061312060608301866130c9565b60208382038185015261313382876130c9565b8481036040860152855180825282870193509082019060005b818110156131685784518352938301939183019160010161314c565b509098975050505050505050565b6000806000806000806000806080898b03121561319257600080fd5b88356001600160401b03808211156131a957600080fd5b6131b58c838d01612e9f565b909a50985060208b01359150808211156131ce57600080fd5b6131da8c838d01612e9f565b909850965060408b01359150808211156131f357600080fd5b6131ff8c838d01612e9f565b909650945060608b013591508082111561321857600080fd5b506132258b828c01612ee3565b999c989b5096995094979396929594505050565b60006020828403121561324b57600080fd5b5051919050565b6001600160a01b03929092168252602082015260400190565b60006020828403121561327d57600080fd5b8151612e988161309e565b60208152816020820152818360408301376000818301604090810191909152601f909201601f19160101919050565b634e487b7160e01b600052604160045260246000fd5b604051601f8201601f191681016001600160401b03811182821017156132f5576132f56132b7565b604052919050565b60006001600160401b03821115613316576133166132b7565b50601f01601f191660200190565b60006020828403121561333657600080fd5b81516001600160401b0381111561334c57600080fd5b8201601f8101841361335d57600080fd5b805161337061336b826132fd565b6132cd565b81815285602083850101111561338557600080fd5b61339682602083016020860161303f565b95945050505050565b634e487b7160e01b600052603260045260246000fd5b6000602082840312156133c757600080fd5b8151612e9881612e63565b60006001600160401b038211156133eb576133eb6132b7565b5060051b60200190565b600082601f83011261340657600080fd5b8151602061341661336b836133d2565b82815260059290921b8401810191818101908684111561343557600080fd5b8286015b8481101561345957805161344c81612e63565b8352918301918301613439565b509695505050505050565b600082601f83011261347557600080fd5b8151602061348561336b836133d2565b82815260059290921b840181019181810190868411156134a457600080fd5b8286015b8481101561345957805183529183019183016134a8565b6000806000606084860312156134d457600080fd5b83516001600160401b03808211156134eb57600080fd5b6134f7878388016133f5565b9450602086015191508082111561350d57600080fd5b613519878388016133f5565b9350604086015191508082111561352f57600080fd5b5061353c86828701613464565b9150509250925092565b6000806040838503121561355957600080fd5b825161356481612e63565b602084015190925061357581612e63565b809150509250929050565b634e487b7160e01b600052601160045260246000fd5b600082198211156135a9576135a9613580565b500190565b600082601f8301126135bf57600080fd5b81356135cd61336b826132fd565b8181528460208386010111156135e257600080fd5b816020850160208301376000918101602001919091529392505050565b60008060006060848603121561361457600080fd5b833561361f81612e63565b9250602084013561362f81612e63565b915060408401356001600160401b0381111561364a57600080fd5b61353c868287016135ae565b60006020828403121561366857600080fd5b81356001600160401b0381111561367e57600080fd5b612e5b848285016135ae565b600082601f83011261369b57600080fd5b813560206136ab61336b836133d2565b82815260059290921b840181019181810190868411156136ca57600080fd5b8286015b848110156134595780356136e181612e63565b83529183019183016136ce565b6000806000806080858703121561370457600080fd5b84356001600160401b038082111561371b57600080fd5b6137278883890161368a565b955060209150818701358181111561373e57600080fd5b61374a89828a0161368a565b95505060408701358181111561375f57600080fd5b8701601f8101891361377057600080fd5b803561377e61336b826133d2565b81815260059190911b8201840190848101908b83111561379d57600080fd5b928501925b828410156137bb578335825292850192908501906137a2565b965050505060608701359150808211156137d457600080fd5b506137e1878288016135ae565b91505092959194509250565b6000828210156137ff576137ff613580565b500390565b85815284602082015260a06040820152600061382360a08301866130c9565b6001600160a01b0394909416606083015250608001529392505050565b60006020828403121561385257600080fd5b81516001600160401b0381111561386857600080fd5b612e5b84828501613464565b600060001982141561388857613888613580565b5060010190565b60008161389e5761389e613580565b506000190190565b6000826138c357634e487b7160e01b600052601260045260246000fd5b50049056fea2646970667358221220909016a5748fd226d9fa5721003b47d1da9eaaaf5abeb24941318a62042acb5e64736f6c634300080a0033",
  "linkReferences": {},
  "deployedLinkReferences": {}
}