{
  "_format": "hh-sol-artifact-1",
  "contractName": "MockPair",
  "sourceName": "contracts/mocks/MockPair.sol",
  "abi": [
    {
      "inputs": [
        {
          "internalType": "address",
          "name": "_token0",
          "type": "address"
        },
        {
          "internalType": "address",
          "name": "_token1",
          "type": "address"
        }
      ],
      "stateMutability": "nonpayable",
      "type": "constructor"
    },
    {
      "inputs": [],
      "name": "getReserves",
      "outputs": [
        {
          "internalType": "uint112",
          "name": "_reserve0",
          "type": "uint112"
        },
        {
          "internalType": "uint112",
          "name": "_reserve1",
          "type": "uint112"
        },
        {
          "internalType": "uint32",
          "name": "_blockTimestampLast",
          "type": "uint32"
        }
      ],
      "stateMutability": "view",
      "type": "function"
    },
    {
      "inputs": [
        {
          "internalType": "uint112",
          "name": "_reserve0",
          "type": "uint112"
        },
        {
          "internalType": "uint112",
          "name": "_reserve1",
          "type": "uint112"
        }
      ],
      "name": "setReserves",
      "outputs": [],
      "stateMutability": "nonpayable",
      "type": "function"
    },
    {
      "inputs": [
        {
          "internalType": "uint256",
          "name": "amount0Out",
          "type": "uint256"
        },
        {
          "internalType": "uint256",
          "name": "amount1Out",
          "type": "uint256"
        },
        {
          "internalType": "address",
          "name": "to",
          "type": "address"
        },
        {
          "internalType": "bytes",
          "name": "data",
          "type": "bytes"
        }
      ],
      "name": "swap",
      "outputs": [],
      "stateMutability": "nonpayable",
      "type": "function"
    },
    {
      "inputs": [],
      "name": "token0",
      "outputs": [
        {
          "internalType": "address",
          "name": "",
          "type": "address"
        }
      ],
      "stateMutability": "view",
      "type": "function"
    },
    {
      "inputs": [],
      "name": "token1",
      "outputs": [
        {
          "internalType": "address",
          "name": "",
          "type": "address"
        }
      ],
      "stateMutability": "view",
      "type": "function"
    }
  ],
  "bytecode": "0x608060405234801561001057600080fd5b5060405161065a38038061065a83398101604081905261002f916101c7565b6001600160a01b03821661008a5760405162461bcd60e51b815260206004820152601660248201527f4d6f636b506169723a205a45524f5f414444524553530000000000000000000060448201526064015b60405180910390fd5b6001600160a01b0381166100e05760405162461bcd60e51b815260206004820152601660248201527f4d6f636b506169723a205a45524f5f41444452455353000000000000000000006044820152606401610081565b806001600160a01b0316826001600160a01b031614156101425760405162461bcd60e51b815260206004820152601d60248201527f4d6f636b506169723a204944454e544943414c5f4144445245535345530000006044820152606401610081565b806001600160a01b0316826001600160a01b031610610162578082610165565b81815b600180546001600160a01b039283166001600160a01b03199182161790915560008054939092169216919091179055505063ffffffff4216600160e01b026002556101fa565b80516001600160a01b03811681146101c257600080fd5b919050565b600080604083850312156101da57600080fd5b6101e3836101ab565b91506101f1602084016101ab565b90509250929050565b610451806102096000396000f3fe608060405234801561001057600080fd5b50600436106100575760003560e01c8063022c0d9f1461005c5780630902f1ac146100715780630dfe1681146100b157806375ea5f2e146100dc578063d21220a714610132575b600080fd5b61006f61006a366004610305565b610145565b005b600254604080516001600160701b038084168252600160701b8404166020820152600160e01b90920463ffffffff16908201526060015b60405180910390f35b6000546100c4906001600160a01b031681565b6040516001600160a01b0390911681526020016100a8565b61006f6100ea3660046103c3565b6002805463ffffffff4216600160e01b026001600160e01b036001600160701b03948516600160701b026001600160e01b031990931694909516939093171792909216179055565b6001546100c4906001600160a01b031681565b60008511806101545750600084115b6101b15760405162461bcd60e51b8152602060048201526024808201527f4d6f636b506169723a20494e53554646494349454e545f4f55545055545f414d60448201526313d5539560e21b60648201526084015b60405180910390fd5b8415610251576002546001600160701b03168511156102125760405162461bcd60e51b815260206004820181905260248201527f4d6f636b506169723a20494e53554646494349454e545f4c495155494449545960448201526064016101a8565b6002546102299086906001600160701b03166103f6565b600280546dffffffffffffffffffffffffffff19166001600160701b03929092169190911790555b83156102fe57600254600160701b90046001600160701b03168411156102b95760405162461bcd60e51b815260206004820181905260248201527f4d6f636b506169723a20494e53554646494349454e545f4c495155494449545960448201526064016101a8565b6002546102d7908590600160701b90046001600160701b03166103f6565b6002600e6101000a8154816001600160701b0302191690836001600160701b031602179055505b5050505050565b60008060008060006080868803121561031d57600080fd5b853594506020860135935060408601356001600160a01b038116811461034257600080fd5b9250606086013567ffffffffffffffff8082111561035f57600080fd5b818801915088601f83011261037357600080fd5b81358181111561038257600080fd5b89602082850101111561039457600080fd5b9699959850939650602001949392505050565b80356001600160701b03811681146103be57600080fd5b919050565b600080604083850312156103d657600080fd5b6103df836103a7565b91506103ed602084016103a7565b90509250929050565b60008282101561041657634e487b7160e01b600052601160045260246000fd5b50039056fea264697066735822122009f6e5314906f8248d791c49d250fd56b44202c85de91f9ff4f5ceb28086294f64736f6c634300080a0033",
  "linkReferences": {},
  "deployedLinkReferences": {}
}