{
  "_format": "hh-sol-artifact-1",
  "contractName": "Upgradeable",
  "sourceName": "contracts/utils/Upgradeable.sol",
  "abi": [
    {
      "anonymous": false,
      "inputs": [
        {
          "indexed": true,
          "internalType": "address",
          "name": "previousOwner",
          "type": "address"
        },
        {
          "indexed": true,
          "internalType": "address",
          "name": "newOwner",
          "type": "address"
        }
      ],
      "name": "OwnershipTransferred",
      "type": "event"
    },
    {
      "anonymous": false,
      "inputs": [
        {
          "indexed": true,
          "internalType": "address",
          "name": "implementation",
          "type": "address"
        }
      ],
      "name": "Upgraded",
      "type": "event"
    },
    {
      "inputs": [],
      "name": "implementation",
      "outputs": [
        {
          "internalType": "address",
          "name": "",
          "type": "address"
        }
      ],
      "stateMutability": "view",
      "type": "function"
    },
    {
      "inputs": [],
      "name": "isInitialized",
      "outputs": [
        {
          "internalType": "bool",
          "name": "",
          "type": "bool"
        }
      ],
      "stateMutability": "view",
      "type": "function"
    },
    {
      "inputs": [],
      "name": "owner",
      "outputs": [
        {
          "internalType": "address",
          "name": "",
          "type": "address"
        }
      ],
      "stateMutability": "view",
      "type": "function"
    },
    {
      "inputs": [],
      "name": "renounceOwnership",
      "outputs": [],
      "stateMutability": "nonpayable",
      "type": "function"
    },
    {
      "inputs": [
        {
          "internalType": "address",
          "name": "newOwner",
          "type": "address"
        }
      ],
      "name": "transferOwnership",
      "outputs": [],
      "stateMutability": "nonpayable",
      "type": "function"
    },
    {
      "inputs": [
        {
          "internalType": "address",
          "name": "newImplementation",
          "type": "address"
        }
      ],
      "name": "upgradeTo",
      "outputs": [],
      "stateMutability": "nonpayable",
      "type": "function"
    }
  ],
  "bytecode": "0x608060405234801561001057600080fd5b5061001a3361001f565b61006f565b600080546001600160a01b038381166001600160a01b0319831681178455604051919092169283917f8be0079c531659141344cd1fd0a4f28419497f9722a3daafe3b4186f6b6457e09190a35050565b6104178061007e6000396000f3fe608060405234801561001057600080fd5b50600436106100625760003560e01c80633659cfe614610067578063392e53cd1461007c5780635c60da1b1461009e578063715018a6146100c35780638da5cb5b146100cb578063f2fde38b146100dc575b600080fd5b61007a61007536600461037c565b6100ef565b005b600154600160a01b900460ff1660405190151581526020015b60405180910390f35b6001546001600160a01b03165b6040516001600160a01b039091168152602001610095565b61007a61025b565b6000546001600160a01b03166100ab565b61007a6100ea36600461037c565b610291565b6000546001600160a01b031633146101225760405162461bcd60e51b8152600401610119906103ac565b60405180910390fd5b6001600160a01b0381166101945760405162461bcd60e51b815260206004820152603360248201527f5570677261646561626c653a206e657720696d706c656d656e746174696f6e20604482015272697320746865207a65726f206164647265737360681b6064820152608401610119565b6001546001600160a01b03828116911614156102115760405162461bcd60e51b815260206004820152603660248201527f5570677261646561626c653a206e657720696d706c656d656e746174696f6e206044820152751a5cc81d1a19481cd85b5948185cc818dd5c9c995b9d60521b6064820152608401610119565b600180546001600160a01b0319166001600160a01b0383169081179091556040517fbc7cd75a20ee27fd9adebab32041f755214dbc6bffa90cc0225b39da2e5c2d3b90600090a250565b6000546001600160a01b031633146102855760405162461bcd60e51b8152600401610119906103ac565b61028f600061032c565b565b6000546001600160a01b031633146102bb5760405162461bcd60e51b8152600401610119906103ac565b6001600160a01b0381166103205760405162461bcd60e51b815260206004820152602660248201527f4f776e61626c653a206e6577206f776e657220697320746865207a65726f206160448201526564647265737360d01b6064820152608401610119565b6103298161032c565b50565b600080546001600160a01b038381166001600160a01b0319831681178455604051919092169283917f8be0079c531659141344cd1fd0a4f28419497f9722a3daafe3b4186f6b6457e09190a35050565b60006020828403121561038e57600080fd5b81356001600160a01b03811681146103a557600080fd5b9392505050565b6020808252818101527f4f776e61626c653a2063616c6c6572206973206e6f7420746865206f776e657260408201526060019056fea26469706673582212209da48bb707e68ed5440c3cd944852a10d02533f006a4846c8461eb475a28f30a64736f6c634300080a0033",
  "linkReferences": {},
  "deployedLinkReferences": {}
}